:020000040000FA
:100000000C94E4010C9415020C9415020C94150246
:100010000C9415020C9415020C9415020C94150204
:100020000C9415020C9415020C9415020C941502F4
:100030000C9415020C9415020C9415020C941502E4
:100040000C9415020C9415020C9415020C941502D4
:100050000C9415020C9415020C9415020C949C112E
:100060000C9415020C9466110C943C110C9415021E
:100070000C9415020C9415020C9415020C941502A4
:100080000C9415020C9415020C9415020C94150294
:100090000C9415020C9415020C9415020C94150284
:1000A0000C9415020C9415020C9415020C94150274
:1000B0000C9415020C9415020C9415020C94150264
:1000C0000C9415020C9415020C9415020C94150254
:1000D0000C9415020C9415020C9415020C94150244
:1000E0000C9415020C94E7020C94ED030C941F037E
:1000F0000C9400040C94DB030C94DE0D0C94E103CF
:100100000C946C030C94B9070C9409090C94160414
:100110000C94E6110C940E040C9489020C94F003D8
:100120000C94C10F0C94080A0C94530C0C94080402
:100130000C9420040C94F6030C94C5020C94E50373
:100140000C9407060C9412040C941B040C941C04CD
:100150000C94E70A0C940B0A0C9421060C94FA03F5
:100160000C94D9020C9404040C94B6020C94E90388
:100170004E414E494E495459494E46CDCCCC3D0A8C
:10018000D7233C17B7D13877CC2B329595E6241F6F
:10019000B14F0A000020410000C84200401C462028
:1001A000BCBE4CCA1B0E5AAEC59D7400407A10F3FB
:1001B0005A00A0724E18090010A5D4E80000E87695
:1001C00048170000E40B54020000CA9A3B000000EC
:1001D000E1F505000080969800000040420F000005
:1001E00000A08601000000102700000000E80300C6
:1001F0000000006400000000000A00000000000190
:1002000000000000002C76D888DC674F0823DFC18F
:10021000DFAE59E1B1B796E5E3E453C63AE651994A
:100220007696E8E6C28426EB898C9B62ED407C6F73
:10023000FCEFBC9C9F40F2BAA56FA5F490055A2A2A
:10024000F75C936B6CF9676DC11BFCE0E40D47FE36
:10025000F520E6B500D0ED902E030094357705002B
:1002600080841E080000204E0A000000C80C3333B2
:1002700033330F986E12831141EF8D2114893BE6C1
:100280005516CFFEE6DB18D1844B381BF77C1D904A
:100290001DA4BBE424203284725E228100C9F124B3
:1002A000ECA1E53D2700002100240027002A002DB5
:1002B000003000330001010000040107010A0100C1
:1002C000002200250028002B002E003100340002FF
:1002D000010000050108010B010000200023002699
:1002E0000029002C002F003200000100000301064D
:1002F00001090105050505070508080808020202AD
:10030000020A0A08080404040401010101010101B0
:10031000010303030303030303040707070C0C0C87
:100320000C0C0C0C0C02020202060606060606065F
:10033000060B0B0B0B0B0B0B0B01021020200808FC
:100340001020401020408002010201080402010137
:100350000204081020408080402010080402018020
:100360000402018040201008040201080402010177
:100370000204081020408001020408102040800080
:10038000000A0B02090C0D0E08070304010000000F
:10039000000000000000000000000000000000005D
:1003A000000000000000000000000012111000001A
:1003B000000000000000000000000000000000003D
:1003C000000000000000E61111241FBECFEFD1E2B3
:1003D000DEBFCDBF00E00CBF2BE0ACEAB7E001C050
:1003E0001D92AA34B207E1F717E0A0E0B2E0EAEB11
:1003F000F9E300E00BBF02C007900D92AC3AB107E1
:10040000D9F711E0C4EED1E000E006C02197010960
:10041000802FFE010E94BD1AC33ED10780E008076D
:10042000A9F70E9461120C94DB1C0C940000AC0133
:1004300010928D089091DD0A8091DC0AFA01BF01CB
:10044000641B750B20918D08308130938D089313B8
:1004500004C0921302C010928D083081311104C083
:10046000921721F0CB0108953817D1F33196E7CFD9
:100470000F931F93CF93DF938091D10A882309F4C0
:1004800046C0D0E0C0E0813029F482E08093D10AF8
:10049000C1E9D8E08091D20A882341F1209721F464
:1004A000C091D60AD091D70A8E01CE010E941702C0
:1004B000892B29F42196F80180818111F5CFF8016B
:1004C0008081882309F1C8010E941702F801E80F12
:1004D000F91F8081882311F010823196F093D70A9A
:1004E000E093D60A1093D50A0093D40A8091D40AD7
:1004F0009091D50A892B59F081E08093D20ADF913F
:10050000CF911F910F91089510E000E0EBCF80E0B4
:10051000F6CFAF92BF92CF92DF92EF92FF920F93FE
:100520001F93CF93DF936C017B018B01040F151F89
:10053000EB015E01AE18BF08C017D10759F06991F1
:10054000D601ED91FC910190F081E02DC601199545
:10055000892B79F7C501DF91CF911F910F91FF9002
:10056000EF90DF90CF90BF90AF900895FC01538D36
:10057000448D252F30E0842F90E0821B930B54177D
:1005800010F0CF96089501970895FC01918D828D0A
:10059000981761F0A28DAE0FBF2FB11D5D968C91A3
:1005A000928D9F5F9F73928F90E008958FEF9FEFE2
:1005B0000895FC01918D828D981731F0828DE80F9E
:1005C000F11D858D90E008958FEF9FEF0895FC0158
:1005D000918D228D892F90E0805C9F4F821B910925
:1005E0008F73992708958BEE97E00E94E70221E030
:1005F000892B09F420E0822F0895FC01A48DA80F17
:10060000B92FB11DA35ABF4F2C91848D90E0019654
:100610008F739927848FA689B7892C93A089B18974
:100620008C91837080648C93938D848D981306C015
:100630000288F389E02D80818F7D80830895EF9279
:10064000FF920F931F93CF93DF93EC0181E0888F8C
:100650009B8D8C8D98131AC0E889F989808185FF5C
:1006600015C09FB7F894EE89FF896083E889F989FE
:1006700080818370806480839FBF81E090E0DF9100
:10068000CF911F910F91FF90EF900895F62E0B8D53
:1006900010E00F5F1F4F0F731127E02E8C8D8E110E
:1006A0000CC00FB607FCFACFE889F989808185FF75
:1006B000F5CFCE010E94FD02F1CFEB8DEC0FFD2FA7
:1006C000F11DE35AFF4FF0829FB7F8940B8FEA8930
:1006D000FB8980818062CFCFCF93DF93EC01888D3F
:1006E0008823B9F0AA89BB89E889F9898C9185FDAD
:1006F00003C0808186FD0DC00FB607FCF7CF8C913B
:1007000085FFF2CF808185FFEDCFCE010E94FD02F3
:10071000E9CFDF91CF91089580E090E0892B29F017
:100720000E94F30281110E94000080E090E0892B7A
:1007300049F080E090E0892B29F00E9400008111AF
:100740000E94000080E090E0892B49F080E090E07A
:10075000892B29F00E94000081110E94000080E096
:1007600090E0892B49F080E090E0892B29F00E94ED
:10077000000081110C94000008958150823108F02E
:100780005AC0E82FF0E08827E753FC4F8F4F0C94B6
:10079000BD1AE903ED03DB03E103E5031B04F003EA
:1007A000F603FA030004040408040E0412041B04F4
:1007B00016041C042004809180008F7780938000B1
:1007C0000895809180008F7DF9CF80918000877F90
:1007D000F5CF84B58F7784BD089584B58F7DFBCF29
:1007E0008091B0008F778093B00008958091B00021
:1007F0008F7DF9CF809190008F778093900008953E
:10080000809190008F7DF9CF80919000877FF5CF08
:100810008091A0008F778093A00008958091A00020
:100820008F7DF9CF8091A000877FF5CF8091200147
:100830008F77809320010895809120018F7DF9CFDB
:1008400080912001877FF5CFCF93DF93282F30E071
:10085000F901E158FC4F8491F901E75CFC4FD49118
:10086000F901ED50FD4FC491CC23A1F081110E94FC
:10087000BD03EC2FF0E0EE0FFF1FE752FD4FA591F7
:10088000B491EC91ED2381E090E009F480E0DF91F8
:10089000CF91089580E090E0FACF1F93CF93DF933C
:1008A000282F30E0F901E158FC4F8491F901E75C11
:1008B000FC4FD491F901ED50FD4FC491CC23A9F028
:1008C000162F81110E94BD03EC2FF0E0EE0FFF1FE9
:1008D000E154FD4FA591B4918FB7F894EC911111AB
:1008E00008C0D095DE23DC938FBFDF91CF911F919D
:1008F0000895DE2BF8CFCF93DF9390E0FC01E75C07
:10090000FC4F24918D509D4FFC0184918823C9F0A8
:1009100090E0880F991FFC01EB55FD4FA591B49114
:10092000FC01E154FD4FC591D49161110DC09FB7F9
:10093000F8948C91209582238C9388812823288396
:100940009FBFDF91CF910895623051F49FB7F89423
:100950003C91822F809583238C93E8812E2BEFCFBF
:100960008FB7F894EC912E2B2C938FBFEACF3FB723
:10097000F8948091E1079091E207A091E307B0918C
:10098000E40726B5A89B05C02F3F19F00196A11DCD
:10099000B11D3FBFBA2FA92F982F8827BC01CD01C9
:1009A000620F711D811D911D42E0660F771F881F28
:1009B000991F4A95D1F708958F929F92AF92BF9257
:1009C000CF92DF92EF92FF926B017C010E94B704FD
:1009D0004B015C01C114D104E104F104B9F00E949F
:1009E000B704681979098A099B09683E7340810533
:1009F000910580F321E0C21AD108E108F10888EEE0
:100A0000880E83E0981EA11CB11CE4CFFF90EF90EC
:100A1000DF90CF90BF90AF909F908F900895CF922E
:100A2000DF92EF92FF92CF93DF939C0180917B0046
:100A3000886080937B009AEC960F977090649093F7
:100A40007C0080917A00806480937A0080917A00A3
:100A500086FDFCCFC0917800D0917900B901330FA9
:100A6000880B990B0E94ED1520E030E040EA50E43D
:100A70000E944C1620E030EC4FE754E40E94F51938
:100A80006B017C01BE01DD0F880B990B0E94ED15F7
:100A90009B01AC01C701B6010E944C16DF91CF91BA
:100AA000FF90EF90DF90CF90089530E020E0FC01C0
:100AB00011921192CF012F5F3F4F62177307B9F761
:100AC0000895FA01EE0FFF1FE60FF71F181619061B
:100AD00044F49C0121703327329322939595879596
:100AE000F5CF0895FC0101900020E9F73197AF019F
:100AF000481B590BBC018BEE97E00C94890280E4F3
:100B000092E00C947205CF93DF93FC0144815581F0
:100B1000608171818BEE97E00E948902EC010E9456
:100B20007F058C0F9D1FDF91CF9108958F929F922B
:100B3000AF92BF920F931F93CF93DF93CDB7DEB7E2
:100B4000A1970FB6F894DEBF0FBECDBF19A24230F9
:100B500008F44AE08E010F5D1F4F842E912CB12CBA
:100B6000A12CA50194010E949B1AE62FB901CA018C
:100B7000EA30F4F4E05DD801EE938D01232B242BB1
:100B8000252B79F790E080E0109719F0CD010E94B5
:100B90007205A1960FB6F894DEBF0FBECDBFDF91F0
:100BA000CF911F910F91BF90AF909F908F9008951C
:100BB000E95CE1CFCF92DF92EF92FF92CF93DF9388
:100BC0006B017C016DE28BEE97E00E941F03EC014C
:100BD00066277727CB016C197D098E099F094AE0AA
:100BE0000E9496058C0F9D1FDF91CF91FF90EF9093
:100BF000DF90CF900895CF93DF930E947205EC01B0
:100C00000E947F058C0F9D1FDF91CF91089583E493
:100C100092E00C94FB050C9472050E943802882324
:100C200059F081E08093D20A8093D30A8091D40A4C
:100C30009091D50A0C943E151092D30A90E080E072
:100C40000895CF93DF930E940D06EC019093DD078A
:100C50008093DC078CE293E00E940B06BE01DD0F5F
:100C6000880B990B97FF08C00E94DA0583E195E095
:100C7000DF91CF910C94FB054AE00E949605F6CFD8
:100C80000F931F93CF93DF938C018FE493E00E9427
:100C90000B06E801005F1F4F69917991072E000C48
:100CA000880B990B97FF0DC00E94DA05C017D1077A
:100CB00099F781E593E0DF91CF911F910F910C940B
:100CC0000B064AE00E949605F1CF0E943802882365
:100CD00059F081E08093D20A8093D30A8091D40A9C
:100CE0009091D50A0C945C151092D30A60E070E0E4
:100CF000CB0108950F931F93CF93DF93EC0188816D
:100D00009981009759F02A813B812617370730F0E7
:100D100081E0DF91CF911F910F9108958B016F5F5B
:100D20007F4F0E94EA1B009759F0998388831B83A9
:100D30000A832C813D81232B59F7FC011082E8CFD7
:100D400080E0E7CFEF92FF920F931F93CF93DF9353
:100D50006115710541F480E0DF91CF911F910F91F2
:100D6000FF90EF90089541155105B1F07B01EC0122
:100D70000C811D81040F151FB8010E947A0688237B
:100D800051F3288139818C819D81B701820F931F96
:100D90000E94D41C1D830C8381E0DECFCF93DF93B0
:100DA000EC0188819981009711F00E94611B1982E2
:100DB00018821D821C821B821A82DF91CF910895B6
:100DC000CF93DF93EC01FB0101900020E9F731970D
:100DD000AF01461B570B0E94A206811103C0CE0132
:100DE0000E94CE06CE01DF91CF910895CF93DF937D
:100DF000EC01FB0144815581608171810E94A20652
:100E0000811103C0CE010E94CE06CE01DF91CF91A9
:100E10000895EF92FF920F931F93CF93DF93EC010E
:100E20007B018A01BA010E947A0681110BC0CE01B2
:100E30000E94CE06CE01DF91CF911F910F91FF90BE
:100E4000EF9008951D830C83B701888199810E94DA
:100E5000D41CF0CFEF92FF920F931F93CF93DF93A9
:100E6000CDB7DEB7A1970FB6F894DEBF0FBECDBFEA
:100E70007C01CB01BA01F701118210821382128228
:100E8000158214828E010F5F1F4F22E044E00E9402
:100E9000BE130097C9F0FC0101900020E9F73197DB
:100EA000AF01481B590BBC01C7010E940907A1965D
:100EB0000FB6F894DEBF0FBECDBFDF91CF911F916B
:100EC0000F91FF90EF900895C7010E94CE06EFCFDB
:100ED000EF92FF920F931F93CF93DF93CDB7DEB7BF
:100EE00062970FB6F894DEBF0FBECDBF8C01CB0169
:100EF000F8011182108213821282158214824AE054
:100F00009E012F5F3F4F7901B9010E94A415F7019F
:100F100001900020E9F73197AF014E195F09B70141
:100F2000C8010E94090762960FB6F894DEBF0FBE93
:100F3000CDBFDF91CF911F910F91FF90EF9008955A
:100F4000FC01118210821382128215821482FB012D
:100F500001900020E9F73197AF01461B570B0C9425
:100F60000907FC0180819181009711F00C94611BAD
:100F70000895CF93DF93CDB7DEB72C970FB6F894D3
:100F8000DEBF0FBECDBF6091DC077091DD07CE01E3
:100F900007960E94680764E573E0CE0101960E94FF
:100FA000A007BE01695F7F4FCE0101960E94F60641
:100FB00063E673E00E94E0060E948305CE0101967D
:100FC0000E94B107CE0107960E94B1072C960FB67A
:100FD000F894DEBF0FBECDBFDF91CF9108956F9221
:100FE0007F928F929F92AF92BF92CF92DF92EF92B9
:100FF000FF920F931F93CF93DF93CDB7DEB73C01E2
:101000008B014A01ADB6BEB67B01EE0CFF1C8DB75D
:101010009EB78E199F090FB6F8949EBF0FBE8DBF65
:10102000EDB7FEB731966F01CF010E945505A801BB
:10103000B601C4010E946105EC0CFD1C8301F2E0C5
:10104000EF1AF108F80180810E5F1F4FF7016081F0
:101050000E944D04EC14FD0491F70FB6F894BEBE47
:101060000FBEADBEDF91CF911F910F91FF90EF901A
:10107000DF90CF90BF90AF909F908F907F906F90B8
:101080000895CF92DF92EF92FF920F931F93CF9329
:10109000DF938C016B017A018CE10E94240401979B
:1010A00061F085E693E0DF91CF911F910F91FF9062
:1010B000EF90DF90CF900C94FB05CEE1D2E08881D9
:1010C000229661E00E947B0482E0CE32D807B9F715
:1010D000A60168E070E08EE192E00E94EF07A701B0
:1010E00064E070E086E192E00E94EF07A80168E00A
:1010F00070E086E092E00E94EF0760E083E30E94E8
:101100004D04C4E6D0E08CE10E942404892B51F008
:101110002197C9F761E083E30E944D0484E893E0DE
:101120000E94FB0561E083E30E944D048DE10E9473
:101130002404019719F08BE993E0B5CFDF91CF91AB
:101140001F910F91FF90EF90DF90CF9008950F9334
:101150001F93CF93DF93CDB7DEB760970FB6F894A8
:10116000DEBF0FBECDBF0091DE071091DF078823E1
:1011700009F44BC000648EEA93E00E94FB050F77F0
:101180008091DE079091DF078017910799F1109306
:10119000DF070093DE078DEE93E00E940B0668E008
:1011A00070E0CE0101960E94550548E050E0BE0176
:1011B0006F5F7F4F8091DE079091DF070E9461058E
:1011C000CE0101960E94400682E094E00E94FB0559
:1011D0004091DC075091DD076091DE077091DF07D9
:1011E00090E080E00E94410865E070E080E090E0DF
:1011F0000E94DC0460960FB6F894DEBF0FBECDBF30
:10120000DF91CF911F910F9108950F7B8DEC93E0AB
:10121000B4CFCF92DF92EF92FF92CF93DF93CDB70F
:10122000DEB72C970FB6F894DEBF0FBECDBF81E0BE
:101230000E94A70863E470E08091E9079091EA07B3
:101240000E940F056B017C0180E00E94A708B70196
:10125000A601CE0107960E942A0767E074E0CE013E
:1012600001960E94A007BE01695F7F4FCE010196E3
:101270000E94F60663E673E00E94E0060E94830582
:10128000CE0101960E94B107CE0107960E94B107D8
:101290002C960FB6F894DEBF0FBECDBFDF91CF9175
:1012A000FF90EF90DF90CF9008952091DA07309172
:1012B000DB07B9016F73772781309105B9F00C977F
:1012C000B9F062177307B1F07093DB076093DA0728
:1012D0004091DC075091DD0789E090E00E944108D1
:1012E00065E070E080E090E00C94DC046064E9CF9D
:1012F0006068E7CF0895CF92DF92EF92FF920F934D
:101300001F93CF93DF93CDB7DEB760970FB6F894F6
:10131000DEBF0FBECDBF182F882309F46EC08BE14E
:1013200094E00E94FB0595E0E92EF12CC090D807CF
:10133000D090D907112309F468C086010F7B0160A2
:1013400084E594E00E94FB058AE794E00E940B0686
:1013500068E070E0CE0101960E94550548E050E03B
:10136000BE016F5F7F4FC6010E946105CE010196ED
:101370000E94400689E994E00E940B0668E070E054
:10138000CE0101960E94550548E050E0BE016F5F16
:101390007F4FC8010E946105CE0101960E94400660
:1013A0008AEB94E00E94FB058091D8079091D907C1
:1013B0008017910799F01093D9070093D8074091AF
:1013C000DC075091DD07B80185E090E00E944108FC
:1013D000B701FF0C880B990B0E94DC0460960FB6D6
:1013E000F894DEBF0FBECDBFDF91CF911F910F915B
:1013F000FF90EF90DF90CF90089586E394E00E94F5
:10140000FB05EE24E394F12C91CF86010E7F98CF5B
:1014100080E00C947B098F929F92AF92BF92CF9203
:10142000DF92EF92FF920F931F93CF93DF93CDB78D
:10143000DEB72C970FB6F894DEBF0FBECDBF0E946B
:1014400065066B018B010150110900311105C0F1D6
:101450008FEB94E00E94FB05B501A401CE01079635
:101460000E942A0761EE74E0CE0101960E94A00757
:10147000BE01695F7F4FCE0101960E94F60663E6CA
:1014800073E00E94E0060E948305CE0101960E944F
:10149000B107CE0107960E94B1072C960FB6F894BB
:1014A000DEBF0FBECDBFDF91CF911F910F91FF9097
:1014B000EF90DF90CF90BF90AF909F908F90089566
:1014C00081E090E09093EA078093E9070E94550934
:1014D00089E0C816D1040CF070C008621093DF07D1
:1014E0000093DE074091DC075091DD076091DE0735
:1014F0007091DF0790E080E00E94410865E070E0B5
:1015000080E090E00E94DC0464E470E08091E907F0
:101510009091EA070E940F054B015C0120E030E04A
:1015200040E850E40E94961A181664F583E090E0B3
:101530009093EA078093E9070E94550964E470E0FC
:101540008091E9079091EA070E940F054B015C0129
:1015500020E030E040E251E40E94961A181694F41C
:101560008CE090E09093EA078093E9070E94550988
:1015700064E470E08091E9079091EA070E940F050A
:101580004B015C016091DE077091DF07607877277F
:101590007093DF076093DE074091DC075091DD0711
:1015A00090E080E00E94410881E090E09093EA079B
:1015B0008093E9070E9455094FCF89E0C81AD108E6
:1015C00080E3C82AD092DF07C092DE078BCF4F920C
:1015D0005F926F927F928F929F92AF92BF92CF92C3
:1015E000DF92EF92FF920F931F93CF93DF93CDB7CC
:1015F000DEB766970FB6F894DEBF0FBECDBF28E00A
:10160000422E512C66246394712C0E940D068C018D
:101610000E940D067C01680181E0C81AD10890E1A2
:10162000C916D10408F013C199249394E114F1046C
:1016300009F4912CF601E853F84F5F018081981668
:1016400009F405C1B801CE014196E114F104D9F1C4
:101650000E94680765EF74E0CE0101960E94A00722
:10166000BE016F5E7F4FCE0101960E94F60668E0D4
:1016700075E00E94E0060E948305CE0101960E945B
:10168000B107CE0141960E94B107F5019082A0906A
:10169000B207B090B3078090B0079090B107EF28E1
:1016A00009F0F1C0093011056CF1095011097301FD
:1016B00002C0EE0CFF1C0A95E2F7E094F094E820DB
:1016C000F92085012AC00E94680766E175E0CE0115
:1016D00001960E94A007BE016F5E7F4FCE0101966A
:1016E0000E94F6066CE275E0C4CF830102C0000FD1
:1016F000111FCA94E2F70A291B29740185E0C82E3C
:10170000D12C0EC0830102C0000F111FCA94E2F752
:10171000009510950A211B217401CC24C394D12C6F
:1017200088E395E00E94FB058AE495E00E940B06A1
:1017300068E070E0CE0101960E94550548E050E057
:10174000BE016F5F7F4FC5010E946105CE0101960A
:101750000E94400681E695E00E940B0668E070E07A
:10176000CE0101960E94550548E050E0BE016F5F32
:101770007F4FC8010E946105CE0101960E9440067C
:101780000E947F058AE795E00E940B0668E070E002
:10179000CE0101960E94550548E050E0BE016F5F02
:1017A0007F4FC4010E946105CE0101960E94400650
:1017B00081E995E00E940B0668E070E0CE01019699
:1017C0000E94550548E050E0BE016F5F7F4FC701A2
:1017D0000E946105CE0101960E9440068AEB94E0CA
:1017E0000E94FB058091B2079091B3070817190773
:1017F000A1F01093B3070093B2074091DC0750911A
:10180000DD07B80181E090E00E944108B6010D2C8F
:10181000000C880B990B0E94DC048091B00790911A
:10182000B107E816F90699F0F092B107E092B00717
:101830004091DC075091DD07B70182E090E00E9403
:101840004108B601DD0C880B990B0E94DC04F1E025
:101850004F1A510809F0D9CE66960FB6F894DEBF3C
:101860000FBECDBFDF91CF911F910F91FF90EF90F1
:10187000DF90CF90BF90AF909F908F907F906F90B0
:101880005F904F900895093011050CF42ECF095048
:101890001109730102C0EE0CFF1C0A95E2F7E8285B
:1018A000F92885012BCF4F925F926F927F928F9292
:1018B0009F92AF92BF92CF92DF92EF92FF920F93DF
:1018C0001F93CF93DF93CDB7DEB766970FB6F8942B
:1018D000DEBF0FBECDBF28E0422E512C662463949C
:1018E000712C0E940D068C010E940D067C0168017E
:1018F00081E0C81AD10890E1C916D104D8F1B80125
:10190000CE0101960E9468076AEA75E0CE01419611
:101910000E94A007BE016F5F7F4FCE0141960E94DB
:10192000F6066EE176E00E94E0060E948305CE0195
:1019300041960E94B107CE0101960E94B107F1E0E5
:101940004F1A510871F666960FB6F894DEBF0FBEB7
:10195000CDBFDF91CF911F910F91FF90EF90DF905E
:10196000CF90BF90AF909F908F907F906F905F903F
:101970004F90089599249394E114F10409F4912C63
:10198000F601E854F84F5F0180818915C1F2B80172
:10199000CE010196E114F104D9F10E94680765EFC8
:1019A00074E0CE0141960E94A007BE016F5F7F4F99
:1019B000CE0141960E94F60662E676E00E94E006BD
:1019C0000E948305CE0141960E94B107CE01019687
:1019D0000E94B107F5019082A090AE07B090AF07CA
:1019E0008090AC079090AD07EF2809F0D7C0093080
:1019F00011056CF109501109730102C0EE0CFF1CB6
:101A00000A95E2F7E094F094E820F92085012AC0D5
:101A10000E94680766E175E0CE0141960E94A0072A
:101A2000BE016F5F7F4FCE0141960E94F60663E7CD
:101A300076E0C4CF830102C0000F111FCA94E2F701
:101A40000A291B29740185E0C82ED12C0EC0830100
:101A500002C0000F111FCA94E2F7009510950A21E9
:101A60001B217401CC24C394D12C86E896E00E94FB
:101A7000FB058FE996E00E940B0668E070E0CE015E
:101A800001960E94550548E050E0BE016F5F7F4F10
:101A9000C5010E946105CE0101960E94400686EBB9
:101AA00096E00E940B0668E070E0CE0101960E946D
:101AB000550548E050E0BE016F5F7F4FC8010E94AE
:101AC0006105CE0101960E9440060E947F058FECC1
:101AD00096E00E940B0668E070E0CE0101960E943D
:101AE000550548E050E0BE016F5F7F4FC4010E9482
:101AF0006105CE0101960E94400686EE96E00E94A6
:101B00000B0668E070E0CE0101960E94550548E0A2
:101B100050E0BE016F5F7F4FC7010E946105CE019B
:101B200001960E9440068AEB94E00E94FB0580919A
:101B3000AE079091AF0708171907A1F01093AF07F0
:101B40000093AE074091DC075091DD07B80183E0B8
:101B500090E00E944108B6010D2C000C880B990BF7
:101B60000E94DC048091AC079091AD07E816F9065D
:101B700009F4E5CEF092AD07E092AC074091DC07A6
:101B80005091DD07B70184E090E00E944108B60162
:101B9000DD0C880B990B0E94DC04D1CE09301105B5
:101BA0000CF448CF09501109730102C0EE0CFF1C60
:101BB0000A95E2F7E828F928850145CFAF92BF9250
:101BC000CF92DF92EF92FF920F931F93CF93DF9309
:101BD000CDB7DEB71092DD071092DC07E091FB076E
:101BE000F091FC0782E08083E091F707F091F8071D
:101BF0001082E091F907F091FA0780E1808310925A
:101C00000308E091FF07F091000886E08083E091EF
:101C1000FD07F091FE07808180618083E091FD07E0
:101C2000F091FE07808188608083E091FD07F0914C
:101C3000FE07808180688083E091FD07F091FE07B8
:101C400080818F7D80838FEF96E00E94FB0506E008
:101C500012E0F80180810E5F1F4F61E00E947B045B
:101C6000F2E006311F07A9F761E083E30E947B04DD
:101C700061E084E30E947B0461E085E30E947B04D1
:101C800061E083E30E944D0461E084E30E944D041F
:101C900061E085E30E944D0462E08CE10E947B04D8
:101CA00062E08DE10E947B0460E084E40E947B049A
:101CB00060E083E40E947B0461E085E20E947B0493
:101CC00061E086E20E947B0461E087E20E947B047F
:101CD00061E088E20E947B041092B7071092B60779
:101CE00080E890E09093B5078093B4071092D907ED
:101CF0001092D8071092B3071092B2071092B10752
:101D00001092B0071092AF071092AE071092AD0775
:101D10001092AC071092DF071092DE071092DB07DB
:101D20001092DA074091DC075091DD0770E060E027
:101D300086E090E00E9441084091DC075091DD0769
:101D40006091B4077091B50787E090E00E94410868
:101D50004091DC075091DD076091D8077091D90759
:101D600085E090E00E9441084091DC075091DD073A
:101D70006091DE077091DF0790E080E00E944108EB
:101D80004091DC075091DD076091B2077091B30775
:101D900081E090E00E9441084091DC075091DD070E
:101DA0006091B0077091B10782E090E00E94410815
:101DB0004091DC075091DD076091AE077091AF074D
:101DC00083E090E00E9441084091DC075091DD07DC
:101DD0006091AC077091AD0784E090E00E944108EB
:101DE0004091DC075091DD076091DA077091DB07C5
:101DF00089E090E00E9441080091DC071091DD0726
:101E00008CE10E942404019709F462C085E693E006
:101E10000E94FB0561E070E080E090E00E94DC043D
:101E200087E096E09093DF0A8093DE0A81EC9FE0E2
:101E30009093E50A8093E40A88E09AE09093F30A8D
:101E40008093F20A83E59CE09093E70A8093E60A88
:101E500087EE9AE09093E90A8093E80A8BE09AE093
:101E60009093EB0A8093EA0A89E099E09093ED0A57
:101E70008093EC0A81E296E09093EF0A8093EE0A59
:101E800089EB97E09093F10A8093F00A8EED9DE044
:101E90009093F50A8093F40A81E080939008E8EC2F
:101EA000F7E0A8EBB7E088ED97E011921D928E174E
:101EB0009F07D9F781E197E0DF91CF911F910F91B3
:101EC000FF90EF90DF90CF90BF90AF900C94FB0508
:101ED0009EE1E92E92E0F92E2EE2C22E22E0D22ED1
:101EE0005701F5018081F2E0AF0EB11C60E00E9465
:101EF0007B04CA14DB04A9F7A80164E070E086E162
:101F000092E00E94EF0748E050E068E070E086E071
:101F100092E00E94EF0760E084E30E944D0404E633
:101F200010E08CE10E942404892B59F00150110922
:101F3000C1F761E084E30E944D0484E893E00E94CD
:101F4000FB058EE2C82E82E0D82E82E0C81AD108A6
:101F5000F60180810E942404EC14FD04B1F70FB651
:101F6000F894DEBF0FBECDBF61E084E30E944D0454
:101F70008DE10E942404019709F44CCF8BE993E092
:101F800047CF8F929F92AF92BF92CF92DF92EF9204
:101F9000FF920F931F93CF93DF93CDB7DEB7A29736
:101FA0000FB6F894DEBF0FBECDBF0E9465066B0171
:101FB0000E9465064B0181E00E947B09B401CE01BD
:101FC00047960E946807B601CE0101960E946807F5
:101FD0001A8A198A1C8A1B8A1E8A1D8A69817A813B
:101FE0006115710531F04D815E81CE0141960E94EF
:101FF00009076CE176E0CE0141960E94E006BE0141
:10200000695E7F4F0E94F6061E8E1D8E18A21F8EDF
:102010001AA219A28E01035E1F4F8017910759F073
:10202000FC01608171816115710529F04481558140
:10203000C8010E940907CE0141960E94B107CE0156
:1020400001960E94B107CE0147960E94B1078D8D7F
:102050009E8DC12CD12C7601009721F00E943A155B
:102060006B017C01B701A601CE0101960E942A07EF
:1020700064E277E0CE0141960E94A007BE016F5F47
:102080007F4FCE0141960E94F60663E175E00E9403
:10209000E0060E948305CE0141960E94B107CE0161
:1020A00001960E94B1078090B6079090B707A09064
:1020B000B407B090B50720E030E040E450E4C70139
:1020C000B6010E94F51920E030E040E251E40E94A0
:1020D00089196B017C0120E030E040EA51E40E9464
:1020E000961A87FDA2C08FEF90E09093B707809378
:1020F000B6079093B5078093B407E090B407F090CB
:10210000B507C090B607D090B70786E397E00E9466
:10211000FB0583E597E00E940B0668E070E0CE01C6
:1021200001960E94550548E050E0BE016F5F7F4F69
:10213000C4010E946105CE0101960E94400688E616
:1021400097E00E940B0668E070E0CE0101960E94C5
:10215000550548E050E0BE016F5F7F4FC6010E9409
:102160006105CE0101960E9440060E947F058FE71F
:1021700097E00E940B0668E070E0CE0101960E9495
:10218000550548E050E0BE016F5F7F4FC5010E94DA
:102190006105CE0101960E94400684E997E00E9405
:1021A0000B0668E070E0CE0101960E94550548E0FC
:1021B00050E0BE016F5F7F4FC7010E946105CE01F5
:1021C00001960E9440068AEB94E00E94FB05409134
:1021D000DC075091DD076091B6077091B70786E084
:1021E00090E00E9441084091DC075091DD0760912A
:1021F000B4077091B50787E090E00E944108C801DC
:102200000E94B107A2960FB6F894DEBF0FBECDBFF5
:10221000DF91CF911F910F91FF90EF90DF90CF90C2
:10222000BF90AF909F908F90089520E030E0A9017B
:10223000C701B6010E94E61518164CF01092B707B8
:102240001092B6071092B5071092B40756CF20E04F
:102250003CEC4CE455E4C701B6010E944C160E94C8
:10226000671A9B0133273093B7072093B607709303
:10227000B4071092B50741CF1F920F920FB60F927D
:1022800011240BB60F922F933F934F935F936F934D
:102290007F938F939F93AF93BF93EF93FF938BEEB7
:1022A00097E00E94FD02FF91EF91BF91AF919F9146
:1022B0008F917F916F915F914F913F912F910F90EF
:1022C0000BBE0F900FBE0F901F9018951F920F928C
:1022D0000FB60F9211240BB60F922F938F939F93EB
:1022E000EF93FF93E091FB07F091FC078081E09171
:1022F0000108F091020882FD1DC0908180910408C0
:102300008F5F8F7320910508821741F0E0910408D8
:10231000F0E0E551F84F958F80930408FF91EF911D
:102320009F918F912F910F900BBE0F900FBE0F902A
:102330001F9018958081F2CF1F920F920FB60F92C7
:1023400011242F933F938F939F93AF93BF938091CB
:10235000E5079091E607A091E707B091E807309173
:10236000E00723E0230F2D3758F50196A11DB11D7D
:102370002093E0078093E5079093E607A093E70793
:10238000B093E8078091E1079091E207A091E307FD
:10239000B091E4070196A11DB11D8093E1079093D0
:1023A000E207A093E307B093E407BF91AF919F9139
:1023B0008F913F912F910F900FBE0F901F90189506
:1023C00026E8230F0296A11DB11DD2CF1092EE0771
:1023D0001092ED0788EE93E0A0E0B0E08093EF0765
:1023E0009093F007A093F107B093F20782E392E095
:1023F0009093EC078093EB0785EC90E09093F807BF
:102400008093F70784EC90E09093FA078093F907A4
:1024100080EC90E09093FC078093FB0781EC90E0C8
:102420009093FE078093FD0782EC90E09093000864
:102430008093FF0786EC90E0909302088093010858
:1024400010920408109205081092060810920708CE
:102450001092DF0A1092DE0A8BEE97E09093DA0A70
:102460008093D90A109290088CE28093DC0A8BE367
:102470008093DB0A8FE28093DD0A80E480938B08EF
:102480008FE380938C0810928A081092D50A1092DC
:10249000D40A1092D70A1092D60A81E08093D20A09
:1024A000E0EEFAE0119211928BE0E434F807D1F7F4
:1024B00010928F0883E090E09093EA078093E907F9
:1024C0000895789484B5826084BD84B5816084BDAC
:1024D00085B5826085BD85B5816085BD80916E00C2
:1024E000816080936E0010928100809181008260F3
:1024F0008093810080918100816080938100809130
:1025000080008160809380008091B100846080931E
:10251000B1008091B00081608093B0008091910003
:1025200082608093910080919100816080939100FE
:10253000809190008160809390008091A1008260E2
:102540008093A1008091A10081608093A10080917F
:10255000A00081608093A00080912101826080931F
:1025600021018091210181608093210180912001CE
:1025700081608093200180917A00846080937A004A
:1025800080917A00826080937A0080917A008160E5
:1025900080937A0080917A00806880937A0010920C
:1025A000C1000E94DE0DDD24D39480918F0881113B
:1025B000DBC08091D90A9091DA0ADC01ED91FC919F
:1025C0000084F185E02D1995892B09F4CDC0809107
:1025D000D90A9091DA0ADC01ED91FC910084F18531
:1025E000E02D1995C0E0D2E08115924064F480910D
:1025F000D90A9091DA0ADC01ED91FC910084F18511
:10260000E02D1995EC010091D90A1091DA0A91EDAB
:10261000E92E98E0F92E4701B12CA12CCA15DB0553
:1026200009F056C010E000E0C017D10709F4BDCF93
:10263000D7019D917D011092D10A3091DD0A209140
:102640008E0890938E08931304C0921302C01092C8
:102650008E0880918A08E82FF0E04091DB0AE85765
:10266000F74F94136DC0321709F46AC0118688239E
:1026700021F0D092D10A10928E0810928A081092FE
:10268000D50A1092D40A1092D70A1092D60AD09284
:10269000D20A8091D10A813009F063C00E940D06F0
:1026A00080938908823308F055C02091D30A2223F1
:1026B00009F450C0FC01FF27EE0FFF1FE052F54F59
:1026C0000190F081E02D309709F444C0199549C07C
:1026D0002FB7F8948091E5079091E607A091E7075E
:1026E000B091E8072FBFF80180879187A287B38751
:1026F000D801ED91FC910284F385E02DC801199574
:1027000097FF35C02FB7F8948091E5079091E607C1
:10271000A091E707B091E8072FBFF80140855185E8
:1027200062857385841B950BA60BB70B448155817D
:102730006681778184179507A607B707C8F272CF1D
:1027400091878F5F80938A0890918C08891708F091
:1027500094CF9FCFE091DE0AF091DF0A309709F025
:10276000B5CF0F5F1F4F60CF0E948C031ECFF401C7
:1027700081934F01FFEFAF1ABF0A50CFEF920F9333
:102780001F93CF93DF93E80134E047FD34E1042E3B
:10279000000C550B57FF03C0519541955109E32E8D
:1027A000022F242FAE010E94B916CE01DF91CF91E6
:1027B0001F910F91EF9008958F929F92AF92BF92C9
:1027C000CF92DF92EF92FF920F931F93CF93DF93FD
:1027D0005C017B016115710519F0DB018D939C9300
:1027E00085010F5F1F4FF501D0818D2F90E00E9472
:1027F00083156C01892BB9F5DD32B9F50F5F1F4FD9
:10280000D5011196DC91C1E05801F1E0AF1AB10891
:1028100043E050E068E771E0C5010E948C15892B08
:1028200069F5680182E0C80ED11C45E050E063E71D
:1028300071E0C6010E948C15892B21F4680197E094
:10284000C90ED11CE114F10419F0D701CD92DC922C
:1028500060E070E080E89FEFC111FFC060E070E0D1
:1028600080E89FE7FAC05801BBCFDB3229F485012D
:102870000E5F1F4FF501D181C0E0C6CF43E050E0AD
:1028800060E771E0C5010E948C15892BE9F0F80121
:1028900010E000E020E030E0A9015F01B0ED8B2EF8
:1028A0008D0E89E08815C8F19C2E689491F88C2FC4
:1028B0008870C2FF16C0811102C00F5F1F4F319692
:1028C000D501DC91C92DE9CFE114F10429F00E5FA7
:1028D0001F4FF7011183008360E070E080EC9FE7F9
:1028E000BCC0882311F001501109A5E0B0E00E949E
:1028F0006E199B01AC01220F331F441F551F280D79
:10290000311D411D511D283999E93907490799E1C0
:102910005907A8F2C6609C2ED2CFAEEF8A1206C02D
:10292000C3FD3CC09C2E689493F8C9CFDF7DD5349D
:10293000A9F580818D3239F4C061DF011296818161
:1029400062E070E006C0DF018B32C1F3119661E0F6
:1029500070E080535D01A61AB70A8A30F8F4E0E807
:10296000CE16ECE0DE065CF4B601660F771F660F4C
:10297000771FC60ED71ECC0CDD1CC80ED11C5D0106
:10298000FFEFAF1ABF0A8C9180538A30A8F1C4FFC1
:1029900003C0D194C194D1080C0D1D1DC1FF09C005
:1029A000E114F10431F081E0A81AB108D701AD9229
:1029B000BC92CA01B9010E94EB15C370C33009F47F
:1029C00090584B015C0120E030E0A9010E94E6151F
:1029D000882309F440C0C7EAD1E017FF05C011956C
:1029E00001951109CFE8D1E06E01B8E1CB1AD10809
:1029F00080E2E82EF12C0FC0D501B1CFFE01259168
:102A00003591459154910E191F09C501B4010E94D9
:102A10004C164B015C01D501C4010E151F0574F75E
:102A20002497F594E794CC16DD06A9F78A2F880F32
:102A30008B2F881F8F3F49F020E030E0A901C501AE
:102A4000B4010E94E615811106C082E290E09093E5
:102A5000450B8093440BC501B401DF91CF911F91C9
:102A60000F91FF90EF90DF90CF90BF90AF909F902D
:102A70008F900895662777270C94DC13FC01882734
:102A80009927E89421912032E9F3293010F02E3073
:102A9000C8F32B3241F02D3239F4689404C00E94FF
:102AA000C415820F911D219120532A30C0F31EF4CA
:102AB000909581959F4F08951F93FC019927882732
:102AC000BC01E89411911032E9F3193010F01E3076
:102AD000C8F31B3251F01D3249F4689406C00E94BD
:102AE000AF15610F711D811D911D119110531A3089
:102AF000B0F33EF490958095709561957F4F8F4F20
:102B00009F4F1F91089591110C940A19803219F06A
:102B100089508550C8F70895FB01DC0141505040B1
:102B200088F08D9181341CF08B350CF4805E6591BA
:102B300061341CF06B350CF4605E861B611171F31F
:102B4000990B0895881BFCCFBB274A3031F4992399
:102B500022F4BDE2909581959F4F0C94CD15592F8D
:102B6000482F372F262F660F771F881F991F660F54
:102B7000771F881F991F620F731F841F951F660F91
:102B8000771F881F991F08957AE0979F902D879F40
:102B9000802D910D11240895BB27FB015527AA27ED
:102BA000880F991FAA1FA41710F0A41B83955051DA
:102BB000B9F7A05DAA3308F0A95DA193009779F752
:102BC000B111B1931192CB010C940D190E942816EA
:102BD00008F481E00895E89409C097FB3EF49095CD
:102BE0008095709561957F4F8F4F9F4F9923A9F0E6
:102BF000F92F96E9BB279395F69587957795679575
:102C0000B795F111F8CFFAF4BB0F11F460FF1BC0B8
:102C10006F5F7F4F8F4F9F4F16C0882311F096E94B
:102C200011C0772321F09EE8872F762F05C06623F9
:102C300071F096E8862F70E060E02AF09A95660FB2
:102C4000771F881FDAF7880F9695879597F908956B
:102C5000990F0008550FAA0BE0E8FEEF16161706AD
:102C6000E807F907C0F012161306E407F50798F015
:102C7000621B730B840B950B39F40A2661F0232B2E
:102C8000242B252B21F408950A2609F4A140A695AA
:102C90008FEF811D811D08950E945F160C943419D9
:102CA0000E94261938F00E942D1920F0952311F06A
:102CB0000C941D190C94231911240C9468190E946A
:102CC000451970F3959FC1F3950F50E0551F629F12
:102CD000F001729FBB27F00DB11D639FAA27F00D75
:102CE000B11DAA1F649F6627B00DA11D661F829F9C
:102CF0002227B00DA11D621F739FB00DA11D621F81
:102D0000839FA00D611D221F749F3327A00D611D9D
:102D1000231F849F600D211D822F762F6A2F11247F
:102D20009F5750409AF0F1F088234AF0EE0FFF1FB2
:102D3000BB1F661F771F881F91505040A9F79E3F09
:102D4000510580F00C941D190C9468195F3FE4F351
:102D5000983ED4F3869577956795B795F795E7955F
:102D60009F5FC1F7FE2B880F911D9695879597F968
:102D700008958F929F92AF92BF92CF92DF92EF927F
:102D8000FF920F931F93CF93DF9300D000D000D01A
:102D9000CDB7DEB76A01F22EB02E102FFBE3AF2EB7
:102DA000A01608F41BE31F5F012F27E0AE014F5F61
:102DB0005F4F0E943218BC018981982F9970913021
:102DC00009F44EC09BE2E1FC04C09E2D9170E0FC32
:102DD00049C05E2D5071E82FE87083FF55C084E034
:102DE000911101C083E0EF2DE81B8F1508F0E0E0A2
:102DF000D6018E2F20E25523C9F1992329F0D6015F
:102E00009C93C60101966C0196012D5F3F4FE2FE37
:102E100033C08EE4D6018C9391E411969C93119764
:102E200012968C93D9018E2F90E281112AC0E20F65
:102E3000F32FF11D10828EEF9FEF29960FB6F894B5
:102E4000DEBF0FBECDBFDF91CF911F910F91FF90DD
:102E5000EF90DF90CF90BF90AF909F908F900895AC
:102E60009DE2B7CF90E2B5CF2D9381508111FCCF79
:102E7000CE0ED11CE0E0C1CF8EE6D6018C9391E658
:102E8000CCCF9D938150D1CF482F447082FF3DC05D
:102E900084E0911101C083E08F1510F4EF2DE81B41
:102EA000D6018E2F20E2552309F1992329F0D6016E
:102EB0009C93C60101966C0196012D5F3F4FE2FE87
:102EC0001BC089E4D6018C938EE411968C931197E4
:102ED00086E412968C93D9018E2F90E2882309F410
:102EE000A6CF9D938150FACF2D9381508111FCCFB5
:102EF000CE0ED11CE0E0D9CF89E6D6018C938EE6C8
:102F000011968C93119786E6E4CF9B0177FF02C060
:102F100030E020E0A1E0B0E0911102C0B0E0A0E01C
:102F2000F9013196AE0FBF1F8B2C912CBB2009F4F9
:102F300061C05401EFEFAE1ABE0AAA0DBB1DFA160E
:102F40001B0619F014F04F2D4A1B511188C0E3FCE9
:102F500059C07601A42FB0E2A1114FC0C40ED11CFC
:102F6000992309F45BC040E0D6011196F6019083E5
:102F70006D01552309F448C0012F060F9A81582F7F
:102F8000507184FF03C0913309F4015010160CF006
:102F900047C0093008F008E0EEE2FE2E5B01A01AFF
:102FA000B10885019194819491082F3F320729F44B
:102FB000D601FC92F60131966F016217730794F106
:102FC000021713077CF5DB01A21BB30BAA24A39401
:102FD000B12CAC0EBD1EAA0DBB1D11968C912150BB
:102FE0003109D601119628153905F4F0F6018083D0
:102FF0006D01DBCFB12CA12CA0CFF701B1937F01E4
:10300000A150AACF9111B0CFD601942F50E302C0A6
:103010005D9391509111FCCFC40ED11C40E0ACCF18
:1030200001E0BACF80E3DBCF6217730731F4963348
:1030300088F4953311F4552369F0F6018083FD017E
:10304000842F90E2811108C0A40FB11D1C9290E062
:1030500080E0F3CE81E3F1CF91938150F3CF9111D2
:1030600083CF8ACF283008F027E03327DA01990F81
:10307000311D87FD916000966105710539F432605C
:103080002E5F3D9330E32A95E1F708959F3F30F09E
:1030900080387105610509F03C5F3C5F3D939130DC
:1030A00008F08068911DDF93CF931F930F93FF92D9
:1030B000EF92192F987F9695E92F96959695E90F9F
:1030C000FF27EB5FFD4F99273327EE24FF24A7014D
:1030D000E70105900894079428F4360FE71EF81EC0
:1030E000491F511D660F771F881F991F0694A1F76E
:1030F0000590079428F4E70EF81E491F561FC11DBE
:10310000770F881F991F661F0694A1F705900794F3
:1031100028F4F80E491F561FC71FD11D880F991F8D
:10312000661F771F0694A1F70590079420F4490FB6
:10313000561FC71FD81F990F661F771F881F069439
:10314000A9F784911095177041F0D695C7955795BA
:103150004795F794E7941A95C1F7EBEAF1E0689484
:103160001590159135916591959105907FE2739534
:10317000E118F10A430B560BC90BD009C0F7E10C5B
:10318000F11E431F561FC91FD01D7EF4703311F46A
:103190008A95E6CFE894015030F0080F0AF4002732
:1031A000021708F4202F2395022F7A3328F079E3B1
:1031B0007D932A95E9F710C07D932A9589F60694A8
:1031C00097956795379517951794E118F10A430B72
:1031D000560BC90BD00998F023957E9173957A33DD
:1031E00008F070E37C932013B8F77E9170617D93B3
:1031F00030F0839571E37D9370E32A95E1F7112414
:10320000EF90FF900F911F91CF91DF91992787FD4C
:1032100090950895992788270895DC01FC01672F70
:1032200071917723E1F7329704C07C916D9370839D
:103230006291AE17BF07C8F3089597F99F6780E8BA
:1032400070E060E008959FEF80EC089500240A94F8
:103250001616170618060906089500240A94121671
:103260001306140605060895092E0394000C11F4A4
:10327000882352F0BB0F40F4BF2B11F460FF04C051
:103280006F5F7F4F8F4F9F4F089557FD9058440FAA
:10329000551F59F05F3F71F04795880F97FB991FB5
:1032A00061F09F3F79F08795089512161306140672
:1032B000551FF2CF4695F1DF08C0161617061806FF
:1032C000991FF1CF86957105610508940895E894DA
:1032D000BB2766277727CB0197F908950E947919B4
:1032E000A59F900DB49F900DA49F800D911D11245A
:1032F0000895A29FB001B39FC001A39F700D811DCF
:103300001124911DB29F700D811D1124911D0895EE
:103310005058BB27AA270E94A0190C9434190E9468
:10332000261938F00E942D1920F039F49F3F19F426
:1033300026F40C9423190EF4E095E7FB0C941D1968
:10334000E92F0E94451958F3BA17620773078407DB
:10335000950720F079F4A6F50C9467190EF4E09522
:103360000B2EBA2FA02D0B01B90190010C01CA013F
:10337000A0011124FF27591B99F0593F50F4503EEA
:1033800068F11A16F040A22F232F342F4427585FDC
:10339000F3CF469537952795A795F0405395C9F7F4
:1033A0007EF41F16BA0B620B730B840BBAF09150AC
:1033B000A1F0FF0FBB1F661F771F881FC2F70EC04B
:1033C000BA0F621F731F841F48F48795779567951E
:1033D000B795F7959E3F08F0B0CF9395880F08F00A
:1033E0009927EE0F9795879508950E94091A0C94D6
:1033F00034190E942D1958F00E94261940F029F422
:103400005F3F29F00C941D1951110C9468190C940C
:1034100023190E94451968F39923B1F3552391F3B9
:10342000951B550BBB27AA2762177307840738F033
:103430009F5F5F4F220F331F441FAA1FA9F335D090
:103440000E2E3AF0E0E832D091505040E695001C44
:10345000CAF72BD0FE2F29D0660F771F881FBB1FFE
:10346000261737074807AB07B0E809F0BB0B802DDC
:10347000BF01FF2793585F4F3AF09E3F510578F008
:103480000C941D190C9468195F3FE4F3983ED4F333
:10349000869577956795B795F7959F5FC9F7880FDC
:1034A000911D9695879597F90895E1E0660F771F2E
:1034B000881FBB1F621773078407BA0720F0621BBF
:1034C000730B840BBA0BEE1F88F7E09508950E94EA
:1034D0004D1988F09F5798F0B92F9927B751B0F040
:1034E000E1F0660F771F881F991F1AF0BA95C9F788
:1034F00014C0B13091F00E946719B1E008950C94A6
:103500006719672F782F8827B85F39F0B93FCCF358
:10351000869577956795B395D9F73EF49095809504
:10352000709561957F4F8F4F9F4F08950E94281689
:1035300008F48FEF0895A1E21A2EAA1BBB1BFD0110
:103540000DC0AA1FBB1FEE1FFF1FA217B307E40782
:10355000F50720F0A21BB30BE40BF50B661F771FDA
:10356000881F991F1A9469F76095709580959095BA
:103570009B01AC01BD01CF010895EE0FFF1F881F15
:103580008BBF0790F691E02D19940F931F93CF9363
:10359000DF938230910510F482E090E0E091480BD7
:1035A000F091490B30E020E0B0E0A0E0309799F4D2
:1035B0002115310509F44AC0281B390B2430310587
:1035C000D8F58A819B816115710589F1FB0193838F
:1035D0008283FE0111C0408151810281138148170D
:1035E0005907E0F04817590799F4109761F01296BF
:1035F0000C93129713961C933296CF01DF91CF91C3
:103600001F910F9108950093480B1093490BF4CF2D
:103610002115310551F04217530738F0A901DB019C
:103620009A01BD01DF01F801C1CFEF01F9CF9093FD
:10363000490B8093480BCDCFFE01E20FF31F81931E
:1036400091932250310939832883D7CF2091460B9B
:103650003091470B232B41F4209102023091030259
:103660003093470B2093460B2091000230910102CA
:103670002115310541F42DB73EB740910402509118
:103680000502241B350BE091460BF091470BE21726
:10369000F307A0F42E1B3F0B2817390778F0AC0175
:1036A0004E5F5F4F2417350748F04E0F5F1F509352
:1036B000470B4093460B819391939FCFF0E0E0E05E
:1036C0009CCFCF93DF930097E9F0FC0132971382F0
:1036D0001282A091480BB091490BED0130E020E03F
:1036E0001097A1F420813181820F931F2091460B06
:1036F0003091470B2817390709F061C0F093470B49
:10370000E093460BDF91CF910895EA01CE17DF07D2
:10371000E8F54A815B819E0141155105B1F7E90148
:10372000FB83EA8349915991C40FD51FEC17FD071C
:1037300061F4808191810296840F951FE90199833C
:103740008883828193819B838A83F0E0E0E01296F4
:103750008D919C9113970097B9F52D913C911197FC
:10376000CD010296820F931F2091460B3091470B9B
:103770002817390739F6309751F51092490B1092F6
:10378000480BB093470BA093460BBCCFD383C283A7
:1037900040815181840F951FC817D90761F44E5F8E
:1037A0005F4F88819981480F591F518340838A81D7
:1037B0009B81938382832115310509F0B0CFF0936B
:1037C000490BE093480B9ECFFD01DC01C0CF138273
:1037D0001282D7CF4F925F926F927F928F929F9279
:1037E000AF92BF92CF92DF92EF92FF920F931F930F
:1037F000CF93DF938C01009799F4CB01DF91CF91A8
:103800001F910F91FF90EF90DF90CF90BF90AF90FE
:103810009F908F907F906F905F904F900C94C51AFF
:10382000FC01E60FF71F9C0122503109E217F30754
:1038300008F4AEC0D901CD91DC911197C617D70716
:1038400020F1C530D10578F0CE010497861797078F
:1038500050F0C61BD70B2297C193D1936D937C93E5
:10386000CF010E94611BC801DF91CF911F910F9181
:10387000FF90EF90DF90CF90BF90AF909F908F9090
:103880007F906F905F904F9008955B01AC1ABD0AD6
:103890004C018C0E9D1EA091480BB091490B512CF0
:1038A000412CF12CE12C109731F58091460B909131
:1038B000470B8815990509F05CC04616570608F0B5
:1038C00058C08091000290910102009741F48DB799
:1038D0009EB74091040250910502841B950BE81796
:1038E000F90708F055C0F093470BE093460BF90138
:1038F00071836083B8CF8D919C91119712966C90D3
:10390000129713967C901397A815B90559F56C0179
:1039100042E0C40ED11CCA14DB0420F1AC014A19E8
:103920005B09DA011296159780F0628273825183E7
:103930004083D9016D937C93E114F10471F0D701B8
:103940001396FC93EE9312978ECF22968C0F9D1FA9
:10395000F90191838083F301EFCFF093490BE0935A
:10396000480B81CF4816590608F42C017D01D3017C
:103970009ACFCB010E94C51A7C01009749F0AE0195
:10398000B8010E94CB1CC8010E94611B87016BCF4C
:1039900010E000E068CFFB01DC0102C001900D9255
:1039A00041505040D8F70895FB01DC0101900D9281
:1039B0000020E1F70895F894FFCF00004A0B800043
:1039C000120013001400150016001700180019004B
:1039D000250026002700280002000300040005003F
:1039E0000600070008000900000000001F0389020C
:1039F000B6026C03E702C502D9020D0A007C7C49BD
:103A00006E76616C696420636F6D6D616E642072A7
:103A1000656365697665642C207468657265206DE0
:103A20007573742062652061206661756C7420690D
:103A30006E2074686520636F6D6D756E6963617467
:103A4000696F6E2E2E2E205468652066756E637425
:103A5000696F6E20696E646578207265636569764A
:103A6000656420646F6573206E6F74206D6174638C
:103A70006820616E20696E6465782073746F72656A
:103A80006420696E207468652070726F6772616D62
:103A90002E2E2E20496E6469636174696E67206101
:103AA000206661756C7420696E2074686520636F90
:103AB0006D6D756E69636174696F6E2028726574CF
:103AC000726576696E6720646174612066726F6DDD
:103AD0002073657269616C20706F72742C202E2EB9
:103AE0002E29207C7C0023235375636365736675E0
:103AF0006C6C79206368616E67656420626F6172C7
:103B0000644E7220746F3A20007B007D2000426F6B
:103B10006172644E756D6265723A205B005D007C77
:103B20007C4552524F523A2041434B2077617320DB
:103B3000616C7265616479206C6F777C7C007C7C41
:103B40004552524F523A2041434B2065787069727A
:103B500065647C7C007C7C4552524F5220646574C5
:103B600065637465647C7C002323454E41424C456B
:103B70002043555252454E54204D454153555245D0
:103B80004D454E54232300232344495341424C4581
:103B90002043555252454E54204D454153555245B0
:103BA0004D454E5423230028284D45415355524539
:103BB0002052454749535445523A20002929200AAA
:103BC000004D656173757265642063757272656E10
:103BD000743A205B002323436F6E6E656374207616
:103BE0006F6C7461676520736F7572636523230062
:103BF0002323446973636F6E6E65637420766F6C04
:103C00007461676520736F757263652323002828CC
:103C1000200A2053544154555320434F4E4E4543A0
:103C200054494E4720564F4C5441474520534F5519
:103C30005243450053746174757320766F6C7461E0
:103C4000676520736F75726365206265666F726564
:103C50003A20003D3E2053746174757320766F6C7A
:103C60007461676520736F75726365206166746542
:103C7000723A20000A202929007C7C4552524F527A
:103C80003A20494E56414C4944204348414E4E4506
:103C90004C204E554D4245527C7C004D65617375FC
:103CA00072656420566F6C746167653A205B00230F
:103CB00023436F6E6E656374206368616E6E656C1E
:103CC000200020746F207468652042555323230020
:103CD0002323446973636F6E6E6563742063686148
:103CE0006E6E656C20002066726F6D204255532306
:103CF00023002828200A205354415455532042556C
:103D0000533A3A00627573436F6E30537461747541
:103D100073206265666F72653A20003D3E206275D1
:103D200073436F6E3053746174757320616674658C
:103D3000723A2000627573436F6E3153746174750B
:103D400073206265666F72653A20003D3E206275A1
:103D500073436F6E3153746174757320616674655B
:103D6000723A20007C7C4552524F523A20496E767E
:103D7000616C6964206368616E6E656C2073656C4C
:103D8000656374696F6E2E204661756C7420696E70
:103D900020636F6D6D756E69636174696F6E2077F6
:103DA000686572652077726F6E6720666F726D61ED
:103DB000742F6E756D6265722069732063686F730E
:103DC000656E206173206368616E6E656C206E7530
:103DD0006D6265722E2E2E006973206E6F742061E5
:103DE0002076616C6964206368616E6E656C206E1C
:103DF000756D6265722E2E2E204974206D6F73745E
:103E000020626520696E2072616E6765206F662092
:103E1000205B312E2E2E31365D7C7C0020746F208D
:103E20007468652067726F756E6423230020667264
:103E30006F6D207468652067726F756E6423230050
:103E40002828200A2053544154555320474E4420DB
:103E50005550444154453A3A00676E64436F6E30A2
:103E6000537461747573206265666F72653A2000E1
:103E70003D3E20676E64436F6E305374617475739A
:103E80002061667465723A2000676E64436F6E311C
:103E9000537461747573206265666F72653A2000B1
:103EA0003D3E20676E64436F6E3153746174757369
:103EB0002061667465723A2000232353657475701F
:103EC0002041726475696E6F232300232353657448
:103ED000757020436F6D706C657465232300232318
:103EE00053657420766F6C7461676520746F200071
:103EF0002828200A2053544154555320444154410A
:103F000020534554564F4C544147453A0064617420
:103F10006130537461747573206265666F72653ABF
:103F200020003D3E20646174613053746174757388
:103F30002061667465723A20006461746131537463
:103F400061747573206265666F72653A20003D3E4C
:103F50002064617461315374617475732061667497
:063F600065723A2000002A
:020000040003F7
:10E000000D9489F10D94B2F10D94B2F10D94B2F129
:10E010000D94B2F10D94B2F10D94B2F10D94B2F1F0
:10E020000D94B2F10D94B2F10D94B2F10D94B2F1E0
:10E030000D94B2F10D94B2F10D94B2F10D94B2F1D0
:10E040000D94B2F10D94B2F10D94B2F10D94B2F1C0
:10E050000D94B2F10D94B2F10D94B2F10D94B2F1B0
:10E060000D94B2F10D94B2F10D94B2F10D94B2F1A0
:10E070000D94B2F10D94B2F10D94B2F10D94B2F190
:10E080000D94B2F10D94B2F10D94B2F10D94B2F180
:10E090000D94B2F10D94B2F10D94B2F10D94B2F170
:10E0A0000D94B2F10D94B2F10D94B2F10D94B2F160
:10E0B0000D94B2F10D94B2F10D94B2F10D94B2F150
:10E0C0000D94B2F10D94B2F10D94B2F10D94B2F140
:10E0D0000D94B2F10D94B2F10D94B2F10D94B2F130
:10E0E0000D94B2F141546D656761323536300041AF
:10E0F000726475696E6F206578706C6F72657220DE
:10E1000073746B3530305632206279204D4C530099
:10E11000426F6F746C6F616465723E004875683F52
:10E1200000436F6D70696C6564206F6E203D200048
:10E130004350552054797065202020203D20005FF9
:10E140005F4156525F415243485F5F3D2000415658
:10E1500052204C696243205665723D20004743437C
:10E160002056657273696F6E203D20004350552024
:10E1700049442020202020203D20004C6F7720663D
:10E18000757365202020203D20004869676820665F
:10E190007573652020203D200045787420667573D6
:10E1A00065202020203D20004C6F636B2066757336
:10E1B000652020203D20004D617220203720323024
:10E1C000313300312E362E3800342E332E350056A2
:10E1D00023202020414444522020206F7020636F70
:10E1E00064652020202020696E73747275637469E1
:10E1F0006F6E2061646472202020496E74657272B3
:10E20000757074006E6F20766563746F7200726A49
:10E210006D702020006A6D70200057686174207056
:10E220006F72743A00506F7274206E6F7420737541
:10E2300070706F72746564004D7573742062652030
:10E2400061206C6574746572002000577269747483
:10E25000696E672045450052656164696E672045B7
:10E26000450045452065727220636E743D00504F35
:10E27000525400303D5A65726F2061646472003FF1
:10E280003D43505520737461747300403D454550C3
:10E29000524F4D207465737400423D426C696E6B41
:10E2A000204C454400453D44756D70204545505215
:10E2B0004F4D00463D44756D7020464C415348001B
:10E2C000483D48656C70004C3D4C69737420492F83
:10E2D0004F20506F72747300513D51756974005234
:10E2E0003D44756D702052414D00563D73686F7707
:10E2F00020696E7465727275707420566563746FF0
:10E30000727300593D506F727420626C696E6B00BD
:10E310002A0011241FBECFEFD1E2DEBFCDBF01E046
:10E320000CBF12E0A0E0B2E0EEE1FDEF03E00BBFB6
:10E3300002C007900D92A030B107D9F712E0A0E01B
:10E34000B2E001C01D92AE30B107E1F70F9460F367
:10E350000D948DFE01E20EBF0FEF0DBF11241FBE05
:10E360000D9460F30D9400F020E030E040ED57E0B4
:10E3700005C0FA013197F1F72F5F3F4F2817390792
:10E38000C0F308959C01260F311DC901A0E0B0E043
:10E390002F5F3F4FABBFFC018791882361F08093D3
:10E3A000C6008091C00086FFFCCF8091C0008064D1
:10E3B0008093C000EACF08958DE08093C6008091DD
:10E3C000C00086FFFCCF8091C00080648093C000B5
:10E3D0008AE08093C6008091C00086FFFCCF8091C8
:10E3E000C00080648093C00008950F94C2F10F9420
:10E3F000DCF10895FC019081992359F09093C600B7
:10E400008091C00086FFFCCF8091C0008064809323
:10E41000C0003196992379F70895282F982F929567
:10E420009F70892F805D8A3308F0895F8093C600D2
:10E430008091C00086FFFCCF8091C00080648093F3
:10E44000C000822F8F70982F905D9A3308F0995FEB
:10E450009093C6008091C00086FFFCCF8091C000E1
:10E4600080648093C00008959C01FB01853691056E
:10E470001CF46330710594F0C90164E670E00F94F8
:10E480002EFE605D7F4F6093C6008091C00086FFC6
:10E49000FCCF8091C00080648093C0002B30310598
:10E4A00014F43297B4F0C90164E670E00F942EFEC4
:10E4B0006AE070E00F942EFE605D7F4F6093C600AF
:10E4C0008091C00086FFFCCF8091C0008064809363
:10E4D000C000C9016AE070E00F942EFEC0968093E0
:10E4E000C6008091C00086FFFCCF8091C000806490
:10E4F0008093C00008951F93182F8EE692EE60E07F
:10E500000F94C2F11093C6008091C00086FFFCCF2B
:10E510008091C00080648093C0000F94DCF11F9153
:10E5200008952F923F924F925F926F927F928F92B7
:10E530009F92AF92BF92CF92DF92EF92FF920F9392
:10E540001F93DF93CF93CDB7DEB762970FB6F894E2
:10E55000DEBF0FBECDBF382E622ECA01DB015C01CB
:10E560006D01772420E2222E2E010894411C511CBB
:10E570008BC081E0A81680E0B80681E0C80680E084
:10E58000D80628F0C601AA27BB270F940DF2BB2797
:10E59000AD2D9C2D8B2D0F940DF28A2D0F940DF225
:10E5A0002092C6008091C00086FFFCCF8091C00001
:10E5B00080648093C0009DE29093C6008091C0006B
:10E5C00086FFFCCF8091C00080648093C0002092C1
:10E5D000C6008091C00086FFFCCF8091C00080649F
:10E5E0008093C00019828601750188249924A1E0D6
:10E5F0003A1651F03A1620F0B2E03B1661F409C029
:10E600000BBFF701779007C0C7010F9477FE782EF4
:10E6100002C0F7017080872D0F940DF22092C60082
:10E620008091C00086FFFCCF8091C0008064809301
:10E63000C000872D8052F401EF70F0708F3520F408
:10E64000E40DF51D708204C0E40DF51D8EE280839B
:10E650000894E11CF11C011D111D0894811C911CE2
:10E6600090E18916910409F0C2CF80E190E0A0E02A
:10E67000B0E0A80EB91ECA1EDB1E198AC2010F9493
:10E68000FAF10F94DCF16A94662009F072CF629679
:10E690000FB6F894DEBF0FBECDBFCF91DF911F91B3
:10E6A0000F91FF90EF90DF90CF90BF90AF909F9031
:10E6B0008F907F906F905F904F903F902F90089534
:10E6C0002F923F924F925F926F927F928F929F9282
:10E6D000AF92BF92CF92DF92EF92FF920F931F9370
:10E6E000DF93CF93CDB7DEB7CD53D1400FB6F894BB
:10E6F000DEBF0FBECDBF01E20EBF0FEF0DBF94B75F
:10E70000F894A89514BE80916000886180936000A1
:10E7100010926000789493FF05C0E0910002F091A0
:10E7200001021995279A2F9A8091C00082608093E8
:10E73000C00080E18093C40088E18093C1000000A4
:10E74000EE24FF24870144E0A42EB12CCC24DD2448
:10E7500024C0C5010197F1F70894E11CF11C011DCB
:10E76000111D21E2E2162EE4F20620E0020720E06D
:10E77000120718F031E0C32ED12CC801B70127ECE5
:10E780003BE140E050E00F9441FE611571058105C9
:10E79000910519F485B1805885B98091C00087FD35
:10E7A00003C0C114D104A9F2A6014F5F5F4FC25E3E
:10E7B000DE4F59834883CE51D140C25EDE4F8881FF
:10E7C0009981CE51D140019711F00D9410FEC05D9A
:10E7D000DE4F19821882C053D14060E0C15DDE4F28
:10E7E0001882CF52D14088249924C35DDE4F19820C
:10E7F0001882CD52D140C05EDE4F188219821A8233
:10E800001B82C052D140CE5CDE4F188219821A8220
:10E810001B82C253D140EE24FF2487010BBFF701B6
:10E8200007911691C45CDE4F19830883CC53D14005
:10E830000D940BFEC25EDE4F28813981CE51D1404E
:10E840002130310509F52091C600C25EDE4F1982E4
:10E850001882CE51D14022C02F5F3F4F4F4F5F4FA4
:10E86000213082E138078AE7480780E0580780F0C6
:10E87000C45CDE4FE881F981CC53D140EF5FFF4F9C
:10E8800019F0EE27FF27099420E030E040E050E047
:10E890008091C00087FFE0CF2091C600C35DDE4FAE
:10E8A00048815981CD52D1404F5F5F4FC35DDE4FEC
:10E8B00059834883CD52D140213209F063C64A3092
:10E8C000510508F05FC60894811C911C53E0851621
:10E8D000910409F059C600E010E018C081E280936D
:10E8E000C6008091C00086FFFCCF8091C00080648C
:10E8F0008093C0002F5F3F4F2931310579F70F9486
:10E90000DCF10F5F1F4F0530110519F020E030E0FA
:10E91000E5CF10920A0210920B0210920C02109294
:10E920000D02109206021092070210920802109235
:10E930000902109202021092030210920402109235
:10E9400005028FEE90EE60E00F94F5F180E191EE1C
:10E9500060E00F94C2F18091C00087FFFCCF9091DE
:10E96000C600903608F09F759032B8F09093C600BC
:10E970008091C00086FFFCCF8091C00080648093AE
:10E98000C000A0E2A093C6008091C00086FFFCCF2B
:10E990008091C00080648093C000983409F4D7C18E
:10E9A0009934B8F4923409F459C1933458F490333B
:10E9B00019F1903308F4E3C59F33A1F1903409F0C5
:10E9C000DEC5BDC0953409F470C1963409F0D7C5D1
:10E9D00098C1923509F42BC2933538F49C3409F46C
:10E9E000F5C1913509F0CBC518C2963509F445C279
:10E9F000993509F0C4C567C483E792EE62E00F94CD
:10EA0000F5F110920602109207021092080210927D
:10EA1000090210920A0210920B0210920C0210923C
:10EA20000D0213C18FE792EE62E00F94F5F18FEEC5
:10EA300090EE60E00F94F5F181E291EE60E00F94CA
:10EA4000C2F187EB91EE60E00F94F5F180E391EE77
:10EA500060E00F94C2F184EE90EE60E00F94F5F167
:10EA60008FE391EE60E00F94C2F186E090E061E008
:10EA700070E00F9434F20F94DCF18DE591EE60E0DC
:10EA80000F94C2F189EC91EE60E00F94F5F18EE401
:10EA900091EE60E00F94C2F183EC91EE60E00F9490
:10EAA000F5F18CE691EE60E00F94C2F18EE10F94E7
:10EAB0000DF288E90F940DF281E00F940DF20F949E
:10EAC000DCF18BE791EE60E00F94C2F119E0E0E039
:10EAD000F0E010935700E4918E2F0F940DF20F94F5
:10EAE000DCF18AE891EE60E00F94C2F1E3E0F0E03F
:10EAF00010935700E4918E2F0F940DF20F94DCF1D8
:10EB000089E991EE60E00F94C2F1E2E0F0E0109349
:10EB10005700E4918E2F0F940DF20F94DCF188EAE8
:10EB200091EE60E00F94C2F1E1E0F0E01093570045
:10EB30001491812F0F940DF20F94DCF107CF8BE825
:10EB400092EE62E00F94F5F18BE492EE60E00F94A8
:10EB5000F5F10F94DCF100E010E019C0C8016F2D51
:10EB60000F947FFEFF2031F489E492EE60E00F9471
:10EB7000C2F10BC0F092C6008091C00086FFFCCFAE
:10EB80008091C00080648093C0000F5F1F4FC80158
:10EB900081519F41A0E0B0E0ABBFFC01F790BAE229
:10EBA000FB1621F0E2E000301E07C1F60F94DCF105
:10EBB0000F94DCF187E592EE60E00F94F5F10F948D
:10EBC000DCF1CC24DD2400E010E01EC0C8010F946D
:10EBD00077FEF82E882331F489E492EE60E00F94FA
:10EBE000C2F10BC08093C6008091C00086FFFCCFAD
:10EBF0008091C00080648093C000FE1419F00894D6
:10EC0000C11CD11C0F5F1F4FC80181519F41A0E063
:10EC1000B0E0ABBFFC01E790FAE2EF1621F022E092
:10EC20000030120799F60F94DCF10F94DCF182E6C4
:10EC300092EE60E00F94C2F1C60161E070E00F94C3
:10EC400034F20F94DCF10F94DCF110920202109276
:10EC50000302109204021092050278CE89E992EE26
:10EC600062E00F94F5F1279A2F9A16C02F9880E052
:10EC700090E0E0EDF7E03197F1F7019684369105E9
:10EC8000C1F72F9A80E090E0E0EDF7E03197F1F7DF
:10EC9000019684369105C1F78091C00087FFE6CFC9
:10ECA0008091C00087FFFCCF64C485EA92EE62E0E9
:10ECB0000F94F5F140910202509103026091040219
:10ECC0007091050281E020E10F9491F2809102029F
:10ECD00090910302A0910402B091050280509F4FD1
:10ECE000AF4FBF4F8093020290930302A0930402A0
:10ECF000B093050280509041A040B04008F426CE69
:10ED0000A4CF83EB92EE62E00F94F5F140910602FE
:10ED100050910702609108027091090280E020E1A1
:10ED20000F9491F28091060290910702A09108023F
:10ED3000B091090280509F4FAF4FBF4F80930602A2
:10ED400090930702A0930802B0930902FFCD80ECD4
:10ED500092EE62E00F94F5F183E792EE60E00F949B
:10ED6000F5F18FE792EE60E00F94F5F18BE892EE0B
:10ED700060E00F94F5F189E992EE60E00F94F5F10F
:10ED800085EA92EE60E00F94F5F183EB92EE60E09D
:10ED90000F94F5F180EC92EE60E00F94F5F187ECC2
:10EDA00092EE60E00F94F5F188ED92EE60E00F9442
:10EDB000F5F18FED92EE60E00F94F5F18AEE92EEB0
:10EDC00060E00F94F5F183E093EEBDCD87EC92EE19
:10EDD00062E00F94F5F181E40F947BF282E40F94EA
:10EDE0007BF283E40F947BF284E40F947BF285E45E
:10EDF0000F947BF286E40F947BF287E40F947BF20E
:10EE000088E40F947BF28AE40F947BF28BE40F94F6
:10EE10007BF28CE40F947BF299CD88ED92EE62E068
:10EE20000F94F5F1772473948824992409C48FED05
:10EE300092EE62E00F94F5F140910A0250910B02BC
:10EE400060910C0270910D0282E020E10F9491F22A
:10EE500080910A0290910B02A0910C02B0910D02D8
:10EE600080509F4FAF4FBF4F80930A0290930B0289
:10EE7000A0930C02B0930D0269CD8AEE92EE62E08F
:10EE80000F94F5F184EE90EE60E00F94F5F18FECC5
:10EE900091EE60E00F94F5F1662477244301CC5D98
:10EEA000DE4F19821882C452D140D401C301B695F5
:10EEB000A79597958795CA5DDE4F88839983AA8326
:10EEC000BB83C652D140CC5DDE4FA881B981C4520C
:10EED000D1401196CC5DDE4FB983A883C452D14096
:10EEE000CD0162E070E00F9434F2B0E2B093C6005E
:10EEF0008091C00086FFFCCF8091C0008064809329
:10EF0000C000EDE2E093C6008091C00086FFFCCF18
:10EF10008091C00080648093C000F0E2F093C6004E
:10EF20008091C00086FFFCCF8091C00080648093F8
:10EF3000C000CA5DDE4FE880F9800A811B81C6529D
:10EF4000D140BB27A12F902F8F2D0F940DF2CA5DBA
:10EF5000DE4F8881C652D1400F940DF2B0E2FB2EF5
:10EF6000F092C6008091C00086FFFCCF8091C00067
:10EF700080648093C0000DE30093C6008091C000C0
:10EF800086FFFCCF8091C00080648093C00010E2B7
:10EF90001093C6008091C00086FFFCCF8091C00016
:10EFA00080648093C0008BBEF3012791C65DDE4F65
:10EFB0002883CA52D140A22EBB24CC24DD2408943D
:10EFC000611C711C811C911C8BBEF3018791282E42
:10EFD0003324442455240894611C711C811C911C09
:10EFE0008BBEF3013791C55DDE4F3883CB52D140E4
:10EFF0000894611C711C811C911C8BBEF30147910C
:10F00000C45DDE4F4883CC52D140ADEFEA2EAFEF66
:10F01000FA2EAFEF0A2FAFEF1A2F6E0C7F1C801E57
:10F02000911E142D032DF22CEE24EA0CFB1C0C1D5A
:10F030001D1D0F940DF220E22093C6008091C000A8
:10F0400086FFFCCF8091C00080648093C000C65DC5
:10F05000DE4F8881CA52D1400F940DF230E23093D6
:10F06000C6008091C00086FFFCCF8091C000806404
:10F070008093C000C45DDE4F8881CC52D1400F9494
:10F080000DF240E24093C6008091C00086FFFCCFA5
:10F090008091C00080648093C000C55DDE4F888190
:10F0A000CB52D1400F940DF250E25093C6008091A4
:10F0B000C00086FFFCCF8091C00080648093C000B8
:10F0C0008FEFE8168FEFF80680E0080780E018075A
:10F0D00031F484E092EE60E00F94C2F1DFC0D80119
:10F0E000C7018070907CA070B0708050904CA040A0
:10F0F000B040D1F52FEF3FE340E050E0E222F322B1
:10F1000004231523CA5DDE4FA880B980CA80DB8046
:10F11000C652D140AE0CBF1CC01ED11EAA0CBB1CD7
:10F12000CC1CDD1C8EE092EE60E00F94C2F1BB2798
:10F13000A12F902F8F2D0F940DF28E2D0F940DF285
:10F1400030E23093C6008091C00086FFFCCF8091F2
:10F15000C00080648093C0004EE34093C60080915D
:10F16000C00086FFFCCF87C08EE09EEFA0E0B0E03D
:10F17000E822F9220A231B239CE0E91694E9F90608
:10F1800090E0090790E0190709F088C0C45DDE4FE0
:10F19000A881CC52D140EA2EFF2400E010E0102FCD
:10F1A0000F2DFE2CEE24C55DDE4FB881CB52D14031
:10F1B000EB0EF11C011D111DD601C501817090706F
:10F1C000A070B070DC0199278827E80EF91E0A1F8D
:10F1D0001B1F20EF30E040E050E0A222B322C42207
:10F1E000D52241E1AA0CBB1CCC1CDD1C4A95D1F7F1
:10F1F000EA0CFB1C0C1D1D1D81E090E0A0E0B0E0BE
:10F20000282239224A225B2235E1220C331C441C7D
:10F21000551C3A95D1F7E20CF31C041D151D57013E
:10F220006801AA0CBB1CCC1CDD1C85E192EE60E0E1
:10F230000F94C2F1C801AA27BB270F940DF2BB2778
:10F24000A12F902F8F2D0F940DF28E2D0F940DF274
:10F2500090E29093C6008091C00086FFFCCF809121
:10F26000C00080648093C000AEE3A093C60080918C
:10F27000C00086FFFCCF8091C00080648093C000F6
:10F28000C601AA27BB270F940DF2BB27AD2D9C2DDD
:10F290008B2D0F940DF28A2D0F940DF20F94DCF14B
:10F2A000CC5DDE4FE881F981C452D140F99709F471
:10F2B0004DCBF4E0EF2EF12C012D112D6E0C7F1CA7
:10F2C000801E911EF2CD83E093EE62E00F94F5F183
:10F2D0008AE192EE60E00F94C2F18091C00087FF56
:10F2E000FCCF1091C6001F751093C6008091C0001E
:10F2F00086FFFCCF8091C00080648093C0000F9493
:10F30000DCF1812F81548A3108F036C1163409F4BA
:10F3100095C0173490F4133409F44EC0143430F40B
:10F320001134F1F0123409F01DC130C0143409F465
:10F3300059C0153409F016C16BC01A3409F4C4C0A1
:10F340001B3438F4173409F48FC0183409F00AC19B
:10F35000A1C01B3409F4D2C01C3409F003C1E8C0B9
:10F360008FEF81B90DC082B1809582B980E090E0C5
:10F37000E0EDF7E03197F1F70196883C9105C1F790
:10F380008091C00087FFEFCF12B8EFC08FEF84B934
:10F390000DC085B1809585B980E090E0E0EDF7E0A3
:10F3A0003197F1F70196883C9105C1F78091C00033
:10F3B00087FFEFCF15B8D9C08FEF87B90DC088B1DF
:10F3C000809588B980E090E0E0EDF7E03197F1F7C3
:10F3D0000196883C9105C1F78091C00087FFEFCF6F
:10F3E00018B8C3C08FEF8AB90DC08BB180958BB9A7
:10F3F00080E090E0E0EDF7E03197F1F70196883C8E
:10F400009105C1F78091C00087FFEFCF1BB8ADC059
:10F410008FEF8DB90DC08EB180958EB980E090E0F0
:10F42000E0EDF7E03197F1F70196883C9105C1F7DF
:10F430008091C00087FFEFCF1EB897C08FEF80BBD1
:10F440000DC081B3809581BB80E090E0E0EDF7E0F6
:10F450003197F1F70196883C9105C1F78091C00082
:10F4600087FFEFCF11BA81C08FEF83BB0DC084B38C
:10F47000809584BB80E090E0E0EDF7E03197F1F714
:10F480000196883C9105C1F78091C00087FFEFCFBE
:10F4900014BA6BC08FEF809301010FC080910201FD
:10F4A00080958093020180E090E0E0EDF7E03197F5
:10F4B000F1F70196883C9105C1F78091C00087FF64
:10F4C000EDCF1092020151C08FEF809304010FC065
:10F4D0008091050180958093050180E090E0E0ED4A
:10F4E000F7E03197F1F70196883C9105C1F78091DB
:10F4F000C00087FFEDCF1092050137C08FEF8093DA
:10F5000007010FC08091080180958093080180E079
:10F5100090E0E0EDF7E03197F1F70196883C910536
:10F52000C1F78091C00087FFEDCF109208011DC088
:10F530008FEF80930A010FC080910B01809580931B
:10F540000B0180E090E0E0EDF7E03197F1F70196F4
:10F55000883C9105C1F78091C00087FFEDCF1092E4
:10F560000B0103C085E292EEEEC98091C00087FFD7
:10F57000FCCF8091C600EAC988E392EEE4C98CE131
:10F5800091EEE1C988249924933011F1943028F444
:10F59000913089F09230B8F408C0953061F195301F
:10F5A000F0F0963009F048C043C02B3109F042C951
:10F5B00091E06BE13FC96227C15DDE4F2883CF52E6
:10F5C000D14092E037C9B22FA0E0622793E032C960
:10F5D000822F90E0A82BB92B622794E02BC92E3004
:10F5E00009F039C3622795E0C05DDE4F19821882A9
:10F5F000C053D1401FC9E1E0F0E0EC0FFD1FC05D3A
:10F60000DE4F08811981C053D140E00FF11F2083E4
:10F610000F5F1F4FC05DDE4F19830883C053D14079
:10F6200062270A171B0709F005C9D80196E002C92D
:10F63000261709F010C303C0973009F0FBC87724E0
:10F640009981933109F412C19431C8F4963009F4C8
:10F65000D8C0973050F4923009F406C1933009F4C1
:10F660006DC0913009F059C253C0913109F477C08F
:10F67000923108F0BBC0903109F04FC2F5C098310B
:10F6800009F487C0993150F4953109F4EFC09531F0
:10F6900008F4C6C1963109F040C2C2C19A3109F4DA
:10F6A0006CC09A3108F491C09B3109F45BC09D3164
:10F6B00009F033C29D81903359F48F81882311F46E
:10F6C0009EE11CC0813011F091E018C098E916C08D
:10F6D000892F807591F0903539F4E0E0F0E089E011
:10F6E0008093570094910AC0983539F4E3E0F0E034
:10F6F00089E080935700949101C090E01A821B82A8
:10F700008D818C831D829E831F8227E030E009C299
:10F710001A8288E08B8381E48C8386E58D8382E581
:10F720008E8389E48F8383E5888780E589878FE5E9
:10F730008A8782E38B872BE030E0F3C18A818139AD
:10F7400041F0823941F0803911F48FE005C080E04A
:10F7500003C082E001C08AE01A828B8344C0772410
:10F76000739482C08D81882311F48EE12CC0813086
:10F7700011F081E028C088E926C01A82E1E0F0E0BB
:10F7800089E08093570084918B831C8224E030E0D1
:10F79000C8C18B81803589F48C81883039F4E2E0EE
:10F7A000F0E089E08093570084910DC0E0E0F0E044
:10F7B00089E080935700849106C0E3E0F0E089E09F
:10F7C0008093570084911A82DFCF8D81836C99E0FA
:10F7D000E1E0F0E0082E90935700E89507B600FCB2
:10F7E000FDCF1A821B8223E030E09BC180EC8A832C
:10F7F000CE5CDE4F188219821A821B82C253D1401E
:10F800008EC18A8190E0A0E0B0E0582F44273327D2
:10F8100022278B8190E0A0E0B0E0DC0199278827C7
:10F82000282B392B4A2B5B2B8D8190E0A0E0B0E098
:10F83000282B392B4A2B5B2B8C8190E0A0E0B0E089
:10F84000BA2FA92F982F8827282B392B4A2B5B2BCF
:10F85000220F331F441F551FC05EDE4F288339839C
:10F860004A835B83C052D1401A8259C13A81C95C34
:10F87000DE4F3883C753D140CA5CDE4F1882C6536F
:10F88000D1408B81C82EDD24CA5CDE4F488159816E
:10F89000C653D140C42AD52A933109F082C0CE5C28
:10F8A000DE4F88819981AA81BB81C253D1408050AB
:10F8B000904CA340B04030F583E0CE5CDE4FE88052
:10F8C000F9800A811B81C253D140F70100935B008C
:10F8D00080935700E89507B600FCFDCFCE5CDE4F65
:10F8E000088119812A813B81C253D14000501F4FAA
:10F8F0002F4F3F4FCE5CDE4F088319832A833B8313
:10F90000C253D140C05EDE4F488159816A817B81FC
:10F91000C052D140DE011B9631E08C9111962C91A2
:10F9200011971296C75CDE4F2883C953D140C85C3B
:10F93000DE4F1882C853D14090E0C85CDE4FE881AA
:10F94000F981C853D1408E2B9F2B0C01FA01609393
:10F950005B0030935700E89511244E5F5F4F6F4F67
:10F960007F4F0EEFE02E0FEFF02ECE0CDF1CC114F8
:10F97000D10499F685E0C05EDE4F088119812A81A5
:10F980003B81C052D140F80120935B008093570027
:10F99000E89507B600FCFDCF81E180935700E8951C
:10F9A00035C0C05EDE4F88819981AA81BB81C0527B
:10F9B000D140B695A795979587957C018601ABE0D8
:10F9C000AA2EB12CAC0EBD1E0BC0D5016D915D01F0
:10F9D000C7010F947FFE0894E11CF11C01501040F8
:10F9E0000115110591F7A60160E070E0440F551F65
:10F9F000661F771FC05EDE4FE880F9800A811B8199
:10FA0000C052D1404E0D5F1D601F711F1A82C05E33
:10FA1000DE4F488359836A837B83C052D1407FC0C5
:10FA2000FA80C55CDE4FF882CB53D140C65CDE4F16
:10FA30001882CA53D1408B81C82EDD24C65CDE4FAC
:10FA400008811981CA53D140C02AD12A1A828981DA
:10FA5000BE016D5F7F4F843121F59601C05EDE4FA0
:10FA6000E880F9800A811B81C052D1400BBFF701A9
:10FA700087919691DB018C9311969C936E5F7F4FDB
:10FA8000D801C7010296A11DB11DC05EDE4F88835B
:10FA90009983AA83BB83C052D14022503040F1F6F3
:10FAA00036C0C05EDE4F288139814A815B81C052F9
:10FAB000D1400894C108D108760100E010E0089414
:10FAC000C11CD11C0894E11CF11C011D111DE20E8A
:10FAD000F31E041F151F21BDBB27A52F942F832FB5
:10FAE00082BD2F5F3F4F4F4F5F4FF89A80B5DB01CC
:10FAF0008D93BD012E153F054007510761F7C05E8C
:10FB0000DE4F288339834A835B83C052D1409601FC
:10FB10002D5F3F4FFB01108204C080EC8A8322E0FE
:10FB200030E08BE18093C6008091C00086FFFCCF5F
:10FB30008091C00080648093C000C15DDE4FF88179
:10FB4000CF52D140F093C6008091C00086FFFCCF19
:10FB50008091C00080648093C000432F3093C60022
:10FB60008091C00086FFFCCF8091C00080648093AC
