:100000000C94E8010C9419020C9419020C94190236
:100010000C9419020C9419020C9419020C941902F4
:100020000C9419020C9419020C9419020C941902E4
:100030000C9419020C9419020C9419020C941902D4
:100040000C9419020C9419020C9419020C941902C4
:100050000C9419020C9419020C9419020C941513A7
:100060000C9419020C94DF120C94B5120C94190222
:100070000C9419020C9419020C9419020C94190294
:100080000C9419020C9419020C9419020C94190284
:100090000C9419020C9419020C9419020C94190274
:1000A0000C9419020C9419020C9419020C94190264
:1000B0000C9419020C9419020C9419020C94190254
:1000C0000C9419020C9419020C9419020C94190244
:1000D0000C9419020C9419020C9419020C94190234
:1000E0000C9419020C94F5090C940C040C9416044D
:1000F0000C941A040C94DF030C94FE030C94C902B4
:100100000C9420040C9475120C9424040C940B068B
:100110000C945F130C948D020C94FA030C94ED0371
:100120000C9470030C94BA020C94EB020C94D4114E
:100130000C9408040C94F4030C94F1030C94230322
:100140000C9412040C9404040C947B0D0C9425065E
:100150000C945E110C94E5030C949F0C0C94E90331
:100160000C94760A0C94B3070C94040F0C94DD02E3
:100170000C949C0C0C941F044E414E494E4954590A
:10018000494E46CDCCCC3D0AD7233C17B7D1387762
:10019000CC2B329595E6241FB14F0A000020410078
:1001A00000C84200401C4620BCBE4CCA1B0E5AAEC2
:1001B000C59D7400407A10F35A00A0724E180900D1
:1001C00010A5D4E80000E87648170000E40B5402BC
:1001D0000000CA9A3B000000E1F5050000809698F7
:1001E00000000040420F000000A086010000001047
:1001F0002700000000E80300000000640000000089
:10020000000A00000000000100000000002C76D869
:1002100088DC674F0823DFC1DFAE59E1B1B796E54F
:10022000E3E453C63AE651997696E8E6C28426EBB3
:10023000898C9B62ED407C6FFCEFBC9C9F40F2BAC6
:10024000A56FA5F490055A2AF75C936B6CF9676D5E
:10025000C11BFCE0E40D47FEF520E6B500D0ED90B3
:100260002E0300943577050080841E080000204E80
:100270000A000000C80C333333330F986E12831119
:1002800041EF8D2114893BE65516CFFEE6DB18D1F0
:10029000844B381BF77C1D901DA4BBE424203284C2
:1002A000725E228100C9F124ECA1E53D2700002106
:1002B00000240027002A002D003000330001010037
:1002C00000040107010A0100002200250028002B7C
:1002D000002E003100340002010000050108010B6E
:1002E00001000020002300260029002C002F0032EE
:1002F00000000100000301060109010505050507CD
:100300000508080808020202020A0A080804040490
:1003100004010101010101010103030303030303BC
:1003200003040707070C0C0C0C0C0C0C0C0202024B
:100330000206060606060606060B0B0B0B0B0B0B3E
:100340000B010210202008081020401020408002DD
:10035000010201080402010102040810204080800B
:10036000402010080402018004020180402010088F
:100370000402010804020101020408102040800167
:100380000204081020408000000A0B02090C0D0E28
:100390000807030401000000000000000000000046
:1003A000000000000000000000000000000000004D
:1003B000000000121110000000000000000000000A
:1003C00000000000000000000000000000005F13BB
:1003D00011241FBECFEFD1E2DEBFCDBF00E00CBFC6
:1003E0002CE0AEECB8E001C01D92A037B207E1F7F7
:1003F00018E0A0E0B2E0E8EDFCE300E00BBF02C0D3
:1004000007900D92AE3CB107D9F711E0C8EED1E0EC
:1004100000E006C021970109802FFE010E944C1CBC
:10042000C73ED10780E00807A9F70E94DA130C94B1
:100430006A1E0C940000AC011092B3099091030C59
:100440008091020CFA01BF01641B750B2091B30966
:1004500030813093B309931304C0921302C01092F9
:10046000B3093081311104C0921721F0CB010895F6
:100470003817D1F33196E7CF0F931F93CF93DF93C4
:100480008091F70B882309F446C0D0E0C0E08130AA
:1004900029F482E08093F70BC7EBD9E08091F80B49
:1004A000882341F1209721F4C091FC0BD091FD0BE2
:1004B0008E01CE010E941B02892B29F42196F8019E
:1004C00080818111F5CFF8018081882309F1C8016D
:1004D0000E941B02F801E80FF91F8081882311F0A8
:1004E00010823196F093FD0BE093FC0B1093FB0B05
:1004F0000093FA0B8091FA0B9091FB0B892B59F02A
:1005000081E08093F80BDF91CF911F910F910895B7
:1005100010E000E0EBCF80E0F6CFAF92BF92CF9239
:10052000DF92EF92FF920F931F93CF93DF936C01B3
:100530007B018B01040F151FEB015E01AE18BF0894
:10054000C017D10759F06991D601ED91FC91019046
:10055000F081E02DC6011995892B79F7C501DF914E
:10056000CF911F910F91FF90EF90DF90CF90BF90B0
:10057000AF900895FC01538D448D252F30E0842FDA
:1005800090E0821B930B541710F0CF9608950197BB
:100590000895FC01918D828D981761F0A28DAE0FA8
:1005A000BF2FB11D5D968C91928D9F5F9F73928F2F
:1005B00090E008958FEF9FEF0895FC01918D828D5B
:1005C000981731F0828DE80FF11D858D90E0089528
:1005D0008FEF9FEF0895FC01918D228D892F90E080
:1005E000805C9F4F821B91098F739927089581E149
:1005F00099E00E94EB0221E0892B09F420E0822F90
:100600000895FC01A48DA80FB92FB11DA35ABF4FA7
:100610002C91848D90E001968F739927848FA68901
:10062000B7892C93A089B1898C91837080648C9355
:10063000938D848D981306C00288F389E02D808104
:100640008F7D80830895EF92FF920F931F93CF9336
:10065000DF93EC0181E0888F9B8D8C8D98131AC0FD
:10066000E889F989808185FF15C09FB7F894EE89E4
:10067000FF896083E889F989808183708064808341
:100680009FBF81E090E0DF91CF911F910F91FF908C
:10069000EF900895F62E0B8D10E00F5F1F4F0F7334
:1006A0001127E02E8C8D8E110CC00FB607FCFACFEF
:1006B000E889F989808185FFF5CFCE010E94010389
:1006C000F1CFEB8DEC0FFD2FF11DE35AFF4FF082C0
:1006D0009FB7F8940B8FEA89FB8980818062CFCF26
:1006E000CF93DF93EC01888D8823B9F0AA89BB8969
:1006F000E889F9898C9185FD03C0808186FD0DC054
:100700000FB607FCF7CF8C9185FFF2CF808185FF74
:10071000EDCFCE010E940103E9CFDF91CF91089583
:1007200080E090E0892B29F00E94F70281110E945D
:10073000000080E090E0892B49F080E090E0892B78
:1007400029F00E94000081110E94000080E090E0EA
:10075000892B49F080E090E0892B29F00E9400006D
:1007600081110E94000080E090E0892B49F080E038
:1007700090E0892B29F00E94000081110C94000068
:1007800008958150823108F05AC0E82FF0E08827A0
:10079000E353FC4F8F4F0C944C1CED03F103DF032C
:1007A000E503E9031F04F403FA03FE030404080449
:1007B0000C04120416041F041A042004240480915B
:1007C00080008F77809380000895809180008F7DD6
:1007D000F9CF80918000877FF5CF84B58F7784BD76
:1007E000089584B58F7DFBCF8091B0008F77809383
:1007F000B00008958091B0008F7DF9CF8091900076
:100800008F77809390000895809190008F7DF9CF2D
:1008100080919000877FF5CF8091A0008F778093A3
:10082000A00008958091A0008F7DF9CF8091A00055
:10083000877FF5CF809120018F77809320010895E5
:10084000809120018F7DF9CF80912001877FF5CFA6
:10085000CF93DF93282F30E0F901E957FC4F8491C3
:10086000F901EF5BFC4FD491F901E550FD4FC491C4
:10087000CC23A1F081110E94C103EC2FF0E0EE0F18
:10088000FF1FEF51FD4FA591B491EC91ED2381E055
:1008900090E009F480E0DF91CF91089580E090E04E
:1008A000FACF1F93CF93DF93282F30E0F901E95758
:1008B000FC4F8491F901EF5BFC4FD491F901E550B5
:1008C000FD4FC491CC23A9F0162F81110E94C103C2
:1008D000EC2FF0E0EE0FFF1FE953FD4FA591B4910F
:1008E0008FB7F894EC91111108C0D095DE23DC93FA
:1008F0008FBFDF91CF911F910895DE2BF8CFCF935B
:10090000DF9390E0FC01EF5BFC4F249185509D4FFD
:10091000FC0184918823C9F090E0880F991FFC01A5
:10092000E355FD4FA591B491FC01E953FD4FC591ED
:10093000D49161110DC09FB7F8948C9120958223BA
:100940008C938881282328839FBFDF91CF910895BE
:10095000623051F49FB7F8943C91822F80958323A5
:100960008C93E8812E2BEFCF8FB7F894EC912E2B40
:100970002C938FBFEACF3FB7F894809107099091ED
:100980000809A0910909B0910A0926B5A89B05C0DC
:100990002F3F19F00196A11DB11D3FBFBA2FA92FFE
:1009A000982F8827BC01CD01620F711D811D911DFB
:1009B00042E0660F771F881F991F4A95D1F7089567
:1009C0008F929F92AF92BF92CF92DF92EF92FF925F
:1009D0006B017C010E94BB044B015C01C114D1047A
:1009E000E104F104B9F00E94BB04681979098A098D
:1009F0009B09683E73408105910580F321E0C21A8E
:100A0000D108E108F10888EE880E83E0981EA11C49
:100A1000B11CE4CFFF90EF90DF90CF90BF90AF90EC
:100A20009F908F900895CF92DF92EF92FF92CF9395
:100A3000DF939C0180917B00886080937B009AEC1F
:100A4000960F9770906490937C0080917A008064F8
:100A500080937A0080917A0086FDFCCFC091780067
:100A6000D0917900B901330F880B990B0E9466175A
:100A700020E030E040EA50E40E94C51720E030EC6E
:100A80004FE754E40E94841B6B017C01BE01DD0F23
:100A9000880B990B0E9466179B01AC01C701B60138
:100AA0000E94C517DF91CF91FF90EF90DF90CF901C
:100AB000089530E020E0FC0111921192CF012F5FE8
:100AC0003F4F62177307B9F70895FA01EE0FFF1F42
:100AD000E60FF71F1816190644F49C0121703327FE
:100AE0003293229395958795F5CF0895FC01019057
:100AF0000020E9F73197AF01481B590BBC0181E198
:100B000099E00C948D028F929F92AF92BF920F93B7
:100B10001F93CF93DF93CDB7DEB7A1970FB6F894AD
:100B2000DEBF0FBECDBF19A2423008F44AE08E01ED
:100B30000F5D1F4F842E912CB12CA12CA501940187
:100B40000E942A1CE62FB901CA01EA30F4F4E05DE4
:100B5000D801EE938D01232B242B252B79F790E0E0
:100B600080E0109719F0CD010E947605A1960FB68E
:100B7000F894DEBF0FBECDBFDF91CF911F910F91D3
:100B8000BF90AF909F908F900895E95CE1CFCF9296
:100B9000DF92EF92FF92CF93DF936B017C016DE2C6
:100BA00081E199E00E942303EC0166277727CB01BE
:100BB0006C197D098E099F094AE00E9483058C0FFC
:100BC0009D1FDF91CF91FF90EF90DF90CF90089520
:100BD000CF93DF93FC01448155816081718181E174
:100BE00099E00E948D02EC0180E492E00E9476057B
:100BF0008C0F9D1FDF91CF910895CF93DF930E94BB
:100C00007605EC0180E492E00E9476058C0F9D1F32
:100C1000DF91CF91089583E492E00C94FD050C944C
:100C200076050E943C02882359F081E08093F80BFE
:100C30008093F90B8091FA0B9091FB0B0C94B716F3
:100C40001092F90B90E080E00895CF93DF930E941B
:100C50001106EC019093F1088093F00887E393E08C
:100C60000E940F06BE01DD0F880B990B97FF08C08D
:100C70000E94C7058DE197E0DF91CF910C94FD05AF
:100C80004AE00E948305F6CF0F931F93CF93DF9323
:100C90008C018AE593E00E940F06E801005F1F4F78
:100CA00069917991072E000C880B990B97FF0DC065
:100CB0000E94C705C017D10799F78CE593E0DF9133
:100CC000CF911F910F910C940F064AE00E9483056B
:100CD000F1CF0E943C02882359F081E08093F80B09
:100CE0008093F90B8091FA0B9091FB0B0C94D51625
:100CF0001092F90B60E070E0CB0108950F931F9301
:100D0000CF93DF93EC0188819981009759F02A8174
:100D10003B812617370730F081E0DF91CF911F919B
:100D20000F9108958B016F5F7F4F0E94791D00978F
:100D300059F0998388831B830A832C813D81232B5F
:100D400059F7FC011082E8CF80E0E7CFEF92FF92E5
:100D50000F931F93CF93DF936115710541F480E0EA
:100D6000DF91CF911F910F91FF90EF900895411562
:100D70005105B1F07B01EC010C811D81040F151FA1
:100D8000B8010E947E06882351F3288139818C8125
:100D90009D81B701820F931F0E94631E1D830C83E8
:100DA00081E0DECFCF93DF93EC01888199810097BA
:100DB00011F00E94F01C198218821D821C821B8275
:100DC0001A82DF91CF910895CF93DF93EC01FB015D
:100DD00001900020E9F73197AF01461B570B0E94A5
:100DE000A606811103C0CE010E94D206CE01DF917A
:100DF000CF910895CF93DF93EC01FB01448155819E
:100E0000608171810E94A606811103C0CE010E94FB
:100E1000D206CE01DF91CF910895EF92FF920F930A
:100E20001F93CF93DF93EC017B018A01BA010E94EB
:100E30007E0681110BC0CE010E94D206CE01DF9149
:100E4000CF911F910F91FF90EF9008951D830C8318
:100E5000B701888199810E94631EF0CFFB01019048
:100E60000020E9F73197AF01461B570B0C940D0793
:100E70000F931F93CF93DF93CDB7DEB762970FB673
:100E8000F894DEBF0FBECDBF8C01CB01F8011182FB
:100E9000108213821282158214824AE0BE016F5FB3
:100EA0007F4F0E941D17BE016F5F7F4FC8010E94D8
:100EB0002E0762960FB6F894DEBF0FBECDBFDF914E
:100EC000CF911F910F910895EF92FF920F931F936F
:100ED000CF93DF93CDB7DEB7A1970FB6F894DEBFFF
:100EE0000FBECDBF7C01CB01BA01F7011182108288
:100EF00013821282158214828E010F5F1F4F22E02F
:100F000044E00E943715009789F0BC01C7010E9498
:100F10002E07A1960FB6F894DEBF0FBECDBFDF91AE
:100F2000CF911F910F91FF90EF900895C7010E94FC
:100F3000D206EFCFFC011182108213821282158239
:100F40001482FB0101900020E9F73197AF01461BA5
:100F5000570B0C940D07FC0180819181009711F0D3
:100F60000C94F01C0895CF93DF93CDB7DEB72C9788
:100F70000FB6F894DEBF0FBECDBF6091F008709140
:100F8000F108CE0107960E9438076FE573E0CE01A5
:100F900001960E949A07BE01695F7F4FCE010196BC
:100FA0000E94FA066EE673E00E94E4060E94E805DD
:100FB000CE0101960E94AB07CE0107960E94AB07B7
:100FC0002C960FB6F894DEBF0FBECDBFDF91CF9148
:100FD00008950C94E71A6F927F928F929F92AF922E
:100FE000BF92CF92DF92EF92FF920F931F93CF9316
:100FF000DF93CDB7DEB73C018B014A01ADB6BEB67B
:101000007B01EE0CFF1C8DB79EB78E199F090FB6A2
:10101000F8949EBF0FBE8DBFEDB7FEB731966F013E
:10102000CF010E945905A801B601C4010E946505BF
:10103000EC0CFD1C8301F2E0EF1AF108F80180814D
:101040000E5F1F4FF70160810E945104EC14FD04F4
:1010500091F70FB6F894BEBE0FBEADBEDF91CF9133
:101060001F910F91FF90EF90DF90CF90BF90AF90C6
:101070009F908F907F906F900895CF92DF92EF9224
:10108000FF920F931F93CF93DF938C016B017A0133
:101090008CE10E942804019761F080E793E0DF91E2
:1010A000CF911F910F91FF90EF90DF90CF900C9414
:1010B000FD05CEE1D2E08881229661E00E947F04A6
:1010C00082E0CE32D807B9F7A60168E070E08EE181
:1010D00092E00E94EB07A70164E070E086E192E0F5
:1010E0000E94EB07A80168E070E086E092E00E94B1
:1010F000EB0760E083E30E945104C4E6D0E08CE19A
:101100000E942804892B51F02197C9F761E083E3FD
:101110000E9451048FE893E00E94FD0561E083E3A3
:101120000E9451048DE10E942804019719F086EA7B
:1011300093E0B5CFDF91CF911F910F91FF90EF908A
:10114000DF90CF9008958F929F92AF92BF92CF92EF
:10115000DF92EF92FF920F931F93CF93DF93CDB760
:10116000DEB766970FB6F894DEBF0FBECDBF4C0159
:1011700021E0821A9108F401EA50F74F6F012081B3
:10118000261709F4FBC0F62E8C01BC01CE01019696
:10119000FF2009F43EC00E94380769EB73E0CE01DE
:1011A00041960E949A07BE016F5F7F4FCE01419624
:1011B0000E94FA066CEC73E00E94E4060E94E805C7
:1011C000CE0141960E94AB07CE0101960E94AB076B
:1011D000F601F082C090F408D090F508A090F208D3
:1011E000B090F308F110EEC0093011050CF4D9C02D
:1011F0000950110981E090E0FC0102C0EE0FFF1FD1
:101200000A95E2F78F01009510950A211B217601BE
:10121000D5C00E9438076AED73E0CE0141960E9466
:101220009A07BE016F5F7F4FCE0141960E94FA067A
:1012300060EF73E0C1CFEE24E394F12C02C0EE0C1A
:10124000FF1C8A94E2F7EC28FD28850195E0892EA1
:10125000912C8CEF93E00E940F068CE094E00E94AA
:101260000F0668E070E0CE0101960E94590548E043
:1012700050E0BE016F5F7F4FC6010E946505CE0141
:1012800001960E94440685E294E00E940F0668E001
:1012900070E0CE0101960E94590548E050E0BE0181
:1012A0006F5F7F4FC7010E946505CE0101960E94C6
:1012B00044068EE394E00E940F0668E070E0CE01E1
:1012C00001960E94590548E050E0BE016F5F7F4FD4
:1012D000C5010E946505CE0101960E94440687E57E
:1012E00094E00E940F0668E070E0CE0101960E9433
:1012F000590548E050E0BE016F5F7F4FC8010E9472
:101300006505CE0101960E94440680E794E00E94A4
:10131000FD058091F4089091F508E816F906A1F012
:10132000F092F508E092F4084091F0085091F1082D
:10133000B70181E090E00E943D08B401092C000C47
:10134000880B990B0E94E0048091F2089091F308B9
:101350000817190799F01093F3080093F2084091C9
:10136000F0085091F108B80182E090E00E943D0839
:10137000B401990C880B990B0E94E00466960FB695
:10138000F894DEBF0FBECDBFDF91CF911F910F91BB
:10139000FF90EF90DF90CF90BF90AF909F908F9095
:1013A0000895EE24E394F12C02C0EE0CFF1C8A9405
:1013B000E2F7E094F094EC20FD20850188248394EA
:1013C000912C47CF093011050CF435CF0950110984
:1013D00081E090E09C0102C0220F331F0A95E2F7E2
:1013E00089010A291B29760131CF0F931F93CF93CF
:1013F000DF93C8E0D0E00E9411068C010E94110624
:101400009801215031092031310538F461E0892BF0
:1014100009F460E0C8010E94A308219761F7DF91F9
:10142000CF911F910F9108950F931F93CF93DF9347
:10143000CDB7DEB760970FB6F894DEBF0FBECDBF55
:101440000091EE081091EF08882309F44BC0006466
:1014500083E794E00E94FD050F778091EE0890915C
:10146000EF088017910799F11093EF080093EE08A9
:1014700082EB94E00E940F0668E070E0CE010196D6
:101480000E94590548E050E0BE016F5F7F4F809198
:10149000EE089091EF080E946505CE0101960E942A
:1014A000440687EC94E00E94FD054091F0085091BD
:1014B000F1086091EE087091EF0890E080E00E94E2
:1014C0003D0865E070E080E090E00E94E0046096F6
:1014D0000FB6F894DEBF0FBECDBFDF91CF911F9145
:1014E0000F9108950F7B82E994E0B4CFCF92DF9201
:1014F000EF92FF92CF93DF93CDB7DEB72C970FB665
:10150000F894DEBF0FBECDBF81E00E94140A63E4F1
:1015100070E080910F09909110090E9413056B01F2
:101520007C0180E00E94140AB701A601CE01079653
:101530000E9464076CEC74E0CE0101960E949A0749
:10154000BE01695F7F4FCE0101960E94FA066EE6EA
:1015500073E00E94E4060E94E805CE0101960E9415
:10156000AB07CE0107960E94AB072C960FB6F894F6
:10157000DEBF0FBECDBFDF91CF91FF90EF90DF9028
:10158000CF9008952091EC083091ED08B9016F7368
:10159000772781309105B9F00C97B9F0621773077E
:1015A000B1F07093ED086093EC084091F008509111
:1015B000F10889E090E00E943D0865E070E080E07D
:1015C00090E00C94E0046064E9CF6068E7CF089590
:1015D000AF92BF92CF92DF92EF92FF920F931F9341
:1015E000CF93DF93CDB7DEB766970FB6F894DEBF23
:1015F0000FBECDBF6B017C01BC01A601CE0141969F
:101600000E94640760EE74E0CE0101960E949A0782
:10161000BE016F5E7F4FCE0101960E94FA066DE11A
:1016200077E00E94E4060E94E805CE0101960E9440
:10163000AB07CE0141960E94AB07C092E808D0925A
:10164000E908E092EA08F092EB08A090E608B09072
:10165000E7080091E4081091E50820E030E040E45C
:1016600050E4C701B6010E94841B20E030E040E254
:1016700051E40E94181B6B017C0120E030E040EA3D
:1016800051E40E94251C87FD9BC08FEF90E0909352
:10169000E7088093E6089093E5088093E408E090DB
:1016A000E408F090E508C090E608D090E70882EFE3
:1016B00094E00E940F068EE095E00E940F0668E01D
:1016C00070E0CE0101960E94590548E050E0BE014D
:1016D0006F5F7F4FC5010E946505CE0101960E9494
:1016E000440685E295E00E940F0668E070E0CE01B6
:1016F00001960E94590548E050E0BE016F5F7F4FA0
:10170000C6010E946505CE0101960E9444068CE345
:1017100095E00E940F0668E070E0CE0101960E94FD
:10172000590548E050E0BE016F5F7F4FC8010E943D
:101730006505CE0101960E94440683E595E00E946E
:101740000F0668E070E0CE0101960E94590548E05E
:1017500050E0BE016F5F7F4FC7010E946505CE015B
:1017600001960E94440680E794E00E94FD054091A6
:10177000F0085091F1086091E6087091E70886E062
:1017800090E00E943D084091F0085091F10860916E
:10179000E4087091E50887E090E00E943D086696B5
:1017A0000FB6F894DEBF0FBECDBFDF91CF911F9172
:1017B0000F91FF90EF90DF90CF90BF90AF90089582
:1017C00020E030E0A901C701B6010E945F1718169A
:1017D0004CF01092E7081092E6081092E50810927B
:1017E000E4085DCF20E03CEC4CE455E4C701B601D1
:1017F0000E94C5170E94F61B9B0133273093E70810
:101800002093E6087093E4081092E50848CFCF9241
:10181000DF92EF92FF920F931F93CF93DF93CDB799
:10182000DEB760970FB6F894DEBF0FBECDBF182F9E
:10183000882309F46EC08AE695E00E94FD0595E0D4
:10184000E92EF12CC090E208D090E308112309F4AE
:1018500070C086010F7B016083EA95E00E940F064D
:1018600089EC95E00E940F0668E070E0CE010196D9
:101870000E94590548E050E0BE016F5F7F4FC601EE
:101880000E946505CE0101960E9444068AEE95E00D
:101890000E940F0668E070E0CE0101960E94590593
:1018A00048E050E0BE016F5F7F4FC8010E946505B0
:1018B000CE0101960E94440680E794E00E94FD0557
:1018C0008091E2089091E3088017910799F01093B6
:1018D000E3080093E2084091F0085091F108B80144
:1018E00085E090E00E943D08B701FF0C880B990B42
:1018F0000E94E00460960FB6F894DEBF0FBECDBF25
:10190000DF91CF911F910F91FF90EF90DF90CF90DB
:1019100008951092E8081092E9081092EA081092CF
:10192000EB0885E895E00E94FD05EE24E394F12C98
:1019300089CF86010E7F90CF80E00C94070C8F92A8
:101940009F92AF92BF92CF92DF92EF92FF920F934E
:101950001F93CF93DF93CDB7DEB72C970FB6F894D4
:10196000DEBF0FBECDBF0E9469066B018B01015027
:10197000110900311105C0F18BE096E00E94FD05D0
:10198000B501A401CE0107960E9464076DE276E0DE
:10199000CE0101960E949A07BE01695F7F4FCE017A
:1019A00001960E94FA066EE673E00E94E4060E9429
:1019B000E805CE0101960E94AB07CE0107960E9472
:1019C000AB072C960FB6F894DEBF0FBECDBFDF91EC
:1019D000CF911F910F91FF90EF90DF90CF90BF902C
:1019E000AF909F908F90089581E090E090931009C0
:1019F00080930F090E94C20A89E0C816D1040CF036
:101A000070C008621093EF080093EE084091F00850
:101A10005091F1086091EE087091EF0890E080E03D
:101A20000E943D0865E070E080E090E00E94E004E4
:101A300064E470E080910F09909110090E941305F1
:101A40004B015C0120E030E040E850E40E94251C9E
:101A5000181664F583E090E09093100980930F09C5
:101A60000E94C20A64E470E080910F09909110090D
:101A70000E9413054B015C0120E030E040E251E49C
:101A80000E94251C181694F48CE090E090931009A5
:101A900080930F090E94C20A64E470E080910F09EC
:101AA000909110090E9413054B015C016091EE08B2
:101AB0007091EF08607877277093EF086093EE08D5
:101AC0004091F0085091F10890E080E00E943D08BC
:101AD00081E090E09093100980930F090E94C20A60
:101AE0004FCF89E0C81AD10880E3C82AD092EF0806
:101AF000C092EE088BCF4F925F926F927F928F923F
:101B00009F92AF92BF92CF92DF92EF92FF920F938C
:101B10001F93CF93DF93CDB7DEB766970FB6F894D8
:101B2000DEBF0FBECDBF28E0422E512C6624639449
:101B3000712C0E9411068C010E9411067C01680123
:101B400081E0C81AD10890E1C916D104D8F1B801D2
:101B5000CE0101960E94380761E476E0CE014196FD
:101B60000E949A07BE016F5F7F4FCE0141960E948F
:101B7000FA0665EB76E00E94E4060E94E805CE01D5
:101B800041960E94AB07CE0101960E94AB07F1E09F
:101B90004F1A510871F666960FB6F894DEBF0FBE65
:101BA000CDBFDF91CF911F910F91FF90EF90DF900C
:101BB000CF90BF90AF909F908F907F906F905F90ED
:101BC0004F90089599249394E114F10409F4912C11
:101BD000F601EE52F74F5F0180818915C1F2B8011D
:101BE000CE010196E114F104D9F10E94380769EBA6
:101BF00073E0CE0141960E949A07BE016F5F7F4F4E
:101C0000CE0141960E94FA066AEF76E00E94E40651
:101C10000E94E805CE0141960E94AB07CE010196D5
:101C20000E94AB07F5019082A090D008B090D10837
:101C30008090CE089090CF08EF2809F0D5C00930E9
:101C400011056CF109501109730102C0EE0CFF1C63
:101C50000A95E2F7E094F094E820F92085012AC083
:101C60000E9438076AED73E0CE0141960E949A0700
:101C7000BE016F5F7F4FCE0141960E94FA066CE075
:101C800077E0C4CF830102C0000F111FCA94E2F7AE
:101C90000A291B29740185E0C82ED12C0EC08301AE
:101CA00002C0000F111FCA94E2F7009510950A2197
:101CB0001B217401CC24C394D12C80E297E00E94B4
:101CC0000F0687E397E00E940F0668E070E0CE0100
:101CD00001960E94590548E050E0BE016F5F7F4FBA
:101CE000C5010E946505CE0101960E94440680E56B
:101CF00097E00E940F0668E070E0CE0101960E9416
:101D0000590548E050E0BE016F5F7F4FC8010E9457
:101D10006505CE0101960E94440689E697E00E947F
:101D20000F0668E070E0CE0101960E94590548E078
:101D300050E0BE016F5F7F4FC4010E946505CE0178
:101D400001960E94440682E897E00E940F0668E030
:101D500070E0CE0101960E94590548E050E0BE01B6
:101D60006F5F7F4FC7010E946505CE0101960E94FB
:101D7000440680E794E00E94FD058091D008909190
:101D8000D10808171907A1F01093D1080093D008C3
:101D90004091F0085091F108B80183E090E00E9472
:101DA0003D08B6010D2C000C880B990B0E94E00435
:101DB0008091CE089091CF08E816F90609F4E7CE95
:101DC000F092CF08E092CE084091F0085091F108CF
:101DD000B70184E090E00E943D08B601DD0C880B5D
:101DE000990B0E94E004D3CE093011050CF44ACFC0
:101DF00009501109730102C0EE0CFF1C0A95E2F7AD
:101E0000E828F928850147CFEF92FF920F931F939F
:101E1000CF93DF93CDB7DEB72C970FB6F894DEBF24
:101E20000FBECDBFE0912109F091220982E08083AD
:101E3000E0911D09F0911E091082E0911F09F091B7
:101E4000200980E1808310922909E0912509F09111
:101E5000260986E08083E0912309F091240980819E
:101E600080618083E0912309F0912409808188605A
:101E70008083E0912309F091240980818068808328
:101E8000E0912309F091240980818F7D80838BE983
:101E900097E00E94FD051092F1081092F00806E00C
:101EA00012E0F80180810E5F1F4F61E00E947F0405
:101EB000F2E006311F07A9F761E083E30E947F0487
:101EC00061E084E30E947F0461E085E30E947F0477
:101ED00061E083E30E94510461E084E30E945104C5
:101EE00061E085E30E94510462E08CE10E947F047E
:101EF00062E08DE10E947F0460E084E40E947F0440
:101F000060E083E40E947F0461E085E20E947F0438
:101F100061E086E20E947F0461E087E20E947F0424
:101F200061E088E20E947F041092E7081092E608C0
:101F300080E890E09093E5088093E4081092E3082D
:101F40001092E2081092F5081092F4081092F3082B
:101F50001092F2081092D1081092D0081092CF0877
:101F60001092CE081092EF081092EE081092ED0831
:101F70001092EC0850E040E070E060E086E090E015
:101F80000E943D084091F0085091F1086091E408EA
:101F90007091E50887E090E00E943D084091F008CC
:101FA0005091F1086091E2087091E30885E090E0BB
:101FB0000E943D084091F0085091F1086091EE08B0
:101FC0007091EF0890E080E00E943D084091F00899
:101FD0005091F1086091F4087091F50881E090E06B
:101FE0000E943D084091F0085091F1086091F2087C
:101FF0007091F30882E090E00E943D084091F00863
:102000005091F1086091D0087091D10883E090E080
:102010000E943D084091F0085091F1086091CE086F
:102020007091CF0884E090E00E943D084091F00854
:102030005091F1086091EC087091ED0889E090E012
:102040000E943D08E090F008F090F1088CE10E94B9
:102050002804019709F4E2C08DEA97E00E94FD058B
:1020600061E070E080E090E00E94E0048BE096E0A8
:102070009093050C8093040C84ED91E19093090CEE
:102080008093080C8CE99CE09093170C8093160CBD
:102090008BE79DE090930B0C80930A0C85EF99E001
:1020A00090930D0C80930C0C8FE99CE090930F0C97
:1020B00080930E0C86E79AE09093110C8093100C9D
:1020C00085E296E09093130C8093120C83EB97E0DB
:1020D0009093150C8093140C84E09FE09093190C5E
:1020E0008093180C85E792E190931B0C80931A0C57
:1020F0008EE591E190931D0C80931C0C81E0809300
:10210000B609E6EFF8E0A2EDB8E086E099E01192BA
:102110001D928E179F07D9F785EE97E00E94FD0567
:1021200062E370E080E090E00E94E00490E080E0F4
:102130000E94E907182F62E370E080E090E00E94BF
:10214000E00482E498E0113009F059C088EF97E08C
:102150000E94FD0561E081E090E00E94A30881E01B
:102160000E94070C81E090E00E94E907182F64E6C6
:1021700070E080E090E00E94E004612F70E07093D6
:10218000F1086093F008CE0107960E9438076EE0D0
:1021900078E0CE0101960E949A07BE01695F7F4FE9
:1021A000CE0101960E94FA066DE177E00E94E406F6
:1021B0000E94E805CE0101960E94AB07CE0107966A
:1021C0000E94AB0782E090E00E94E907182F64E6C6
:1021D00070E080E090E00E94E004612F70E090E009
:1021E00080E00E9464176093E8087093E908809388
:1021F000EA089093EB080E94E80A83E298E00E94C4
:10220000FD052C960FB6F894DEBF0FBECDBFDF9153
:10221000CF911F910F91FF90EF9008950EE112E082
:10222000F80180810E5F1F4F60E00E947F04F2E0A2
:102230000E321F07A9F7A70164E070E086E192E083
:102240000E94EB0748E050E068E070E086E092E032
:102250000E94EB0760E084E30E94510404E610E072
:102260008CE10E942804892B59F001501109C1F713
:1022700061E084E30E9451048DEC97E00E94FD052B
:102280000EE212E002501109F80180810E94280438
:10229000F2E00E311F07B1F70FB6F894DEBF0FBEA4
:1022A000CDBF61E084E30E9451048DE10E942804C7
:1022B000019709F4D5CE86EA93E0D0CE1F93CF9351
:1022C000DF93CDB7DEB72F970FB6F894DEBF0FBE02
:1022D000CDBF8CE598E00E94FD0590E080E00E9473
:1022E000E907182F1B861A861D861C861F861E86E8
:1022F0004AE0BE016F5F7F4F90E00E944517BE012C
:102300006F5F7F4FCE010A960E942E0761E878E04A
:10231000CE0101960E949A07BE01665F7F4FCE01F3
:1023200001960E94FA066EE878E00E94E4060E9498
:10233000E805CE0101960E94AB07CE010A960E94E5
:10234000AB07112339F14091E8085091E9086091F9
:10235000EA087091EB08CE010A960E94640766E3D2
:1023600076E0CE0101960E949A07BE01665F7F4F1C
:10237000CE0101960E94FA066EE878E00E94E4061B
:102380000E94E805CE0101960E94AB07CE010A9695
:102390000E94AB072F960FB6F894DEBF0FBECDBFDD
:1023A000DF91CF911F9108958F929F92AF92BF922C
:1023B000CF92DF92EF92FF920F931F93CF93DF9311
:1023C000CDB7DEB768970FB6F894DEBF0FBECDBFAE
:1023D0000E9469066B010E9469064B0181E00E9420
:1023E000070CB401CE010D960E943807B601CE014C
:1023F00001960E94380718861F821A8619861C8645
:102400001B8669817A816115710531F04D815E818C
:10241000CE0107960E940D0763EB76E0CE0107968A
:102420000E94E406BE01635F7F4F0E94FA061C8A89
:102430001B8A1E8A1D8A188E1F8A8E010D5E1F4FF1
:102440008017910759F0FC01608171816115710558
:1024500029F044815581C8010E940D07CE010796DD
:102460000E94AB07CE0101960E94AB07CE010D96EC
:102470000E94AB078B899C890097D1F00E94B3160C
:102480000E94E80AC8010E94AB0768960FB6F8944C
:10249000DEBF0FBECDBFDF91CF911F910F91FF9097
:1024A000EF90DF90CF90BF90AF909F908F90089566
:1024B00060E070E0CB01E4CFFF920F931F93CF93C6
:1024C000DF93EC01F62E08811981C8010E94E71AFA
:1024D000F81621F06F2DC8010E94EF1ACE01DF918E
:1024E000CF911F910F91FF9008950F931F93CF935A
:1024F000DF931F921F92CDB7DEB70E9411068C01A9
:102500001A82198261E0892B09F460E0CE010196FC
:102510000E945C128FEA98E0012BF1F06091F008C4
:1025200081E090E09A838983CE0101960E945C123B
:102530006091E8087091E9088091EA089091EB08B1
:102540000E94F61B82E090E09A838983CE01019677
:102550000E945C1281E998E00E94FD050F900F90A7
:10256000DF91CF911F910F9108951F920F920FB697
:102570000F9211240BB60F922F933F934F935F93BB
:102580006F937F938F939F93AF93BF93EF93FF933B
:1025900081E199E00E940103FF91EF91BF91AF911A
:1025A0009F918F917F916F915F914F913F912F916B
:1025B0000F900BBE0F900FBE0F901F9018951F929B
:1025C0000F920FB60F9211240BB60F922F938F9389
:1025D0009F93EF93FF93E0912109F091220980816D
:1025E000E0912709F091280982FD1DC0908180911A
:1025F0002A098F5F8F7320912B09821741F0E09198
:102600002A09F0E0EF5EF64F958F80932A09FF913B
:10261000EF919F918F912F910F900BBE0F900FBE56
:102620000F901F9018958081F2CF1F920F920FB6D6
:102630000F9211242F933F938F939F93AF93BF9348
:1026400080910B0990910C09A0910D09B0910E0990
:102650003091060923E0230F2D3758F50196A11D6F
:10266000B11D2093060980930B0990930C09A09348
:102670000D09B0930E098091070990910809A09166
:102680000909B0910A090196A11DB11D809307099E
:1026900090930809A0930909B0930A09BF91AF91DB
:1026A0009F918F913F912F910F900FBE0F901F9090
:1026B000189526E8230F0296A11DB11DD2CF1092C6
:1026C00014091092130988EE93E0A0E0B0E0809323
:1026D000150990931609A0931709B093180982E37E
:1026E00092E0909312098093110985EC90E0909309
:1026F0001E0980931D0984EC90E09093200980933B
:102700001F0980EC90E0909322098093210981ECCD
:1027100090E0909324098093230982EC90E09093B9
:1027200026098093250986EC90E0909328098093F0
:10273000270910922A0910922B0910922C09109245
:102740002D091092050C1092040C81E199E09093F0
:10275000000C8093FF0B1092B6098CE28093020C60
:102760008BE38093010C8FE28093030C80E48093D1
:10277000B1098FE38093B2091092B0091092FB0B5C
:102780001092FA0B1092FD0B1092FC0B81E08093DB
:10279000F80BE6E0FCE0119211928CE0EA36F807C3
:1027A000D1F71092B50983E090E0909310098093DF
:1027B0000F090895789484B5826084BD84B58160E2
:1027C00084BD85B5826085BD85B5816085BD8091FC
:1027D0006E00816080936E00109281008091810074
:1027E000826080938100809181008160809381006C
:1027F000809180008160809380008091B10084602E
:102800008093B1008091B00081608093B00080918E
:10281000910082608093910080919100816080930B
:102820009100809190008160809390008091A10040
:1028300082608093A1008091A10081608093A100BB
:102840008091A00081608093A0008091210182602E
:1028500080932101809121018160809321018091E9
:10286000200181608093200180917A0084608093B0
:102870007A0080917A00826080937A0080917A0059
:10288000816080937A0080917A00806880937A00DA
:102890001092C1000E94040FDD24D3948091B509E9
:1028A0008111DBC08091FF0B9091000CDC01ED9158
:1028B000FC910084F185E02D1995892B09F4CDC098
:1028C0008091FF0B9091000CDC01ED91FC91008454
:1028D000F185E02D1995C0E0D2E08115924064F4B5
:1028E0008091FF0B9091000CDC01ED91FC91008434
:1028F000F185E02D1995EC010091FF0B1091000C72
:1029000097EFE92E99E0F92E4701B12CA12CCA15B9
:10291000DB0509F056C010E000E0C017D10709F44C
:10292000BDCFD7019D917D011092F70B3091030C23
:102930002091B4099093B409931304C0921302C078
:102940001092B4098091B009E82FF0E04091010C99
:10295000E255F64F94136DC0321709F46AC0118620
:10296000882321F0D092F70B1092B4091092B0098D
:102970001092FB0B1092FA0B1092FD0B1092FC0BB5
:10298000D092F80B8091F70B813009F063C00E9460
:1029900011068093AF09823308F055C02091F90BDE
:1029A000222309F450C0FC01FF27EE0FFF1FEA5F4E
:1029B000F34F0190F081E02D309709F444C0199550
:1029C00049C02FB7F89480910B0990910C09A09100
:1029D0000D09B0910E092FBFF80180879187A2875A
:1029E000B387D801ED91FC910284F385E02DC801F5
:1029F000199597FF35C02FB7F89480910B099091E6
:102A00000C09A0910D09B0910E092FBFF801408566
:102A1000518562857385841B950BA60BB70B44818A
:102A200055816681778184179507A607B707C8F295
:102A300072CF91878F5F8093B0099091B209891707
:102A400008F094CF9FCFE091040CF091050C3097E3
:102A500009F0B5CF0F5F1F4F60CF0E9490031ECFCC
:102A6000F40181934F01FFEFAF1ABF0A50CFEF92ED
:102A70000F931F93CF93DF93E80134E047FD34E1D8
:102A8000042E000C550B57FF03C051954195510979
:102A9000E32E022F242FAE010E943218CE01DF91C7
:102AA000CF911F910F91EF9008958F929F92AF92C7
:102AB000BF92CF92DF92EF92FF920F931F93CF932B
:102AC000DF935C017B016115710519F0DB018D93CA
:102AD0009C9385010F5F1F4FF501D0818D2F90E0F2
:102AE0000E94FC166C01892BB9F5DD32B9F50F5F38
:102AF0001F4FD5011196DC91C1E05801F1E0AF1AEA
:102B0000B10843E050E060E871E0C5010E9405179C
:102B1000892B69F5680182E0C80ED11C45E050E0C0
:102B20006BE771E0C6010E940517892B21F468014B
:102B300097E0C90ED11CE114F10419F0D701CD9230
:102B4000DC9260E070E080E89FEFC111FFC060E0C0
:102B500070E080E89FE7FAC05801BBCFDB3229F470
:102B600085010E5F1F4FF501D181C0E0C6CF43E064
:102B700050E068E771E0C5010E940517892BE9F074
:102B8000F80110E000E020E030E0A9015F01B0EDC5
:102B90008B2E8D0E89E08815C8F19C2E689491F8D3
:102BA0008C2F8870C2FF16C0811102C00F5F1F4FAB
:102BB0003196D501DC91C92DE9CFE114F10429F05A
:102BC0000E5F1F4FF7011183008360E070E080EC1F
:102BD0009FE7BCC0882311F001501109A5E0B0E0C7
:102BE0000E94FD1A9B01AC01220F331F441F551F89
:102BF000280D311D411D511D283999E93907490713
:102C000099E15907A8F2C6609C2ED2CFAEEF8A1286
:102C100006C0C3FD3CC09C2E689493F8C9CFDF7DED
:102C2000D534A9F580818D3239F4C061DF01129667
:102C3000818162E070E006C0DF018B32C1F3119642
:102C400061E070E080535D01A61AB70A8A30F8F49B
:102C5000E0E8CE16ECE0DE065CF4B601660F771F06
:102C6000660F771FC60ED71ECC0CDD1CC80ED11CFC
:102C70005D01FFEFAF1ABF0A8C9180538A30A8F133
:102C8000C4FF03C0D194C194D1080C0D1D1DC1FF18
:102C900009C0E114F10431F081E0A81AB108D701AC
:102CA000AD92BC92CA01B9010E946417C370C330CF
:102CB00009F490584B015C0120E030E0A9010E942A
:102CC0005F17882309F440C0CFEAD1E017FF05C0A1
:102CD000119501951109C7E9D1E06E01B8E1CB1A50
:102CE000D10880E2E82EF12C0FC0D501B1CFFE0152
:102CF00025913591459154910E191F09C501B401D3
:102D00000E94C5174B015C01D501C4010E151F05BA
:102D100074F72497F594E794CC16DD06A9F78A2F6B
:102D2000880F8B2F881F8F3F49F020E030E0A901EA
:102D3000C501B4010E945F17811106C082E290E0D4
:102D400090936B0C80936A0CC501B401DF91CF9115
:102D50001F910F91FF90EF90DF90CF90BF90AF90B9
:102D60009F908F900895662777270C945515FC0146
:102D700088279927E89421912032E9F3293010F02F
:102D80002E30C8F32B3241F02D3239F4689404C050
:102D90000E943D17820F911D219120532A30C0F3CC
:102DA0001EF4909581959F4F08951F93FC019927DC
:102DB0008827BC01E89411911032E9F3193010F022
:102DC0001E30C8F31B3251F01D3249F4689406C01E
:102DD0000E942817610F711D811D911D11911053C3
:102DE0001A30B0F33EF490958095709561957F4FC1
:102DF0008F4F9F4F1F91089591110C94831A803229
:102E000019F089508550C8F70895FB01DC01415045
:102E1000504088F08D9181341CF08B350CF4805E2D
:102E2000659161341CF06B350CF4605E861B61119A
:102E300071F3990B0895881BFCCFBB274A3031F4FE
:102E4000992322F4BDE2909581959F4F0C944617EB
:102E5000592F482F372F262F660F771F881F991F4E
:102E6000660F771F881F991F620F731F841F951F9E
:102E7000660F771F881F991F08957AE0979F902DFE
:102E8000879F802D910D11240895BB27FB015527A5
:102E9000AA27880F991FAA1FA41710F0A41B8395B7
:102EA0005051B9F7A05DAA3308F0A95DA19300972E
:102EB00079F7B111B1931192CB010C94861A0E944B
:102EC000A11708F481E00895E89409C097FB3EF447
:102ED00090958095709561957F4F8F4F9F4F992367
:102EE000A9F0F92F96E9BB279395F69587957795E5
:102EF0006795B795F111F8CFFAF4BB0F11F460FFA5
:102F00001BC06F5F7F4F8F4F9F4F16C0882311F0FC
:102F100096E911C0772321F09EE8872F762F05C010
:102F2000662371F096E8862F70E060E02AF09A95AB
:102F3000660F771F881FDAF7880F9695879597F9A0
:102F40000895990F0008550FAA0BE0E8FEEF16163A
:102F50001706E807F907C0F012161306E407F5078D
:102F600098F0621B730B840B950B39F40A2661F001
:102F7000232B242B252B21F408950A2609F4A140A4
:102F8000A6958FEF811D811D08950E94D8170C947E
:102F9000AD1A0E949F1A38F00E94A61A20F09523BD
:102FA00011F00C94961A0C949C1A11240C94E11AAA
:102FB0000E94BE1A70F3959FC1F3950F50E0551F04
:102FC000629FF001729FBB27F00DB11D639FAA277E
:102FD000F00DB11DAA1F649F6627B00DA11D661FCD
:102FE000829F2227B00DA11D621F739FB00DA11DEE
:102FF000621F839FA00D611D221F749F3327A00DA8
:10300000611D231F849F600D211D822F762F6A2F43
:1030100011249F5750409AF0F1F088234AF0EE0FA8
:10302000FF1FBB1F661F771F881F91505040A9F7D5
:103030009E3F510580F00C94961A0C94E11A5F3F64
:10304000E4F3983ED4F3869577956795B795F79511
:10305000E7959F5FC1F7FE2B880F911D9695879589
:1030600097F908958F929F92AF92BF92CF92DF927D
:10307000EF92FF920F931F93CF93DF9300D000D076
:1030800000D0CDB7DEB76A01F22EB02E102FFBE3D1
:10309000AF2EA01608F41BE31F5F012F27E0AE013F
:1030A0004F5F5F4F0E94AB19BC018981982F9970C7
:1030B000913009F44EC09BE2E1FC04C09E2D91705A
:1030C000E0FC49C05E2D5071E82FE87083FF55C0C9
:1030D00084E0911101C083E0EF2DE81B8F1508F00B
:1030E000E0E0D6018E2F20E25523C9F1992329F083
:1030F000D6019C93C60101966C0196012D5F3F4F4E
:10310000E2FE33C08EE4D6018C9391E411969C9339
:10311000119712968C93D9018E2F90E281112AC0BB
:10312000E20FF32FF11D10828EEF9FEF29960FB65D
:10313000F894DEBF0FBECDBFDF91CF911F910F91ED
:10314000FF90EF90DF90CF90BF90AF909F908F90C7
:1031500008959DE2B7CF90E2B5CF2D9381508111B4
:10316000FCCFCE0ED11CE0E0C1CF8EE6D6018C9311
:1031700091E6CCCF9D938150D1CF482F447082FFF0
:103180003DC084E0911101C083E08F1510F4EF2D54
:10319000E81BD6018E2F20E2552309F1992329F04F
:1031A000D6019C93C60101966C0196012D5F3F4F9D
:1031B000E2FE1BC089E4D6018C938EE411968C93B9
:1031C000119786E412968C93D9018E2F90E2882372
:1031D00009F4A6CF9D938150FACF2D938150811190
:1031E000FCCFCE0ED11CE0E0D9CF89E6D6018C937E
:1031F0008EE611968C93119786E6E4CF9B0177FFBC
:1032000002C030E020E0A1E0B0E0911102C0B0E0E7
:10321000A0E0F9013196AE0FBF1F8B2C912CBB2083
:1032200009F461C05401EFEFAE1ABE0AAA0DBB1D2E
:10323000FA161B0619F014F04F2D4A1B511188C0C5
:10324000E3FC59C07601A42FB0E2A1114FC0C40E17
:10325000D11C992309F45BC040E0D6011196F60118
:1032600090836D01552309F448C0012F060F9A8100
:10327000582F507184FF03C0913309F40150101688
:103280000CF047C0093008F008E0EEE2FE2E5B01CA
:10329000A01AB10885019194819491082F3F3207BB
:1032A00029F4D601FC92F60131966F01621773077B
:1032B00094F1021713077CF5DB01A21BB30BAA24C0
:1032C000A394B12CAC0EBD1EAA0DBB1D11968C9102
:1032D00021503109D601119628153905F4F0F6016F
:1032E00080836D01DBCFB12CA12CA0CFF701B1936E
:1032F0007F01A150AACF9111B0CFD601942F50E3F6
:1033000002C05D9391509111FCCFC40ED11C40E0DE
:10331000ACCF01E0BACF80E3DBCF6217730731F4A3
:10332000963388F4953311F4552369F0F6018083C0
:10333000FD01842F90E2811108C0A40FB11D1C92E1
:1033400090E080E0F3CE81E3F1CF91938150F3CF11
:10335000911183CF8ACF283008F027E03327DA0194
:10336000990F311D87FD916000966105710539F453
:1033700032602E5F3D9330E32A95E1F708959F3F39
:1033800030F080387105610509F03C5F3C5F3D938A
:10339000913008F08068911DDF93CF931F930F93B6
:1033A000FF92EF92192F987F9695E92F9695969513
:1033B000E90FFF27E35FFD4F99273327EE24FF2412
:1033C000A701E70105900894079428F4360FE71E3B
:1033D000F81E491F511D660F771F881F991F0694FD
:1033E000A1F70590079428F4E70EF81E491F561F11
:1033F000C11D770F881F991F661F0694A1F70590BE
:10340000079428F4F80E491F561FC71FD11D880FB7
:10341000991F661F771F0694A1F70590079420F463
:10342000490F561FC71FD81F990F661F771F881F88
:103430000694A9F784911095177041F0D695C79519
:1034400057954795F794E7941A95C1F7E3EBF1E0A8
:1034500068941590159135916591959105907FE24D
:103460007395E118F10A430B560BC90BD009C0F74D
:10347000E10CF11E431F561FC91FD01D7EF470338F
:1034800011F48A95E6CFE894015030F0080F0AF461
:103490000027021708F4202F2395022F7A3328F0F3
:1034A00079E37D932A95E9F710C07D932A9589F6F3
:1034B000069497956795379517951794E118F10A33
:1034C000430B560BC90BD00998F023957E91739549
:1034D0007A3308F070E37C932013B8F77E91706123
:1034E0007D9330F0839571E37D9370E32A95E1F746
:1034F0001124EF90FF900F911F91CF91DF919927A9
:1035000087FD90950895992788270895DC01FC018F
:10351000672F71917723E1F7329704C07C916D9307
:1035200070836291AE17BF07C8F3089597F99F673C
:1035300080E870E060E008959FEF80EC089500243B
:103540000A941616170618060906089500240A9408
:1035500012161306140605060895092E0394000C8E
:1035600011F4882352F0BB0F40F4BF2B11F460FF1D
:1035700004C06F5F7F4F8F4F9F4F089557FD905846
:10358000440F551F59F05F3F71F04795880F97FB27
:10359000991F61F09F3F79F08795089512161306E1
:1035A0001406551FF2CF4695F1DF08C01616170610
:1035B0001806991FF1CF8695710561050894089545
:1035C000E894BB2766277727CB0197F90895F999E7
:1035D000FECF92BD81BDF89A992780B50895262F18
:1035E000F999FECF1FBA92BD81BD20BD0FB6F894E8
:1035F000FA9AF99A0FBE019608950E94081BA59F9A
:10360000900DB49F900DA49F800D911D11240895DD
:10361000A29FB001B39FC001A39F700D811D112413
:10362000911DB29F700D811D1124911D0895505858
:10363000BB27AA270E942F1B0C94AD1A0E949F1A29
:1036400038F00E94A61A20F039F49F3F19F426F4AE
:103650000C949C1A0EF4E095E7FB0C94961AE92F53
:103660000E94BE1A58F3BA176207730784079507BA
:1036700020F079F4A6F50C94E01A0EF4E0950B2EE8
:10368000BA2FA02D0B01B90190010C01CA01A001B4
:103690001124FF27591B99F0593F50F4503E68F10F
:1036A0001A16F040A22F232F342F4427585FF3CF50
:1036B000469537952795A795F0405395C9F77EF421
:1036C0001F16BA0B620B730B840BBAF09150A1F06A
:1036D000FF0FBB1F661F771F881FC2F70EC0BA0FF0
:1036E000621F731F841F48F4879577956795B79578
:1036F000F7959E3F08F0B0CF9395880F08F0992773
:10370000EE0F9795879508950E94981B0C94AD1A1B
:103710000E94A61A58F00E949F1A40F029F45F3FB9
:1037200029F00C94961A51110C94E11A0C949C1ADD
:103730000E94BE1A68F39923B1F3552391F3951BA8
:10374000550BBB27AA2762177307840738F09F5FC2
:103750005F4F220F331F441FAA1FA9F335D00E2E2F
:103760003AF0E0E832D091505040E695001CCAF79C
:103770002BD0FE2F29D0660F771F881FBB1F26175F
:1037800037074807AB07B0E809F0BB0B802DBF0136
:10379000FF2793585F4F3AF09E3F510578F00C9405
:1037A000961A0C94E11A5F3FE4F3983ED4F38695A1
:1037B00077956795B795F7959F5FC9F7880F911D26
:1037C0009695879597F90895E1E0660F771F881F12
:1037D000BB1F621773078407BA0720F0621B730BC5
:1037E000840BBA0BEE1F88F7E09508950E94C61A65
:1037F00088F09F5798F0B92F9927B751B0F0E1F0B2
:10380000660F771F881F991F1AF0BA95C9F714C061
:10381000B13091F00E94E01AB1E008950C94E01AE2
:10382000672F782F8827B85F39F0B93FCCF386959A
:1038300077956795B395D9F73EF4909580957095F7
:1038400061957F4F8F4F9F4F08950E94A11708F4F5
:103850008FEF0895A1E21A2EAA1BBB1BFD010DC01C
:10386000AA1FBB1FEE1FFF1FA217B307E407F50730
:1038700020F0A21BB30BE40BF50B661F771F881F0C
:10388000991F1A9469F760957095809590959B01A2
:10389000AC01BD01CF010895EE0FFF1F881F8BBF44
:1038A0000790F691E02D19940F931F93CF93DF9318
:1038B0008230910510F482E090E0E0916E0CF0917E
:1038C0006F0C30E020E0B0E0A0E0309799F42115D3
:1038D000310509F44AC0281B390B24303105D8F5CD
:1038E0008A819B816115710589F1FB019383828334
:1038F000FE0111C04081518102811381481759078F
:10390000E0F04817590799F4109761F012960C935C
:10391000129713961C933296CF01DF91CF911F918E
:103920000F91089500936E0C10936F0CF4CF211536
:10393000310551F04217530738F0A901DB019A0114
:10394000BD01DF01F801C1CFEF01F9CF90936F0CFA
:1039500080936E0CCDCFFE01E20FF31F8193919304
:103960002250310939832883D7CF20916C0C3091B4
:103970006D0C232B41F4209102023091030230930D
:103980006D0C20936C0C20910002309101022115E6
:10399000310541F42DB73EB7409104025091050224
:1039A000241B350BE0916C0CF0916D0CE217F307C2
:1039B000A0F42E1B3F0B2817390778F0AC014E5F9F
:1039C0005F4F2417350748F04E0F5F1F50936D0C63
:1039D00040936C0C819391939FCFF0E0E0E09CCFFB
:1039E000CF93DF930097E9F0FC01329713821282A4
:1039F000A0916E0CB0916F0CED0130E020E01097BB
:103A0000A1F420813181820F931F20916C0C3091A1
:103A10006D0C2817390709F061C0F0936D0CE09325
:103A20006C0CDF91CF910895EA01CE17DF07E8F51E
:103A30004A815B819E0141155105B1F7E901FB8384
:103A4000EA8349915991C40FD51FEC17FD0761F422
:103A5000808191810296840F951FE9019983888363
:103A6000828193819B838A83F0E0E0E012968D91BE
:103A70009C9113970097B9F52D913C911197CD0129
:103A80000296820F931F20916C0C30916D0C2817B9
:103A9000390739F6309751F510926F0C10926E0C71
:103AA000B0936D0CA0936C0CBCCFD383C2834081C8
:103AB0005181840F951FC817D90761F44E5F5F4F7E
:103AC00088819981480F591F518340838A819B8146
:103AD000938382832115310509F0B0CFF0936F0CE9
:103AE000E0936E0C9ECFFD01DC01C0CF13821282E9
:103AF000D7CF4F925F926F927F928F929F92AF92A9
:103B0000BF92CF92DF92EF92FF920F931F93CF93CA
:103B1000DF938C01009799F4CB01DF91CF911F9136
:103B20000F91FF90EF90DF90CF90BF90AF909F905C
:103B30008F907F906F905F904F900C94541CFC017D
:103B4000E60FF71F9C0122503109E217F30708F432
:103B5000AEC0D901CD91DC911197C617D70720F1DE
:103B6000C530D10578F0CE0104978617970750F03D
:103B7000C61BD70B2297C193D1936D937C93CF0132
:103B80000E94F01CC801DF91CF911F910F91FF900F
:103B9000EF90DF90CF90BF90AF909F908F907F90ED
:103BA0006F905F904F9008955B01AC1ABD0A4C0175
:103BB0008C0E9D1EA0916E0CB0916F0C512C412C5F
:103BC000F12CE12C109731F580916C0C90916D0CDB
:103BD0008815990509F05CC04616570608F058C0CC
:103BE0008091000290910102009741F48DB79EB739
:103BF0004091040250910502841B950BE817F907C8
:103C000008F055C0F0936D0CE0936C0CF9017183D2
:103C10006083B8CF8D919C91119712966C901297FA
:103C200013967C901397A815B90559F56C0142E0DD
:103C3000C40ED11CCA14DB0420F1AC014A195B0983
:103C4000DA011296159780F0628273825183408365
:103C5000D9016D937C93E114F10471F0D7011396AF
:103C6000FC93EE9312978ECF22968C0F9D1FF90135
:103C700091838083F301EFCFF0936F0CE0936E0C90
:103C800081CF4816590608F42C017D01D3019ACF43
:103C9000CB010E94541C7C01009749F0AE01B80191
:103CA0000E945A1EC8010E94F01C87016BCF10E0D1
:103CB00000E068CFFB01DC0102C001900D92415091
:103CC0005040D8F70895FB01DC0101900D920020CF
:083CD000E1F70895F894FFCF1D
:103CD8000000700C8000120013001400150016007C
:103CE80017001800190025002600270028000200E8
:103CF8000300040005000600070008000900000092
:103D0800000023038D02BA027003EB02C902DD0230
:103D18000D0A007C7C496E76616C696420636F6D66
:103D28006D616E6420726563656976656420627989
:103D38002041726475696E6F2C2074686572652005
:103D48006D7573742062652061206661756C7420DE
:103D5800696E2074686520636F6D6D756E69636147
:103D680074696F6E2E2E2E205468652066756E63FA
:103D780074696F6E20696E64657820726563656921
:103D880076656420646F6573206E6F74206D61744E
:103D9800636820616E20696E6465782073746F7241
:103DA800656420696E207468652070726F6772613F
:103DB8006D2E2E2E20496E6469636174696E6720CA
:103DC80061206661756C7420696E20746865206373
:103DD8006F6D6D756E69636174696F6E20287265A9
:103DE80074726576696E6720646174612066726FAB
:103DF8006D2073657269616C20706F72742C202E4F
:103E08002E2E29207C7C00232353756363657366FB
:103E1800756C6C79206368616E67656420626F6198
:103E280072644E7220746F3A20007B007D2000423D
:103E38006F6172644E756D6265723A205B005D0059
:103E48007C7C4552524F523A2041434B2077617354
:103E580020616C7265616479206C6F777C7C007C72
:103E68007C4552524F523A2041434B206578706945
:103E78007265647C7C007C7C4552524F522064659C
:103E88007465637465647C7C002323436F6E6E6580
:103E98006374206368616E6E656C200020746F2007
:103EA80074686520425553232300232344697363B0
:103EB8006F6E6E656374206368616E6E656C20005A
:103EC8002066726F6D2042555323230028285354CF
:103ED80041545553204255533A3A20005F206275A9
:103EE80073436F6E30537461747573206265666FC7
:103EF80072653A20003D3E20627573436F6E305301
:103F080074617475732061667465723A20005F206D
:103F1800627573436F6E3153746174757320626593
:103F2800666F72653A20003D3E20627573436F6E7E
:103F3800315374617475732061667465723A200038
:103F48002929002323456E61626C652063757272AE
:103F5800656E74206D6561737572656D656E742329
:103F68002300232344697361626C65206375727250
:103F7800656E74206D6561737572656D656E742309
:103F8800230028284D45415355524520524547495D
:103F9800535445523A20002929200A004D6561737F
:103FA800757265642063757272656E743A205B0081
:103FB800232353657420566F6C7461676520746F92
:103FC800200028285354415455532044415441203B
:103FD800534554564F4C544147453A3A20005F20C8
:103FE8006461746130537461747573206265666FBF
:103FF80072653A20003D3E206461746130537461FB
:104008007475732061667465723A20005F2064617C
:10401800746131537461747573206265666F72657B
:104028003A20003D3E2064617461315374617475B7
:10403800732061667465723A20002323436F6E6EA5
:1040480065637420566F6C7461676520736F757251
:1040580063652323002323446973636F6E6E65636E
:104068007420566F6C7461676520736F7572636531
:10407800232300282853544154555320434F4E4E70
:10408800454354494E4720564F4C544147452053C9
:104098004F555243453A3A20005F20537461747576
:1040A8007320766F6C7461676520736F75726365D2
:1040B800206265666F72653A20003D3E2053746148
:1040C80074757320766F6C7461676520736F757291
:1040D80063652061667465723A20007C7C455252A3
:1040E8004F523A20494E56414C4944204348414E8C
:1040F8004E454C204E554D4245527C7C004D6561E5
:10410800737572656420566F6C746167653A205BDD
:10411800007C7C4552524F523A20496E76616C6958
:1041280064206368616E6E656C2073656C6563748A
:10413800696F6E2E204661756C7420696E20636FFE
:104148006D6D756E69636174696F6E2077686572ED
:10415800652077726F6E6720666F726D61742F6E5F
:10416800756D6265722069732063686F73656E2070
:104178006173206368616E6E656C206E756D626533
:10418800722E2E2E006973206E6F74206120766166
:104198006C6964206368616E6E656C206E756D6213
:1041A80065722E2E2E204974206D6F7374206265FF
:1041B80020696E2072616E6765206F6620205B3112
:1041C8002E2E2E31365D207C7C0020746F20746882
:1041D800652067726F756E64202323002066726FF6
:1041E8006D207468652067726F756E6420232300E4
:1041F800282853544154555320474E442055504481
:104208004154453A3A20005F20676E64436F6E3030
:10421800537461747573206265666F72653A200025
:104228003D3E20676E64436F6E30537461747573DE
:104238002061667465723A20005F20676E64436F80
:104248006E31537461747573206265666F72653A76
:1042580020003D3E20676E64436F6E315374617475
:1042680075732061667465723A2000232353657460
:1042780075702041726475696E6F2323007C7C45DC
:1042880052524F523A2041434B2077617320616C60
:104298007265616479206C6F77207C7C007C7C453A
:1042A80052524F523A2041434B20657870697265EB
:1042B80064207C7C002323536574757020436F6DE4
:1042C800706C6574652323002323526573746F72C1
:1042D800696E672073657373696F6E2323002323E8
:1042E80053657420626F6172644E756D62657220E9
:1042F800746F00232346696E69736865642052658C
:1043080073746F72696E672073657373696F6E2358
:10431800230023234E6F7420526573746F72696E85
:10432800672073657373696F6E23230023235472A8
:1043380079696E6720746F2072657472696576207A
:1043480070726576696F7573207374617465232361
:10435800005065726D616E656E743A205B005D2079
:10436800002323456E61626C6564207065726D611F
:104378006E656E742073746F726167652323002302
:104388002344697361626C6564207065726D616E47
:0E439800656E742073746F7261676523230075
:00000001FF
