:020000040000FA
:100000000C94EA010C941B020C941B020C941B022E
:100010000C941B020C941B020C941B020C941B02EC
:100020000C941B020C941B020C941B020C941B02DC
:100030000C941B020C941B020C941B020C941B02CC
:100040000C941B020C941B020C941B020C941B02BC
:100050000C941B020C941B020C941B020C94B21205
:100060000C941B020C947C120C9452120C941B02E4
:100070000C941B020C941B020C941B020C941B028C
:100080000C941B020C941B020C941B020C941B027C
:100090000C941B020C941B020C941B020C941B026C
:1000A0000C941B020C941B020C941B020C941B025C
:1000B0000C941B020C941B020C941B020C941B024C
:1000C0000C941B020C941B020C941B020C941B023C
:1000D0000C941B020C941B020C941B020C941B022C
:1000E0000C941B020C940A040C940E040C9411063C
:1000F0000C945C0F0C940D060C94F6030C94FC12FB
:100100000C9421040C94FC030C9400040C94E7035D
:100110000C94DF020C944D0A0C94ED020C947111B6
:100120000C942B060C94EF030C94F40C0C94E10348
:100130000C94F1070C9418040C94CE0A0C94BC0295
:100140000C9472030C94CB020C94F3030C948F0266
:100150000C94D30D0C94F70C0C94EB030C94220428
:100160000C9414040C941C040C94B9070C942503EF
:100170000C9412120C9406040C9426044E414E4921
:100180004E495459494E46CDCCCC3D0AD7233C1755
:10019000B7D13877CC2B329595E6241FB14F0A00A2
:1001A0000020410000C84200401C4620BCBE4CCA92
:1001B0001B0E5AAEC59D7400407A10F35A00A0720F
:1001C0004E18090010A5D4E80000E8764817000092
:1001D000E40B54020000CA9A3B000000E1F5050060
:1001E0000080969800000040420F000000A08601A9
:1001F000000000102700000000E803000000006479
:1002000000000000000A00000000000100000000E3
:10021000002C76D888DC674F0823DFC1DFAE59E1B8
:10022000B1B796E5E3E453C63AE651997696E8E627
:10023000C28426EB898C9B62ED407C6FFCEFBC9CFA
:100240009F40F2BAA56FA5F490055A2AF75C936B0C
:100250006CF9676DC11BFCE0E40D47FEF520E6B5C7
:1002600000D0ED902E0300943577050080841E08A1
:100270000000204E0A000000C80C333333330F98BF
:100280006E12831141EF8D2114893BE65516CFFE86
:10029000E6DB18D1844B381BF77C1D901DA4BBE412
:1002A00024203284725E228100C9F124ECA1E53D54
:1002B0002700002100240027002A002D00300033F1
:1002C0000001010000040107010A010000220025CD
:1002D0000028002B002E0031003400020100000530
:1002E0000108010B01000020002300260029002C3A
:1002F000002F003200000100000301060109010582
:10030000050505070508080808020202020A0A088E
:1003100008040404040101010101010101030303B4
:100320000303030303040707070C0C0C0C0C0C0C51
:100330000C0202020206060606060606060B0B0B58
:100340000B0B0B0B0B010210202008081020401093
:100350002040800201020108040201010204081089
:1003600020408080402010080402018004020180A7
:1003700040201008040201080402010102040810D0
:10038000204080010204081020408000000A0B0277
:10039000090C0D0E08070304010000000000000016
:1003A000000000000000000000000000000000004D
:1003B000000000000000001211100000000000000A
:1003C000000000000000000000000000000000002D
:1003D0000000FC1211241FBECFEFD1E2DEBFCDBF63
:1003E00000E00CBF2BE0A2E5B8E001C01D92A43FE5
:1003F000B207E1F718E0A0E0B2E0E2E1FCE300E0E0
:100400000BBF02C007900D92A235B107D9F711E0DA
:10041000CAEED1E000E006C021970109802FFE015D
:100420000E94E91BC93ED10780E00807A9F70E9496
:1004300077130C94071E0C940000AC01109237093E
:100440009091870B8091860BFA01BF01641B750B9D
:1004500020913709308130933709931304C09213E8
:1004600002C0109237093081311104C0921721F077
:10047000CB0108953817D1F33196E7CF0F931F932F
:10048000CF93DF9380917B0B882309F446C0D0E0A3
:10049000C0E0813029F482E080937B0BCBE3D9E08C
:1004A00080917C0B882341F1209721F4C091800B2F
:1004B000D091810B8E01CE010E941D02892B29F45F
:1004C0002196F80180818111F5CFF8018081882380
:1004D00009F1C8010E941D02F801E80FF91F80818F
:1004E000882311F010823196F093810BE093800BFA
:1004F00010937F0B00937E0B80917E0B90917F0B6E
:10050000892B59F081E080937C0BDF91CF911F9173
:100510000F91089510E000E0EBCF80E0F6CFAF92AE
:10052000BF92CF92DF92EF92FF920F931F93CF93E0
:10053000DF936C017B018B01040F151FEB015E0142
:10054000AE18BF08C017D10759F06991D601ED91D7
:10055000FC910190F081E02DC6011995892B79F766
:10056000C501DF91CF911F910F91FF90EF90DF9028
:10057000CF90BF90AF900895FC01538D448D252FEF
:1005800030E0842F90E0821B930B541710F0CF962D
:10059000089501970895FC01918D828D981761F05F
:1005A000A28DAE0FBF2FB11D5D968C91928D9F5F76
:1005B0009F73928F90E008958FEF9FEF0895FC0155
:1005C000918D828D981731F0828DE80FF11D858D08
:1005D00090E008958FEF9FEF0895FC01918D228D9B
:1005E000892F90E0805C9F4F821B91098F73992720
:1005F000089585E998E00E94ED0221E0892B09F435
:1006000020E0822F0895FC01A48DA80FB92FB11D01
:10061000A35ABF4F2C91848D90E001968F73992738
:10062000848FA689B7892C93A089B1898C91837016
:1006300080648C93938D848D981306C00288F3890F
:10064000E02D80818F7D80830895EF92FF920F933C
:100650001F93CF93DF93EC0181E0888F9B8D8C8D6E
:1006600098131AC0E889F989808185FF15C09FB762
:10067000F894EE89FF896083E889F9898081837025
:10068000806480839FBF81E090E0DF91CF911F91D4
:100690000F91FF90EF900895F62E0B8D10E00F5FF5
:1006A0001F4F0F731127E02E8C8D8E110CC00FB6CB
:1006B00007FCFACFE889F989808185FFF5CFCE0163
:1006C0000E940303F1CFEB8DEC0FFD2FF11DE35AD8
:1006D000FF4FF0829FB7F8940B8FEA89FB898081E6
:1006E0008062CFCFCF93DF93EC01888D8823B9F060
:1006F000AA89BB89E889F9898C9185FD03C080812D
:1007000086FD0DC00FB607FCF7CF8C9185FFF2CFA9
:10071000808185FFEDCFCE010E940303E9CFDF91F9
:10072000CF91089580E090E0892B29F00E94F90292
:1007300081110E94000080E090E0892B49F080E068
:1007400090E0892B29F00E94000081110E94000096
:1007500080E090E0892B49F080E090E0892B29F03F
:100760000E94000081110E94000080E090E0892B2F
:1007700049F080E090E0892B29F00E94000081116F
:100780000C94000008958150823108F05AC0E82F7F
:10079000F0E08827E153FC4F8F4F0C94E91BEF03E7
:1007A000F303E103E703EB032104F603FC03000476
:1007B00006040A040E041404180421041C04220470
:1007C0002604809180008F77809380000895809127
:1007D00080008F7DF9CF80918000877FF5CF84B531
:1007E0008F7784BD089584B58F7DFBCF8091B00055
:1007F0008F778093B00008958091B0008F7DF9CFFE
:10080000809190008F778093900008958091900060
:100810008F7DF9CF80919000877FF5CF8091A000E8
:100820008F778093A00008958091A0008F7DF9CFED
:100830008091A000877FF5CF809120018F778093F2
:1008400020010895809120018F7DF9CF80912001B2
:10085000877FF5CFCF93DF93282F30E0F901E5575D
:10086000FC4F8491F901EB5BFC4FD491F901E1500D
:10087000FD4FC491CC23A1F081110E94C303EC2F42
:10088000F0E0EE0FFF1FEB51FD4FA591B491EC91FD
:10089000ED2381E090E009F480E0DF91CF910895AD
:1008A00080E090E0FACF1F93CF93DF93282F30E0C2
:1008B000F901E557FC4F8491F901EB5BFC4FD491B2
:1008C000F901E150FD4FC491CC23A9F0162F8111FD
:1008D0000E94C303EC2FF0E0EE0FFF1FE553FD4F26
:1008E000A591B4918FB7F894EC91111108C0D095EF
:1008F000DE23DC938FBFDF91CF911F910895DE2B14
:10090000F8CFCF93DF9390E0FC01EB5BFC4F249199
:1009100081509D4FFC0184918823C9F090E0880F9D
:10092000991FFC01EF54FD4FA591B491FC01E553D3
:10093000FD4FC591D49161110DC09FB7F8948C9172
:10094000209582238C938881282328839FBFDF9161
:10095000CF910895623051F49FB7F8943C91822F63
:10096000809583238C93E8812E2BEFCF8FB7F8945B
:10097000EC912E2B2C938FBFEACF3FB7F894809148
:100980008B0890918C08A0918D08B0918E0826B5A7
:10099000A89B05C02F3F19F00196A11DB11D3FBFB7
:1009A000BA2FA92F982F8827BC01CD01620F711D86
:1009B000811D911D42E0660F771F881F991F4A9580
:1009C000D1F708958F929F92AF92BF92CF92DF920C
:1009D000EF92FF926B017C010E94BD044B015C0110
:1009E000C114D104E104F104B9F00E94BD046819F6
:1009F00079098A099B09683E73408105910580F356
:100A000021E0C21AD108E108F10888EE880E83E0DF
:100A1000981EA11CB11CE4CFFF90EF90DF90CF9007
:100A2000BF90AF909F908F900895CF92DF92EF92FA
:100A3000FF92CF93DF939C0180917B00886080932D
:100A40007B009AEC960F9770906490937C00809155
:100A50007A00806480937A0080917A0086FDFCCFD2
:100A6000C0917800D0917900B901330F880B990BB0
:100A70000E94031720E030E040EA50E40E94621731
:100A800020E030EC4FE754E40E94211B6B017C0115
:100A9000BE01DD0F880B990B0E9403179B01AC016F
:100AA000C701B6010E946217DF91CF91FF90EF90CE
:100AB000DF90CF90089530E020E0FC011192119278
:100AC000CF012F5F3F4F62177307B9F70895FA01FF
:100AD000EE0FFF1FE60FF71F1816190644F49C01CE
:100AE000217033273293229395958795F5CF0895FA
:100AF000FC0101900020E9F73197AF01481B590B29
:100B0000BC0185E998E00C948F028F929F92AF927E
:100B1000BF920F931F93CF93DF93CDB7DEB7A1970B
:100B20000FB6F894DEBF0FBECDBF19A2423008F455
:100B30004AE08E010F5D1F4F842E912CB12CA12C09
:100B4000A50194010E94C71BE62FB901CA01EA3032
:100B5000F4F4E05DD801EE938D01232B242B252B9B
:100B600079F790E080E0109719F0CD010E947805A8
:100B7000A1960FB6F894DEBF0FBECDBFDF91CF9127
:100B80001F910F91BF90AF909F908F900895E95C57
:100B9000E1CFCF92DF92EF92FF92CF93DF936B0181
:100BA0007C016DE285E998E00E942503EC0166274F
:100BB0007727CB016C197D098E099F094AE00E94B5
:100BC00085058C0F9D1FDF91CF91FF90EF90DF90F7
:100BD000CF900895CF93DF93FC01448155816081CC
:100BE000718185E998E00E948F02EC0180E492E037
:100BF0000E9478058C0F9D1FDF91CF910895CF93B0
:100C0000DF930E947805EC0180E492E00E94780571
:100C10008C0F9D1FDF91CF91089583E492E00C9497
:100C2000FF0587E393E00C94FF050C9478050E9480
:100C30003E02882359F081E080937C0B80937D0BEA
:100C400080917E0B90917F0B0C94541610927D0B2B
:100C500090E080E00895CF93DF930E941706EC01A7
:100C6000909375088093740886E493E00E941506BB
:100C7000BE01DD0F880B990B97FF08C00E94C905C4
:100C800089E397E0DF91CF910C94FF054AE00E9441
:100C90008505F6CF0F931F93CF93DF938C0189E6E1
:100CA00093E00E941506E801005F1F4F699179915A
:100CB000072E000C880B990B97FF0DC00E94C905E9
:100CC000C017D10799F78BE693E0DF91CF911F9181
:100CD0000F910C9415064AE00E948505F1CF0E9401
:100CE0003E02882359F081E080937C0B80937D0B3A
:100CF00080917E0B90917F0B0C94721610927D0B5D
:100D000060E070E0CB0108950F931F93CF93DF93C2
:100D1000EC0188819981009759F02A813B8126173F
:100D2000370730F081E0DF91CF911F910F91089547
:100D30008B016F5F7F4F0E94161D009759F09983BA
:100D400088831B830A832C813D81232B59F7FC0167
:100D50001082E8CF80E0E7CFEF92FF920F931F93CE
:100D6000CF93DF936115710541F480E0DF91CF915E
:100D70001F910F91FF90EF90089541155105B1F02B
:100D80007B01EC010C811D81040F151FB8010E942D
:100D90008406882351F3288139818C819D81B70194
:100DA000820F931F0E94001E1D830C8381E0DECF03
:100DB000CF93DF93EC0188819981009711F00E9415
:100DC0008D1C198218821D821C821B821A82DF915F
:100DD000CF910895CF93DF93EC01FB0101900020A8
:100DE000E9F73197AF01461B570B0E94AC06811102
:100DF00003C0CE010E94D806CE01DF91CF910895A5
:100E0000CF93DF93EC01FB014481558160817181B7
:100E10000E94AC06811103C0CE010E94D806CE010B
:100E2000DF91CF910895EF92FF920F931F93CF938D
:100E3000DF93EC017B018A01BA010E9484068111D3
:100E40000BC0CE010E94D806CE01DF91CF911F9139
:100E50000F91FF90EF9008951D830C83B701888157
:100E600099810E94001EF0CFFB0101900020E9F75C
:100E70003197AF01461B570B0C9413070F931F9329
:100E8000CF93DF93CDB7DEB762970FB6F894DEBF8E
:100E90000FBECDBF8C01CB01F801118210821382ED
:100EA0001282158214824AE0BE016F5F7F4F0E945A
:100EB000BA16BE016F5F7F4FC8010E943407629669
:100EC0000FB6F894DEBF0FBECDBFDF91CF911F915B
:100ED0000F910895EF92FF920F931F93CF93DF939B
:100EE000CDB7DEB7A1970FB6F894DEBF0FBECDBF6A
:100EF0007C01CB01BA01F7011182108213821282A8
:100F0000158214828E010F5F1F4F22E044E00E9481
:100F1000D414009789F0BC01C7010E943407A19640
:100F20000FB6F894DEBF0FBECDBFDF91CF911F91FA
:100F30000F91FF90EF900895C7010E94D806EFCF60
:100F4000FC01118210821382128215821482FB012D
:100F500001900020E9F73197AF01461B570B0C9425
:100F60001307FC0180819181009711F00C948D1C76
:100F70000895CF93DF93CDB7DEB72C970FB6F894D3
:100F8000DEBF0FBECDBF6091740870917508CE01B1
:100F900007960E943E076EE673E0CE0101960E941E
:100FA000A007BE01695F7F4FCE0101960E94000736
:100FB0006AE873E00E94EA060E94EA05CE01019603
:100FC0000E94B107CE0107960E94B1072C960FB67A
:100FD000F894DEBF0FBECDBFDF91CF9108950C9482
:100FE000841ACF93DF9300D000D0CDB7DEB762E490
:100FF00072E0CE0101960E94A00790E080E00E947E
:10100000EF078130C9F582E090E00E94EF07682F7A
:1010100070E063587C4FCE0101960E94340781E056
:1010200090E00E94EF07682F70E061587C4FFB0151
:1010300001900020E9F73197AF01461B570BCE0115
:1010400001960E94AC0641E050E06AE873E0CE01F0
:1010500001960E94AC06CE0101960E94EA05CE01DF
:1010600001960E94B10726960FB6F894DEBF0FBE18
:10107000CDBFDF91CF91089562E873E0CE01019674
:101080000E943407ECCF6F927F928F929F92AF9223
:10109000BF92CF92DF92EF92FF920F931F93CF9365
:1010A000DF93CDB7DEB73C018B014A01ADB6BEB6CA
:1010B0007B01EE0CFF1C8DB79EB78E199F090FB6F2
:1010C000F8949EBF0FBE8DBFEDB7FEB731966F018E
:1010D000CF010E945B05A801B601C4010E9467050B
:1010E000EC0CFD1C8301F2E0EF1AF108F80180819D
:1010F0000E5F1F4FF70160810E945304EC14FD0442
:1011000091F70FB6F894BEBE0FBEADBEDF91CF9182
:101110001F910F91FF90EF90DF90CF90BF90AF9015
:101120009F908F907F906F900895CF92DF92EF9273
:10113000FF920F931F93CF93DF938C016B017A0182
:101140008CE10E942A04019761F08CE893E0DF9122
:10115000CF911F910F91FF90EF90DF90CF900C9463
:10116000FF05CEE1D2E08881229661E00E948104F1
:1011700082E0CE32D807B9F7A60168E070E08EE1D0
:1011800092E00E944308A70164E070E086E192E0EB
:101190000E944308A80168E070E086E092E00E94A7
:1011A000430860E083E30E945304C4E6D0E08CE18E
:1011B0000E942A04892B51F02197C9F761E083E34B
:1011C0000E9453048BEA93E00E94FF0561E083E3F1
:1011D0000E9453048DE10E942A04019719F082ECC9
:1011E00093E0B5CFDF91CF911F910F91FF90EF90DA
:1011F000DF90CF9008958F929F92AF92BF92CF923F
:10120000DF92EF92FF920F931F93CF93DF93CDB7AF
:10121000DEB766970FB6F894DEBF0FBECDBF4C01A8
:1012200021E0821A9108F401E658F74F6F012081FE
:10123000261709F4FBC0F62E8C01BC01CE010196E5
:10124000FF2009F43EC00E943E0765ED73E0CE0129
:1012500041960E94A007BE016F5F7F4FCE0141966D
:101260000E94000768EE73E00E94EA060E94EA0509
:10127000CE0141960E94B107CE0101960E94B107AE
:10128000F601F082C0907808D0907908A090760896
:10129000B0907708F110EEC0093011050CF4D9C0F8
:1012A0000950110981E090E0FC0102C0EE0FFF1F20
:1012B0000A95E2F78F01009510950A211B2176010E
:1012C000D5C00E943E0766EF73E0CE0141960E94B2
:1012D000A007BE016F5F7F4FCE0141960E940007BD
:1012E0006CE074E0C1CFEE24E394F12C02C0EE0C6C
:1012F000FF1C8A94E2F7EC28FD28850195E0892EF1
:10130000912C88E194E00E94150688E294E00E9406
:10131000150668E070E0CE0101960E945B0548E08A
:1013200050E0BE016F5F7F4FC6010E946705CE018E
:1013300001960E944A0681E494E00E94150668E046
:1013400070E0CE0101960E945B0548E050E0BE01CE
:101350006F5F7F4FC7010E946705CE0101960E9413
:101360004A068AE594E00E94150668E070E0CE0126
:1013700001960E945B0548E050E0BE016F5F7F4F21
:10138000C5010E946705CE0101960E944A0683E7C7
:1013900094E00E94150668E070E0CE0101960E947C
:1013A0005B0548E050E0BE016F5F7F4FC8010E94BF
:1013B0006705CE0101960E944A068CE894E00E94DF
:1013C000FF058091780890917908E816F906A1F058
:1013D000F0927908E092780840917408509175086D
:1013E000B70181E090E00E949508B401092C000C3F
:1013F000880B990B0E94E2048091760890917708FF
:101400000817190799F01093770800937608409110
:10141000740850917508B80182E090E00E94950828
:10142000B401990C880B990B0E94E20466960FB6E2
:10143000F894DEBF0FBECDBFDF91CF911F910F910A
:10144000FF90EF90DF90CF90BF90AF909F908F90E4
:101450000895EE24E394F12C02C0EE0CFF1C8A9454
:10146000E2F7E094F094EC20FD2085018824839439
:10147000912C47CF093011050CF435CF09501109D3
:1014800081E090E09C0102C0220F331F0A95E2F731
:1014900089010A291B29760131CF0F931F93CF931E
:1014A000DF93C8E0D0E00E9417068C010E94170667
:1014B0009801215031092031310538F461E0892B40
:1014C00009F460E0C8010E94FB08219761F7DF91F1
:1014D000CF911F910F9108950F931F93CF93DF9397
:1014E000CDB7DEB760970FB6F894DEBF0FBECDBFA5
:1014F0000091720810917308882309F44BC00064AE
:101500008FE894E00E94FF050F7780917208909118
:1015100073088017910799F110937308009372086C
:101520008EEC94E00E94150668E070E0CE01019612
:101530000E945B0548E050E0BE016F5F7F4F8091E5
:101540007208909173080E946705CE0101960E946F
:101550004A0683EE94E00E94FF0540917408509182
:101560007508609172087091730890E080E00E94A5
:10157000950865E070E080E090E00E94E2046096EB
:101580000FB6F894DEBF0FBECDBFDF91CF911F9194
:101590000F9108950F7B8EEA94E0B4CFCF92DF9243
:1015A000EF92FF92CF93DF93CDB7DEB72C970FB6B4
:1015B000F894DEBF0FBECDBF81E00E946C0A63E4E9
:1015C00070E080919308909194080E9415056B013A
:1015D0007C0180E00E946C0AB701A601CE0107964B
:1015E0000E946A0768EE74E0CE0101960E94A0078F
:1015F000BE01695F7F4FCE0101960E9400076AE835
:1016000073E00E94EA060E94EA05CE0101960E945C
:10161000B107CE0107960E94B1072C960FB6F89439
:10162000DEBF0FBECDBFDF91CF91FF90EF90DF9077
:10163000CF9008952091700830917108B9016F73AF
:10164000772781309105B9F00C97B9F062177307CD
:10165000B1F07093710860937008409174085091D4
:10166000750889E090E00E94950865E070E080E0F0
:1016700090E00C94E2046064E9CF6068E7CF0895DD
:10168000AF92BF92CF92DF92EF92FF920F931F9390
:10169000CF93DF93CDB7DEB766970FB6F894DEBF72
:1016A0000FBECDBF6B017C01BC01A601CE014196EE
:1016B0000E946A076CEF74E0CE0101960E94A007B9
:1016C000BE016F5E7F4FCE0101960E94000769E365
:1016D00077E00E94EA060E94EA05CE0101960E9488
:1016E000B107CE0141960E94B107C0926C08D0921A
:1016F0006D08E0926E08F0926F08A0906A08B090B2
:101700006B08009168081091690820E030E040E41F
:1017100050E4C701B6010E94211B20E030E040E206
:1017200051E40E94B51A6B017C0120E030E040EAF0
:1017300051E40E94C21B87FD9BC08FEF90E0909305
:101740006B0880936A089093690880936808E0901A
:101750006808F0906908C0906A08D0906B088EE025
:1017600095E00E9415068AE295E00E94150668E061
:1017700070E0CE0101960E945B0548E050E0BE019A
:101780006F5F7F4FC5010E946705CE0101960E94E1
:101790004A0681E495E00E94150668E070E0CE01FB
:1017A00001960E945B0548E050E0BE016F5F7F4FED
:1017B000C6010E946705CE0101960E944A0688E58F
:1017C00095E00E94150668E070E0CE0101960E9447
:1017D0005B0548E050E0BE016F5F7F4FC8010E948B
:1017E0006705CE0101960E944A068FE695E00E94A9
:1017F000150668E070E0CE0101960E945B0548E0A6
:1018000050E0BE016F5F7F4FC7010E946705CE01A8
:1018100001960E944A068CE894E00E94FF054091E0
:1018200074085091750860916A0870916B0886E0A1
:1018300090E00E949508409174085091750860915D
:1018400068087091690887E090E00E9495086696A4
:101850000FB6F894DEBF0FBECDBFDF91CF911F91C1
:101860000F91FF90EF90DF90CF90BF90AF900895D1
:1018700020E030E0A901C701B6010E94FC1618164D
:101880004CF010926B0810926A081092690810923E
:1018900068085DCF20E03CEC4CE455E4C701B6019C
:1018A0000E9462170E94931B9B01332730936B08A1
:1018B00020936A08709368081092690848CFCF9205
:1018C000DF92EF92FF920F931F93CF93DF93CDB7E9
:1018D000DEB760970FB6F894DEBF0FBECDBF182FEE
:1018E000882309F46EC086E895E00E94FF0595E024
:1018F000E92EF12CC0906608D0906708112309F4F6
:1019000070C086010F7B01608FEB95E00E94150689
:1019100085EE95E00E94150668E070E0CE01019624
:101920000E945B0548E050E0BE016F5F7F4FC6013B
:101930000E946705CE0101960E944A0686E096E065
:101940000E94150668E070E0CE0101960E945B05DA
:1019500048E050E0BE016F5F7F4FC8010E946705FD
:10196000CE0101960E944A068CE894E00E94FF0591
:1019700080916608909167088017910799F01093FD
:101980006708009366084091740850917508B80183
:1019900085E090E00E949508B701FF0C880B990B39
:1019A0000E94E20460960FB6F894DEBF0FBECDBF72
:1019B000DF91CF911F910F91FF90EF90DF90CF902B
:1019C000089510926C0810926D0810926E08109293
:1019D0006F0881EA95E00E94FF05EE24E394F12C64
:1019E00089CF86010E7F90CF80E00C945F0C8F92A0
:1019F0009F92AF92BF92CF92DF92EF92FF920F939E
:101A00001F93CF93DF93CDB7DEB72C970FB6F89423
:101A1000DEBF0FBECDBF0E946F066B018B01015070
:101A2000110900311105C0F187E296E00E94FF051F
:101A3000B501A401CE0107960E946A0769E476E029
:101A4000CE0101960E94A007BE01695F7F4FCE01C3
:101A500001960E9400076AE873E00E94EA060E946D
:101A6000EA05CE0101960E94B107CE0107960E94B9
:101A7000B1072C960FB6F894DEBF0FBECDBFDF9135
:101A8000CF911F910F91FF90EF90DF90CF90BF907B
:101A9000AF909F908F90089581E090E0909394088C
:101AA000809393080E941A0B89E0C816D1040CF0A9
:101AB00070C0086210937308009372084091740814
:101AC00050917508609172087091730890E080E001
:101AD0000E94950865E070E080E090E00E94E204DA
:101AE00064E470E080919308909194080E94150539
:101AF0004B015C0120E030E040E850E40E94C21B52
:101B0000181664F583E090E090939408809393080E
:101B10000E941A0B64E470E08091930890919408FD
:101B20000E9415054B015C0120E030E040E251E4E9
:101B30000E94C21B181694F48CE090E090939408D5
:101B4000809393080E941A0B64E470E080919308DC
:101B5000909194080E9415054B015C0160917208F8
:101B60007091730860787727709373086093720898
:101B7000409174085091750890E080E00E949508AB
:101B800081E090E090939408809393080E941A0B50
:101B90004FCF89E0C81AD10880E3C82AD0927308D1
:101BA000C09272088BCF4F925F926F927F928F920A
:101BB0009F92AF92BF92CF92DF92EF92FF920F93DC
:101BC0001F93CF93DF93CDB7DEB766970FB6F89428
:101BD000DEBF0FBECDBF28E0422E512C6624639499
:101BE000712C0E9417068C010E9417067C01680167
:101BF00081E0C81AD10890E1C916D104D8F1B80122
:101C0000CE0101960E943E076DE576E0CE01419639
:101C10000E94A007BE016F5F7F4FCE0141960E94D8
:101C2000000761ED76E00E94EA060E94EA05CE0117
:101C300041960E94B107CE0101960E94B107F1E0E2
:101C40004F1A510871F666960FB6F894DEBF0FBEB4
:101C5000CDBFDF91CF911F910F91FF90EF90DF905B
:101C6000CF90BF90AF909F908F907F906F905F903C
:101C70004F90089599249394E114F10409F4912C60
:101C8000F601EA5AF74F5F0180818915C1F2B80168
:101C9000CE010196E114F104D9F10E943E0765EDF1
:101CA00073E0CE0141960E94A007BE016F5F7F4F97
:101CB000CE0141960E94000766E177E00E94EA06A5
:101CC0000E94EA05CE0141960E94B107CE0101961D
:101CD0000E94B107F5019082A0905408B090550879
:101CE0008090520890905308EF2809F0D5C0093031
:101CF00011056CF109501109730102C0EE0CFF1CB3
:101D00000A95E2F7E094F094E820F92085012AC0D2
:101D10000E943E0766EF73E0CE0141960E94A00745
:101D2000BE016F5F7F4FCE0141960E94000768E2BF
:101D300077E0C4CF830102C0000F111FCA94E2F7FD
:101D40000A291B29740185E0C82ED12C0EC08301FD
:101D500002C0000F111FCA94E2F7009510950A21E6
:101D60001B217401CC24C394D12C8CE397E00E94F6
:101D7000150683E597E00E94150668E070E0CE0145
:101D800001960E945B0548E050E0BE016F5F7F4F07
:101D9000C5010E946705CE0101960E944A068CE6A5
:101DA00097E00E94150668E070E0CE0101960E945F
:101DB0005B0548E050E0BE016F5F7F4FC8010E94A5
:101DC0006705CE0101960E944A0685E897E00E94C9
:101DD000150668E070E0CE0101960E945B0548E0C0
:101DE00050E0BE016F5F7F4FC4010E946705CE01C6
:101DF00001960E944A068EE997E00E94150668E067
:101E000070E0CE0101960E945B0548E050E0BE0103
:101E10006F5F7F4FC7010E946705CE0101960E9448
:101E20004A068CE894E00E94FF0580915408909146
:101E3000550808171907A1F0109355080093540886
:101E40004091740850917508B80183E090E00E94B9
:101E50009508B6010D2C000C880B990B0E94E2042A
:101E60008091520890915308E816F90609F4E7CEDC
:101E7000F0925308E092520840917408509175080E
:101E8000B70184E090E00E949508B601DD0C880B54
:101E9000990B0E94E204D3CE093011050CF44ACF0D
:101EA00009501109730102C0EE0CFF1C0A95E2F7FC
:101EB000E828F928850147CFEF92FF920F931F93EF
:101EC000CF93DF93CDB7DEB7E091A508F091A608D8
:101ED00082E08083E091A108F091A2081082E09155
:101EE000A308F091A40880E180831092AD08E091EE
:101EF000A908F091AA0886E08083E091A708F091F4
:101F0000A808808180618083E091A708F091A808EB
:101F1000808188608083E091A708F091A808808183
:101F200080688083E091A708F091A80880818F7D68
:101F3000808387EB97E00E94FF051092750810924E
:101F4000740806E012E0F80180810E5F1F4F61E027
:101F50000E948104F2E006311F07A9F761E083E3E4
:101F60000E94810461E084E30E94810461E085E3D2
:101F70000E94810461E083E30E94530461E084E3F2
:101F80000E94530461E085E30E94530462E08CE107
:101F90000E94810462E08DE10E94810460E084E49B
:101FA0000E94810460E083E40E94810461E085E294
:101FB0000E94810461E086E20E94810461E087E280
:101FC0000E94810461E088E20E94810410926B0803
:101FD00010926A0880E890E09093690880936808FE
:101FE000109267081092660810927908109278088B
:101FF00010927708109276081092550810925408A3
:10200000109253081092520810927308109272089E
:10201000109271081092700850E040E070E060E0AB
:1020200086E090E00E9495084091740850917508F0
:10203000609168087091690887E090E00E949508B7
:102040004091740850917508609166087091670816
:1020500085E090E00E9495084091740850917508C1
:10206000609172087091730890E080E00E9495087A
:1020700040917408509175086091780870917908C2
:1020800081E090E00E949508409174085091750895
:10209000609176087091770882E090E00E94950840
:1020A00040917408509175086091540870915508DA
:1020B00083E090E00E949508409174085091750863
:1020C000609152087091530884E090E00E94950856
:1020D0004091740850917508609170087091710872
:1020E00089E090E00E9495080091740810917508AD
:1020F0008CE10E942A04019709F49BC089EC97E0C7
:102100000E94FF0561E070E080E090E00E94E20440
:102110008DE096E09093890B8093880B81E196E0A7
:1021200090938B0B80938A0B81E791E190938D0BB9
:1021300080938C0B84EF9CE090939B0B80939A0B85
:1021400083ED9DE090938F0B80938E0B8DE49AE04E
:102150009093910B8093900B87EF9CE09093930B5F
:102160008093920B8EEC9AE09093950B8093940B56
:102170008BE296E09093970B8093960B89EB97E018
:102180009093990B8093980B8CE59FE090939D0B17
:1021900080939C0B82E192E190939F0B80939E0B26
:1021A00081EF97E09093A10B8093A00B81E0809347
:1021B0003A09EAE7F8E0A6E5B8E08AE898E0119283
:1021C0001D928E179F07D9F790E080E00E94EF07DD
:1021D000813029F561E081E090E00E94FB0881E018
:1021E0000E945F0C81E090E00E94EF0790E09093E6
:1021F00075088093740882E090E00E94EF07682FD2
:1022000070E090E080E00E94011760936C0870938A
:102210006D0880936E0890936F080E94400B81E0D8
:1022200098E0DF91CF911F910F91FF90EF900C9468
:10223000FF059EE1E92E92E0F92EF7018081F2E0A0
:10224000EF0EF11C60E00E9481048EE2E81682E04D
:10225000F80699F7A80164E070E086E192E00E9438
:10226000430848E050E068E070E086E092E00E94B9
:10227000430860E084E30E94530404E610E08CE12C
:102280000E942A04892B59F001501109C1F761E01D
:1022900084E30E94530489EE97E00E94FF058EE2DA
:1022A000E82E82E0F82E92E0E91AF108F701808129
:1022B0000E942A04FEE1EF16F2E0FF06A1F70FB636
:1022C000F894DEBF0FBECDBF61E084E30E945304EB
:1022D0008DE10E942A04019709F414CF82EC93E067
:1022E0000FCF8F929F92AF92BF92CF92DF92EF92D9
:1022F000FF920F931F93CF93DF93CDB7DEB768970D
:102300000FB6F894DEBF0FBECDBF0E946F066B0103
:102310000E946F064B0181E00E945F0CB401CE0168
:102320000D960E943E07B601CE0101960E943E071F
:1023300018861F821A8619861C861B8669817A81F7
:102340006115710531F04D815E81CE0107960E94C5
:1023500013076FEC76E0CE0107960E94EA06BE01F5
:10236000635F7F4F0E9400071C8A1B8A1E8A1D8A9A
:10237000188E1F8A8E010D5E1F4F8017910759F02E
:10238000FC01608171816115710529F044815581DD
:10239000C8010E941307CE0107960E94B107CE0123
:1023A00001960E94B107CE010D960E94B1078B895C
:1023B0009C890097D1F00E9450160E94400BC801E2
:1023C0000E94B10768960FB6F894DEBF0FBECDBF6E
:1023D000DF91CF911F910F91FF90EF90DF90CF9001
:1023E000BF90AF909F908F90089560E070E0CB0118
:1023F000E4CFFF920F931F93CF93DF93EC01F62E60
:1024000008811981C8010E94841AF81621F06F2DE5
:10241000C8010E948C1ACE01DF91CF911F910F91BC
:10242000FF9008950F931F93CF93DF931F921F92F6
:10243000CDB7DEB70E9417068C011A82198261E0BF
:10244000892B09F460E0CE0101960E94F91182E324
:1024500098E0012BF1F06091740881E090E09A839C
:102460008983CE0101960E94F91160916C087091E8
:102470006D0880916E0890916F080E94931B82E016
:1024800090E09A838983CE0101960E94F91184E13C
:1024900098E00E94FF050F900F90DF91CF911F9160
:1024A0000F9108951F920F920FB60F9211240BB641
:1024B0000F922F933F934F935F936F937F938F93DD
:1024C0009F93AF93BF93EF93FF9385E998E00E94AA
:1024D0000303FF91EF91BF91AF919F918F917F91F6
:1024E0006F915F914F913F912F910F900BBE0F9085
:1024F0000FBE0F901F9018951F920F920FB60F925C
:1025000011240BB60F922F938F939F93EF93FF930A
:10251000E091A508F091A6088081E091AB08F091C8
:10252000AC0882FD1DC090818091AE088F5F8F73D3
:102530002091AF08821741F0E091AE08F0E0EB5631
:10254000F74F958F8093AE08FF91EF919F918F91F8
:102550002F910F900BBE0F900FBE0F901F901895EC
:102560008081F2CF1F920F920FB60F9211242F93FA
:102570003F938F939F93AF93BF9380918F089091D8
:102580009008A0919108B091920830918A0823E0B8
:10259000230F2D3758F50196A11DB11D20938A08F0
:1025A00080938F0890939008A0939108B09392081D
:1025B00080918B0890918C08A0918D08B0918E0825
:1025C0000196A11DB11D80938B0890938C08A09358
:1025D0008D08B0938E08BF91AF919F918F913F91DD
:1025E0002F910F900FBE0F901F90189526E8230F84
:1025F0000296A11DB11DD2CF109298081092970893
:1026000088EE93E0A0E0B0E08093990890939A0858
:10261000A0939B08B0939C0882E392E09093960865
:102620008093950885EC90E09093A2088093A10890
:1026300084EC90E09093A4088093A30880EC90E051
:102640009093A6088093A50881EC90E09093A80849
:102650008093A70882EC90E09093AA088093A90841
:1026600086EC90E09093AC088093AB081092AE0893
:102670001092AF081092B0081092B1081092890B16
:102680001092880B85E998E09093840B8093830BDC
:1026900010923A098CE28093860B8BE38093850B32
:1026A0008FE28093870B80E4809335098FE38093DA
:1026B00036091092340910927F0B10927E0B109203
:1026C000810B1092800B81E080937C0BEAE8FBE0A9
:1026D000119211928BE0EE3EF807D1F71092390972
:1026E00083E090E090939408809393080895789401
:1026F00084B5826084BD84B5816084BD85B5826007
:1027000085BD85B5816085BD80916E0081608093B7
:102710006E00109281008091810082608093810020
:102720008091810081608093810080918000816030
:10273000809380008091B10084608093B10080918B
:10274000B00081608093B00080919100826080939E
:102750009100809191008160809391008091900020
:102760008160809390008091A10082608093A1009D
:102770008091A10081608093A1008091A000816080
:102780008093A0008091210182608093210180913B
:1027900021018160809321018091200181608093DB
:1027A000200180917A00846080937A0080917A0081
:1027B000826080937A0080917A00816080937A00B1
:1027C00080917A00806880937A001092C1000E9404
:1027D0005C0FDD24D394809139098111DBC0809195
:1027E000830B9091840BDC01ED91FC910084F185C9
:1027F000E02D1995892B09F4CDC08091830B909120
:10280000840BDC01ED91FC910084F185E02D19959C
:10281000C0E0D2E08115924064F48091830B9091E6
:10282000840BDC01ED91FC910084F185E02D19957C
:10283000EC010091830B1091840B9BE7E92E99E04A
:10284000F92E4701B12CA12CCA15DB0509F056C0A1
:1028500010E000E0C017D10709F4BDCFD7019D916A
:102860007D0110927B0B3091870B2091380990935A
:102870003809931304C0921302C010923809809152
:102880003409E82FF0E04091850BEE5CF64F94138D
:102890006DC0321709F46AC01186882321F0D092E6
:1028A0007B0B109238091092340910927F0B109212
:1028B0007E0B1092810B1092800BD0927C0B80913A
:1028C0007B0B813009F063C00E94170680933309A7
:1028D000823308F055C020917D0B222309F450C0AB
:1028E000FC01FF27EE0FFF1FE657F44F0190F08128
:1028F000E02D309709F444C0199549C02FB7F894DA
:1029000080918F0890919008A0919108B0919208C1
:102910002FBFF80180879187A287B387D801ED91F7
:10292000FC910284F385E02DC801199597FF35C00D
:102930002FB7F89480918F0890919008A0919108FA
:10294000B09192082FBFF80140855185628573854B
:10295000841B950BA60BB70B44815581668177814B
:1029600084179507A607B707C8F272CF91878F5FC4
:102970008093340990913609891708F094CF9FCF3E
:10298000E091880BF091890B309709F0B5CF0F5F7C
:102990001F4F60CF0E9492031ECFF40181934F011D
:1029A000FFEFAF1ABF0A50CFEF920F931F93CF9351
:1029B000DF93E80134E047FD34E1042E000C550BB1
:1029C00057FF03C0519541955109E32E022F242F43
:1029D000AE010E94CF17CE01DF91CF911F910F91D1
:1029E000EF9008958F929F92AF92BF92CF92DF9215
:1029F000EF92FF920F931F93CF93DF935C017B01C4
:102A00006115710519F0DB018D939C9385010F5FB2
:102A10001F4FF501D0818D2F90E00E9499166C0117
:102A2000892BB9F5DD32B9F50F5F1F4FD50111962E
:102A3000DC91C1E05801F1E0AF1AB10843E050E089
:102A400064E871E0C5010E94A216892B69F568014E
:102A500082E0C80ED11C45E050E06FE771E0C6018E
:102A60000E94A216892B21F4680197E0C90ED11C9F
:102A7000E114F10419F0D701CD92DC9260E070E02E
:102A800080E89FEFC111FFC060E070E080E89FE741
:102A9000FAC05801BBCFDB3229F485010E5F1F4F0E
:102AA000F501D181C0E0C6CF43E050E06CE771E0B2
:102AB000C5010E94A216892BE9F0F80110E000E0A0
:102AC00020E030E0A9015F01B0ED8B2E8D0E89E092
:102AD0008815C8F19C2E689491F88C2F8870C2FFDD
:102AE00016C0811102C00F5F1F4F3196D501DC91D6
:102AF000C92DE9CFE114F10429F00E5F1F4FF70152
:102B00001183008360E070E080EC9FE7BCC0882305
:102B100011F001501109A5E0B0E00E949A1A9B0142
:102B2000AC01220F331F441F551F280D311D411DBD
:102B3000511D283999E93907490799E15907A8F240
:102B4000C6609C2ED2CFAEEF8A1206C0C3FD3CC039
:102B50009C2E689493F8C9CFDF7DD534A9F5808188
:102B60008D3239F4C061DF011296818162E070E03C
:102B700006C0DF018B32C1F3119661E070E0805333
:102B80005D01A61AB70A8A30F8F4E0E8CE16ECE048
:102B9000DE065CF4B601660F771F660F771FC60E60
:102BA000D71ECC0CDD1CC80ED11C5D01FFEFAF1A87
:102BB000BF0A8C9180538A30A8F1C4FF03C0D1941E
:102BC000C194D1080C0D1D1DC1FF09C0E114F10411
:102BD00031F081E0A81AB108D701AD92BC92CA01C8
:102BE000B9010E940117C370C33009F490584B011A
:102BF0005C0120E030E0A9010E94FC16882309F462
:102C000040C0C3EBD1E017FF05C011950195110934
:102C1000CBE9D1E06E01B8E1CB1AD10880E2E82E11
:102C2000F12C0FC0D501B1CFFE0125913591459111
:102C300054910E191F09C501B4010E9462174B017E
:102C40005C01D501C4010E151F0574F72497F59496
:102C5000E794CC16DD06A9F78A2F880F8B2F881FE3
:102C60008F3F49F020E030E0A901C501B4010E9486
:102C7000FC16811106C082E290E09093EF0B8093E6
:102C8000EE0BC501B401DF91CF911F910F91FF9021
:102C9000EF90DF90CF90BF90AF909F908F9008956E
:102CA000662777270C94F214FC0188279927E8946B
:102CB00021912032E9F3293010F02E30C8F32B3265
:102CC00041F02D3239F4689404C00E94DA16820F64
:102CD000911D219120532A30C0F31EF490958195C7
:102CE0009F4F08951F93FC0199278827BC01E89402
:102CF00011911032E9F3193010F01E30C8F31B3275
:102D000051F01D3249F4689406C00E94C516610F47
:102D1000711D811D911D119110531A30B0F33EF4B5
:102D200090958095709561957F4F8F4F9F4F1F9124
:102D3000089591110C94201A803219F08950855011
:102D4000C8F70895FB01DC014150504088F08D9197
:102D500081341CF08B350CF4805E659161341CF07D
:102D60006B350CF4605E861B611171F3990B08954D
:102D7000881BFCCFBB274A3031F4992322F4BDE2F3
:102D8000909581959F4F0C94E316592F482F372F1C
:102D9000262F660F771F881F991F660F771F881FC2
:102DA000991F620F731F841F951F660F771F881F5F
:102DB000991F08957AE0979F902D879F802D910D00
:102DC00011240895BB27FB015527AA27880F991FB7
:102DD000AA1FA41710F0A41B83955051B9F7A05D4A
:102DE000AA3308F0A95DA193009779F7B111B193C7
:102DF0001192CB010C94231A0E943E1708F481E033
:102E00000895E89409C097FB3EF4909580957095DD
:102E100061957F4F8F4F9F4F9923A9F0F92F96E926
:102E2000BB279395F695879577956795B795F1119B
:102E3000F8CFFAF4BB0F11F460FF1BC06F5F7F4F38
:102E40008F4F9F4F16C0882311F096E911C077234A
:102E500021F09EE8872F762F05C0662371F096E853
:102E6000862F70E060E02AF09A95660F771F881F22
:102E7000DAF7880F9695879597F90895990F0008C6
:102E8000550FAA0BE0E8FEEF16161706E807F9073C
:102E9000C0F012161306E407F50798F0621B730BD7
:102EA000840B950B39F40A2661F0232B242B252B58
:102EB00021F408950A2609F4A140A6958FEF811DFB
:102EC000811D08950E9475170C944A1A0E943C1A9D
:102ED00038F00E94431A20F0952311F00C94331A15
:102EE0000C94391A11240C947E1A0E945B1A70F308
:102EF000959FC1F3950F50E0551F629FF001729F9F
:102F0000BB27F00DB11D639FAA27F00DB11DAA1FAD
:102F1000649F6627B00DA11D661F829F2227B00DFA
:102F2000A11D621F739FB00DA11D621F839FA00D85
:102F3000611D221F749F3327A00D611D231F849FD5
:102F4000600D211D822F762F6A2F11249F5750402C
:102F50009AF0F1F088234AF0EE0FFF1FBB1F661FA7
:102F6000771F881F91505040A9F79E3F510580F070
:102F70000C94331A0C947E1A5F3FE4F3983ED4F31A
:102F8000869577956795B795F795E7959F5FC1F714
:102F9000FE2B880F911D9695879597F908958F922E
:102FA0009F92AF92BF92CF92DF92EF92FF920F93D8
:102FB0001F93CF93DF9300D000D000D0CDB7DEB702
:102FC0006A01F22EB02E102FFBE3AF2EA01608F4EC
:102FD0001BE31F5F012F27E0AE014F5F5F4F0E9491
:102FE0004819BC018981982F9970913009F44EC01D
:102FF0009BE2E1FC04C09E2D9170E0FC49C05E2D77
:103000005071E82FE87083FF55C084E0911101C032
:1030100083E0EF2DE81B8F1508F0E0E0D6018E2F3E
:1030200020E25523C9F1992329F0D6019C93C601CA
:1030300001966C0196012D5F3F4FE2FE33C08EE496
:10304000D6018C9391E411969C93119712968C93D0
:10305000D9018E2F90E281112AC0E20FF32FF11DCA
:1030600010828EEF9FEF29960FB6F894DEBF0FBE49
:10307000CDBFDF91CF911F910F91FF90EF90DF9027
:10308000CF90BF90AF909F908F9008959DE2B7CF63
:1030900090E2B5CF2D9381508111FCCFCE0ED11C83
:1030A000E0E0C1CF8EE6D6018C9391E6CCCF9D9324
:1030B0008150D1CF482F447082FF3DC084E09111F0
:1030C00001C083E08F1510F4EF2DE81BD6018E2F81
:1030D00020E2552309F1992329F0D6019C93C601DA
:1030E00001966C0196012D5F3F4FE2FE1BC089E403
:1030F000D6018C938EE411968C93119786E41296E8
:103100008C93D9018E2F90E2882309F4A6CF9D934A
:103110008150FACF2D9381508111FCCFCE0ED11C5E
:10312000E0E0D9CF89E6D6018C938EE611968C9398
:10313000119786E6E4CF9B0177FF02C030E020E0E4
:10314000A1E0B0E0911102C0B0E0A0E0F901319639
:10315000AE0FBF1F8B2C912CBB2009F461C0540112
:10316000EFEFAE1ABE0AAA0DBB1DFA161B0619F028
:1031700014F04F2D4A1B511188C0E3FC59C0760151
:10318000A42FB0E2A1114FC0C40ED11C992309F4A1
:103190005BC040E0D6011196F60190836D01552386
:1031A00009F448C0012F060F9A81582F507184FFEF
:1031B00003C0913309F4015010160CF047C00930D8
:1031C00008F008E0EEE2FE2E5B01A01AB1088501CE
:1031D0009194819491082F3F320729F4D601FC92F3
:1031E000F60131966F016217730794F10217130706
:1031F0007CF5DB01A21BB30BAA24A394B12CAC0E6B
:10320000BD1EAA0DBB1D11968C9121503109D6010E
:10321000119628153905F4F0F60180836D01DBCF96
:10322000B12CA12CA0CFF701B1937F01A150AACF5F
:103230009111B0CFD601942F50E302C05D9391500D
:103240009111FCCFC40ED11C40E0ACCF01E0BACF4D
:1032500080E3DBCF6217730731F4963388F495333C
:1032600011F4552369F0F6018083FD01842F90E26B
:10327000811108C0A40FB11D1C9290E080E0F3CE34
:1032800081E3F1CF91938150F3CF911183CF8ACF16
:10329000283008F027E03327DA01990F311D87FD28
:1032A000916000966105710539F432602E5F3D939F
:1032B00030E32A95E1F708959F3F30F0803871059B
:1032C000610509F03C5F3C5F3D93913008F08068F8
:1032D000911DDF93CF931F930F93FF92EF92192FBE
:1032E000987F9695E92F96959695E90FFF27EF5EC3
:1032F000FD4F99273327EE24FF24A701E70105900E
:103300000894079428F4360FE71EF81E491F511D34
:10331000660F771F881F991F0694A1F705900794E1
:1033200028F4E70EF81E491F561FC11D770F881F8E
:10333000991F661F0694A1F70590079428F4F80ECC
:10334000491F561FC71FD11D880F991F661F771F62
:103350000694A1F70590079420F4490F561FC71F44
:10336000D81F990F661F771F881F0694A9F78491AD
:103370001095177041F0D695C79557954795F794D6
:10338000E7941A95C1F7E7EBF1E068941590159171
:1033900035916591959105907FE27395E118F10A59
:1033A000430B560BC90BD009C0F7E10CF11E431FAC
:1033B000561FC91FD01D7EF4703311F48A95E6CFD5
:1033C000E894015030F0080F0AF40027021708F4BF
:1033D000202F2395022F7A3328F079E37D932A95C5
:1033E000E9F710C07D932A9589F60694979567951D
:1033F000379517951794E118F10A430B560BC90B33
:10340000D00998F023957E9173957A3308F070E394
:103410007C932013B8F77E9170617D9330F0839593
:1034200071E37D9370E32A95E1F71124EF90FF900B
:103430000F911F91CF91DF91992787FD9095089566
:10344000992788270895DC01FC01672F7191772364
:10345000E1F7329704C07C916D9370836291AE174F
:10346000BF07C8F3089597F99F6780E870E060E0B0
:1034700008959FEF80EC089500240A94161617060D
:1034800018060906089500240A9412161306140655
:1034900005060895092E0394000C11F4882352F0B8
:1034A000BB0F40F4BF2B11F460FF04C06F5F7F4F70
:1034B0008F4F9F4F089557FD9058440F551F59F057
:1034C0005F3F71F04795880F97FB991F61F09F3F11
:1034D00079F087950895121613061406551FF2CF3A
:1034E0004695F1DF08C0161617061806991FF1CF8A
:1034F00086957105610508940895E894BB276627B1
:103500007727CB0197F90895F999FECF92BD81BD38
:10351000F89A992780B50895262FF999FECF1FBAFA
:1035200092BD81BD20BD0FB6F894FA9AF99A0FBEEC
:10353000019608950E94A51AA59F900DB49F900D25
:10354000A49F800D911D11240895A29FB001B39FE7
:10355000C001A39F700D811D1124911DB29F700D9C
:10356000811D1124911D08955058BB27AA270E9440
:10357000CC1A0C944A1A0E943C1A38F00E94431A42
:1035800020F039F49F3F19F426F40C94391A0EF404
:10359000E095E7FB0C94331AE92F0E945B1A58F36D
:1035A000BA17620773078407950720F079F4A6F528
:1035B0000C947D1A0EF4E0950B2EBA2FA02D0B0162
:1035C000B90190010C01CA01A0011124FF27591B68
:1035D00099F0593F50F4503E68F11A16F040A22F6E
:1035E000232F342F4427585FF3CF469537952795DF
:1035F000A795F0405395C9F77EF41F16BA0B620BDE
:10360000730B840BBAF09150A1F0FF0FBB1F661F24
:10361000771F881FC2F70EC0BA0F621F731F841F67
:1036200048F4879577956795B795F7959E3F08F08D
:10363000B0CF9395880F08F09927EE0F979587954F
:1036400008950E94351B0C944A1A0E94431A58F0A0
:103650000E943C1A40F029F45F3F29F00C94331A81
:1036600051110C947E1A0C94391A0E945B1A68F35B
:103670009923B1F3552391F3951B550BBB27AA272B
:1036800062177307840738F09F5F5F4F220F331F65
:10369000441FAA1FA9F335D00E2E3AF0E0E832D02D
:1036A00091505040E695001CCAF72BD0FE2F29D030
:1036B000660F771F881FBB1F261737074807AB0702
:1036C000B0E809F0BB0B802DBF01FF2793585F4F77
:1036D0003AF09E3F510578F00C94331A0C947E1A00
:1036E0005F3FE4F3983ED4F3869577956795B79559
:1036F000F7959F5FC9F7880F911D9695879597F964
:103700000895E1E0660F771F881FBB1F62177307DC
:103710008407BA0720F0621B730B840BBA0BEE1FF1
:1037200088F7E09508950E94631A88F09F5798F0F3
:10373000B92F9927B751B0F0E1F0660F771F881FB6
:10374000991F1AF0BA95C9F714C0B13091F00E94D0
:103750007D1AB1E008950C947D1A672F782F882781
:10376000B85F39F0B93FCCF3869577956795B395F7
:10377000D9F73EF490958095709561957F4F8F4F66
:103780009F4F08950E943E1708F48FEF0895A1E21D
:103790001A2EAA1BBB1BFD010DC0AA1FBB1FEE1FCB
:1037A000FF1FA217B307E407F50720F0A21BB30B16
:1037B000E40BF50B661F771F881F991F1A9469F792
:1037C00060957095809590959B01AC01BD01CF01EE
:1037D0000895EE0FFF1F881F8BBF0790F691E02D15
:1037E00019940F931F93CF93DF938230910510F4B8
:1037F00082E090E0E091F20BF091F30B30E020E0FA
:10380000B0E0A0E0309799F42115310509F44AC0E1
:10381000281B390B24303105D8F58A819B8161152D
:10382000710589F1FB0193838283FE0111C0408100
:1038300051810281138148175907E0F04817590751
:1038400099F4109761F012960C93129713961C93AB
:103850003296CF01DF91CF911F910F910895009380
:10386000F20B1093F30BF4CF2115310551F04217F1
:10387000530738F0A901DB019A01BD01DF01F8010E
:10388000C1CFEF01F9CF9093F30B8093F20BCDCF23
:10389000FE01E20FF31F8193919322503109398386
:1038A0002883D7CF2091F00B3091F10B232B41F4DB
:1038B00020910202309103023093F10B2093F00B20
:1038C00020910002309101022115310541F42DB7FC
:1038D0003EB74091040250910502241B350BE09144
:1038E000F00BF091F10BE217F307A0F42E1B3F0B46
:1038F0002817390778F0AC014E5F5F4F2417350762
:1039000048F04E0F5F1F5093F10B4093F00B8193E3
:1039100091939FCFF0E0E0E09CCFCF93DF930097AF
:10392000E9F0FC01329713821282A091F20BB09160
:10393000F30BED0130E020E01097A1F420813181FC
:10394000820F931F2091F00B3091F10B281739074C
:1039500009F061C0F093F10BE093F00BDF91CF9190
:103960000895EA01CE17DF07E8F54A815B819E01E1
:1039700041155105B1F7E901FB83EA83499159915A
:10398000C40FD51FEC17FD0761F480819181029669
:10399000840F951FE90199838883828193819B839A
:1039A0008A83F0E0E0E012968D919C911397009746
:1039B000B9F52D913C911197CD010296820F931F7D
:1039C0002091F00B3091F10B2817390739F6309719
:1039D00051F51092F30B1092F20BB093F10BA093F0
:1039E000F00BBCCFD383C28340815181840F951FDC
:1039F000C817D90761F44E5F5F4F88819981480FDE
:103A0000591F518340838A819B819383828321152F
:103A1000310509F0B0CFF093F30BE093F20B9ECF9A
:103A2000FD01DC01C0CF13821282D7CF4F925F928B
:103A30006F927F928F929F92AF92BF92CF92DF92BE
:103A4000EF92FF920F931F93CF93DF938C01009718
:103A500099F4CB01DF91CF911F910F91FF90EF90DF
:103A6000DF90CF90BF90AF909F908F907F906F909E
:103A70005F904F900C94F11BFC01E60FF71F9C0127
:103A800022503109E217F30708F4AEC0D901CD91F5
:103A9000DC911197C617D70720F1C530D10578F012
:103AA000CE0104978617970750F0C61BD70B2297B5
:103AB000C193D1936D937C93CF010E948D1CC8015B
:103AC000DF91CF911F910F91FF90EF90DF90CF90FA
:103AD000BF90AF909F908F907F906F905F904F902E
:103AE00008955B01AC1ABD0A4C018C0E9D1EA0917D
:103AF000F20BB091F30B512C412CF12CE12C1097CF
:103B000031F58091F00B9091F10B8815990509F032
:103B10005CC04616570608F058C08091000290918C
:103B20000102009741F48DB79EB740910402509175
:103B30000502841B950BE817F90708F055C0F093B0
:103B4000F10BE093F00BF90171836083B8CF8D9195
:103B50009C91119712966C90129713967C901397E4
:103B6000A815B90559F56C0142E0C40ED11CCA1460
:103B7000DB0420F1AC014A195B09DA0112961597B2
:103B800080F06282738251834083D9016D937C936C
:103B9000E114F10471F0D7011396FC93EE931297A0
:103BA0008ECF22968C0F9D1FF90191838083F301A4
:103BB000EFCFF093F30BE093F20B81CF4816590649
:103BC00008F42C017D01D3019ACFCB010E94F11B97
:103BD0007C01009749F0AE01B8010E94F71DC801B1
:103BE0000E948D1C87016BCF10E000E068CFFB01C5
:103BF000DC0102C001900D9241505040D8F7089569
:103C0000FB01DC0101900D920020E1F70895F8948A
:103C1000FFCF0000F40B8000120013001400150009
:103C2000160017001800190025002600270028009C
:103C30000200030004000500060007000800090058
:103C40000000000025038F02BC027203ED02CB02CC
:103C5000DF020D0A007C7C496E76616C696420632A
:103C60006F6D6D616E642072656365697665642051
:103C700062792041726475696E6F2C207468657278
:103C800065206D7573742062652061206661756CB6
:103C90007420696E2074686520636F6D6D756E6940
:103CA000636174696F6E2E2E2E20546865206675D0
:103CB0006E6374696F6E20696E64657820726563E7
:103CC000656976656420646F6573206E6F74206D1E
:103CD0006174636820616E20696E64657820737416
:103CE0006F72656420696E207468652070726F67FA
:103CF00072616D2E2E2E20496E6469636174696E47
:103D0000672061206661756C7420696E2074686537
:103D100020636F6D6D756E69636174696F6E2028C5
:103D2000726574726576696E67206461746120667D
:103D3000726F6D2073657269616C20706F72742C84
:103D4000202E2E2E29207C7C0050494E475F504962
:103D50004E475F50494E4700232353756363657395
:103D600066756C6C79206368616E67656420626F4C
:103D70006172644E7220746F3A20007B007D2000D7
:103D8000426F6172644E756D6265723A205B005BD2
:103D9000313A3A005B303A3A303A3A305D007C7C56
:103DA0004552524F523A2041434B20776173206174
:103DB0006C7265616479206C6F777C7C007C7C45DB
:103DC00052524F523A2041434B20657870697265D8
:103DD000647C7C007C7C4552524F52206465746543
:103DE000637465647C7C002323436F6E6E6563742B
:103DF000206368616E6E656C200020746F207468AB
:103E000065204255532323002323446973636F6E57
:103E10006E656374206368616E6E656C2000206659
:103E2000726F6D2042555323230028285354415468
:103E30005553204255533A3A20005F206275734330
:103E40006F6E30537461747573206265666F72654E
:103E50003A20003D3E20627573436F6E30537461AB
:103E60007475732061667465723A20005F20627514
:103E700073436F6E31537461747573206265666F3E
:103E800072653A20003D3E20627573436F6E315378
:103E900074617475732061667465723A2000292913
:103EA000002323456E61626C652063757272656ED6
:103EB00074206D6561737572656D656E7423230082
:103EC000232344697361626C652063757272656E49
:103ED00074206D6561737572656D656E7423230062
:103EE00028284D4541535552452052454749535482
:103EF00045523A20002929200A004D6561737572E8
:103F000065642063757272656E743A205B002323CA
:103F100053657420566F6C7461676520746F200060
:103F2000282853544154555320444154412053456B
:103F300054564F4C544147453A3A20005F20646143
:103F4000746130537461747573206265666F726555
:103F50003A20003D3E206461746130537461747591
:103F6000732061667465723A20005F206461746139
:103F700031537461747573206265666F72653A209F
:103F8000003D3E2064617461315374617475732027
:103F900061667465723A20002323436F6E6E656319
:103FA0007420566F6C7461676520736F75726365FA
:103FB0002323002323446973636F6E6E656374204B
:103FC000566F6C7461676520736F75726365232328
:103FD00000282853544154555320434F4E4E4543D7
:103FE00054494E4720564F4C5441474520534F5556
:103FF0005243453A3A20005F205374617475732030
:10400000766F6C7461676520736F7572636520628B
:1040100065666F72653A20003D3E20537461747589
:104020007320766F6C7461676520736F757263655A
:104030002061667465723A20007C7C4552524F5272
:104040003A20494E56414C4944204348414E4E4542
:104050004C204E554D4245527C7C004D6561737538
:1040600072656420566F6C746167653A205B007CF2
:104070007C4552524F523A20496E76616C696420F9
:104080006368616E6E656C2073656C656374696FDF
:104090006E2E204661756C7420696E20636F6D6DA5
:1040A000756E69636174696F6E20776865726520EB
:1040B00077726F6E6720666F726D61742F6E756DAB
:1040C0006265722069732063686F73656E20617327
:1040D000206368616E6E656C206E756D6265722E10
:1040E0002E2E006973206E6F7420612076616C69DA
:1040F00064206368616E6E656C206E756D626572BA
:104100002E2E2E204974206D6F73742062652069F5
:104110006E2072616E6765206F6620205B312E2EE7
:104120002E31365D207C7C0020746F207468652001
:1041300067726F756E64202323002066726F6D2096
:104140007468652067726F756E64202323002828C9
:1041500053544154555320474E44205550444154E4
:10416000453A3A20005F20676E64436F6E305374A7
:1041700061747573206265666F72653A20003D3E1A
:1041800020676E64436F6E30537461747573206181
:10419000667465723A20005F20676E64436F6E310B
:1041A000537461747573206265666F72653A20009E
:1041B0003D3E20676E64436F6E3153746174757356
:1041C0002061667465723A2000232353657475700C
:1041D0002041726475696E6F2323007C7C455252C6
:1041E0004F523A2041434B2077617320616C7265D6
:1041F000616479206C6F77207C7C007C7C45525216
:104200004F523A2041434B206578706972656420B3
:104210007C7C002323536574757020436F6D706C34
:104220006574652323002323456E61626C656420F9
:104230007065726D616E656E742073746F72616704
:1042400065232300232344697361626C65642070D5
:1042500065726D616E656E742073746F72616765EF
:044260002323000014
:020000040003F7
:10E000000D9489F10D94B2F10D94B2F10D94B2F129
:10E010000D94B2F10D94B2F10D94B2F10D94B2F1F0
:10E020000D94B2F10D94B2F10D94B2F10D94B2F1E0
:10E030000D94B2F10D94B2F10D94B2F10D94B2F1D0
:10E040000D94B2F10D94B2F10D94B2F10D94B2F1C0
:10E050000D94B2F10D94B2F10D94B2F10D94B2F1B0
:10E060000D94B2F10D94B2F10D94B2F10D94B2F1A0
:10E070000D94B2F10D94B2F10D94B2F10D94B2F190
:10E080000D94B2F10D94B2F10D94B2F10D94B2F180
:10E090000D94B2F10D94B2F10D94B2F10D94B2F170
:10E0A0000D94B2F10D94B2F10D94B2F10D94B2F160
:10E0B0000D94B2F10D94B2F10D94B2F10D94B2F150
:10E0C0000D94B2F10D94B2F10D94B2F10D94B2F140
:10E0D0000D94B2F10D94B2F10D94B2F10D94B2F130
:10E0E0000D94B2F141546D656761323536300041AF
:10E0F000726475696E6F206578706C6F72657220DE
:10E1000073746B3530305632206279204D4C530099
:10E11000426F6F746C6F616465723E004875683F52
:10E1200000436F6D70696C6564206F6E203D200048
:10E130004350552054797065202020203D20005FF9
:10E140005F4156525F415243485F5F3D2000415658
:10E1500052204C696243205665723D20004743437C
:10E160002056657273696F6E203D20004350552024
:10E1700049442020202020203D20004C6F7720663D
:10E18000757365202020203D20004869676820665F
:10E190007573652020203D200045787420667573D6
:10E1A00065202020203D20004C6F636B2066757336
:10E1B000652020203D20004D617220203720323024
:10E1C000313300312E362E3800342E332E350056A2
:10E1D00023202020414444522020206F7020636F70
:10E1E00064652020202020696E73747275637469E1
:10E1F0006F6E2061646472202020496E74657272B3
:10E20000757074006E6F20766563746F7200726A49
:10E210006D702020006A6D70200057686174207056
:10E220006F72743A00506F7274206E6F7420737541
:10E2300070706F72746564004D7573742062652030
:10E2400061206C6574746572002000577269747483
:10E25000696E672045450052656164696E672045B7
:10E26000450045452065727220636E743D00504F35
:10E27000525400303D5A65726F2061646472003FF1
:10E280003D43505520737461747300403D454550C3
:10E29000524F4D207465737400423D426C696E6B41
:10E2A000204C454400453D44756D70204545505215
:10E2B0004F4D00463D44756D7020464C415348001B
:10E2C000483D48656C70004C3D4C69737420492F83
:10E2D0004F20506F72747300513D51756974005234
:10E2E0003D44756D702052414D00563D73686F7707
:10E2F00020696E7465727275707420566563746FF0
:10E30000727300593D506F727420626C696E6B00BD
:10E310002A0011241FBECFEFD1E2DEBFCDBF01E046
:10E320000CBF12E0A0E0B2E0EEE1FDEF03E00BBFB6
:10E3300002C007900D92A030B107D9F712E0A0E01B
:10E34000B2E001C01D92AE30B107E1F70F9460F367
:10E350000D948DFE01E20EBF0FEF0DBF11241FBE05
:10E360000D9460F30D9400F020E030E040ED57E0B4
:10E3700005C0FA013197F1F72F5F3F4F2817390792
:10E38000C0F308959C01260F311DC901A0E0B0E043
:10E390002F5F3F4FABBFFC018791882361F08093D3
:10E3A000C6008091C00086FFFCCF8091C0008064D1
:10E3B0008093C000EACF08958DE08093C6008091DD
:10E3C000C00086FFFCCF8091C00080648093C000B5
:10E3D0008AE08093C6008091C00086FFFCCF8091C8
:10E3E000C00080648093C00008950F94C2F10F9420
:10E3F000DCF10895FC019081992359F09093C600B7
:10E400008091C00086FFFCCF8091C0008064809323
:10E41000C0003196992379F70895282F982F929567
:10E420009F70892F805D8A3308F0895F8093C600D2
:10E430008091C00086FFFCCF8091C00080648093F3
:10E44000C000822F8F70982F905D9A3308F0995FEB
:10E450009093C6008091C00086FFFCCF8091C000E1
:10E4600080648093C00008959C01FB01853691056E
:10E470001CF46330710594F0C90164E670E00F94F8
:10E480002EFE605D7F4F6093C6008091C00086FFC6
:10E49000FCCF8091C00080648093C0002B30310598
:10E4A00014F43297B4F0C90164E670E00F942EFEC4
:10E4B0006AE070E00F942EFE605D7F4F6093C600AF
:10E4C0008091C00086FFFCCF8091C0008064809363
:10E4D000C000C9016AE070E00F942EFEC0968093E0
:10E4E000C6008091C00086FFFCCF8091C000806490
:10E4F0008093C00008951F93182F8EE692EE60E07F
:10E500000F94C2F11093C6008091C00086FFFCCF2B
:10E510008091C00080648093C0000F94DCF11F9153
:10E5200008952F923F924F925F926F927F928F92B7
:10E530009F92AF92BF92CF92DF92EF92FF920F9392
:10E540001F93DF93CF93CDB7DEB762970FB6F894E2
:10E55000DEBF0FBECDBF382E622ECA01DB015C01CB
:10E560006D01772420E2222E2E010894411C511CBB
:10E570008BC081E0A81680E0B80681E0C80680E084
:10E58000D80628F0C601AA27BB270F940DF2BB2797
:10E59000AD2D9C2D8B2D0F940DF28A2D0F940DF225
:10E5A0002092C6008091C00086FFFCCF8091C00001
:10E5B00080648093C0009DE29093C6008091C0006B
:10E5C00086FFFCCF8091C00080648093C0002092C1
:10E5D000C6008091C00086FFFCCF8091C00080649F
:10E5E0008093C00019828601750188249924A1E0D6
:10E5F0003A1651F03A1620F0B2E03B1661F409C029
:10E600000BBFF701779007C0C7010F9477FE782EF4
:10E6100002C0F7017080872D0F940DF22092C60082
:10E620008091C00086FFFCCF8091C0008064809301
:10E63000C000872D8052F401EF70F0708F3520F408
:10E64000E40DF51D708204C0E40DF51D8EE280839B
:10E650000894E11CF11C011D111D0894811C911CE2
:10E6600090E18916910409F0C2CF80E190E0A0E02A
:10E67000B0E0A80EB91ECA1EDB1E198AC2010F9493
:10E68000FAF10F94DCF16A94662009F072CF629679
:10E690000FB6F894DEBF0FBECDBFCF91DF911F91B3
:10E6A0000F91FF90EF90DF90CF90BF90AF909F9031
:10E6B0008F907F906F905F904F903F902F90089534
:10E6C0002F923F924F925F926F927F928F929F9282
:10E6D000AF92BF92CF92DF92EF92FF920F931F9370
:10E6E000DF93CF93CDB7DEB7CD53D1400FB6F894BB
:10E6F000DEBF0FBECDBF01E20EBF0FEF0DBF94B75F
:10E70000F894A89514BE80916000886180936000A1
:10E7100010926000789493FF05C0E0910002F091A0
:10E7200001021995279A2F9A8091C00082608093E8
:10E73000C00080E18093C40088E18093C1000000A4
:10E74000EE24FF24870144E0A42EB12CCC24DD2448
:10E7500024C0C5010197F1F70894E11CF11C011DCB
:10E76000111D21E2E2162EE4F20620E0020720E06D
:10E77000120718F031E0C32ED12CC801B70127ECE5
:10E780003BE140E050E00F9441FE611571058105C9
:10E79000910519F485B1805885B98091C00087FD35
:10E7A00003C0C114D104A9F2A6014F5F5F4FC25E3E
:10E7B000DE4F59834883CE51D140C25EDE4F8881FF
:10E7C0009981CE51D140019711F00D9410FEC05D9A
:10E7D000DE4F19821882C053D14060E0C15DDE4F28
:10E7E0001882CF52D14088249924C35DDE4F19820C
:10E7F0001882CD52D140C05EDE4F188219821A8233
:10E800001B82C052D140CE5CDE4F188219821A8220
:10E810001B82C253D140EE24FF2487010BBFF701B6
:10E8200007911691C45CDE4F19830883CC53D14005
:10E830000D940BFEC25EDE4F28813981CE51D1404E
:10E840002130310509F52091C600C25EDE4F1982E4
:10E850001882CE51D14022C02F5F3F4F4F4F5F4FA4
:10E86000213082E138078AE7480780E0580780F0C6
:10E87000C45CDE4FE881F981CC53D140EF5FFF4F9C
:10E8800019F0EE27FF27099420E030E040E050E047
:10E890008091C00087FFE0CF2091C600C35DDE4FAE
:10E8A00048815981CD52D1404F5F5F4FC35DDE4FEC
:10E8B00059834883CD52D140213209F063C64A3092
:10E8C000510508F05FC60894811C911C53E0851621
:10E8D000910409F059C600E010E018C081E280936D
:10E8E000C6008091C00086FFFCCF8091C00080648C
:10E8F0008093C0002F5F3F4F2931310579F70F9486
:10E90000DCF10F5F1F4F0530110519F020E030E0FA
:10E91000E5CF10920A0210920B0210920C02109294
:10E920000D02109206021092070210920802109235
:10E930000902109202021092030210920402109235
:10E9400005028FEE90EE60E00F94F5F180E191EE1C
:10E9500060E00F94C2F18091C00087FFFCCF9091DE
:10E96000C600903608F09F759032B8F09093C600BC
:10E970008091C00086FFFCCF8091C00080648093AE
:10E98000C000A0E2A093C6008091C00086FFFCCF2B
:10E990008091C00080648093C000983409F4D7C18E
:10E9A0009934B8F4923409F459C1933458F490333B
:10E9B00019F1903308F4E3C59F33A1F1903409F0C5
:10E9C000DEC5BDC0953409F470C1963409F0D7C5D1
:10E9D00098C1923509F42BC2933538F49C3409F46C
:10E9E000F5C1913509F0CBC518C2963509F445C279
:10E9F000993509F0C4C567C483E792EE62E00F94CD
:10EA0000F5F110920602109207021092080210927D
:10EA1000090210920A0210920B0210920C0210923C
:10EA20000D0213C18FE792EE62E00F94F5F18FEEC5
:10EA300090EE60E00F94F5F181E291EE60E00F94CA
:10EA4000C2F187EB91EE60E00F94F5F180E391EE77
:10EA500060E00F94C2F184EE90EE60E00F94F5F167
:10EA60008FE391EE60E00F94C2F186E090E061E008
:10EA700070E00F9434F20F94DCF18DE591EE60E0DC
:10EA80000F94C2F189EC91EE60E00F94F5F18EE401
:10EA900091EE60E00F94C2F183EC91EE60E00F9490
:10EAA000F5F18CE691EE60E00F94C2F18EE10F94E7
:10EAB0000DF288E90F940DF281E00F940DF20F949E
:10EAC000DCF18BE791EE60E00F94C2F119E0E0E039
:10EAD000F0E010935700E4918E2F0F940DF20F94F5
:10EAE000DCF18AE891EE60E00F94C2F1E3E0F0E03F
:10EAF00010935700E4918E2F0F940DF20F94DCF1D8
:10EB000089E991EE60E00F94C2F1E2E0F0E0109349
:10EB10005700E4918E2F0F940DF20F94DCF188EAE8
:10EB200091EE60E00F94C2F1E1E0F0E01093570045
:10EB30001491812F0F940DF20F94DCF107CF8BE825
:10EB400092EE62E00F94F5F18BE492EE60E00F94A8
:10EB5000F5F10F94DCF100E010E019C0C8016F2D51
:10EB60000F947FFEFF2031F489E492EE60E00F9471
:10EB7000C2F10BC0F092C6008091C00086FFFCCFAE
:10EB80008091C00080648093C0000F5F1F4FC80158
:10EB900081519F41A0E0B0E0ABBFFC01F790BAE229
:10EBA000FB1621F0E2E000301E07C1F60F94DCF105
:10EBB0000F94DCF187E592EE60E00F94F5F10F948D
:10EBC000DCF1CC24DD2400E010E01EC0C8010F946D
:10EBD00077FEF82E882331F489E492EE60E00F94FA
:10EBE000C2F10BC08093C6008091C00086FFFCCFAD
:10EBF0008091C00080648093C000FE1419F00894D6
:10EC0000C11CD11C0F5F1F4FC80181519F41A0E063
:10EC1000B0E0ABBFFC01E790FAE2EF1621F022E092
:10EC20000030120799F60F94DCF10F94DCF182E6C4
:10EC300092EE60E00F94C2F1C60161E070E00F94C3
:10EC400034F20F94DCF10F94DCF110920202109276
:10EC50000302109204021092050278CE89E992EE26
:10EC600062E00F94F5F1279A2F9A16C02F9880E052
:10EC700090E0E0EDF7E03197F1F7019684369105E9
:10EC8000C1F72F9A80E090E0E0EDF7E03197F1F7DF
:10EC9000019684369105C1F78091C00087FFE6CFC9
:10ECA0008091C00087FFFCCF64C485EA92EE62E0E9
:10ECB0000F94F5F140910202509103026091040219
:10ECC0007091050281E020E10F9491F2809102029F
:10ECD00090910302A0910402B091050280509F4FD1
:10ECE000AF4FBF4F8093020290930302A0930402A0
:10ECF000B093050280509041A040B04008F426CE69
:10ED0000A4CF83EB92EE62E00F94F5F140910602FE
:10ED100050910702609108027091090280E020E1A1
:10ED20000F9491F28091060290910702A09108023F
:10ED3000B091090280509F4FAF4FBF4F80930602A2
:10ED400090930702A0930802B0930902FFCD80ECD4
:10ED500092EE62E00F94F5F183E792EE60E00F949B
:10ED6000F5F18FE792EE60E00F94F5F18BE892EE0B
:10ED700060E00F94F5F189E992EE60E00F94F5F10F
:10ED800085EA92EE60E00F94F5F183EB92EE60E09D
:10ED90000F94F5F180EC92EE60E00F94F5F187ECC2
:10EDA00092EE60E00F94F5F188ED92EE60E00F9442
:10EDB000F5F18FED92EE60E00F94F5F18AEE92EEB0
:10EDC00060E00F94F5F183E093EEBDCD87EC92EE19
:10EDD00062E00F94F5F181E40F947BF282E40F94EA
:10EDE0007BF283E40F947BF284E40F947BF285E45E
:10EDF0000F947BF286E40F947BF287E40F947BF20E
:10EE000088E40F947BF28AE40F947BF28BE40F94F6
:10EE10007BF28CE40F947BF299CD88ED92EE62E068
:10EE20000F94F5F1772473948824992409C48FED05
:10EE300092EE62E00F94F5F140910A0250910B02BC
:10EE400060910C0270910D0282E020E10F9491F22A
:10EE500080910A0290910B02A0910C02B0910D02D8
:10EE600080509F4FAF4FBF4F80930A0290930B0289
:10EE7000A0930C02B0930D0269CD8AEE92EE62E08F
:10EE80000F94F5F184EE90EE60E00F94F5F18FECC5
:10EE900091EE60E00F94F5F1662477244301CC5D98
:10EEA000DE4F19821882C452D140D401C301B695F5
:10EEB000A79597958795CA5DDE4F88839983AA8326
:10EEC000BB83C652D140CC5DDE4FA881B981C4520C
:10EED000D1401196CC5DDE4FB983A883C452D14096
:10EEE000CD0162E070E00F9434F2B0E2B093C6005E
:10EEF0008091C00086FFFCCF8091C0008064809329
:10EF0000C000EDE2E093C6008091C00086FFFCCF18
:10EF10008091C00080648093C000F0E2F093C6004E
:10EF20008091C00086FFFCCF8091C00080648093F8
:10EF3000C000CA5DDE4FE880F9800A811B81C6529D
:10EF4000D140BB27A12F902F8F2D0F940DF2CA5DBA
:10EF5000DE4F8881C652D1400F940DF2B0E2FB2EF5
:10EF6000F092C6008091C00086FFFCCF8091C00067
:10EF700080648093C0000DE30093C6008091C000C0
:10EF800086FFFCCF8091C00080648093C00010E2B7
:10EF90001093C6008091C00086FFFCCF8091C00016
:10EFA00080648093C0008BBEF3012791C65DDE4F65
:10EFB0002883CA52D140A22EBB24CC24DD2408943D
:10EFC000611C711C811C911C8BBEF3018791282E42
:10EFD0003324442455240894611C711C811C911C09
:10EFE0008BBEF3013791C55DDE4F3883CB52D140E4
:10EFF0000894611C711C811C911C8BBEF30147910C
:10F00000C45DDE4F4883CC52D140ADEFEA2EAFEF66
:10F01000FA2EAFEF0A2FAFEF1A2F6E0C7F1C801E57
:10F02000911E142D032DF22CEE24EA0CFB1C0C1D5A
:10F030001D1D0F940DF220E22093C6008091C000A8
:10F0400086FFFCCF8091C00080648093C000C65DC5
:10F05000DE4F8881CA52D1400F940DF230E23093D6
:10F06000C6008091C00086FFFCCF8091C000806404
:10F070008093C000C45DDE4F8881CC52D1400F9494
:10F080000DF240E24093C6008091C00086FFFCCFA5
:10F090008091C00080648093C000C55DDE4F888190
:10F0A000CB52D1400F940DF250E25093C6008091A4
:10F0B000C00086FFFCCF8091C00080648093C000B8
:10F0C0008FEFE8168FEFF80680E0080780E018075A
:10F0D00031F484E092EE60E00F94C2F1DFC0D80119
:10F0E000C7018070907CA070B0708050904CA040A0
:10F0F000B040D1F52FEF3FE340E050E0E222F322B1
:10F1000004231523CA5DDE4FA880B980CA80DB8046
:10F11000C652D140AE0CBF1CC01ED11EAA0CBB1CD7
:10F12000CC1CDD1C8EE092EE60E00F94C2F1BB2798
:10F13000A12F902F8F2D0F940DF28E2D0F940DF285
:10F1400030E23093C6008091C00086FFFCCF8091F2
:10F15000C00080648093C0004EE34093C60080915D
:10F16000C00086FFFCCF87C08EE09EEFA0E0B0E03D
:10F17000E822F9220A231B239CE0E91694E9F90608
:10F1800090E0090790E0190709F088C0C45DDE4FE0
:10F19000A881CC52D140EA2EFF2400E010E0102FCD
:10F1A0000F2DFE2CEE24C55DDE4FB881CB52D14031
:10F1B000EB0EF11C011D111DD601C501817090706F
:10F1C000A070B070DC0199278827E80EF91E0A1F8D
:10F1D0001B1F20EF30E040E050E0A222B322C42207
:10F1E000D52241E1AA0CBB1CCC1CDD1C4A95D1F7F1
:10F1F000EA0CFB1C0C1D1D1D81E090E0A0E0B0E0BE
:10F20000282239224A225B2235E1220C331C441C7D
:10F21000551C3A95D1F7E20CF31C041D151D57013E
:10F220006801AA0CBB1CCC1CDD1C85E192EE60E0E1
:10F230000F94C2F1C801AA27BB270F940DF2BB2778
:10F24000A12F902F8F2D0F940DF28E2D0F940DF274
:10F2500090E29093C6008091C00086FFFCCF809121
:10F26000C00080648093C000AEE3A093C60080918C
:10F27000C00086FFFCCF8091C00080648093C000F6
:10F28000C601AA27BB270F940DF2BB27AD2D9C2DDD
:10F290008B2D0F940DF28A2D0F940DF20F94DCF14B
:10F2A000CC5DDE4FE881F981C452D140F99709F471
:10F2B0004DCBF4E0EF2EF12C012D112D6E0C7F1CA7
:10F2C000801E911EF2CD83E093EE62E00F94F5F183
:10F2D0008AE192EE60E00F94C2F18091C00087FF56
:10F2E000FCCF1091C6001F751093C6008091C0001E
:10F2F00086FFFCCF8091C00080648093C0000F9493
:10F30000DCF1812F81548A3108F036C1163409F4BA
:10F3100095C0173490F4133409F44EC0143430F40B
:10F320001134F1F0123409F01DC130C0143409F465
:10F3300059C0153409F016C16BC01A3409F4C4C0A1
:10F340001B3438F4173409F48FC0183409F00AC19B
:10F35000A1C01B3409F4D2C01C3409F003C1E8C0B9
:10F360008FEF81B90DC082B1809582B980E090E0C5
:10F37000E0EDF7E03197F1F70196883C9105C1F790
:10F380008091C00087FFEFCF12B8EFC08FEF84B934
:10F390000DC085B1809585B980E090E0E0EDF7E0A3
:10F3A0003197F1F70196883C9105C1F78091C00033
:10F3B00087FFEFCF15B8D9C08FEF87B90DC088B1DF
:10F3C000809588B980E090E0E0EDF7E03197F1F7C3
:10F3D0000196883C9105C1F78091C00087FFEFCF6F
:10F3E00018B8C3C08FEF8AB90DC08BB180958BB9A7
:10F3F00080E090E0E0EDF7E03197F1F70196883C8E
:10F400009105C1F78091C00087FFEFCF1BB8ADC059
:10F410008FEF8DB90DC08EB180958EB980E090E0F0
:10F42000E0EDF7E03197F1F70196883C9105C1F7DF
:10F430008091C00087FFEFCF1EB897C08FEF80BBD1
:10F440000DC081B3809581BB80E090E0E0EDF7E0F6
:10F450003197F1F70196883C9105C1F78091C00082
:10F4600087FFEFCF11BA81C08FEF83BB0DC084B38C
:10F47000809584BB80E090E0E0EDF7E03197F1F714
:10F480000196883C9105C1F78091C00087FFEFCFBE
:10F4900014BA6BC08FEF809301010FC080910201FD
:10F4A00080958093020180E090E0E0EDF7E03197F5
:10F4B000F1F70196883C9105C1F78091C00087FF64
:10F4C000EDCF1092020151C08FEF809304010FC065
:10F4D0008091050180958093050180E090E0E0ED4A
:10F4E000F7E03197F1F70196883C9105C1F78091DB
:10F4F000C00087FFEDCF1092050137C08FEF8093DA
:10F5000007010FC08091080180958093080180E079
:10F5100090E0E0EDF7E03197F1F70196883C910536
:10F52000C1F78091C00087FFEDCF109208011DC088
:10F530008FEF80930A010FC080910B01809580931B
:10F540000B0180E090E0E0EDF7E03197F1F70196F4
:10F55000883C9105C1F78091C00087FFEDCF1092E4
:10F560000B0103C085E292EEEEC98091C00087FFD7
:10F57000FCCF8091C600EAC988E392EEE4C98CE131
:10F5800091EEE1C988249924933011F1943028F444
:10F59000913089F09230B8F408C0953061F195301F
:10F5A000F0F0963009F048C043C02B3109F042C951
:10F5B00091E06BE13FC96227C15DDE4F2883CF52E6
:10F5C000D14092E037C9B22FA0E0622793E032C960
:10F5D000822F90E0A82BB92B622794E02BC92E3004
:10F5E00009F039C3622795E0C05DDE4F19821882A9
:10F5F000C053D1401FC9E1E0F0E0EC0FFD1FC05D3A
:10F60000DE4F08811981C053D140E00FF11F2083E4
:10F610000F5F1F4FC05DDE4F19830883C053D14079
:10F6200062270A171B0709F005C9D80196E002C92D
:10F63000261709F010C303C0973009F0FBC87724E0
:10F640009981933109F412C19431C8F4963009F4C8
:10F65000D8C0973050F4923009F406C1933009F4C1
:10F660006DC0913009F059C253C0913109F477C08F
:10F67000923108F0BBC0903109F04FC2F5C098310B
:10F6800009F487C0993150F4953109F4EFC09531F0
:10F6900008F4C6C1963109F040C2C2C19A3109F4DA
:10F6A0006CC09A3108F491C09B3109F45BC09D3164
:10F6B00009F033C29D81903359F48F81882311F46E
:10F6C0009EE11CC0813011F091E018C098E916C08D
:10F6D000892F807591F0903539F4E0E0F0E089E011
:10F6E0008093570094910AC0983539F4E3E0F0E034
:10F6F00089E080935700949101C090E01A821B82A8
:10F700008D818C831D829E831F8227E030E009C299
:10F710001A8288E08B8381E48C8386E58D8382E581
:10F720008E8389E48F8383E5888780E589878FE5E9
:10F730008A8782E38B872BE030E0F3C18A818139AD
:10F7400041F0823941F0803911F48FE005C080E04A
:10F7500003C082E001C08AE01A828B8344C0772410
:10F76000739482C08D81882311F48EE12CC0813086
:10F7700011F081E028C088E926C01A82E1E0F0E0BB
:10F7800089E08093570084918B831C8224E030E0D1
:10F79000C8C18B81803589F48C81883039F4E2E0EE
:10F7A000F0E089E08093570084910DC0E0E0F0E044
:10F7B00089E080935700849106C0E3E0F0E089E09F
:10F7C0008093570084911A82DFCF8D81836C99E0FA
:10F7D000E1E0F0E0082E90935700E89507B600FCB2
:10F7E000FDCF1A821B8223E030E09BC180EC8A832C
:10F7F000CE5CDE4F188219821A821B82C253D1401E
:10F800008EC18A8190E0A0E0B0E0582F44273327D2
:10F8100022278B8190E0A0E0B0E0DC0199278827C7
:10F82000282B392B4A2B5B2B8D8190E0A0E0B0E098
:10F83000282B392B4A2B5B2B8C8190E0A0E0B0E089
:10F84000BA2FA92F982F8827282B392B4A2B5B2BCF
:10F85000220F331F441F551FC05EDE4F288339839C
:10F860004A835B83C052D1401A8259C13A81C95C34
