:100000000C94E6010C9417020C9417020C9417023E
:100010000C9417020C9417020C9417020C941702FC
:100020000C9417020C9417020C9417020C941702EC
:100030000C9417020C9417020C9417020C941702DC
:100040000C9417020C9417020C9417020C941702CC
:100050000C9417020C9417020C9417020C9497112D
:100060000C9417020C9461110C9437110C94170224
:100070000C9417020C9417020C9417020C9417029C
:100080000C9417020C9417020C9417020C9417028C
:100090000C9417020C9417020C9417020C9417027C
:1000A0000C9417020C9417020C9417020C9417026C
:1000B0000C9417020C9417020C9417020C9417025C
:1000C0000C9417020C9417020C9417020C9417024C
:1000D0000C9417020C9417020C9417020C9417023C
:1000E0000C9417020C94ED0A0C94F2030C948B02FE
:1000F0000C94EB030C9409060C94BE0F0C94EF03C4
:100100000C9427060C940E0A0C941D040C941E04E7
:100110000C94110A0C9410040C94DD030C9422042A
:100120000C946E030C94570C0C94BF070C94E902CA
:100130000C94C7020C94E00D0C94E1110C94210373
:100140000C9402040C94E7030C94F8030C94180428
:100150000C940F090C9414040C9406040C94FC03E6
:100160000C940D060C94DB020C94E3030C940A042B
:100170000C94B8024E414E494E495459494E46CD11
:10018000CCCC3D0AD7233C17B7D13877CC2B32954E
:1001900095E6241FB14F0A000020410000C842002C
:1001A000401C4620BCBE4CCA1B0E5AAEC59D7400F6
:1001B000407A10F35A00A0724E18090010A5D4E836
:1001C0000000E87648170000E40B54020000CA9AC9
:1001D0003B000000E1F5050000809698000000401B
:1001E000420F000000A08601000000102700000060
:1001F00000E803000000006400000000000A0000A6
:100200000000000100000000002C76D888DC674F59
:100210000823DFC1DFAE59E1B1B796E5E3E453C689
:100220003AE651997696E8E6C28426EB898C9B6281
:10023000ED407C6FFCEFBC9C9F40F2BAA56FA5F42B
:1002400090055A2AF75C936B6CF9676DC11BFCE053
:10025000E40D47FEF520E6B500D0ED902E030094A6
:100260003577050080841E080000204E0A0000003B
:10027000C80C333333330F986E12831141EF8D2145
:1002800014893BE65516CFFEE6DB18D1844B381BAC
:10029000F77C1D901DA4BBE424203284725E228171
:1002A00000C9F124ECA1E53D27000021002400272E
:1002B000002A002D00300033000101000004010776
:1002C000010A0100002200250028002B002E003129
:1002D00000340002010000050108010B01000020AC
:1002E000002300260029002C002F0032000001000E
:1002F00000030106010901050505050705080808B1
:1003000008020202020A0A080804040404010101A6
:1003100001010101010303030303030303040707AE
:10032000070C0C0C0C0C0C0C0C020202020606064C
:1003300006060606060B0B0B0B0B0B0B0B01021034
:1003400020200808102040102040800201020108EF
:10035000040201010204081020408080402010089F
:1003600004020180040201804020100804020108F8
:100370000402010102040810204080010204081058
:1003800020408000000A0B02090C0D0E0807030430
:10039000010000000000000000000000000000005C
:1003A000000000000000000000000000000000123B
:1003B000111000000000000000000000000000001C
:1003C00000000000000000000000E11111241FBE29
:1003D000CFEFD1E2DEBFCDBF00E00CBF2BE0ACEF32
:1003E000B7E001C01D92AA39B207E1F717E0A0E01B
:1003F000B2E0E0EBF9E300E00BBF02C007900D9222
:10040000AC3FB107D9F711E0C6EED1E000E006C07D
:1004100021970109802FFE010E94B81AC53ED1071D
:1004200080E00807A9F70E945C120C94D61C0C947B
:100430000000AC011092DD0890912D0B80912C0BE7
:10044000FA01BF01641B750B2091DD0830813093E8
:10045000DD08931304C0921302C01092DD083081AE
:10046000311104C0921721F0CB0108953817D1F350
:100470003196E7CF0F931F93CF93DF938091210B9A
:10048000882309F446C0D0E0C0E0813029F482E03E
:100490008093210BC1EED8E08091220B882341F19B
:1004A000209721F4C091260BD091270B8E01CE010D
:1004B0000E941902892B29F42196F801808181116B
:1004C000F5CFF8018081882309F1C8010E94190243
:1004D000F801E80FF91F8081882311F0108231960E
:1004E000F093270BE093260B1093250B0093240B1E
:1004F0008091240B9091250B892B59F081E08093FA
:10050000220BDF91CF911F910F91089510E000E031
:10051000EBCF80E0F6CFAF92BF92CF92DF92EF9217
:10052000FF920F931F93CF93DF936C017B018B019D
:10053000040F151FEB015E01AE18BF08C017D107ED
:1005400059F06991D601ED91FC910190F081E02D77
:10055000C6011995892B79F7C501DF91CF911F91BC
:100560000F91FF90EF90DF90CF90BF90AF900895E4
:10057000FC01538D448D252F30E0842F90E0821BA9
:10058000930B541710F0CF96089501970895FC012E
:10059000918D828D981761F0A28DAE0FBF2FB11D86
:1005A0005D968C91928D9F5F9F73928F90E00895DE
:1005B0008FEF9FEF0895FC01918D828D981731F098
:1005C000828DE80FF11D858D90E008958FEF9FEFEC
:1005D0000895FC01918D228D892F90E0805C9F4FC2
:1005E000821B91098F73992708958BE398E00E94ED
:1005F000E90221E0892B09F420E0822F0895FC0113
:10060000A48DA80FB92FB11DA35ABF4F2C91848D73
:1006100090E001968F739927848FA689B7892C93D0
:10062000A089B1898C91837080648C93938D848D23
:10063000981306C00288F389E02D80818F7D808326
:100640000895EF92FF920F931F93CF93DF93EC01E6
:1006500081E0888F9B8D8C8D98131AC0E889F98969
:10066000808185FF15C09FB7F894EE89FF8960836C
:10067000E889F98980818370806480839FBF81E0ED
:1006800090E0DF91CF911F910F91FF90EF9008952F
:10069000F62E0B8D10E00F5F1F4F0F731127E02E0A
:1006A0008C8D8E110CC00FB607FCFACFE889F98942
:1006B000808185FFF5CFCE010E94FF02F1CFEB8D47
:1006C000EC0FFD2FF11DE35AFF4FF0829FB7F89416
:1006D0000B8FEA89FB8980818062CFCFCF93DF9334
:1006E000EC01888D8823B9F0AA89BB89E889F9894A
:1006F0008C9185FD03C0808186FD0DC00FB607FC7F
:10070000F7CF8C9185FFF2CF808185FFEDCFCE01B1
:100710000E94FF02E9CFDF91CF91089580E090E041
:10072000892B29F00E94F50281110E94000080E0CF
:1007300090E0892B49F080E090E0892B29F00E941D
:10074000000081110E94000080E090E0892B49F0B8
:1007500080E090E0892B29F00E94000081110E9426
:10076000000080E090E0892B49F080E090E0892B48
:1007700029F00E94000081110C940000089581501E
:10078000823108F05AC0E82FF0E08827E553FC4F8B
:100790008F4F0C94B81AEB03EF03DD03E303E70379
:1007A0001D04F203F803FC03020406040A04100407
:1007B00014041D0418041E042204809180008F7705
:1007C000809380000895809180008F7DF9CF809183
:1007D0008000877FF5CF84B58F7784BD089584B579
:1007E0008F7DFBCF8091B0008F778093B00008950C
:1007F0008091B0008F7DF9CF809190008F778093AA
:1008000090000895809190008F7DF9CF80919000A5
:10081000877FF5CF8091A0008F778093A000089507
:100820008091A0008F7DF9CF8091A000877FF5CFC8
:10083000809120018F77809320010895809120017D
:100840008F7DF9CF80912001877FF5CFCF93DF9304
:10085000282F30E0F901ED57FC4F8491F901E35C5A
:10086000FC4FD491F901E950FD4FC491CC23A1F084
:1008700081110E94BF03EC2FF0E0EE0FFF1FE35247
:10088000FD4FA591B491EC91ED2381E090E009F446
:1008900080E0DF91CF91089580E090E0FACF1F9340
:1008A000CF93DF93282F30E0F901ED57FC4F84916F
:1008B000F901E35CFC4FD491F901E950FD4FC4917B
:1008C000CC23A9F0162F81110E94BF03EC2FF0E07A
:1008D000EE0FFF1FED53FD4FA591B4918FB7F89424
:1008E000EC91111108C0D095DE23DC938FBFDF910E
:1008F000CF911F910895DE2BF8CFCF93DF9390E037
:10090000FC01E35CFC4F249189509D4FFC018491D4
:100910008823C9F090E0880F991FFC01E755FD4F2F
:10092000A591B491FC01ED53FD4FC591D491611196
:100930000DC09FB7F8948C91209582238C93888169
:10094000282328839FBFDF91CF910895623051F40F
:100950009FB7F8943C91822F809583238C93E881F4
:100960002E2BEFCF8FB7F894EC912E2B2C938FBFBB
:10097000EACF3FB7F8948091310890913208A09166
:100980003308B091340826B5A89B05C02F3F19F055
:100990000196A11DB11D3FBFBA2FA92F982F8827FF
:1009A000BC01CD01620F711D811D911D42E0660FDA
:1009B000771F881F991F4A95D1F708958F929F92AC
:1009C000AF92BF92CF92DF92EF92FF926B017C01C8
:1009D0000E94B9044B015C01C114D104E104F1048B
:1009E000B9F00E94B904681979098A099B09683E1F
:1009F00073408105910580F321E0C21AD108E10816
:100A0000F10888EE880E83E0981EA11CB11CE4CF8B
:100A1000FF90EF90DF90CF90BF90AF909F908F901E
:100A20000895CF92DF92EF92FF92CF93DF939C01D4
:100A300080917B00886080937B009AEC960F977082
:100A4000906490937C0080917A00806480937A0017
:100A500080917A0086FDFCCFC0917800D09179001A
:100A6000B901330F880B990B0E94E81520E030E0A4
:100A700040EA50E40E94471620E030EC4FE754E48F
:100A80000E94F0196B017C01BE01DD0F880B990BF0
:100A90000E94E8159B01AC01C701B6010E944716F0
:100AA000DF91CF91FF90EF90DF90CF90089530E0ED
:100AB00020E0FC0111921192CF012F5F3F4F62178E
:100AC0007307B9F70895FA01EE0FFF1FE60FF71F3E
:100AD0001816190644F49C0121703327329322938F
:100AE00095958795F5CF0895FC0101900020E9F7D1
:100AF0003197AF01481B590BBC018BE398E00C9474
:100B00008B028F929F92AF92BF920F931F93CF93BE
:100B1000DF93CDB7DEB7A1970FB6F894DEBF0FBE57
:100B2000CDBF19A2423008F44AE08E010F5D1F4F7D
:100B3000842E912CB12CA12CA50194010E94961A0F
:100B4000E62FB901CA01EA30F4F4E05DD801EE9372
:100B50008D01232B242B252B79F790E080E0109733
:100B600019F0CD010E947405A1960FB6F894DEBF6E
:100B70000FBECDBFDF91CF911F910F91BF90AF906E
:100B80009F908F900895E95CE1CFCF92DF92EF9232
:100B9000FF92CF93DF936B017C016DE28BE398E0D2
:100BA0000E942103EC0166277727CB016C197D0990
:100BB0008E099F094AE00E9481058C0F9D1FDF91DD
:100BC000CF91FF90EF90DF90CF900895CF93DF9378
:100BD000FC0144815581608171818BE398E00E9422
:100BE0008B02EC0180E492E00E9474058C0F9D1F43
:100BF000DF91CF910895CF93DF930E947405EC01AC
:100C000080E492E00E9474058C0F9D1FDF91CF91CC
:100C1000089583E492E00C94FB058CE293E00C943D
:100C2000FB050C9474050E943A02882359F081E078
:100C30008093220B8093230B8091240B9091250BA2
:100C40000C9439151092230B90E080E00895CF9317
:100C5000DF930E941306EC0190932D0880932C08DB
:100C60008BE393E00E941106BE01DD0F880B990B08
:100C700097FF08C00E94C50587E996E0DF91CF91F4
:100C80000C94FB054AE00E948105F6CF0F931F9359
:100C9000CF93DF938C018EE593E00E941106E8016B
:100CA000005F1F4F69917991072E000C880B990BFB
:100CB00097FF0DC00E94C505C017D10799F780E6C0
:100CC00093E0DF91CF911F910F910C9411064AE0B0
:100CD0000E948105F1CF0E943A02882359F081E0F9
:100CE0008093220B8093230B8091240B9091250BF2
:100CF0000C9457151092230B60E070E0CB0108951F
:100D00000F931F93CF93DF93EC0188819981009714
:100D100059F02A813B812617370730F081E0DF91B7
:100D2000CF911F910F9108958B016F5F7F4F0E94AC
:100D3000E51B009759F0998388831B830A832C81D4
:100D40003D81232B59F7FC011082E8CF80E0E7CFEB
:100D5000EF92FF920F931F93CF93DF93611571056D
:100D600041F480E0DF91CF911F910F91FF90EF90C0
:100D7000089541155105B1F07B01EC010C811D81F5
:100D8000040F151FB8010E948006882351F32881A3
:100D900039818C819D81B701820F931F0E94CF1CE6
:100DA0001D830C8381E0DECFCF93DF93EC0188813C
:100DB0009981009711F00E945C1B198218821D8294
:100DC0001C821B821A82DF91CF910895CF93DF930B
:100DD000EC01FB0101900020E9F73197AF01461BC0
:100DE000570B0E94A806811103C0CE010E94D406B1
:100DF000CE01DF91CF910895CF93DF93EC01FB01FA
:100E000044815581608171810E94A806811103C0CF
:100E1000CE010E94D406CE01DF91CF910895EF92CA
:100E2000FF920F931F93CF93DF93EC017B018A0115
:100E3000BA010E94800681110BC0CE010E94D40627
:100E4000CE01DF91CF911F910F91FF90EF90089508
:100E50001D830C83B701888199810E94CF1CF0CF3C
:100E6000EF92FF920F931F93CF93DF93CDB7DEB72F
:100E7000A1970FB6F894DEBF0FBECDBF7C01CB01AA
:100E8000BA01F70111821082138212821582148234
:100E90008E010F5F1F4F22E044E00E94B9130097BC
:100EA000C9F0FC0101900020E9F73197AF01481B20
:100EB000590BBC01C7010E940F07A1960FB6F89409
:100EC000DEBF0FBECDBFDF91CF911F910F91FF907D
:100ED000EF900895C7010E94D406EFCFEF92FF92E2
:100EE0000F931F93CF93DF93CDB7DEB762970FB603
:100EF000F894DEBF0FBECDBF8C01CB01F80111828B
:100F0000108213821282158214824AE09E012F5FA2
:100F10003F4F7901B9010E949F15F7010190002010
:100F2000E9F73197AF014E195F09B701C8010E9477
:100F30000F0762960FB6F894DEBF0FBECDBFDF91EC
:100F4000CF911F910F91FF90EF900895FC011182B6
:100F500010821382128215821482FB0101900020FC
:100F6000E9F73197AF01461B570B0C940F07FC01B3
:100F700080819181009711F00C945C1B0895CF93B0
:100F8000DF93CDB7DEB72C970FB6F894DEBF0FBE58
:100F9000CDBF60912C0870912D08CE0107960E945C
:100FA0006E0763E673E0CE0101960E94A607BE01BC
:100FB000695F7F4FCE0101960E94FC0662E773E0F5
:100FC0000E94E6060E94E605CE0101960E94B70740
:100FD000CE0107960E94B7072C960FB6F894DEBF95
:100FE0000FBECDBFDF91CF9108956F927F928F9208
:100FF0009F92AF92BF92CF92DF92EF92FF920F93A8
:101000001F93CF93DF93CDB7DEB73C018B014A012D
:10101000ADB6BEB67B01EE0CFF1C8DB79EB78E1928
:101020009F090FB6F8949EBF0FBE8DBFEDB7FEB7F8
:1010300031966F01CF010E945705A801B601C40186
:101040000E946305EC0CFD1C8301F2E0EF1AF1082D
:10105000F80180810E5F1F4FF70160810E944F04ED
:10106000EC14FD0491F70FB6F894BEBE0FBEADBEF2
:10107000DF91CF911F910F91FF90EF90DF90CF9074
:10108000BF90AF909F908F907F906F900895CF9278
:10109000DF92EF92FF920F931F93CF93DF938C0118
:1010A0006B017A018CE10E942604019761F084E7CC
:1010B00093E0DF91CF911F910F91FF90EF90DF9020
:1010C000CF900C94FB05CEE1D2E08881229661E0BE
:1010D0000E947D0482E0CE32D807B9F7A60168E00D
:1010E00070E08EE192E00E94F507A70164E070E0F5
:1010F00086E192E00E94F507A80168E070E086E0D2
:1011000092E00E94F50760E083E30E944F04C4E68A
:10111000D0E08CE10E942604892B51F02197C9F779
:1011200061E083E30E944F0483E993E00E94FB05A2
:1011300061E083E30E944F048DE10E942604019741
:1011400019F08AEA93E0B5CFDF91CF911F910F910B
:10115000FF90EF90DF90CF9008950F931F93CF9360
:10116000DF93CDB7DEB760970FB6F894DEBF0FBE42
:10117000CDBF00912E0810912F08882309F44BC091
:1011800000648DEB93E00E94FB050F7780912E08A1
:1011900090912F088017910799F110932F080093D1
:1011A0002E088CEF93E00E94110668E070E0CE01FB
:1011B00001960E94570548E050E0BE016F5F7F4FE7
:1011C00080912E0890912F080E946305CE01019610
:1011D0000E94460681E194E00E94FB0540912C08A4
:1011E00050912D0860912E0870912F0890E080E0BA
:1011F0000E94470865E070E080E090E00E94DE0415
:1012000060960FB6F894DEBF0FBECDBFDF91CF91D1
:101210001F910F9108950F7B8CED93E0B4CFCF9287
:10122000DF92EF92FF92CF93DF93CDB7DEB72C978B
:101230000FB6F894DEBF0FBECDBF81E00E94AD08AF
:1012400063E470E08091390890913A080E9411059A
:101250006B017C0180E00E94AD08B701A601CE01C0
:1012600007960E94300766E174E0CE0101960E9465
:10127000A607BE01695F7F4FCE0101960E94FC0662
:1012800062E773E00E94E6060E94E605CE01019641
:101290000E94B707CE0107960E94B7072C960FB69B
:1012A000F894DEBF0FBECDBFDF91CF91FF90EF90DE
:1012B000DF90CF90089520912A0830912B08B90132
:1012C0006F73772781309105B9F00C97B9F06217E9
:1012D0007307B1F070932B0860932A0840912C0893
:1012E00050912D0889E090E00E94470865E070E089
:1012F00080E090E00C94DE046064E9CF6068E7CFA2
:101300000895CF92DF92EF92FF920F931F93CF93A6
:10131000DF93CDB7DEB760970FB6F894DEBF0FBE90
:10132000CDBF182F882309F46EC08AE294E00E9492
:10133000FB0595E0E92EF12CC0902808D0902908F3
:10134000112309F468C086010F7B016083E694E0F5
:101350000E94110689E894E00E94110668E070E09E
:10136000CE0101960E94570548E050E0BE016F5F34
:101370007F4FC6010E946305CE0101960E9446067A
:101380008AEA94E00E94110668E070E0CE010196BE
:101390000E94570548E050E0BE016F5F7F4FC801D3
:1013A0000E946305CE0101960E9446068BEC94E0F4
:1013B0000E94FB05809128089091290880179107C9
:1013C00099F0109329080093280840912C08509117
:1013D0002D08B80185E090E00E944708B701FF0C96
:1013E000880B990B0E94DE0460960FB6F894DEBF5E
:1013F0000FBECDBFDF91CF911F910F91FF90EF9066
:10140000DF90CF90089585E494E00E94FB05EE24E0
:10141000E394F12C91CF86010E7F98CF80E00C945D
:1014200081098F929F92AF92BF92CF92DF92EF92FB
:10143000FF920F931F93CF93DF93CDB7DEB72C9717
:101440000FB6F894DEBF0FBECDBF0E946B066B01D6
:101450008B010150110900311105C0F18EEC94E0AF
:101460000E94FB05B501A401CE0107960E9430073A
:1014700060EF74E0CE0101960E94A607BE01695F8D
:101480007F4FCE0101960E94FC0662E773E00E9446
:10149000E6060E94E605CE0101960E94B707CE013E
:1014A00007960E94B7072C960FB6F894DEBF0FBEC2
:1014B000CDBFDF91CF911F910F91FF90EF90DF9003
:1014C000CF90BF90AF909F908F90089581E090E073
:1014D00090933A08809339080E945B0989E0C81606
:1014E000D1040CF070C0086210932F0800932E08EE
:1014F00040912C0850912D0860912E0870912F0872
:1015000090E080E00E94470865E070E080E090E0B5
:101510000E94DE0464E470E08091390890913A08FA
:101520000E9411054B015C0120E030E040E850E4EE
:101530000E94911A181664F583E090E090933A089F
:10154000809339080E945B0964E470E08091390857
:1015500090913A080E9411054B015C0120E030E0B7
:1015600040E251E40E94911A181694F48CE090E045
:1015700090933A08809339080E945B0964E470E014
:101580008091390890913A080E9411054B015C0145
:1015900060912E0870912F086078772770932F083C
:1015A00060932E0840912C0850912D0890E080E027
:1015B0000E94470881E090E090933A0880933908B0
:1015C0000E945B094FCF89E0C81AD10880E3C82A7E
:1015D000D0922F08C0922E088BCF4F925F926F92BD
:1015E0007F928F929F92AF92BF92CF92DF92EF92B3
:1015F000FF920F931F93CF93DF93CDB7DEB766971C
:101600000FB6F894DEBF0FBECDBF28E0422E512C9E
:1016100066246394712C0E9413068C010E941306A9
:101620007C01680181E0C81AD10890E1C916D10493
:1016300008F011C199249394E114F10409F4912C58
:10164000F601E85EF74F5F018081981609F403C147
:10165000B801CE014196E114F104D9F10E946E0760
:1016600064E075E0CE0101960E94A607BE016F5EA0
:101670007F4FCE0101960E94FC0667E175E00E9453
:10168000E6060E94E605CE0101960E94B707CE014C
:1016900041960E94B707F5019082A0900208B09091
:1016A00003088090000890900108EF2809F0EFC02F
:1016B000093011056CF109501109730102C0EE0CDB
:1016C000FF1C0A95E2F7E094F094E820F9208501E8
:1016D0002AC00E946E0765E275E0CE0101960E9465
:1016E000A607BE016F5E7F4FCE0101960E94FC06E9
:1016F0006BE375E0C4CF830102C0000F111FCA94D1
:10170000E2F70A291B29740185E0C82ED12C0EC0EE
:10171000830102C0000F111FCA94E2F700951095D3
:101720000A211B217401CC24C394D12C87E495E0B9
:101730000E94110687E595E00E94110668E070E0BE
:10174000CE0101960E94570548E050E0BE016F5F50
:101750007F4FC5010E946305CE0101960E94460697
:1017600080E795E00E94110668E070E0CE010196E6
:101770000E94570548E050E0BE016F5F7F4FC801EF
:101780000E946305CE0101960E94460689E895E015
:101790000E94110668E070E0CE0101960E94570594
:1017A00048E050E0BE016F5F7F4FC4010E946305B7
:1017B000CE0101960E94460682EA95E00E9411063B
:1017C00068E070E0CE0101960E94570548E050E0C5
:1017D000BE016F5F7F4FC7010E946305CE01019676
:1017E0000E9446068BEC94E00E94FB058091020863
:1017F0009091030808171907A1F0109303080093AC
:10180000020840912C0850912D08B80181E090E029
:101810000E944708B6010D2C000C880B990B0E9402
:10182000DE048091000890910108E816F90699F00D
:10183000F0920108E092000840912C0850912D0888
:10184000B70182E090E00E944708B601DD0C880BEA
:10185000990B0E94DE04F1E04F1A510809F0DBCE2B
:1018600066960FB6F894DEBF0FBECDBFDF91CF9165
:101870001F910F91FF90EF90DF90CF90BF90AF90AE
:101880009F908F907F906F905F904F900895093058
:1018900011050CF430CF09501109730102C0EE0C90
:1018A000FF1C0A95E2F7E828F92885012DCF4F9211
:1018B0005F926F927F928F929F92AF92BF92CF92E0
:1018C000DF92EF92FF920F931F93CF93DF93CDB7E9
:1018D000DEB766970FB6F894DEBF0FBECDBF28E027
:1018E000422E512C66246394712C0E9413068C01A5
:1018F0000E9413067C01680181E0C81AD10890E1BA
:10190000C916D104D8F1B801CE0101960E946E0724
:101910006BEB75E0CE0141960E94A607BE016F5F9A
:101920007F4FCE0141960E94FC066FE276E00E9456
:10193000E6060E94E605CE0141960E94B707CE0159
:1019400001960E94B707F1E04F1A510871F66696AA
:101950000FB6F894DEBF0FBECDBFDF91CF911F91C0
:101960000F91FF90EF90DF90CF90BF90AF909F903E
:101970008F907F906F905F904F90089599249394EB
:10198000E114F10409F4912CF601E85FF74F5F01CF
:1019900080818915C1F2B801CE010196E114F104EC
:1019A000D9F10E946E0764E075E0CE0141960E9475
:1019B000A607BE016F5F7F4FCE0141960E94FC06D5
:1019C00064E776E00E94E6060E94E605CE014196B5
:1019D0000E94B707CE0101960E94B707F5019082D9
:1019E000A090FE07B090FF078090FC079090FD0745
:1019F000EF2809F0D5C0093011056CF10950110923
:101A0000730102C0EE0CFF1C0A95E2F7E094F0941B
:101A1000E820F92085012AC00E946E0765E275E082
:101A2000CE0141960E94A607BE016F5F7F4FCE0197
:101A300041960E94FC0666E876E0C4CF830102C0AE
:101A4000000F111FCA94E2F70A291B29740185E0CF
:101A5000C82ED12C0EC0830102C0000F111FCA94E2
:101A6000E2F7009510950A211B217401CC24C39440
:101A7000D12C8AE996E00E94110681EB96E00E9443
:101A8000110668E070E0CE0101960E94570548E01B
:101A900050E0BE016F5F7F4FC5010E946305CE011C
:101AA00001960E9446068AEC96E00E94110668E0C4
:101AB00070E0CE0101960E94570548E050E0BE015B
:101AC0006F5F7F4FC8010E946305CE0101960E949F
:101AD000460683EE96E00E94110668E070E0CE01B3
:101AE00001960E94570548E050E0BE016F5F7F4FAE
:101AF000C4010E946305CE0101960E9446068CEF48
:101B000096E00E94110668E070E0CE0101960E9406
:101B1000570548E050E0BE016F5F7F4FC7010E944C
:101B20006305CE0101960E9446068BEC94E00E946C
:101B3000FB058091FE079091FF0708171907A1F098
:101B40001093FF070093FE0740912C0850912D0839
:101B5000B80183E090E00E944708B6010D2C000C0C
:101B6000880B990B0E94DE048091FC079091FD0781
:101B7000E816F90609F4E7CEF092FD07E092FC07BB
:101B800040912C0850912D08B70184E090E00E940C
:101B90004708B601DD0C880B990B0E94DE04D3CEFA
:101BA000093011050CF44ACF09501109730102C024
:101BB000EE0CFF1C0A95E2F7E828F928850147CFCB
:101BC000EF92FF920F931F93CF93DF93CDB7DEB7C2
:101BD000E0914B08F0914C0882E08083E091470847
:101BE000F09148081082E0914908F0914A0880E19C
:101BF000808310925308E0914F08F091500886E0DE
:101C00008083E0914D08F0914E088081806180834F
:101C1000E0914D08F0914E08808188608083E091CA
:101C20004D08F0914E08808180688083E0914D08D6
:101C3000F0914E0880818F7D808385E197E00E943E
:101C4000FB0510922D0810922C0806E012E0F80116
:101C500080810E5F1F4F61E00E947D04F2E006313B
:101C60001F07A9F761E083E30E947D0461E084E33C
:101C70000E947D0461E085E30E947D0461E083E3CE
:101C80000E944F0461E084E30E944F0461E085E319
:101C90000E944F0462E08CE10E947D0462E08DE1CD
:101CA0000E947D0460E084E40E947D0460E083E49F
:101CB0000E947D0461E085E20E947D0461E086E28D
:101CC0000E947D0461E087E20E947D0461E088E279
:101CD0000E947D04109207081092060880E890E0A8
:101CE0009093050880930408109229081092280800
:101CF0001092030810920208109201081092000836
:101D00001092FF071092FE071092FD071092FC0739
:101D100010922F0810922E0810922B0810922A0869
:101D200050E040E070E060E086E090E00E9447080C
:101D300040912C0850912D0860910408709105087D
:101D400087E090E00E94470840912C0850912D08B0
:101D5000609128087091290885E090E00E9447086A
:101D600040912C0850912D0860912E0870912F08F9
:101D700090E080E00E94470840912C0850912D0887
:101D8000609102087091030881E090E00E9447088A
:101D900040912C0850912D08609100087091010825
:101DA00082E090E00E94470840912C0850912D0855
:101DB0006091FE077091FF0783E090E00E94470862
:101DC00040912C0850912D086091FC077091FD07FF
:101DD00084E090E00E94470840912C0850912D0823
:101DE00060912A0870912B0889E090E00E944708D2
:101DF00000912C0810912D088CE10E942604019777
:101E000009F464C087E297E00E94FB0561E070E09E
:101E100080E090E00E94DE0489E096E090932F0B32
:101E200080932E0B8DE096E09093310B8093300BD6
:101E30008EEB9FE09093330B8093320B8EE09AE011
:101E40009093410B8093400B87E59CE09093350B7A
:101E50008093340B8DEE9AE09093370B8093360B82
:101E600081E19AE09093390B8093380B8FE099E0F1
:101E700090933B0B80933A0B87E296E090933D0B57
:101E800080933C0B8FEB97E090933F0B80933E0B3E
:101E900080EE9DE09093430B8093420B81E0809312
:101EA000E008E8E1F8E0A8E0B8E088E298E0119204
:101EB0001D928E179F07D9F78FE597E0DF91CF919D
:101EC0001F910F91FF90EF900C94FB059EE1E92E7E
:101ED00092E0F92EF7018081F2E0EF0EF11C60E054
:101EE0000E947D048EE2E81682E0F80699F7A801C8
:101EF00064E070E086E192E00E94F50748E050E07F
:101F000068E070E086E092E00E94F50760E084E31C
:101F10000E944F0404E610E08CE10E942604892B05
:101F200059F001501109C1F761E084E30E944F04A8
:101F300087E497E00E94FB058EE2E82E82E0F82E0F
:101F400092E0E91AF108F70180810E942604FEE17F
:101F5000EF16F2E0FF06A1F70FB6F894DEBF0FBE52
:101F6000CDBF61E084E30E944F048DE10E9426040E
:101F7000019709F44BCF8AEA93E046CF8F929F9264
:101F8000AF92BF92CF92DF92EF92FF920F931F9387
:101F9000CF93DF93CDB7DEB7A2970FB6F894DEBF2D
:101FA0000FBECDBF0E946B066B010E946B064B01FA
:101FB00081E00E948109B401CE0147960E946E071C
:101FC000B601CE0101960E946E071A8A198A1C8AF0
:101FD0001B8A1E8A1D8A69817A816115710531F01B
:101FE0004D815E81CE0141960E940F076DE276E041
:101FF000CE0141960E94E606BE01695E7F4F0E94B7
:10200000FC061E8E1D8E18A21F8E1AA219A28E010A
:10201000035E1F4F8017910759F0FC0160817181A9
:102020006115710529F044815581C8010E940F078F
:10203000CE0141960E94B707CE0101960E94B707D4
:10204000CE0147960E94B7078D8D9E8DC12CD12C55
:102050007601009721F00E9435156B017C01B701D4
:10206000A601CE0101960E94300762E777E0CE011B
:1020700041960E94A607BE016F5F7F4FCE01419639
:102080000E94FC0667E976E00E94E6060E94E605EB
:10209000CE0141960E94B707CE0101960E94B70774
:1020A0008090060890900708A0900408B09005085A
:1020B00020E030E040E450E4C701B6010E94F0198E
:1020C00020E030E040E251E40E9484196B017C0181
:1020D00020E030E040EA51E40E94911A87FDA0C060
:1020E0008FEF90E09093070880930608909305087F
:1020F00080930408E0900408F0900508C09006085A
:10210000D090070884E897E00E94110680EA97E0E3
:102110000E94110668E070E0CE0101960E9457050A
:1021200048E050E0BE016F5F7F4FC4010E9463052D
:10213000CE0101960E94460687EB97E00E941106A9
:1021400068E070E0CE0101960E94570548E050E03B
:10215000BE016F5F7F4FC6010E946305CE010196ED
:102160000E9446068EEC97E00E94110668E070E03F
:10217000CE0101960E94570548E050E0BE016F5F16
:102180007F4FC5010E946305CE0101960E9446065D
:1021900085EE97E00E94110668E070E0CE0101969E
:1021A0000E94570548E050E0BE016F5F7F4FC701B6
:1021B0000E946305CE0101960E9446068BEC94E0D6
:1021C0000E94FB0540912C0850912D086091060853
:1021D0007091070886E090E00E94470840912C0823
:1021E00050912D08609104087091050887E090E0F7
:1021F0000E944708C8010E94B707A2960FB6F8943C
:10220000DEBF0FBECDBFDF91CF911F910F91FF9029
:10221000EF90DF90CF90BF90AF909F908F900895F8
:1022200020E030E0A901C701B6010E94E1151816AF
:102230004CF01092070810920608109205081092B0
:10224000040858CF20E03CEC4CE455E4C701B6014B
:102250000E9447160E94621A9B0133273093070899
:1022600020930608709304081092050843CF1F922C
:102270000F920FB60F9211240BB60F922F933F932C
:102280004F935F936F937F938F939F93AF93BF937E
:10229000EF93FF938BE398E00E94FF02FF91EF9191
:1022A000BF91AF919F918F917F916F915F914F916E
:1022B0003F912F910F900BBE0F900FBE0F901F906C
:1022C00018951F920F920FB60F9211240BB60F9212
:1022D0002F938F939F93EF93FF93E0914B08F0918F
:1022E0004C088081E0915108F091520882FD1DC098
:1022F0009081809154088F5F8F73209155088217C9
:1023000041F0E0915408F0E0E55CF74F958F809341
:102310005408FF91EF919F918F912F910F900BBED9
:102320000F900FBE0F901F9018958081F2CF1F92D3
:102330000F920FB60F9211242F933F938F939F9379
:10234000AF93BF938091350890913608A0913708DC
:10235000B09138083091300823E0230F2D3758F51D
:102360000196A11DB11D20933008809335089093EC
:102370003608A0933708B0933808809131089091BF
:102380003208A0913308B09134080196A11DB11D07
:102390008093310890933208A0933308B0933408A7
:1023A000BF91AF919F918F913F912F910F900FBE51
:1023B0000F901F90189526E8230F0296A11DB11DBE
:1023C000D2CF10923E0810923D0888EE93E0A0E034
:1023D000B0E080933F0890934008A0934108B093E9
:1023E000420882E392E090933C0880933B0885EC9E
:1023F00090E0909348088093470884EC90E0909395
:102400004A088093490880EC90E090934C088093B0
:102410004B0881EC90E090934E0880934D0882EC3D
:1024200090E09093500880934F0886EC90E0909352
:102430005208809351081092540810925508109237
:1024400056081092570810922F0B10922E0B8BE308
:1024500098E090932A0B8093290B1092E0088CE26D
:1024600080932C0B8BE380932B0B8FE280932D0BAF
:1024700080E48093DB088FE38093DC081092DA0815
:102480001092250B1092240B1092270B1092260B02
:1024900081E08093220BE0E3FBE0119211928BE04C
:1024A000E439F807D1F71092DF0883E090E09093C9
:1024B0003A08809339080895789484B5826084BD81
:1024C00084B5816084BD85B5826085BD85B5816038
:1024D00085BD80916E00816080936E0010928100B6
:1024E0008091810082608093810080918100816071
:1024F0008093810080918000816080938000809132
:10250000B10084608093B1008091B00081608093BD
:10251000B000809191008260809391008091910041
:102520008160809391008091900081608093900001
:102530008091A10082608093A1008091A1008160C0
:102540008093A1008091A00081608093A000809181
:10255000210182608093210180912101816080931B
:1025600021018091200181608093200180917A0077
:10257000846080937A0080917A00826080937A00F0
:1025800080917A00816080937A0080917A008068DF
:1025900080937A001092C1000E94E00DDD24D39454
:1025A0008091DF088111DBC08091290B90912A0B6B
:1025B000DC01ED91FC910084F185E02D1995892BCA
:1025C00009F4CDC08091290B90912A0BDC01ED918B
:1025D000FC910084F185E02D1995C0E0D2E08115D1
:1025E000924064F48091290B90912A0BDC01ED91CB
:1025F000FC910084F185E02D1995EC010091290BE7
:1026000010912A0B91E2E92E99E0F92E4701B12CA5
:10261000A12CCA15DB0509F056C010E000E0C01778
:10262000D10709F4BDCFD7019D917D011092210BF7
:1026300030912D0B2091DE089093DE08931304C097
:10264000921302C01092DE088091DA08E82FF0E0C1
:1026500040912B0BE852F74F94136DC0321709F4D9
:102660006AC01186882321F0D092210B1092DE08D7
:102670001092DA081092250B1092240B1092270B5F
:102680001092260BD092220B8091210B813009F001
:1026900063C00E9413068093D908823308F055C0A6
:1026A0002091230B222309F450C0FC01FF27EE0FD9
:1026B000FF1FE05DF44F0190F081E02D309709F4A9
:1026C00044C0199549C02FB7F8948091350890916E
:1026D0003608A0913708B09138082FBFF8018087DD
:1026E0009187A287B387D801ED91FC910284F3858D
:1026F000E02DC801199597FF35C02FB7F894809148
:10270000350890913608A0913708B09138082FBF4E
:10271000F8014085518562857385841B950BA60B56
:10272000B70B448155816681778184179507A60789
:10273000B707C8F272CF91878F5F8093DA089091C4
:10274000DC08891708F094CF9FCFE0912E0BF09111
:102750002F0B309709F0B5CF0F5F1F4F60CF0E944E
:102760008E031ECFF40181934F01FFEFAF1ABF0A12
:1027700050CFEF920F931F93CF93DF93E80134E094
:1027800047FD34E1042E000C550B57FF03C0519553
:1027900041955109E32E022F242FAE010E94B41659
:1027A000CE01DF91CF911F910F91EF9008958F92FD
:1027B0009F92AF92BF92CF92DF92EF92FF920F93D0
:1027C0001F93CF93DF935C017B016115710519F0B5
:1027D000DB018D939C9385010F5F1F4FF501D08125
:1027E0008D2F90E00E947E156C01892BB9F5DD32AA
:1027F000B9F50F5F1F4FD5011196DC91C1E058016B
:10280000F1E0AF1AB10843E050E06CE771E0C501B8
:102810000E948715892B69F5680182E0C80ED11CDA
:1028200045E050E067E771E0C6010E948715892BFB
:1028300021F4680197E0C90ED11CE114F10419F0EC
:10284000D701CD92DC9260E070E080E89FEFC1118B
:10285000FFC060E070E080E89FE7FAC05801BBCF9E
:10286000DB3229F485010E5F1F4FF501D181C0E0F5
:10287000C6CF43E050E064E771E0C5010E948715D0
:10288000892BE9F0F80110E000E020E030E0A90138
:102890005F01B0ED8B2E8D0E89E08815C8F19C2E5E
:1028A000689491F88C2F8870C2FF16C0811102C005
:1028B0000F5F1F4F3196D501DC91C92DE9CFE1148F
:1028C000F10429F00E5F1F4FF7011183008360E0D0
:1028D00070E080EC9FE7BCC0882311F00150110923
:1028E000A5E0B0E00E9469199B01AC01220F331FE3
:1028F000441F551F280D311D411D511D283999E9CF
:102900003907490799E15907A8F2C6609C2ED2CF32
:10291000AEEF8A1206C0C3FD3CC09C2E689493F8AB
:10292000C9CFDF7DD534A9F580818D3239F4C061FE
:10293000DF011296818162E070E006C0DF018B3218
:10294000C1F3119661E070E080535D01A61AB70AE9
:102950008A30F8F4E0E8CE16ECE0DE065CF4B6016E
:10296000660F771F660F771FC60ED71ECC0CDD1CB7
:10297000C80ED11C5D01FFEFAF1ABF0A8C918053C6
:102980008A30A8F1C4FF03C0D194C194D1080C0DC2
:102990001D1DC1FF09C0E114F10431F081E0A81A46
:1029A000B108D701AD92BC92CA01B9010E94E615E7
:1029B000C370C33009F490584B015C0120E030E053
:1029C000A9010E94E115882309F440C0CBEAD1E0B7
:1029D00017FF05C0119501951109C3E9D1E06E01FA
:1029E000B8E1CB1AD10880E2E82EF12C0FC0D50156
:1029F000B1CFFE0125913591459154910E191F09D2
:102A0000C501B4010E9447164B015C01D501C40108
:102A10000E151F0574F72497F594E794CC16DD0680
:102A2000A9F78A2F880F8B2F881F8F3F49F020E04E
:102A300030E0A901C501B4010E94E115811106C071
:102A400082E290E09093950B8093940BC501B401C2
:102A5000DF91CF911F910F91FF90EF90DF90CF907A
:102A6000BF90AF909F908F900895662777270C9422
:102A7000D713FC0188279927E89421912032E9F3A4
:102A8000293010F02E30C8F32B3241F02D3239F4BA
:102A9000689404C00E94BF15820F911D219120539C
:102AA0002A30C0F31EF4909581959F4F08951F938F
:102AB000FC0199278827BC01E89411911032E9F3B1
:102AC000193010F01E30C8F31B3251F01D3249F49A
:102AD000689406C00E94AA15610F711D811D911D89
:102AE000119110531A30B0F33EF490958095709583
:102AF00061957F4F8F4F9F4F1F91089591110C94B7
:102B00000519803219F089508550C8F70895FB01E6
:102B1000DC014150504088F08D9181341CF08B35A0
:102B20000CF4805E659161341CF06B350CF4605ED2
:102B3000861B611171F3990B0895881BFCCFBB278D
:102B40004A3031F4992322F4BDE2909581959F4F4C
:102B50000C94C815592F482F372F262F660F771F33
:102B6000881F991F660F771F881F991F620F731F99
:102B7000841F951F660F771F881F991F08957AE09D
:102B8000979F902D879F802D910D11240895BB272D
:102B9000FB015527AA27880F991FAA1FA41710F019
:102BA000A41B83955051B9F7A05DAA3308F0A95D25
:102BB000A193009779F7B111B1931192CB010C94C5
:102BC00008190E94231608F481E00895E89409C0CA
:102BD00097FB3EF490958095709561957F4F8F4F50
:102BE0009F4F9923A9F0F92F96E9BB279395F69566
:102BF000879577956795B795F111F8CFFAF4BB0FE4
:102C000011F460FF1BC06F5F7F4F8F4F9F4F16C047
:102C1000882311F096E911C0772321F09EE8872FD1
:102C2000762F05C0662371F096E8862F70E060E08D
:102C30002AF09A95660F771F881FDAF7880F969506
:102C4000879597F90895990F0008550FAA0BE0E8AA
:102C5000FEEF16161706E807F907C0F0121613065E
:102C6000E407F50798F0621B730B840B950B39F49E
:102C70000A2661F0232B242B252B21F408950A2604
:102C800009F4A140A6958FEF811D811D08950E9432
:102C90005A160C942F190E94211938F00E942819F5
:102CA00020F0952311F00C9418190C941E1911247E
:102CB0000C9463190E94401970F3959FC1F3950F0E
:102CC00050E0551F629FF001729FBB27F00DB11DB0
:102CD000639FAA27F00DB11DAA1F649F6627B00D40
:102CE000A11D661F829F2227B00DA11D621F739F29
:102CF000B00DA11D621F839FA00D611D221F749F37
:102D00003327A00D611D231F849F600D211D822F7D
:102D1000762F6A2F11249F5750409AF0F1F08823A4
:102D20004AF0EE0FFF1FBB1F661F771F881F9150D1
:102D30005040A9F79E3F510580F00C9418190C944F
:102D400063195F3FE4F3983ED4F3869577956795D2
:102D5000B795F795E7959F5FC1F7FE2B880F911DFB
:102D60009695879597F908958F929F92AF92BF920B
:102D7000CF92DF92EF92FF920F931F93CF93DF9347
:102D800000D000D000D0CDB7DEB76A01F22EB02E51
:102D9000102FFBE3AF2EA01608F41BE31F5F012FDB
:102DA00027E0AE014F5F5F4F0E942D18BC01898163
:102DB000982F9970913009F44EC09BE2E1FC04C059
:102DC0009E2D9170E0FC49C05E2D5071E82FE87097
:102DD00083FF55C084E0911101C083E0EF2DE81B13
:102DE0008F1508F0E0E0D6018E2F20E25523C9F1BF
:102DF000992329F0D6019C93C60101966C01960196
:102E00002D5F3F4FE2FE33C08EE4D6018C9391E4F8
:102E100011969C93119712968C93D9018E2F90E264
:102E200081112AC0E20FF32FF11D10828EEF9FEF68
:102E300029960FB6F894DEBF0FBECDBFDF91CF91BC
:102E40001F910F91FF90EF90DF90CF90BF90AF90C8
:102E50009F908F9008959DE2B7CF90E2B5CF2D93CC
:102E600081508111FCCFCE0ED11CE0E0C1CF8EE6A7
:102E7000D6018C9391E6CCCF9D938150D1CF482F32
:102E8000447082FF3DC084E0911101C083E08F1542
:102E900010F4EF2DE81BD6018E2F20E2552309F107
:102EA000992329F0D6019C93C60101966C019601E5
:102EB0002D5F3F4FE2FE1BC089E4D6018C938EE468
:102EC00011968C93119786E412968C93D9018E2FCC
:102ED00090E2882309F4A6CF9D938150FACF2D93D9
:102EE00081508111FCCFCE0ED11CE0E0D9CF89E614
:102EF000D6018C938EE611968C93119786E6E4CFDB
:102F00009B0177FF02C030E020E0A1E0B0E091112A
:102F100002C0B0E0A0E0F9013196AE0FBF1F8B2CCC
:102F2000912CBB2009F461C05401EFEFAE1ABE0A28
:102F3000AA0DBB1DFA161B0619F014F04F2D4A1BE3
:102F4000511188C0E3FC59C07601A42FB0E2A11151
:102F50004FC0C40ED11C992309F45BC040E0D601D8
:102F60001196F60190836D01552309F448C0012F95
:102F7000060F9A81582F507184FF03C0913309F4D2
:102F8000015010160CF047C0093008F008E0EEE2DE
:102F9000FE2E5B01A01AB1088501919481949108DD
:102FA0002F3F320729F4D601FC92F60131966F01CA
:102FB0006217730794F1021713077CF5DB01A21B5C
:102FC000B30BAA24A394B12CAC0EBD1EAA0DBB1D3D
:102FD00011968C9121503109D60111962815390589
:102FE000F4F0F60180836D01DBCFB12CA12CA0CFD2
:102FF000F701B1937F01A150AACF9111B0CFD601B3
:10300000942F50E302C05D9391509111FCCFC40EF8
:10301000D11C40E0ACCF01E0BACF80E3DBCF621738
:10302000730731F4963388F4953311F4552369F01E
:10303000F6018083FD01842F90E2811108C0A40F66
:10304000B11D1C9290E080E0F3CE81E3F1CF91932B
:103050008150F3CF911183CF8ACF283008F027E039
:103060003327DA01990F311D87FD916000966105C4
:10307000710539F432602E5F3D9330E32A95E1F714
:1030800008959F3F30F080387105610509F03C5F7D
:103090003C5F3D93913008F08068911DDF93CF93A2
:1030A0001F930F93FF92EF92192F987F9695E92F18
:1030B00096959695E90FFF27E75FFD4F99273327F0
:1030C000EE24FF24A701E70105900894079428F453
:1030D000360FE71EF81E491F511D660F771F881F08
:1030E000991F0694A1F70590079428F4E70EF81E9F
:1030F000491F561FC11D770F881F991F661F069411
:10310000A1F70590079428F4F80E491F561FC71F12
:10311000D11D880F991F661F771F0694A1F7059090
:10312000079420F4490F561FC71FD81F990F661F19
:10313000771F881F0694A9F784911095177041F0A6
:10314000D695C79557954795F794E7941A95C1F783
:10315000EFEAF1E06894159015913591659195919C
:1031600005907FE27395E118F10A430B560BC90BEA
:10317000D009C0F7E10CF11E431F561FC91FD01D17
:103180007EF4703311F48A95E6CFE894015030F064
:10319000080F0AF40027021708F4202F2395022FA6
:1031A0007A3328F079E37D932A95E9F710C07D936F
:1031B0002A9589F6069497956795379517951794EC
:1031C000E118F10A430B560BC90BD00998F023956F
:1031D0007E9173957A3308F070E37C932013B8F7EF
:1031E0007E9170617D9330F0839571E37D9370E300
:1031F0002A95E1F71124EF90FF900F911F91CF9145
:10320000DF91992787FD909508959927882708953C
:10321000DC01FC01672F71917723E1F7329704C03D
:103220007C916D9370836291AE17BF07C8F30895C8
:1032300097F99F6780E870E060E008959FEF80EC69
:10324000089500240A94161617061806090608950C
:1032500000240A9412161306140605060895092E72
:103260000394000C11F4882352F0BB0F40F4BF2BE1
:1032700011F460FF04C06F5F7F4F8F4F9F4F089521
:1032800057FD9058440F551F59F05F3F71F0479517
:10329000880F97FB991F61F09F3F79F087950895FC
:1032A000121613061406551FF2CF4695F1DF08C01B
:1032B000161617061806991FF1CF86957105610538
:1032C00008940895E894BB2766277727CB0197F9E0
:1032D00008950E947419A59F900DB49F900DA49F0E
:1032E000800D911D11240895A29FB001B39FC001CC
:1032F000A39F700D811D1124911DB29F700D811D22
:103300001124911D08955058BB27AA270E949B198C
:103310000C942F190E94211938F00E94281920F0CE
:1033200039F49F3F19F426F40C941E190EF4E0951D
:10333000E7FB0C941819E92F0E94401958F3BA17AB
:10334000620773078407950720F079F4A6F50C94BB
:1033500062190EF4E0950B2EBA2FA02D0B01B901C6
:1033600090010C01CA01A0011124FF27591B99F0FB
:10337000593F50F4503E68F11A16F040A22F232F07
:10338000342F4427585FF3CF469537952795A79557
:10339000F0405395C9F77EF41F16BA0B620B730BFE
:1033A000840BBAF09150A1F0FF0FBB1F661F771F6F
:1033B000881FC2F70EC0BA0F621F731F841F48F424
:1033C000879577956795B795F7959E3F08F0B0CFAD
:1033D0009395880F08F09927EE0F97958795089594
:1033E0000E94041A0C942F190E94281958F00E9468
:1033F000211940F029F45F3F29F00C94181951115C
:103400000C9463190C941E190E94401968F39923B7
:10341000B1F3552391F3951B550BBB27AA276217D0
:103420007307840738F09F5F5F4F220F331F441FDD
:10343000AA1FA9F335D00E2E3AF0E0E832D0915011
:103440005040E695001CCAF72BD0FE2F29D0660FFE
:10345000771F881FBB1F261737074807AB07B0E841
:1034600009F0BB0B802DBF01FF2793585F4F3AF047
:103470009E3F510578F00C9418190C9463195F3F26
:10348000E4F3983ED4F3869577956795B795F795CD
:103490009F5FC9F7880F911D9695879597F90895B5
:1034A000E1E0660F771F881FBB1F62177307840751
:1034B000BA0720F0621B730B840BBA0BEE1F88F760
:1034C000E09508950E94481988F09F5798F0B92F09
:1034D0009927B751B0F0E1F0660F771F881F991F49
:1034E0001AF0BA95C9F714C0B13091F00E94621970
:1034F000B1E008950C946219672F782F8827B85F80
:1035000039F0B93FCCF3869577956795B395D9F7A0
:103510003EF490958095709561957F4F8F4F9F4FAA
:1035200008950E94231608F48FEF0895A1E21A2E41
:10353000AA1BBB1BFD010DC0AA1FBB1FEE1FFF1F57
:10354000A217B307E407F50720F0A21BB30BE40BA7
:10355000F50B661F771F881F991F1A9469F76095EE
:103560007095809590959B01AC01BD01CF010895A8
:10357000EE0FFF1F881F8BBF0790F691E02D199467
:103580000F931F93CF93DF938230910510F482E065
:1035900090E0E091980BF091990B30E020E0B0E0E2
:1035A000A0E0309799F42115310509F44AC0281B91
:1035B000390B24303105D8F58A819B81611571055D
:1035C00089F1FB0193838283FE0111C04081518107
:1035D0000281138148175907E0F04817590799F4F9
:1035E000109761F012960C93129713961C933296D3
:1035F000CF01DF91CF911F910F9108950093980B08
:103600001093990BF4CF2115310551F04217530750
:1036100038F0A901DB019A01BD01DF01F801C1CF3A
:10362000EF01F9CF9093990B8093980BCDCFFE01CA
:10363000E20FF31F8193919322503109398328833C
:10364000D7CF2091960B3091970B232B41F42091EB
:103650000202309103023093970B2093960B209136
:103660000002309101022115310541F42DB73EB71A
:103670004091040250910502241B350BE091960BFA
:10368000F091970BE217F307A0F42E1B3F0B2817BE
:10369000390778F0AC014E5F5F4F2417350748F0CB
:1036A0004E0F5F1F5093970B4093960B819391930E
:1036B0009FCFF0E0E0E09CCFCF93DF930097E9F05D
:1036C000FC01329713821282A091980BB091990B52
:1036D000ED0130E020E01097A1F420813181820FCC
:1036E000931F2091960B3091970B2817390709F0FB
:1036F00061C0F093970BE093960BDF91CF91089503
:10370000EA01CE17DF07E8F54A815B819E0141158A
:103710005105B1F7E901FB83EA8349915991C40F3F
:10372000D51FEC17FD0761F4808191810296840F0B
:10373000951FE90199838883828193819B838A8382
:10374000F0E0E0E012968D919C9113970097B9F507
:103750002D913C911197CD010296820F931F2091DC
:10376000960B3091970B2817390739F6309751F59A
:103770001092990B1092980BB093970BA093960B05
:10378000BCCFD383C28340815181840F951FC8175A
:10379000D90761F44E5F5F4F88819981480F591FA7
:1037A000518340838A819B819383828321153105D4
:1037B00009F0B0CFF093990BE093980B9ECFFD01E9
:1037C000DC01C0CF13821282D7CF4F925F926F92EB
:1037D0007F928F929F92AF92BF92CF92DF92EF92A1
:1037E000FF920F931F93CF93DF938C01009799F46F
:1037F000CB01DF91CF911F910F91FF90EF90DF9060
:10380000CF90BF90AF909F908F907F906F905F9080
:103810004F900C94C01AFC01E60FF71F9C01225038
:103820003109E217F30708F4AEC0D901CD91DC915C
:103830001197C617D70720F1C530D10578F0CE0112
:1038400004978617970750F0C61BD70B2297C19392
:10385000D1936D937C93CF010E945C1BC801DF91D3
:10386000CF911F910F91FF90EF90DF90CF90BF907D
:10387000AF909F908F907F906F905F904F90089542
:103880005B01AC1ABD0A4C018C0E9D1EA091980BD9
:10389000B091990B512C412CF12CE12C109731F562
:1038A0008091960B9091970B8815990509F05CC053
:1038B0004616570608F058C0809100029091010208
:1038C000009741F48DB79EB74091040250910502D4
:1038D000841B950BE817F90708F055C0F093970B78
:1038E000E093960BF90171836083B8CF8D919C9121
:1038F000119712966C90129713967C901397A815B7
:10390000B90559F56C0142E0C40ED11CCA14DB04A0
:1039100020F1AC014A195B09DA011296159780F083
:103920006282738251834083D9016D937C93E11449
:10393000F10471F0D7011396FC93EE9312978ECF9A
:1039400022968C0F9D1FF90191838083F301EFCFA5
:10395000F093990BE093980B81CF4816590608F421
:103960002C017D01D3019ACFCB010E94C01A7C01AA
:10397000009749F0AE01B8010E94C61CC8010E9420
:103980005C1B87016BCF10E000E068CFFB01DC011E
:1039900002C001900D9241505040D8F70895FB01AC
:1039A000DC0101900D920020E1F70895F894FFCF1B
:1039B00000009A0B8000120013001400150016007E
:1039C0001700180019002500260027002800020013
:1039D00003000400050006000700080009000000BD
:1039E000000021038B02B8026E03E902C702DB026A
:1039F0000D0A007C7C496E76616C696420636F6D92
:103A00006D616E642072656365697665642C2074EF
:103A100068657265206D757374206265206120662B
:103A200061756C7420696E2074686520636F6D6DBC
:103A3000756E69636174696F6E2E2E2E20546865F1
:103A40002066756E6374696F6E20696E6465782098
:103A5000726563656976656420646F6573206E6F57
:103A600074206D6174636820616E20696E6465788E
:103A70002073746F72656420696E207468652070AD
:103A8000726F6772616D2E2E2E20496E64696361BC
:103A900074696E672061206661756C7420696E20A0
:103AA00074686520636F6D6D756E69636174696FAD
:103AB0006E2028726574726576696E672064617421
:103AC000612066726F6D2073657269616C20706F22
:103AD00072742C202E2E2E29207C7C0050494E47BB
:103AE0005F50494E475F50494E470023235375634B
:103AF00063657366756C6C79206368616E67656475
:103B000020626F6172644E7220746F3A20007B00F5
:103B10007D2000426F6172644E756D6265723A205D
:103B20005B005D007C7C4552524F523A2041434B32
:103B30002077617320616C7265616479206C6F77A6
:103B40007C7C007C7C4552524F523A2041434B20B2
:103B5000657870697265647C7C007C7C4552524F4C
:103B6000522064657465637465647C7C002323451E
:103B70004E41424C452043555252454E54204D45EE
:103B800041535552454D454E542323002323444968
:103B90005341424C452043555252454E54204D45C9
:103BA00041535552454D454E5423230028284D4539
:103BB00041535552452052454749535445523A20A6
:103BC000002929200A004D656173757265642063C0
:103BD000757272656E743A205B002323436F6E6EBC
:103BE00065637420766F6C7461676520736F75729E
:103BF00063652323002323446973636F6E6E6563DB
:103C00007420766F6C7461676520736F757263657D
:103C1000232300282853544154555320434F4E4EDC
:103C2000454354494E4720564F4C54414745205335
:103C30004F555243453A3A20005F205374617475E2
:103C40007320766F6C7461676520736F757263653E
:103C5000206265666F72653A20003D3E20537461B4
:103C600074757320766F6C7461676520736F7572FD
:103C700063652061667465723A20002929007C7CA6
:103C80004552524F523A20494E56414C49442043E6
:103C900048414E4E454C204E554D4245527C7C008D
:103CA0004D6561737572656420566F6C74616765EC
:103CB0003A205B002323436F6E6E65637420636854
:103CC000616E6E656C200020746F20746865204200
:103CD00055532323002323446973636F6E6E65631A
:103CE00074206368616E6E656C20002066726F6D73
:103CF0002042555323230028285354415455532020
:103D00004255533A3A20005F20627573436F6E301C
:103D1000537461747573206265666F72653A200032
:103D20003D3E20627573436F6E30537461747573DA
:103D30002061667465723A20005F20627573436F7C
:103D40006E31537461747573206265666F72653A83
:103D500020003D3E20627573436F6E315374617471
:103D600075732061667465723A20007C7C455252FE
:103D70004F523A20496E76616C6964206368616EC7
:103D80006E656C2073656C656374696F6E2E20467A
:103D900061756C7420696E20636F6D6D756E6963FB
:103DA0006174696F6E2077686572652077726F6ED7
:103DB0006720666F726D61742F6E756D626572201B
:103DC00069732063686F73656E2061732063686137
:103DD0006E6E656C206E756D6265722E2E2E00699A
:103DE00073206E6F7420612076616C696420636853
:103DF000616E6E656C206E756D6265722E2E2E2062
:103E00004974206D6F737420626520696E20726141
:103E10006E6765206F6620205B312E2E2E31365D59
:103E2000207C7C0020746F207468652067726F7539
:103E30006E64202323002066726F6D2074686520F5
:103E400067726F756E6420232300282853544154F1
:103E5000555320474E44205550444154453A3A204A
:103E6000005F20676E64436F6E30537461747573C6
:103E7000206265666F72653A20003D3E20676E6481
:103E8000436F6E305374617475732061667465722C
:103E90003A20005F20676E64436F6E315374617423
:103EA0007573206265666F72653A20003D3E20673B
:103EB0006E64436F6E315374617475732061667400
:103EC00065723A2000232353657475702041726433
:103ED00075696E6F2323007C7C4552524F523A2005
:103EE00041434B2077617320616C72656164792076
:103EF0006C6F77207C7C007C7C4552524F523A207C
:103F000041434B2065787069726564207C7C002396
:103F100023536574757020436F6D706C65746523F1
:103F20002300232353657420766F6C7461676520CA
:103F3000746F200028285354415455532044415451
:103F40004120534554564F4C544147453A3A20007E
:103F50005F206461746130537461747573206265AD
:103F6000666F72653A20003D3E2064617461305393
:103F700074617475732061667465723A20005F2005
:103F80006461746131537461747573206265666F26
:103F900072653A20003D3E20646174613153746162
:0C3FA0007475732061667465723A20002D
:00000001FF
