:100000000C94E6010C9417020C9417020C9417023E
:100010000C9417020C9417020C9417020C941702FC
:100020000C9417020C9417020C9417020C941702EC
:100030000C9417020C9417020C9417020C941702DC
:100040000C9417020C9417020C9417020C941702CC
:100050000C9417020C9417020C9417020C94D711ED
:100060000C9417020C94A1110C9477110C941702A4
:100070000C9417020C9417020C9417020C9417029C
:100080000C9417020C9417020C9417020C9417028C
:100090000C9417020C9417020C9417020C9417027C
:1000A0000C9417020C9417020C9417020C9417026C
:1000B0000C9417020C9417020C9417020C9417025C
:1000C0000C9417020C9417020C9417020C9417024C
:1000D0000C9417020C9417020C9417020C9417023C
:1000E0000C9417020C9418040C9422040C94DB0258
:1000F0000C943A0A0C94E8070C9438090C94820C7E
:100100000C941E040C9402040C94EF030C940A0447
:100110000C9414040C9410040C94E9020C94DD0368
:100120000C940D0E0C94160B0C941D040C94E3030C
:100130000C946E030C94B8020C948B020C94500631
:100140000C9421120C94C7020C9406040C9416060D
:100150000C94F8030C94E7030C9421030C94FC0317
:100160000C9457050C94FC0F0C94F2030C94EB03C5
:100170000C94370A4E414E494E495459494E46CD8A
:10018000CCCC3D0AD7233C17B7D13877CC2B32954E
:1001900095E6241FB14F0A000020410000C842002C
:1001A000401C4620BCBE4CCA1B0E5AAEC59D7400F6
:1001B000407A10F35A00A0724E18090010A5D4E836
:1001C0000000E87648170000E40B54020000CA9AC9
:1001D0003B000000E1F5050000809698000000401B
:1001E000420F000000A08601000000102700000060
:1001F00000E803000000006400000000000A0000A6
:100200000000000100000000002C76D888DC674F59
:100210000823DFC1DFAE59E1B1B796E5E3E453C689
:100220003AE651997696E8E6C28426EB898C9B6281
:10023000ED407C6FFCEFBC9C9F40F2BAA56FA5F42B
:1002400090055A2AF75C936B6CF9676DC11BFCE053
:10025000E40D47FEF520E6B500D0ED902E030094A6
:100260003577050080841E080000204E0A0000003B
:10027000C80C333333330F986E12831141EF8D2145
:1002800014893BE65516CFFEE6DB18D1844B381BAC
:10029000F77C1D901DA4BBE424203284725E228171
:1002A00000C9F124ECA1E53D27000021002400272E
:1002B000002A002D00300033000101000004010776
:1002C000010A0100002200250028002B002E003129
:1002D00000340002010000050108010B01000020AC
:1002E000002300260029002C002F0032000001000E
:1002F00000030106010901050505050705080808B1
:1003000008020202020A0A080804040404010101A6
:1003100001010101010303030303030303040707AE
:10032000070C0C0C0C0C0C0C0C020202020606064C
:1003300006060606060B0B0B0B0B0B0B0B01021034
:1003400020200808102040102040800201020108EF
:10035000040201010204081020408080402010089F
:1003600004020180040201804020100804020108F8
:100370000402010102040810204080010204081058
:1003800020408000000A0B02090C0D0E0807030430
:10039000010000000000000000000000000000005C
:1003A000000000000000000000000000000000123B
:1003B000111000000000000000000000000000001C
:1003C00000000000000000000000211211241FBEE8
:1003D000CFEFD1E2DEBFCDBF00E00CBF2BE0A6E245
:1003E000B8E001C01D92A53CB207E1F718E0A0E01B
:1003F000B2E0E0E3FAE300E00BBF02C007900D9229
:10040000A632B107D9F711E0C6EED1E000E006C090
:1004100021970109802FFE010E94F81AC53ED107DD
:1004200080E00807A9F70E949C120C94161D0C94FA
:100430000000AC01109208099091580B8091570B65
:10044000FA01BF01641B750B2091080930813093BC
:100450000809931304C0921302C010920809308156
:10046000311104C0921721F0CB0108953817D1F350
:100470003196E7CF0F931F93CF93DF9380914C0B6F
:10048000882309F446C0D0E0C0E0813029F482E03E
:1004900080934C0BCCE0D9E080914D0B882341F147
:1004A000209721F4C091510BD091520B8E01CE01B7
:1004B0000E941902892B29F42196F801808181116B
:1004C000F5CFF8018081882309F1C8010E94190243
:1004D000F801E80FF91F8081882311F0108231960E
:1004E000F093520BE093510B1093500B00934F0B72
:1004F00080914F0B9091500B892B59F081E08093A4
:100500004D0BDF91CF911F910F91089510E000E006
:10051000EBCF80E0F6CFAF92BF92CF92DF92EF9217
:10052000FF920F931F93CF93DF936C017B018B019D
:10053000040F151FEB015E01AE18BF08C017D107ED
:1005400059F06991D601ED91FC910190F081E02D77
:10055000C6011995892B79F7C501DF91CF911F91BC
:100560000F91FF90EF90DF90CF90BF90AF900895E4
:10057000FC01538D448D252F30E0842F90E0821BA9
:10058000930B541710F0CF96089501970895FC012E
:10059000918D828D981761F0A28DAE0FBF2FB11D86
:1005A0005D968C91928D9F5F9F73928F90E00895DE
:1005B0008FEF9FEF0895FC01918D828D981731F098
:1005C000828DE80FF11D858D90E008958FEF9FEFEC
:1005D0000895FC01918D228D892F90E0805C9F4FC2
:1005E000821B91098F739927089586E698E00E94EF
:1005F000E90221E0892B09F420E0822F0895FC0113
:10060000A48DA80FB92FB11DA35ABF4F2C91848D73
:1006100090E001968F739927848FA689B7892C93D0
:10062000A089B1898C91837080648C93938D848D23
:10063000981306C00288F389E02D80818F7D808326
:100640000895EF92FF920F931F93CF93DF93EC01E6
:1006500081E0888F9B8D8C8D98131AC0E889F98969
:10066000808185FF15C09FB7F894EE89FF8960836C
:10067000E889F98980818370806480839FBF81E0ED
:1006800090E0DF91CF911F910F91FF90EF9008952F
:10069000F62E0B8D10E00F5F1F4F0F731127E02E0A
:1006A0008C8D8E110CC00FB607FCFACFE889F98942
:1006B000808185FFF5CFCE010E94FF02F1CFEB8D47
:1006C000EC0FFD2FF11DE35AFF4FF0829FB7F89416
:1006D0000B8FEA89FB8980818062CFCFCF93DF9334
:1006E000EC01888D8823B9F0AA89BB89E889F9894A
:1006F0008C9185FD03C0808186FD0DC00FB607FC7F
:10070000F7CF8C9185FFF2CF808185FFEDCFCE01B1
:100710000E94FF02E9CFDF91CF91089580E090E041
:10072000892B29F00E94F50281110E94000080E0CF
:1007300090E0892B49F080E090E0892B29F00E941D
:10074000000081110E94000080E090E0892B49F0B8
:1007500080E090E0892B29F00E94000081110E9426
:10076000000080E090E0892B49F080E090E0892B48
:1007700029F00E94000081110C940000089581501E
:10078000823108F05AC0E82FF0E08827E553FC4F8B
:100790008F4F0C94F81AEB03EF03DD03E303E70339
:1007A0001D04F203F803FC03020406040A04100407
:1007B00014041D0418041E042204809180008F7705
:1007C000809380000895809180008F7DF9CF809183
:1007D0008000877FF5CF84B58F7784BD089584B579
:1007E0008F7DFBCF8091B0008F778093B00008950C
:1007F0008091B0008F7DF9CF809190008F778093AA
:1008000090000895809190008F7DF9CF80919000A5
:10081000877FF5CF8091A0008F778093A000089507
:100820008091A0008F7DF9CF8091A000877FF5CFC8
:10083000809120018F77809320010895809120017D
:100840008F7DF9CF80912001877FF5CFCF93DF9304
:10085000282F30E0F901ED57FC4F8491F901E35C5A
:10086000FC4FD491F901E950FD4FC491CC23A1F084
:1008700081110E94BF03EC2FF0E0EE0FFF1FE35247
:10088000FD4FA591B491EC91ED2381E090E009F446
:1008900080E0DF91CF91089580E090E0FACF1F9340
:1008A000CF93DF93282F30E0F901ED57FC4F84916F
:1008B000F901E35CFC4FD491F901E950FD4FC4917B
:1008C000CC23A9F0162F81110E94BF03EC2FF0E07A
:1008D000EE0FFF1FED53FD4FA591B4918FB7F89424
:1008E000EC91111108C0D095DE23DC938FBFDF910E
:1008F000CF911F910895DE2BF8CFCF93DF9390E037
:10090000FC01E35CFC4F249189509D4FFC018491D4
:100910008823C9F090E0880F991FFC01E755FD4F2F
:10092000A591B491FC01ED53FD4FC591D491611196
:100930000DC09FB7F8948C91209582238C93888169
:10094000282328839FBFDF91CF910895623051F40F
:100950009FB7F8943C91822F809583238C93E881F4
:100960002E2BEFCF8FB7F894EC912E2B2C938FBFBB
:10097000EACF3FB7F89480915C0890915D08A09110
:100980005E08B0915F0826B5A89B05C02F3F19F0FF
:100990000196A11DB11D3FBFBA2FA92F982F8827FF
:1009A000BC01CD01620F711D811D911D42E0660FDA
:1009B000771F881F991F4A95D1F708958F929F92AC
:1009C000AF92BF92CF92DF92EF92FF926B017C01C8
:1009D0000E94B9044B015C01C114D104E104F1048B
:1009E000B9F00E94B904681979098A099B09683E1F
:1009F00073408105910580F321E0C21AD108E10816
:100A0000F10888EE880E83E0981EA11CB11CE4CF8B
:100A1000FF90EF90DF90CF90BF90AF909F908F901E
:100A20000895CF92DF92EF92FF92CF93DF939C01D4
:100A300080917B00886080937B009AEC960F977082
:100A4000906490937C0080917A00806480937A0017
:100A500080917A0086FDFCCFC0917800D09179001A
:100A6000B901330F880B990B0E94281620E030E063
:100A700040EA50E40E94871620E030EC4FE754E44F
:100A80000E94301A6B017C01BE01DD0F880B990BAF
:100A90000E9428169B01AC01C701B6010E9487166F
:100AA000DF91CF91FF90EF90DF90CF9008958091EC
:100AB000540891E089278093540861E0811101C0B6
:100AC00060E08EE00C944F0430E020E0FC011192D5
:100AD0001192CF012F5F3F4F62177307B9F7089547
:100AE000FA01EE0FFF1FE60FF71F1816190644F460
:100AF0009C01217033273293229395958795F5CFEA
:100B00000895FC0101900020E9F73197AF01481BDF
:100B1000590BBC0186E698E00C948B0280E492E0CD
:100B20000C948105CF93DF93FC0144815581608152
:100B3000718186E698E00E948B02EC010E948E058E
:100B40008C0F9D1FDF91CF9108958F929F92AF924E
:100B5000BF920F931F93CF93DF93CDB7DEB7A197CB
:100B60000FB6F894DEBF0FBECDBF19A2423008F415
:100B70004AE08E010F5D1F4F842E912CB12CA12CC9
:100B8000A50194010E94D61AE62FB901CA01EA30E4
:100B9000F4F4E05DD801EE938D01232B242B252B5B
:100BA00079F790E080E0109719F0CD010E9481055F
:100BB000A1960FB6F894DEBF0FBECDBFDF91CF91E7
:100BC0001F910F91BF90AF909F908F900895E95C17
:100BD000E1CFCF92DF92EF92FF92CF93DF936B0141
:100BE0007C016DE286E698E00E942103EC01662715
:100BF0007727CB016C197D098E099F094AE00E9475
:100C0000A5058C0F9D1FDF91CF91FF90EF90DF9096
:100C1000CF900895CF93DF930E948105EC010E944D
:100C20008E058C0F9D1FDF91CF91089583E492E094
:100C30000E940A068CE293E00E940A0687E393E092
:100C40000E940A0689E493E00E940A0688E593E080
:100C50000E940A0684E693E00E940A0687E793E072
:100C60000E940A0687E893E00E940A0687E993E05B
:100C70000C940A060C9481050E943A02882359F0CC
:100C800081E080934D0B80934E0B80914F0B9091A0
:100C9000500B0C94791510924E0B90E080E0089563
:100CA000CF93DF930E943C06EC0190935808809309
:100CB000570887EA93E00E943A06BE01DD0F880BD1
:100CC000990B97FF08C00E94E9058EE895E0DF9137
:100CD000CF910C940A064AE00E94A505F6CF0F9327
:100CE0001F93CF93DF938C018AEC93E00E943A0626
:100CF000E801005F1F4F69917991072E000C880B66
:100D0000990B97FF0DC00E94E905C017D10799F70D
:100D10008CEC93E0DF91CF911F910F910C943A06E8
:100D20004AE00E94A505F1CF0E943A02882359F0BB
:100D300081E080934D0B80934E0B80914F0B9091EF
:100D4000500B0C94971510924E0B60E070E0CB01A5
:100D500008950F931F93CF93DF93EC0188819981BE
:100D6000009759F02A813B812617370730F081E040
:100D7000DF91CF911F910F9108958B016F5F7F4F8E
:100D80000E94251C009759F0998388831B830A834E
:100D90002C813D81232B59F7FC011082E8CF80E0A4
:100DA000E7CFEF92FF920F931F93CF93DF936115DD
:100DB000710541F480E0DF91CF911F910F91FF9079
:100DC000EF90089541155105B1F07B01EC010C81C4
:100DD0001D81040F151FB8010E94A906882351F335
:100DE000288139818C819D81B701820F931F0E94D8
:100DF0000F1D1D830C8381E0DECFCF93DF93EC01C9
:100E000088819981009711F00E949C1B1982188299
:100E10001D821C821B821A82DF91CF910895CF938D
:100E2000DF93EC01FB0101900020E9F73197AF015E
:100E3000461B570B0E94D106811103C0CE010E94B0
:100E4000FD06CE01DF91CF910895CF93DF93EC01A2
:100E5000FB0144815581608171810E94D10681111D
:100E600003C0CE010E94FD06CE01DF91CF9108950F
:100E7000EF92FF920F931F93CF93DF93EC017B01CF
:100E80008A01BA010E94A90681110BC0CE010E94FD
:100E9000FD06CE01DF91CF911F910F91FF90EF9052
:100EA00008951D830C83B701888199810E940F1DCD
:100EB000F0CFEF92FF920F931F93CF93DF93CDB7B5
:100EC000DEB7A1970FB6F894DEBF0FBECDBF7C0191
:100ED000CB01BA01F70111821082138212821582AE
:100EE00014828E010F5F1F4F22E044E00E94F9132D
:100EF0000097C9F0FC0101900020E9F73197AF019C
:100F0000481B590BBC01C7010E943807A1960FB6B8
:100F1000F894DEBF0FBECDBFDF91CF911F910F912F
:100F2000FF90EF900895C7010E94FD06EFCFEF926A
:100F3000FF920F931F93CF93DF93CDB7DEB76297E6
:100F40000FB6F894DEBF0FBECDBF8C01CB01F80108
:100F50001182108213821282158214824AE09E014D
:100F60002F5F3F4F7901B9010E94DF15F701019012
:100F70000020E9F73197AF014E195F09B701C801A9
:100F80000E94380762960FB6F894DEBF0FBECDBF41
:100F9000DF91CF911F910F91FF90EF900895FC0189
:100FA000118210821382128215821482FB01019039
:100FB0000020E9F73197AF01461B570B0C94380717
:100FC000FC0180819181009711F00C949C1B089585
:100FD000CF93DF93CDB7DEB72C970FB6F894DEBF73
:100FE0000FBECDBF6091570870915808CE0107968B
:100FF0000E9497076FEC73E0CE0101960E94CF0725
:10100000BE01695F7F4FCE0101960E9425076EEDFC
:1010100073E00E940F070E949205CE0101960E9484
:10102000E007CE0107960E94E0072C960FB6F894D1
:10103000DEBF0FBECDBFDF91CF9108956F927F923B
:101040008F929F92AF92BF92CF92DF92EF92FF92D8
:101050000F931F93CF93DF93CDB7DEB73C018B0186
:101060004A01ADB6BEB67B01EE0CFF1C8DB79EB734
:101070008E199F090FB6F8949EBF0FBE8DBFEDB7B6
:10108000FEB731966F01CF010E946405A801B60139
:10109000C4010E947005EC0CFD1C8301F2E0EF1A04
:1010A000F108F80180810E5F1F4FF70160810E94F7
:1010B0004F04EC14FD0491F70FB6F894BEBE0FBEBA
:1010C000ADBEDF91CF911F910F91FF90EF90DF9018
:1010D000CF90BF90AF909F908F907F906F9008952A
:1010E000CF92DF92EF92FF920F931F93CF93DF93F4
:1010F0008C016B017A018CE10E942604019761F05A
:1011000080EE93E0DF91CF911F910F91FF90EF90D0
:10111000DF90CF900C940A06CEE1D2E0888122962F
:1011200061E00E947D0482E0CE32D807B9F7A601C3
:1011300068E070E08EE192E00E941E08A70164E082
:1011400070E086E192E00E941E08A80168E070E06D
:1011500086E092E00E941E0860E083E30E944F0454
:10116000C4E6D0E08CE10E942604892B51F021973F
:10117000C9F761E083E30E944F048FEF93E00E9480
:101180000A0661E083E30E944F048DE10E94260479
:10119000019719F086E194E0B5CFDF91CF911F91CF
:1011A0000F91FF90EF90DF90CF9008950F931F93D2
:1011B000CF93DF93CDB7DEB760970FB6F894DEBF5D
:1011C0000FBECDBF0091590810915A08882309F429
:1011D0004BC0006489E294E00E940A060F77809178
:1011E000590890915A088017910799F110935A085D
:1011F0000093590888E694E00E943A0668E070E09F
:10120000CE0101960E94640548E050E0BE016F5F88
:101210007F4F8091590890915A080E947005CE0125
:1012200001960E946F068DE794E00E940A064091A5
:101230005708509158086091590870915A0890E0E9
:1012400080E00E94700865E070E080E090E00E941D
:10125000DE0460960FB6F894DEBF0FBECDBFDF91FF
:10126000CF911F910F9108950F7B88E494E0B4CF44
:10127000CF92DF92EF92FF92CF93DF93CDB7DEB79D
:101280002C970FB6F894DEBF0FBECDBF81E00E9451
:10129000D60863E470E080916408909165080E942C
:1012A00011056B017C0180E00E94D608B701A60100
:1012B000CE0107960E94590762E874E0CE010196BC
:1012C0000E94CF07BE01695F7F4FCE0101960E9449
:1012D00025076EED73E00E940F070E949205CE0174
:1012E00001960E94E007CE0107960E94E0072C9627
:1012F0000FB6F894DEBF0FBECDBFDF91CF91FF9048
:10130000EF90DF90CF9008952091550830915608C6
:10131000B9016F73772781309105B9F00C97B9F057
:1013200062177307B1F070935608609355084091A7
:1013300057085091580889E090E00E94700865E0D5
:1013400070E080E090E00C94DE046064E9CF6068B7
:10135000E7CF0895CF92DF92EF92FF920F931F9302
:10136000CF93DF93CDB7DEB760970FB6F894DEBFAB
:101370000FBECDBF182F882309F46EC086E994E014
:101380000E940A0695E0E92EF12CC0905208D090F8
:101390005308112309F468C086010F7B01608FECAC
:1013A00094E00E940A0685EF94E00E943A0668E005
:1013B00070E0CE0101960E94640548E050E0BE0155
:1013C0006F5F7F4FC6010E947005CE0101960E949B
:1013D0006F0684E195E00E943A0668E070E0CE0175
:1013E00001960E94640548E050E0BE016F5F7F4FA8
:1013F000C8010E947005CE0101960E946F0685E328
:1014000095E00E940A068091520890915308801737
:10141000910799F010935308009352084091570890
:1014200050915808B80185E090E00E947008B7011B
:10143000FF0C880B990B0E94DE0460960FB6F8949F
:10144000DEBF0FBECDBFDF91CF911F910F91FF90F7
:10145000EF90DF90CF90089581EB94E00E940A0610
:10146000EE24E394F12C91CF86010E7F98CF80E09B
:101470000C94AA098F929F92AF92BF92CF92DF9263
:10148000EF92FF920F931F93CF93DF93CDB7DEB709
:101490002C970FB6F894DEBF0FBECDBF0E94940606
:1014A0006B018B010150110900311105C0F18AE374
:1014B00095E00E940A06B501A401CE0107960E949C
:1014C00059076CE575E0CE0101960E94CF07BE0179
:1014D000695F7F4FCE0101960E9425076EED73E094
:1014E0000E940F070E949205CE0101960E94E0071C
:1014F000CE0107960E94E0072C960FB6F894DEBF47
:101500000FBECDBFDF91CF911F910F91FF90EF9054
:10151000DF90CF90BF90AF909F908F90089581E023
:1015200090E090936508809364080E94840989E0A4
:10153000C816D1040CF070C0086210935A080093CA
:101540005908409157085091580860915908709176
:101550005A0890E080E00E94700865E070E080E04A
:1015600090E00E94DE0464E470E080916408909151
:1015700065080E9411054B015C0120E030E040E865
:1015800050E40E94D11A181664F583E090E090931D
:101590006508809364080E94840964E470E0809187
:1015A0006408909165080E9411054B015C0120E0E0
:1015B00030E040E251E40E94D11A181694F48CE015
:1015C00090E090936508809364080E94840964E425
:1015D00070E080916408909165080E9411054B01AC
:1015E0005C016091590870915A0860787727709370
:1015F0005A0860935908409157085091580890E054
:1016000080E00E94700881E090E0909365088093EC
:1016100064080E9484094FCF89E0C81AD10880E38A
:10162000C82AD0925A08C09259088BCF4F925F9225
:101630006F927F928F929F92AF92BF92CF92DF92E2
:10164000EF92FF920F931F93CF93DF93CDB7DEB747
:1016500066970FB6F894DEBF0FBECDBF28E0422ECE
:10166000512C66246394712C0E943C068C010E94CC
:101670003C067C01680181E0C81AD10890E1C916D6
:10168000D10408F013C199249394E114F10409F4EE
:10169000912CF601EE5BF74F5F018081981609F4FB
:1016A00005C1B801CE014196E114F104D9F10E94BF
:1016B000970760E775E0CE0101960E94CF07BE0153
:1016C0006F5E7F4FCE0101960E94250763E875E0AB
:1016D0000E940F070E949205CE0101960E94E0072A
:1016E000CE0141960E94E007F5019082A0902C085F
:1016F000B0902D0880902A0890902B08EF2809F0D0
:10170000F1C0093011056CF109501109730102C0D3
:10171000EE0CFF1C0A95E2F7E094F094E820F92023
:1017200085012AC00E94970761E975E0CE01019604
:101730000E94CF07BE016F5E7F4FCE0101960E94CF
:10174000250767EA75E0C4CF830102C0000F111FAF
:10175000CA94E2F70A291B29740185E0C82ED12C0E
:101760000EC0830102C0000F111FCA94E2F700955A
:1017700010950A211B217401CC24C394D12C83EB36
:1017800095E00E940A0685EC95E00E943A0668E022
:1017900070E0CE0101960E94640548E050E0BE0171
:1017A0006F5F7F4FC5010E947005CE0101960E94B8
:1017B0006F068CED95E00E943A0668E070E0CE017D
:1017C00001960E94640548E050E0BE016F5F7F4FC4
:1017D000C8010E947005CE0101960E946F060E940A
:1017E0008E0585EF95E00E943A0668E070E0CE0134
:1017F00001960E94640548E050E0BE016F5F7F4F94
:10180000C4010E947005CE0101960E946F068CE013
:1018100096E00E943A0668E070E0CE0101960E94D0
:10182000640548E050E0BE016F5F7F4FC7010E9432
:101830007005CE0101960E946F0685E395E00E9437
:101840000A0680912C0890912D0808171907A1F01D
:1018500010932D0800932C08409157085091580878
:10186000B80181E090E00E947008B6010D2C000CD8
:10187000880B990B0E94DE0480912A0890912B0816
:10188000E816F90699F0F0922B08E0922A084091A8
:10189000570850915808B70182E090E00E94700804
:1018A000B601DD0C880B990B0E94DE04F1E04F1AA3
:1018B000510809F0D9CE66960FB6F894DEBF0FBE78
:1018C000CDBFDF91CF911F910F91FF90EF90DF90EF
:1018D000CF90BF90AF909F908F907F906F905F90D0
:1018E0004F900895093011050CF42ECF09501109BD
:1018F000730102C0EE0CFF1C0A95E2F7E828F928F4
:1019000085012BCF4F925F926F927F928F929F9221
:10191000AF92BF92CF92DF92EF92FF920F931F93FD
:10192000CF93DF93CDB7DEB766970FB6F894DEBFDF
:101930000FBECDBF28E0422E512C66246394712C3B
:101940000E943C068C010E943C067C01680181E0FB
:10195000C81AD10890E1C916D104D8F1B801CE0156
:1019600001960E94970765E276E0CE0141960E94BB
:10197000CF07BE016F5F7F4FCE0141960E942507C2
:1019800069E976E00E940F070E949205CE01419618
:101990000E94E007CE0101960E94E007F1E04F1A95
:1019A000510871F666960FB6F894DEBF0FBECDBF34
:1019B000DF91CF911F910F91FF90EF90DF90CF902B
:1019C000BF90AF909F908F907F906F905F904F905F
:1019D000089599249394E114F10409F4912CF601EB
:1019E000EE5CF74F5F0180818915C1F2B801CE012D
:1019F0000196E114F104D9F10E94970760E775E0C0
:101A0000CE0141960E94CF07BE016F5F7F4FCE018E
:101A100041960E9425076DED76E00E940F070E9417
:101A20009205CE0141960E94E007CE0101960E94E8
:101A3000E007F5019082A0902808B09029088090D6
:101A4000260890902708EF2809F0D7C00930110523
:101A50006CF109501109730102C0EE0CFF1C0A95CC
:101A6000E2F7E094F094E820F92085012AC00E9472
:101A7000970761E975E0CE0141960E94CF07BE014C
:101A80006F5F7F4FCE0141960E9425076EEE76E094
:101A9000C4CF830102C0000F111FCA94E2F70A29C4
:101AA0001B29740185E0C82ED12C0EC0830102C011
:101AB000000F111FCA94E2F7009510950A211B210F
:101AC0007401CC24C394D12C81E097E00E940A06D3
:101AD0008AE197E00E943A0668E070E0CE01019644
:101AE0000E94640548E050E0BE016F5F7F4FC50172
:101AF0000E947005CE0101960E946F0681E397E077
:101B00000E943A0668E070E0CE0101960E946405EA
:101B100048E050E0BE016F5F7F4FC8010E94700532
:101B2000CE0101960E946F060E948E058AE497E01E
:101B30000E943A0668E070E0CE0101960E946405BA
:101B400048E050E0BE016F5F7F4FC4010E94700506
:101B5000CE0101960E946F0681E697E00E943A0648
:101B600068E070E0CE0101960E94640548E050E014
:101B7000BE016F5F7F4FC7010E947005CE010196C5
:101B80000E946F0685E395E00E940A06809128086E
:101B90009091290808171907A1F0109329080093BC
:101BA00028084091570850915808B80183E090E008
:101BB0000E947008B6010D2C000C880B990B0E9436
:101BC000DE048091260890912708E816F90609F4AA
:101BD000E5CEF0922708E0922608409157085091F0
:101BE0005808B70184E090E00E947008B601DD0C4F
:101BF000880B990B0E94DE04D1CE093011050CF43C
:101C000048CF09501109730102C0EE0CFF1C0A9560
:101C1000E2F7E828F928850145CFAF92BF92CF922D
:101C2000DF92EF92FF920F931F93CF93DF93CDB785
:101C3000DEB71092580810925708E0917608F0919C
:101C4000770882E08083E0917208F0917308108237
:101C5000E0917408F091750880E1808310927E080D
:101C6000E0917A08F0917B0886E08083E091780823
:101C7000F0917908808180618083E0917808F0910B
:101C80007908808188608083E0917808F0917908F4
:101C9000808180688083E0917808F0917908808164
:101CA0008F7D80838AE797E00E940A0606E012E0B3
:101CB000F80180810E5F1F4F61E00E947D04F2E019
:101CC00006311F07A9F761E083E30E947D0461E00C
:101CD00084E30E947D0461E085E30E947D0461E06D
:101CE00083E30E944F0461E084E30E944F0461E0BB
:101CF00085E30E944F0462E08CE10E947D0462E073
:101D00008DE10E947D0460E084E40E947D0460E037
:101D100083E40E947D0461E085E20E947D0461E02D
:101D200086E20E947D0461E087E20E947D0461E01A
:101D300088E20E947D04109231081092300880E8F9
:101D400090E090932F0880932E08109253081092E1
:101D5000520810922D0810922C0810922B08109205
:101D60002A08109229081092280810922708109229
:101D7000260810925A08109259081092560810928C
:101D80005508409157085091580870E060E086E08F
:101D900090E00E9470084091570850915808609157
:101DA0002E0870912F0887E090E00E947008409103
:101DB000570850915808609152087091530885E077
:101DC00090E00E9470084091570850915808609127
:101DD000590870915A0890E080E00E947008409184
:101DE00057085091580860912C0870912D0881E097
:101DF00090E00E94700840915708509158086091F7
:101E00002A0870912B0882E090E00E9470084091AF
:101E1000570850915808609128087091290883E06C
:101E200090E00E94700840915708509158086091C6
:101E300026087091270884E090E00E947008409185
:101E4000570850915808609155087091560889E0DC
:101E500090E00E94700800915708109158088CE19A
:101E60000E942604019709F46EC080EE93E00E9460
:101E70000A0661E070E080E090E00E94DE0486E106
:101E800096E090935A0B8093590B87E595E09093D9
:101E90005E0B80935D0B8CEF9FE09093600B8093C3
:101EA0005F0B87E39AE090936E0B80936D0B82E853
:101EB0009CE09093620B8093610B86E19BE0909392
:101EC000640B8093630B8AE39AE09093660B809394
:101ED000650B88E399E09093680B8093670B80E52E
:101EE00096E090936A0B8093690B88EE97E090934D
:101EF0006C0B80936B0B8DE09EE09093700B809346
:101F00006F0B81E080930B098093540861E08EE0B1
:101F10000E944F04E2E4F8E0A2E3B8E082E598E032
:101F200011921D928E179F07D9F78CE897E0DF91E9
:101F3000CF911F910F91FF90EF90DF90CF90BF90C6
:101F4000AF900C940A069EE1E92E92E0F92E2EE263
:101F5000C22E22E0D22E5701F5018081F2E0AF0EB1
:101F6000B11C60E00E947D04CA14DB04A9F7A8013B
:101F700064E070E086E192E00E941E0848E050E0D4
:101F800068E070E086E092E00E941E0860E084E372
:101F90000E944F0404E610E08CE10E942604892B85
:101FA00059F001501109C1F761E084E30E944F0428
:101FB0008FEF93E00E940A068EE2C82E82E0D82EB0
:101FC00082E0C81AD108F60180810E942604EC1430
:101FD000FD04B1F70FB6F894DEBF0FBECDBF61E0D0
:101FE00084E30E944F048DE10E942604019709F4C6
:101FF00040CF86E194E03BCF8F929F92AF92BF9209
:10200000CF92DF92EF92FF920F931F93CF93DF93C4
:10201000CDB7DEB7A2970FB6F894DEBF0FBECDBF27
:102020000E9494066B010E9494064B0181E00E947D
:10203000AA09B401CE0147960E949707B601CE01C6
:1020400001960E9497071A8A198A1C8A1B8A1E8A7F
:102050001D8A69817A816115710531F04D815E813A
:10206000CE0141960E94380767E976E0CE0141969D
:102070000E940F07BE01695E7F4F0E9425071E8EDA
:102080001D8E18A21F8E1AA219A28E01035E1F4F69
:102090008017910759F0FC0160817181611571050C
:1020A00029F044815581C8010E943807CE0141962C
:1020B0000E94E007CE0101960E94E007CE014796FC
:1020C0000E94E0078D8D9E8DC12CD12C760100974A
:1020D00021F00E9475156B017C01B701A601CE01AC
:1020E00001960E9459076FE977E0CE0141960E9460
:1020F000CF07BE016F5F7F4FCE0141960E9425073B
:102100006EE875E00E940F070E949205CE0141968D
:102110000E94E007CE0101960E94E00780903008FF
:1021200090903108A0902E08B0902F0820E030E069
:1021300040E450E4C701B6010E94301A20E030E0CC
:1021400040E251E40E94C4196B017C0120E030E0C0
:1021500040EA51E40E94D11A87FDA2C08FEF90E0BF
:10216000909331088093300890932F0880932E0825
:10217000E0902E08F0902F08C0903008D0903108E1
:1021800081EB97E00E940A068EEC97E00E943A06E7
:1021900068E070E0CE0101960E94640548E050E0DE
:1021A000BE016F5F7F4FC4010E947005CE01019692
:1021B0000E946F0683EE97E00E943A0668E070E0A6
:1021C000CE0101960E94640548E050E0BE016F5FB9
:1021D0007F4FC6010E947005CE0101960E946F06D6
:1021E0000E948E058AEF97E00E943A0668E070E050
:1021F000CE0101960E94640548E050E0BE016F5F89
:102200007F4FC5010E947005CE0101960E946F06A6
:102210008FE098E00E943A0668E070E0CE010196F7
:102220000E94640548E050E0BE016F5F7F4FC70128
:102230000E947005CE0101960E946F0685E395E02D
:102240000E940A0640915708509158086091300842
:102250007091310886E090E00E9470084091570824
:102260005091580860912E0870912F0887E090E0F7
:102270000E947008C8010E94E007A2960FB6F89469
:10228000DEBF0FBECDBFDF91CF911F910F91FF90A9
:10229000EF90DF90CF90BF90AF909F908F90089578
:1022A00020E030E0A901C701B6010E9421161816EE
:1022B0004CF0109231081092300810922F081092B2
:1022C0002E0856CF20E03CEC4CE455E4C701B601A3
:1022D0000E9487160E94A21A9B013327309331086F
:1022E0002093300870932E0810922F0841CF1F9230
:1022F0000F920FB60F9211240BB60F922F933F93AC
:102300004F935F936F937F938F939F93AF93BF93FD
:10231000EF93FF9386E698E00E94FF02FF91EF9112
:10232000BF91AF919F918F917F916F915F914F91ED
:102330003F912F910F900BBE0F900FBE0F901F90EB
:1023400018951F920F920FB60F9211240BB60F9291
:102350002F938F939F93EF93FF93E0917608F091E3
:1023600077088081E0917C08F0917D0882FD1DC096
:10237000908180917F088F5F8F73209180088217F2
:1023800041F0E0917F08F0E0EA59F74F958F809394
:102390007F08FF91EF919F918F912F910F900BBE2E
:1023A0000F900FBE0F901F9018958081F2CF1F9253
:1023B0000F920FB60F9211242F933F938F939F93F9
:1023C000AF93BF938091600890916108A0916208DB
:1023D000B091630830915B0823E0230F2D3758F547
:1023E0000196A11DB11D20935B0880936008909316
:1023F0006108A0936208B093630880915C08909193
:102400005D08A0915E08B0915F080196A11DB11D05
:1024100080935C0890935D08A0935E08B0935F087A
:10242000BF91AF919F918F913F912F910F900FBED0
:102430000F901F90189526E8230F0296A11DB11D3D
:10244000D2CF109269081092680888EE93E0A0E05D
:10245000B0E080936A0890936B08A0936C08B093E7
:102460006D0882E392E0909367088093660885EC9C
:1024700090E0909373088093720884EC90E09093BE
:1024800075088093740880EC90E0909377088093AF
:10249000760881EC90E0909379088093780882EC3C
:1024A00090E090937B0880937A0886EC90E090937C
:1024B0007D0880937C0810927F081092800810920B
:1024C00081081092820810925A0B1092590B86E6DE
:1024D00098E09093550B8093540B10920B098CE26B
:1024E0008093570B8BE38093560B8FE28093580BAE
:1024F00080E4809306098FE3809307091092050911
:102500001092500B10924F0B1092520B1092510BD5
:1025100081E080934D0BEBE5FBE0119211928BE093
:10252000EF3BF807D1F710920A0983E090E090930F
:102530006508809364080895789484B5826084BDAA
:1025400084B5816084BD85B5826085BD85B58160B7
:1025500085BD80916E00816080936E001092810035
:1025600080918100826080938100809181008160F0
:1025700080938100809180008160809380008091B1
:10258000B10084608093B1008091B000816080933D
:10259000B0008091910082608093910080919100C1
:1025A0008160809391008091900081608093900081
:1025B0008091A10082608093A1008091A100816040
:1025C0008093A1008091A00081608093A000809101
:1025D000210182608093210180912101816080939B
:1025E00021018091200181608093200180917A00F7
:1025F000846080937A0080917A00826080937A0070
:1026000080917A00816080937A0080917A0080685E
:1026100080937A001092C1000E940D0EDD24D394A5
:1026200080910A098111DBC08091540B9091550B68
:10263000DC01ED91FC910084F185E02D1995892B49
:1026400009F4CDC08091540B9091550BDC01ED91B4
:10265000FC910084F185E02D1995C0E0D2E0811550
:10266000924064F48091540B9091550BDC01ED91F4
:10267000FC910084F185E02D1995EC010091540B3B
:102680001091550B9CE4E92E99E0F92E4701B12CED
:10269000A12CCA15DB0509F056C010E000E0C017F8
:1026A000D10709F4BDCFD7019D917D0110924C0B4C
:1026B0003091580B2091090990930909931304C094
:1026C000921302C01092090980910509E82FF0E0E9
:1026D0004091560BED5FF64F94136DC0321709F41D
:1026E0006AC01186882321F0D0924C0B1092090900
:1026F000109205091092500B10924F0B1092520B32
:102700001092510BD0924D0B80914C0B813009F0FF
:1027100063C00E943C0680930409823308F055C0D0
:1027200020914E0B222309F450C0FC01FF27EE0F2D
:10273000FF1FE55AF44F0190F081E02D309709F426
:1027400044C0199549C02FB7F894809160089091C2
:102750006108A0916208B09163082FBFF8018087DB
:102760009187A287B387D801ED91FC910284F3850C
:10277000E02DC801199597FF35C02FB7F8948091C7
:10278000600890916108A0916208B09163082FBF22
:10279000F8014085518562857385841B950BA60BD6
:1027A000B70B448155816681778184179507A60709
:1027B000B707C8F272CF91878F5F80930509909118
:1027C0000709891708F094CF9FCFE091590BF0913A
:1027D0005A0B309709F0B5CF0F5F1F4F60CF0E94A3
:1027E0008E031ECFF40181934F01FFEFAF1ABF0A92
:1027F00050CFEF920F931F93CF93DF93E80134E014
:1028000047FD34E1042E000C550B57FF03C05195D2
:1028100041955109E32E022F242FAE010E94F41698
:10282000CE01DF91CF911F910F91EF9008958F927C
:102830009F92AF92BF92CF92DF92EF92FF920F934F
:102840001F93CF93DF935C017B016115710519F034
:10285000DB018D939C9385010F5F1F4FF501D081A4
:102860008D2F90E00E94BE156C01892BB9F5DD32E9
:10287000B9F50F5F1F4FD5011196DC91C1E05801EA
:10288000F1E0AF1AB10843E050E06CE771E0C50138
:102890000E94C715892B69F5680182E0C80ED11C1A
:1028A00045E050E067E771E0C6010E94C715892B3B
:1028B00021F4680197E0C90ED11CE114F10419F06C
:1028C000D701CD92DC9260E070E080E89FEFC1110B
:1028D000FFC060E070E080E89FE7FAC05801BBCF1E
:1028E000DB3229F485010E5F1F4FF501D181C0E075
:1028F000C6CF43E050E064E771E0C5010E94C71510
:10290000892BE9F0F80110E000E020E030E0A901B7
:102910005F01B0ED8B2E8D0E89E08815C8F19C2EDD
:10292000689491F88C2F8870C2FF16C0811102C084
:102930000F5F1F4F3196D501DC91C92DE9CFE1140E
:10294000F10429F00E5F1F4FF7011183008360E04F
:1029500070E080EC9FE7BCC0882311F001501109A2
:10296000A5E0B0E00E94A9199B01AC01220F331F22
:10297000441F551F280D311D411D511D283999E94E
:102980003907490799E15907A8F2C6609C2ED2CFB2
:10299000AEEF8A1206C0C3FD3CC09C2E689493F82B
:1029A000C9CFDF7DD534A9F580818D3239F4C0617E
:1029B000DF011296818162E070E006C0DF018B3298
:1029C000C1F3119661E070E080535D01A61AB70A69
:1029D0008A30F8F4E0E8CE16ECE0DE065CF4B601EE
:1029E000660F771F660F771FC60ED71ECC0CDD1C37
:1029F000C80ED11C5D01FFEFAF1ABF0A8C91805346
:102A00008A30A8F1C4FF03C0D194C194D1080C0D41
:102A10001D1DC1FF09C0E114F10431F081E0A81AC5
:102A2000B108D701AD92BC92CA01B9010E94261625
:102A3000C370C33009F490584B015C0120E030E0D2
:102A4000A9010E942116882309F440C0CBEAD1E0F5
:102A500017FF05C0119501951109C3E9D1E06E0179
:102A6000B8E1CB1AD10880E2E82EF12C0FC0D501D5
:102A7000B1CFFE0125913591459154910E191F0951
:102A8000C501B4010E9487164B015C01D501C40148
:102A90000E151F0574F72497F594E794CC16DD0600
:102AA000A9F78A2F880F8B2F881F8F3F49F020E0CE
:102AB00030E0A901C501B4010E942116811106C0B0
:102AC00082E290E09093C00B8093BF0BC501B401EC
:102AD000DF91CF911F910F91FF90EF90DF90CF90FA
:102AE000BF90AF909F908F900895662777270C94A2
:102AF0001714FC0188279927E89421912032E9F3E3
:102B0000293010F02E30C8F32B3241F02D3239F439
:102B1000689404C00E94FF15820F911D21912053DB
:102B20002A30C0F31EF4909581959F4F08951F930E
:102B3000FC0199278827BC01E89411911032E9F330
:102B4000193010F01E30C8F31B3251F01D3249F419
:102B5000689406C00E94EA15610F711D811D911DC8
:102B6000119110531A30B0F33EF490958095709502
:102B700061957F4F8F4F9F4F1F91089591110C9436
:102B80004519803219F089508550C8F70895FB0126
:102B9000DC014150504088F08D9181341CF08B3520
:102BA0000CF4805E659161341CF06B350CF4605E52
:102BB000861B611171F3990B0895881BFCCFBB270D
:102BC0004A3031F4992322F4BDE2909581959F4FCC
:102BD0000C940816592F482F372F262F660F771F72
:102BE000881F991F660F771F881F991F620F731F19
:102BF000841F951F660F771F881F991F08957AE01D
:102C0000979F902D879F802D910D11240895BB27AC
:102C1000FB015527AA27880F991FAA1FA41710F098
:102C2000A41B83955051B9F7A05DAA3308F0A95DA4
:102C3000A193009779F7B111B1931192CB010C9444
:102C400048190E94631608F481E00895E89409C0C9
:102C500097FB3EF490958095709561957F4F8F4FCF
:102C60009F4F9923A9F0F92F96E9BB279395F695E5
:102C7000879577956795B795F111F8CFFAF4BB0F63
:102C800011F460FF1BC06F5F7F4F8F4F9F4F16C0C7
:102C9000882311F096E911C0772321F09EE8872F51
:102CA000762F05C0662371F096E8862F70E060E00D
:102CB0002AF09A95660F771F881FDAF7880F969586
:102CC000879597F90895990F0008550FAA0BE0E82A
:102CD000FEEF16161706E807F907C0F012161306DE
:102CE000E407F50798F0621B730B840B950B39F41E
:102CF0000A2661F0232B242B252B21F408950A2684
:102D000009F4A140A6958FEF811D811D08950E94B1
:102D10009A160C946F190E94611938F00E94681974
:102D200020F0952311F00C9458190C945E1911247D
:102D30000C94A3190E94801970F3959FC1F3950F0D
:102D400050E0551F629FF001729FBB27F00DB11D2F
:102D5000639FAA27F00DB11DAA1F649F6627B00DBF
:102D6000A11D661F829F2227B00DA11D621F739FA8
:102D7000B00DA11D621F839FA00D611D221F749FB6
:102D80003327A00D611D231F849F600D211D822FFD
:102D9000762F6A2F11249F5750409AF0F1F0882324
:102DA0004AF0EE0FFF1FBB1F661F771F881F915051
:102DB0005040A9F79E3F510580F00C9458190C948F
:102DC000A3195F3FE4F3983ED4F386957795679512
:102DD000B795F795E7959F5FC1F7FE2B880F911D7B
:102DE0009695879597F908958F929F92AF92BF928B
:102DF000CF92DF92EF92FF920F931F93CF93DF93C7
:102E000000D000D000D0CDB7DEB76A01F22EB02ED0
:102E1000102FFBE3AF2EA01608F41BE31F5F012F5A
:102E200027E0AE014F5F5F4F0E946D18BC018981A2
:102E3000982F9970913009F44EC09BE2E1FC04C0D8
:102E40009E2D9170E0FC49C05E2D5071E82FE87016
:102E500083FF55C084E0911101C083E0EF2DE81B92
:102E60008F1508F0E0E0D6018E2F20E25523C9F13E
:102E7000992329F0D6019C93C60101966C01960115
:102E80002D5F3F4FE2FE33C08EE4D6018C9391E478
:102E900011969C93119712968C93D9018E2F90E2E4
:102EA00081112AC0E20FF32FF11D10828EEF9FEFE8
:102EB00029960FB6F894DEBF0FBECDBFDF91CF913C
:102EC0001F910F91FF90EF90DF90CF90BF90AF9048
:102ED0009F908F9008959DE2B7CF90E2B5CF2D934C
:102EE00081508111FCCFCE0ED11CE0E0C1CF8EE627
:102EF000D6018C9391E6CCCF9D938150D1CF482FB2
:102F0000447082FF3DC084E0911101C083E08F15C1
:102F100010F4EF2DE81BD6018E2F20E2552309F186
:102F2000992329F0D6019C93C60101966C01960164
:102F30002D5F3F4FE2FE1BC089E4D6018C938EE4E7
:102F400011968C93119786E412968C93D9018E2F4B
:102F500090E2882309F4A6CF9D938150FACF2D9358
:102F600081508111FCCFCE0ED11CE0E0D9CF89E693
:102F7000D6018C938EE611968C93119786E6E4CF5A
:102F80009B0177FF02C030E020E0A1E0B0E09111AA
:102F900002C0B0E0A0E0F9013196AE0FBF1F8B2C4C
:102FA000912CBB2009F461C05401EFEFAE1ABE0AA8
:102FB000AA0DBB1DFA161B0619F014F04F2D4A1B63
:102FC000511188C0E3FC59C07601A42FB0E2A111D1
:102FD0004FC0C40ED11C992309F45BC040E0D60158
:102FE0001196F60190836D01552309F448C0012F15
:102FF000060F9A81582F507184FF03C0913309F452
:10300000015010160CF047C0093008F008E0EEE25D
:10301000FE2E5B01A01AB10885019194819491085C
:103020002F3F320729F4D601FC92F60131966F0149
:103030006217730794F1021713077CF5DB01A21BDB
:10304000B30BAA24A394B12CAC0EBD1EAA0DBB1DBC
:1030500011968C9121503109D60111962815390508
:10306000F4F0F60180836D01DBCFB12CA12CA0CF51
:10307000F701B1937F01A150AACF9111B0CFD60132
:10308000942F50E302C05D9391509111FCCFC40E78
:10309000D11C40E0ACCF01E0BACF80E3DBCF6217B8
:1030A000730731F4963388F4953311F4552369F09E
:1030B000F6018083FD01842F90E2811108C0A40FE6
:1030C000B11D1C9290E080E0F3CE81E3F1CF9193AB
:1030D0008150F3CF911183CF8ACF283008F027E0B9
:1030E0003327DA01990F311D87FD91600096610544
:1030F000710539F432602E5F3D9330E32A95E1F794
:1031000008959F3F30F080387105610509F03C5FFC
:103110003C5F3D93913008F08068911DDF93CF9321
:103120001F930F93FF92EF92192F987F9695E92F97
:1031300096959695E90FFF27E75FFD4F992733276F
:10314000EE24FF24A701E70105900894079428F4D2
:10315000360FE71EF81E491F511D660F771F881F87
:10316000991F0694A1F70590079428F4E70EF81E1E
:10317000491F561FC11D770F881F991F661F069490
:10318000A1F70590079428F4F80E491F561FC71F92
:10319000D11D880F991F661F771F0694A1F7059010
:1031A000079420F4490F561FC71FD81F990F661F99
:1031B000771F881F0694A9F784911095177041F026
:1031C000D695C79557954795F794E7941A95C1F703
:1031D000EFEAF1E06894159015913591659195911C
:1031E00005907FE27395E118F10A430B560BC90B6A
:1031F000D009C0F7E10CF11E431F561FC91FD01D97
:103200007EF4703311F48A95E6CFE894015030F0E3
:10321000080F0AF40027021708F4202F2395022F25
:103220007A3328F079E37D932A95E9F710C07D93EE
:103230002A9589F60694979567953795179517946B
:10324000E118F10A430B560BC90BD00998F02395EE
:103250007E9173957A3308F070E37C932013B8F76E
:103260007E9170617D9330F0839571E37D9370E37F
:103270002A95E1F71124EF90FF900F911F91CF91C4
:10328000DF91992787FD90950895992788270895BC
:10329000DC01FC01672F71917723E1F7329704C0BD
:1032A0007C916D9370836291AE17BF07C8F3089548
:1032B00097F99F6780E870E060E008959FEF80ECE9
:1032C000089500240A94161617061806090608958C
:1032D00000240A9412161306140605060895092EF2
:1032E0000394000C11F4882352F0BB0F40F4BF2B61
:1032F00011F460FF04C06F5F7F4F8F4F9F4F0895A1
:1033000057FD9058440F551F59F05F3F71F0479596
:10331000880F97FB991F61F09F3F79F0879508957B
:10332000121613061406551FF2CF4695F1DF08C09A
:10333000161617061806991FF1CF869571056105B7
:1033400008940895E894BB2766277727CB0197F95F
:1033500008950E94B419A59F900DB49F900DA49F4D
:10336000800D911D11240895A29FB001B39FC0014B
:10337000A39F700D811D1124911DB29F700D811DA1
:103380001124911D08955058BB27AA270E94DB19CC
:103390000C946F190E94611938F00E94681920F08E
:1033A00039F49F3F19F426F40C945E190EF4E0955D
:1033B000E7FB0C945819E92F0E94801958F3BA17AB
:1033C000620773078407950720F079F4A6F50C943B
:1033D000A2190EF4E0950B2EBA2FA02D0B01B90106
:1033E00090010C01CA01A0011124FF27591B99F07B
:1033F000593F50F4503E68F11A16F040A22F232F87
:10340000342F4427585FF3CF469537952795A795D6
:10341000F0405395C9F77EF41F16BA0B620B730B7D
:10342000840BBAF09150A1F0FF0FBB1F661F771FEE
:10343000881FC2F70EC0BA0F621F731F841F48F4A3
:10344000879577956795B795F7959E3F08F0B0CF2C
:103450009395880F08F09927EE0F97958795089513
:103460000E94441A0C946F190E94681958F00E9427
:10347000611940F029F45F3F29F00C94581951115B
:103480000C94A3190C945E190E94801968F3992377
:10349000B1F3552391F3951B550BBB27AA27621750
:1034A0007307840738F09F5F5F4F220F331F441F5D
:1034B000AA1FA9F335D00E2E3AF0E0E832D0915091
:1034C0005040E695001CCAF72BD0FE2F29D0660F7E
:1034D000771F881FBB1F261737074807AB07B0E8C1
:1034E00009F0BB0B802DBF01FF2793585F4F3AF0C7
:1034F0009E3F510578F00C9458190C94A3195F3F26
:10350000E4F3983ED4F3869577956795B795F7954C
:103510009F5FC9F7880F911D9695879597F9089534
:10352000E1E0660F771F881FBB1F621773078407D0
:10353000BA0720F0621B730B840BBA0BEE1F88F7DF
:10354000E09508950E94881988F09F5798F0B92F48
:103550009927B751B0F0E1F0660F771F881F991FC8
:103560001AF0BA95C9F714C0B13091F00E94A219AF
:10357000B1E008950C94A219672F782F8827B85FBF
:1035800039F0B93FCCF3869577956795B395D9F720
:103590003EF490958095709561957F4F8F4F9F4F2A
:1035A00008950E94631608F48FEF0895A1E21A2E81
:1035B000AA1BBB1BFD010DC0AA1FBB1FEE1FFF1FD7
:1035C000A217B307E407F50720F0A21BB30BE40B27
:1035D000F50B661F771F881F991F1A9469F760956E
:1035E0007095809590959B01AC01BD01CF01089528
:1035F000EE0FFF1F881F8BBF0790F691E02D1994E7
:103600000F931F93CF93DF938230910510F482E0E4
:1036100090E0E091C30BF091C40B30E020E0B0E00B
:10362000A0E0309799F42115310509F44AC0281B10
:10363000390B24303105D8F58A819B8161157105DC
:1036400089F1FB0193838283FE0111C04081518186
:103650000281138148175907E0F04817590799F478
:10366000109761F012960C93129713961C93329652
:10367000CF01DF91CF911F910F9108950093C30B5C
:103680001093C40BF4CF2115310551F042175307A5
:1036900038F0A901DB019A01BD01DF01F801C1CFBA
:1036A000EF01F9CF9093C40B8093C30BCDCFFE01F4
:1036B000E20FF31F819391932250310939832883BC
:1036C000D7CF2091C10B3091C20B232B41F4209115
:1036D0000202309103023093C20B2093C10B209160
:1036E0000002309101022115310541F42DB73EB79A
:1036F0004091040250910502241B350BE091C10B4F
:10370000F091C20BE217F307A0F42E1B3F0B281712
:10371000390778F0AC014E5F5F4F2417350748F04A
:103720004E0F5F1F5093C20B4093C10B8193919337
:103730009FCFF0E0E0E09CCFCF93DF930097E9F0DC
:10374000FC01329713821282A091C30BB091C40B7B
:10375000ED0130E020E01097A1F420813181820F4B
:10376000931F2091C10B3091C20B2817390709F024
:1037700061C0F093C20BE093C10BDF91CF9108952C
:10378000EA01CE17DF07E8F54A815B819E0141150A
:103790005105B1F7E901FB83EA8349915991C40FBF
:1037A000D51FEC17FD0761F4808191810296840F8B
:1037B000951FE90199838883828193819B838A8302
:1037C000F0E0E0E012968D919C9113970097B9F587
:1037D0002D913C911197CD010296820F931F20915C
:1037E000C10B3091C20B2817390739F6309751F5C4
:1037F0001092C40B1092C30BB093C20BA093C10BD9
:10380000BCCFD383C28340815181840F951FC817D9
:10381000D90761F44E5F5F4F88819981480F591F26
:10382000518340838A819B81938382832115310553
:1038300009F0B0CFF093C40BE093C30B9ECFFD0112
:10384000DC01C0CF13821282D7CF4F925F926F926A
:103850007F928F929F92AF92BF92CF92DF92EF9220
:10386000FF920F931F93CF93DF938C01009799F4EE
:10387000CB01DF91CF911F910F91FF90EF90DF90DF
:10388000CF90BF90AF909F908F907F906F905F9000
:103890004F900C94001BFC01E60FF71F9C01225077
:1038A0003109E217F30708F4AEC0D901CD91DC91DC
:1038B0001197C617D70720F1C530D10578F0CE0192
:1038C00004978617970750F0C61BD70B2297C19312
:1038D000D1936D937C93CF010E949C1BC801DF9113
:1038E000CF911F910F91FF90EF90DF90CF90BF90FD
:1038F000AF909F908F907F906F905F904F900895C2
:103900005B01AC1ABD0A4C018C0E9D1EA091C30B2D
:10391000B091C40B512C412CF12CE12C109731F5B6
:103920008091C10B9091C20B8815990509F05CC07C
:103930004616570608F058C0809100029091010287
:10394000009741F48DB79EB7409104025091050253
:10395000841B950BE817F90708F055C0F093C20BCC
:10396000E093C10BF90171836083B8CF8D919C9175
:10397000119712966C90129713967C901397A81536
:10398000B90559F56C0142E0C40ED11CCA14DB0420
:1039900020F1AC014A195B09DA011296159780F003
:1039A0006282738251834083D9016D937C93E114C9
:1039B000F10471F0D7011396FC93EE9312978ECF1A
:1039C00022968C0F9D1FF90191838083F301EFCF25
:1039D000F093C40BE093C30B81CF4816590608F44B
:1039E0002C017D01D3019ACFCB010E94001B7C01E9
:1039F000009749F0AE01B8010E94061DC8010E945F
:103A00009C1B87016BCF10E000E068CFFB01DC015D
:103A100002C001900D9241505040D8F70895FB012B
:103A2000DC0101900D920020E1F70895F894FFCF9A
:103A30000000C50B800012001300140015001600D2
:103A40001700180019002500260027002800020092
:103A5000030004000500060007000800090000003C
:103A6000000021038B02B8026E03E902C702DB02E9
:103A70000D0A007C7C496E76616C696420636F6D11
:103A80006D616E642072656365697665642C20746F
:103A900068657265206D75737420626520612066AB
:103AA00061756C7420696E2074686520636F6D6D3C
:103AB000756E69636174696F6E2E2E2E2054686571
:103AC0002066756E6374696F6E20696E6465782018
:103AD000726563656976656420646F6573206E6FD7
:103AE00074206D6174636820616E20696E6465780E
:103AF0002073746F72656420696E2074686520702D
:103B0000726F6772616D2E2E2E20496E646963613B
:103B100074696E672061206661756C7420696E201F
:103B200074686520636F6D6D756E69636174696F2C
:103B30006E2028726574726576696E6720646174A0
:103B4000612066726F6D2073657269616C20706FA1
:103B500072742C202E2E2E29207C7C00546F6767D7
:103B60006C65204C454400436F6E6E656374207431
:103B70006F2047726F756E6400436F6E6E6563747D
:103B800020746F204275730050757420566F6C74EA
:103B9000616765004368616E676520426F617264AA
:103BA0006E756D6265720047657420426F61726464
:103BB0006E756D626572004D656173757265204347
:103BC000757272656E74004D65617375726520560D
:103BD0006F6C746167650023235375636365736657
:103BE000756C6C79206368616E67656420626F61D3
:103BF00072644E7220746F3A20007B007D20004278
:103C00006F6172644E756D6265723A205B005D0093
:103C10007C7C4552524F523A2041434B207761738E
:103C200020616C7265616479206C6F777C7C007CAC
:103C30007C4552524F523A2041434B20657870697F
:103C40007265647C7C007C7C4552524F52206465D6
:103C50007465637465647C7C002323454E41424C4B
:103C6000452043555252454E54204D4541535552DF
:103C7000454D454E54232300232344495341424C90
:103C8000452043555252454E54204D4541535552BF
:103C9000454D454E5423230028284D454153555248
:103CA000452052454749535445523A20002929207E
:103CB0000A004D6561737572656420637572726583
:103CC0006E743A205B002323436F6E6E656374202D
:103CD000766F6C7461676520736F757263652323FB
:103CE000002323446973636F6E6E65637420766F7F
:103CF0006C7461676520736F757263652323002898
:103D000028200A2053544154555320434F4E4E45CA
:103D10004354494E4720564F4C5441474520534F3A
:103D2000555243450053746174757320766F6C74FB
:103D300061676520736F75726365206265666F7277
:103D4000653A20003D3E2053746174757320766F90
:103D50006C7461676520736F75726365206166744A
:103D600065723A20000A202929007C7C4552524F76
:103D7000523A20494E56414C4944204348414E4E08
:103D8000454C204E554D4245527C7C004D6561733B
:103D90007572656420566F6C746167653A205B00CC
:103DA0002323436F6E6E656374206368616E6E6576
:103DB0006C200020746F20746865204255532323C3
:103DC000002323446973636F6E6E656374206368B8
:103DD000616E6E656C20002066726F6D20425553D7
:103DE0002323002828200A205354415455532042AD
:103DF00055533A3A00627573436F6E305374617471
:103E00007573206265666F72653A20003D3E2062E0
:103E10007573436F6E30537461747573206166748B
:103E200065723A2000627573436F6E31537461742A
:103E30007573206265666F72653A20003D3E2062B0
:103E40007573436F6E31537461747573206166745A
:103E500065723A20007C7C4552524F523A20496E9E
:103E600076616C6964206368616E6E656C20736551
:103E70006C656374696F6E2E204661756C74206981
:103E80006E20636F6D6D756E69636174696F6E200E
:103E900077686572652077726F6E6720666F726DE6
:103EA00061742F6E756D6265722069732063686F2F
:103EB00073656E206173206368616E6E656C206E41
:103EC000756D6265722E2E2E006973206E6F7420E0
:103ED000612076616C6964206368616E6E656C2038
:103EE0006E756D6265722E2E2E204974206D6F7373
:103EF0007420626520696E2072616E6765206F664E
:103F000020205B312E2E2E31365D7C7C0020746F9C
:103F1000207468652067726F756E642323002066C5
:103F2000726F6D207468652067726F756E642323ED
:103F3000002828200A2053544154555320474E440A
:103F4000205550444154453A3A00676E64436F6EC1
:103F500030537461747573206265666F72653A20C0
:103F6000003D3E20676E64436F6E3053746174751C
:103F7000732061667465723A2000676E64436F6EE9
:103F800031537461747573206265666F72653A208F
:103F9000003D3E20676E64436F6E315374617475EB
:103FA000732061667465723A20002323536574752B
:103FB000702041726475696E6F232300232353655B
:103FC00074757020436F6D706C65746523230023D6
:103FD0002353657420766F6C7461676520746F205D
:103FE000002828200A20535441545553204441545A
:103FF0004120534554564F4C544147453A00646163
:10400000746130537461747573206265666F726594
:104010003A20003D3E2064617461305374617475D0
:10402000732061667465723A200064617461315373
:104030007461747573206265666F72653A20003D25
:104040003E206461746131537461747573206166DC
:064050007465723A2000C5
:00000001FF
