:020000040000FA
:100000000C94DD010C940E020C940E020C940E0262
:100010000C940E020C940E020C940E020C940E0220
:100020000C940E020C940E020C940E020C940E0210
:100030000C940E020C940E020C940E020C940E0200
:100040000C940E020C940E020C940E020C940E02F0
:100050000C940E020C940E020C940E020C94FF0CE5
:100060000C940E020C94C90C0C949F0C0C940E0270
:100070000C940E020C940E020C940E020C940E02C0
:100080000C940E020C940E020C940E020C940E02B0
:100090000C940E020C940E020C940E020C940E02A0
:1000A0000C940E020C940E020C940E020C940E0290
:1000B0000C940E020C940E020C940E020C940E0280
:1000C0000C940E020C940E020C940E020C940E0270
:1000D0000C940E020C940E020C940E020C940E0260
:1000E0000C940E020C94AF020C94D4030C943205C1
:1000F0000C9415040C94EF030C94DE030C9414047C
:100100000C940B040C940F040C9425050C94C1075B
:100110000C9419040C94FD030C94E9030C94850AC7
:100120000C9423090C94E0020C94E6030C94DF1069
:100130000C94490D0C9465030C9418030C94010461
:100140000C9482020C94F3030C94F9030C94D202E5
:100150000C94E2030C94DA030C94BE020C94070492
:100160004E414E494E495459494E46CDCCCC3D0A9C
:10017000D7233C17B7D13877CC2B329595E6241F7F
:10018000B14F0A000020410000C84200401C462038
:10019000BCBE4CCA1B0E5AAEC59D7400407A10F30B
:1001A0005A00A0724E18090010A5D4E80000E876A5
:1001B00048170000E40B54020000CA9A3B000000FC
:1001C000E1F505000080969800000040420F000015
:1001D00000A08601000000102700000000E80300D6
:1001E0000000006400000000000A000000000001A0
:1001F00000000000002C76D888DC674F0823DFC1A0
:10020000DFAE59E1B1B796E5E3E453C63AE651995A
:100210007696E8E6C28426EB898C9B62ED407C6F83
:10022000FCEFBC9C9F40F2BAA56FA5F490055A2A3A
:10023000F75C936B6CF9676DC11BFCE0E40D47FE46
:10024000F520E6B500D0ED902E030094357705003B
:1002500080841E080000204E0A000000C80C3333C2
:1002600033330F986E12831141EF8D2114893BE6D1
:100270005516CFFEE6DB18D1844B381BF77C1D905A
:100280001DA4BBE424203284725E228100C9F124C3
:10029000ECA1E53D2700002100240027002A002DC5
:1002A000003000330001010000040107010A0100D1
:1002B000002200250028002B002E0031003400020F
:1002C000010000050108010B0100002000230026A9
:1002D0000029002C002F003200000100000301065D
:1002E00001090105050505070508080808020202BD
:1002F000020A0A08080404040401010101010101C1
:10030000010303030303030303040707070C0C0C97
:100310000C0C0C0C0C02020202060606060606066F
:10032000060B0B0B0B0B0B0B0B010210202008080C
:100330001020401020408002010201080402010147
:100340000204081020408080402010080402018030
:100350000402018040201008040201080402010187
:100360000204081020408001020408102040800090
:10037000000A0B02090C0D0E08070304010000001F
:10038000000000000000000000000000000000006D
:10039000000000000000000000000012111000002A
:1003A000000000000000000000000000000000004D
:1003B000000000000000490DDF1011241FBECFEF28
:1003C000D1E2DEBFCDBF00E00CBF28E0A2E4B5E083
:1003D00001C01D92A33EB207E1F715E0A0E0B2E034
:1003E000E2EBF3E300E00BBF02C007900D92A234F2
:1003F000B107D9F711E0CCEDD1E000E006C02197BC
:100400000109802FFE010E94A917CB3DD10780E092
:100410000807A9F70E94C30D0C94C7190C9400009B
:10042000AC01109226069091760880917508FA0129
:10043000BF01641B750B2091260630813093260680
:10044000931304C0921302C010922606308131111A
:1004500004C0921721F0CB0108953817D1F33196DB
:10046000E7CF0F931F93CF93DF9380916A08882380
:1004700009F446C0D0E0C0E0813029F482E08093E6
:100480006A08CAE2D6E080916B08882341F1209780
:1004900021F4C0916F08D09170088E01CE010E94A6
:1004A0001002892B29F42196F80180818111F5CF62
:1004B000F8018081882309F1C8010E941002F80127
:1004C000E80FF91F8081882311F010823196F09394
:1004D0007008E0936F0810936E0800936D08809188
:1004E0006D0890916E08892B59F081E080936B081C
:1004F000DF91CF911F910F91089510E000E0EBCFB5
:1005000080E0F6CFAF92BF92CF92DF92EF92FF9250
:100510000F931F93CF93DF936C017B018B01040F2B
:10052000151FEB015E01AE18BF08C017D10759F0C7
:100530006991D601ED91FC910190F081E02DC60109
:100540001995892B79F7C501DF91CF911F910F91F3
:10055000FF90EF90DF90CF90BF90AF900895FC0197
:10056000538D448D252F30E0842F90E0821B930B18
:10057000541710F0CF96089501970895FC01918DBE
:10058000828D981761F0A28DAE0FBF2FB11D5D96C1
:100590008C91928D9F5F9F73928F90E008958FEF63
:1005A0009FEF0895FC01918D828D981731F0828D17
:1005B000E80FF11D858D90E008958FEF9FEF08956E
:1005C000FC01918D228D892F90E0805C9F4F821BD2
:1005D00091098F739927089584E895E00E94E002BD
:1005E00021E0892B09F420E0822F0895FC01A48DDD
:1005F000A80FB92FB11DA35ABF4F2C91848D90E045
:1006000001968F739927848FA689B7892C93A08927
:10061000B1898C91837080648C93938D848D9813B1
:1006200006C00288F389E02D80818F7D8083089544
:10063000EF92FF920F931F93CF93DF93EC0181E032
:10064000888F9B8D8C8D98131AC0E889F9898081D9
:1006500085FF15C09FB7F894EE89FF896083E8890C
:10066000F98980818370806480839FBF81E090E0FE
:10067000DF91CF911F910F91FF90EF900895F62E8B
:100680000B8D10E00F5F1F4F0F731127E02E8C8D25
:100690008E110CC00FB607FCFACFE889F98980816A
:1006A00085FFF5CFCE010E94F602F1CFEB8DEC0F66
:1006B000FD2FF11DE35AFF4FF0829FB7F8940B8F87
:1006C000EA89FB8980818062CFCFCF93DF93EC01F1
:1006D000888D8823B9F0AA89BB89E889F9898C912A
:1006E00085FD03C0808186FD0DC00FB607FCF7CFE6
:1006F0008C9185FFF2CF808185FFEDCFCE010E94E6
:10070000F602E9CFDF91CF91089580E090E0892B48
:1007100029F00E94EC0281110E94000080E090E02C
:10072000892B49F080E090E0892B29F00E9400009D
:1007300081110E94000080E090E0892B49F080E068
:1007400090E0892B29F00E94000081110E94000096
:1007500080E090E0892B49F080E090E0892B29F03F
:100760000E94000081110C94000008958150823194
:1007700008F05AC0E82FF0E08827EE53FC4F8F4F67
:100780000C94A917E203E603D403DA03DE0314048E
:10079000E903EF03F303F903FD03010407040B046A
:1007A00014040F0415041904809180008F7780933E
:1007B00080000895809180008F7DF9CF8091800026
:1007C000877FF5CF84B58F7784BD089584B58F7DFD
:1007D000FBCF8091B0008F778093B0000895809117
:1007E000B0008F7DF9CF809190008F77809390003B
:1007F0000895809190008F7DF9CF80919000877F40
:10080000F5CF8091A0008F778093A000089580910C
:10081000A0008F7DF9CF8091A000877FF5CF8091D8
:1008200020018F77809320010895809120018F7D92
:10083000F9CF80912001877FF5CFCF93DF93282FC9
:1008400030E0F901E159FC4F8491F901E75DFC4F7B
:10085000D491F901ED51FD4FC491CC23A1F0811148
:100860000E94B603EC2FF0E0EE0FFF1FE753FD4FA1
:10087000A591B491EC91ED2381E090E009F480E042
:10088000DF91CF91089580E090E0FACF1F93CF934E
:10089000DF93282F30E0F901E159FC4F8491F901F1
:1008A000E75DFC4FD491F901ED51FD4FC491CC238C
:1008B000A9F0162F81110E94B603EC2FF0E0EE0F85
:1008C000FF1FE155FD4FA591B4918FB7F894EC91BE
:1008D000111108C0D095DE23DC938FBFDF91CF913B
:1008E0001F910895DE2BF8CFCF93DF9390E0FC01AA
:1008F000E75DFC4F24918D519D4FFC01849188232D
:10090000C9F090E0880F991FFC01EB56FD4FA591AF
:10091000B491FC01E155FD4FC591D49161110DC019
:100920009FB7F8948C91209582238C9388812823FB
:1009300028839FBFDF91CF910895623051F49FB714
:10094000F8943C91822F809583238C93E8812E2B01
:10095000EFCF8FB7F894EC912E2B2C938FBFEACF6B
:100960003FB7F8948091430590914405A0914505C7
:10097000B091460526B5A89B05C02F3F19F00196FA
:10098000A11DB11D3FBFBA2FA92F982F8827BC01E9
:10099000CD01620F711D811D911D42E0660F771F11
:1009A000881F991F4A95D1F708958F929F92AF9211
:1009B000BF92CF92DF92EF92FF926B017C010E9477
:1009C000B0044B015C01C114D104E104F104B9F09D
:1009D0000E94B004681979098A099B09683E73402E
:1009E0008105910580F321E0C21AD108E108F108E0
:1009F00088EE880E83E0981EA11CB11CE4CFFF9006
:100A0000EF90DF90CF90BF90AF909F908F90089520
:100A100030E020E0FC0111921192CF012F5F3F4F97
:100A200062177307B9F70895FA01EE0FFF1FE60F7B
:100A3000F71F1816190644F49C01217033273293CE
:100A4000229395958795F5CF08958091790591E04A
:100A500089278093790561E0811101C060E08EE013
:100A60000C9446040E9425056EEE72E080E090E052
:100A70000E94D5040C942505FC0101900020E9F7A3
:100A80003197AF01481B590BBC0184E895E00C94E9
:100A9000820280E492E00C943C05CF93DF93FC014A
:100AA000448155816081718184E895E00E948202D1
:100AB000EC010E9449058C0F9D1FDF91CF91089595
:100AC000CF93DF930E943C05EC010E9449058C0FF7
:100AD0009D1FDF91CF9108950C943C054F925F923A
:100AE0006F927F92AF92BF92CF92DF92EF92FF927E
:100AF0000F931F93CF93DF93CDB7DEB7A1970FB6B8
:100B0000F894DEBF0FBECDBF7C0183E492E00E946B
:100B10006C058701570180E1A80EB11C8AE0482EC0
:100B2000512C612C712CF801C190D1908F010D2CAA
:100B3000000CEE08FF08F7FE41C06DE284E895E086
:100B40000E94180322273327A9012C193D094E09B9
:100B50005F0919A2CE0181967C01CA01B901A301E6
:100B600092010E948717605DF70162937F01211552
:100B700031054105510589F7E114F10419F0C70168
:100B80000E943C05A016B10671F685E492E00E9431
:100B90006005A1960FB6F894DEBF0FBECDBFDF9102
:100BA000CF911F910F91FF90EF90DF90CF90BF906A
:100BB000AF907F906F905F904F900895A70196013E
:100BC00019A2CE0181967C01CA01B901A30192014B
:100BD0000E948717605DF70162937F01211531053F
:100BE0004105510589F7C8CF0E943102882359F089
:100BF00081E080936B0880936C0880916D089091E0
:100C00006E080C945F1210926C0890E080E00895DA
:100C10006F927F928F929F92AF92BF92CF92DF920C
:100C2000EF92FF920F931F93CF93DF93CDB7DEB771
:100C30003C018B014A01ADB6BEB67B01EE0CFF1C38
:100C40008DB79EB78E199F090FB6F8949EBF0FBE41
:100C50008DBFEDB7FEB731966F01CF010E94080539
:100C6000A801B601C4010E941405EC0CFD1C83010F
:100C7000F2E0EF1AF108F80180810E5F1F4FF701D3
:100C800060810E944604EC14FD0491F70FB6F894BD
:100C9000BEBE0FBEADBEDF91CF911F910F91FF90F1
:100CA000EF90DF90CF90BF90AF909F908F907F900C
:100CB0006F900895CF92DF92EF92FF920F931F9360
:100CC000CF93DF938C016B017A018CE10E941D04AC
:100CD000019761F087E492E0DF91CF911F910F912E
:100CE000FF90EF90DF90CF900C946005C6E0D2E0CB
:100CF0008881229661E00E94740482E0C631D807A0
:100D0000B9F7A60168E070E086E092E00E9408066C
:100D1000A70164E070E086E292E00E940806A80164
:100D200068E070E086E192E00E94080660E083E3FC
:100D30000E944604C4E6D0E08CE10E941D04892B89
:100D400051F02197C9F761E083E30E94460484E6ED
:100D500092E00E94600561E083E30E9446048DE119
:100D60000E941D04019719F087E792E0B5CFDF914B
:100D7000CF911F910F91FF90EF90DF90CF9008954A
:100D80000F931F93CF93DF93EC0188819981009794
:100D900059F02A813B812617370730F081E0DF9137
:100DA000CF911F910F9108958B016F5F7F4F0E942C
:100DB000D618009759F0998388831B830A832C8166
:100DC0003D81232B59F7FC011082E8CF80E0E7CF6B
:100DD000EF92FF920F931F93CF93DF9361157105ED
:100DE00041F480E0DF91CF911F910F91FF90EF9040
:100DF000089541155105B1F07B01EC010C811D8175
:100E0000040F151FB8010E94C006882351F32881E2
:100E100039818C819D81B701820F931F0E94C01977
:100E20001D830C8381E0DECFCF93DF93EC018881BB
:100E30009981009711F00E944D18198218821D8225
:100E40001C821B821A82DF91CF910895CF93DF938A
:100E5000EC01FB0101900020E9F73197AF01461B3F
:100E6000570B0E94E806811103C0CE010E941407AF
:100E7000CE01DF91CF910895CF93DF93EC01FB0179
:100E800044815581608171810E94E806811103C00F
:100E9000CE010E941407CE01DF91CF910895EF9209
:100EA000FF920F931F93CF93DF93EC017B018A0195
:100EB000BA010E94C00681110BC0CE010E94140726
:100EC000CE01DF91CF911F910F91FF90EF90089588
:100ED0001D830C83B701888199810E94C019F0CFCE
:100EE000EF92FF920F931F93CF93DF93CDB7DEB7AF
:100EF00062970FB6F894DEBF0FBECDBF8C01CB0159
:100F0000F8011182108213821282158214824AE043
:100F10009E012F5F3F4F7901B9010E949E12F70198
:100F200001900020E9F73197AF014E195F09B70131
:100F3000C8010E944F0762960FB6F894DEBF0FBE3D
:100F4000CDBFDF91CF911F910F91FF90EF9008954A
:100F5000FC01118210821382128215821482FB011D
:100F600001900020E9F73197AF01461B570B0C9415
:100F70004F07FC0180819181009711F00C944D186E
:100F800008956F927F928F929F92AF92BF92CF926D
:100F9000DF92EF92FF920F931F93CF93DF93CDB722
:100FA000DEB766970FB6F894DEBF0FBECDBF6624DE
:100FB0006394712C0E943102882309F42FC10E948E
:100FC000F4058C010E94F4057C01B801CE01019664
:100FD000E114F10481F10E94700766E872E0CE012D
:100FE00041960E94A807BE016F5F7F4FCE014196D8
:100FF0000E943C0767E972E00E9426070E944D05A7
:10100000CE0141960E94B907CE0101960E94B90710
:10101000C80101978031910500F521E0E114F10448
:1010200009F420E0FC01E759FA4F308132131AC06D
:101030008BE493E014C00E94700763EA72E0CE0173
:1010400041960E94A807BE016F5F7F4FCE01419677
:101050000E943C0767EB72E0CFCF85EC92E00E94E4
:101060006005A8CF2083A0905105B09052058090D4
:101070004F0590905005EF2809F0BFC009301105C9
:101080000CF0ACC0730102C0EE0CFF1C8A95E2F7B5
:10109000E094F094EA20FB208401CC24C394D12C6A
:1010A0000CC0730102C0EE0CFF1C8A95E2F7EA281F
:1010B000FB28840195E0C92ED12C85EE92E00E9498
:1010C000600581EF92E00E946C0568E070E0CE015F
:1010D00001960E94080548E050E0BE016F5F7F4F17
:1010E000C5010E941405CE0101960E946E0588E09C
:1010F00093E00E946C0568E070E0CE0101960E94CA
:10110000080548E050E0BE016F5F7F4FC7010E94B5
:101110001405CE0101960E946E058EE193E00E94B7
:101120006C0568E070E0CE0101960E94080548E079
:1011300050E0BE016F5F7F4FC4010E941405CE01D5
:1011400001960E946E0585E393E00E946C0568E0BD
:1011500070E0CE0101960E94080548E050E0BE0113
:101160006F5F7F4FC8010E941405CE0101960E9457
:101170006E050E9449058091510590915205E8162F
:10118000F90691F0F0925205E092510550E040E0EE
:10119000B70181E090E00E945A06B6010D2C000CC8
:1011A000880B990B0E94D50480914F0590915005B2
:1011B0000817190709F4FECE1093500500934F0548
:1011C00050E040E0B80182E090E00E945A06B6018B
:1011D000DD0C880B990B0E94D504ECCE0950110947
:1011E000C30102C0880F991F0A95E2F78C01009590
:1011F000109508211921750150CF093011050CF403
:1012000050CF09501109C30102C0880F991F0A95D8
:10121000E2F78C010829192975014CCF66960FB6A3
:10122000F894DEBF0FBECDBFDF91CF911F910F911C
:10123000FF90EF90DF90CF90BF90AF909F908F90F6
:101240007F906F9008956F927F928F929F92AF924E
:10125000BF92CF92DF92EF92FF920F931F93CF93A3
:10126000DF93CDB7DEB766970FB6F894DEBF0FBE3B
:10127000CDBF66246394712C0E943102882309F447
:101280002FC10E94F4058C010E94F4057C01B80175
:10129000CE010196E114F10481F10E94700764E629
:1012A00073E0CE0141960E94A807BE016F5F7F4F99
:1012B000CE0141960E943C0764E773E00E94260736
:1012C0000E944D05CE0141960E94B907CE010196BC
:1012D0000E94B907C80101978031910500F521E00E
:1012E000E114F10409F420E0FC01E75AFA4F3081DF
:1012F00032131AC08BE493E014C00E94700763E8B5
:1013000073E0CE0141960E94A807BE016F5F7F4F38
:10131000CE0141960E943C0766E973E0CFCF85EC91
:1013200092E00E946005A8CF2083A0904D05B09068
:101330004E0580904B0590904C05EF2809F0BFC0FA
:10134000093011050CF0ACC0730102C0EE0CFF1C9B
:101350008A95E2F7E094F094EA20FB208401CC2403
:10136000C394D12C0CC0730102C0EE0CFF1C8A95F3
:10137000E2F7EA28FB28840195E0C92ED12C87EA00
:1013800093E00E94600583EB93E00E946C0568E0A7
:1013900070E0CE0101960E94080548E050E0BE01D1
:1013A0006F5F7F4FC5010E941405CE0101960E9418
:1013B0006E058AEC93E00E946C0568E070E0CE0157
:1013C00001960E94080548E050E0BE016F5F7F4F24
:1013D000C7010E941405CE0101960E946E0580EEA1
:1013E00093E00E946C0568E070E0CE0101960E94D7
:1013F000080548E050E0BE016F5F7F4FC4010E94C6
:101400001405CE0101960E946E0587EF93E00E94BD
:101410006C0568E070E0CE0101960E94080548E086
:1014200050E0BE016F5F7F4FC8010E941405CE01DE
:1014300001960E946E050E94490580914D0590918C
:101440004E05E816F90691F0F0924E05E0924D0532
:1014500050E040E0B70183E090E00E945A06B601F8
:101460000D2C000C880B990B0E94D50480914B0524
:1014700090914C050817190709F4FECE10934C05FE
:1014800000934B0550E040E0B80184E090E00E94FA
:101490005A06B601DD0C880B990B0E94D504ECCEE0
:1014A00009501109C30102C0880F991F0A95E2F77C
:1014B0008C010095109508211921750150CF093034
:1014C00011050CF450CF09501109C30102C0880F57
:1014D000991F0A95E2F78C010829192975014CCF4B
:1014E00066960FB6F894DEBF0FBECDBFDF91CF91E9
:1014F0001F910F91FF90EF90DF90CF90BF90AF9032
:101500009F908F907F906F900895AF92BF92CF92EF
:10151000DF92EF92FF920F931F93CF93DF93CDB79C
:10152000DEB7A7970FB6F894DEBF0FBECDBF61E060
:101530008EE00E94460468EC70E080E090E00E943B
:10154000D50460E08EE00E94460468EC70E080E024
:1015500090E00E94D50461E08EE00E94460468ECB1
:1015600070E080E090E00E94D50460E08EE00E9490
:10157000460468EC70E080E090E00E94D50461E0F1
:101580008EE00E94460468EC70E080E090E00E94EB
:10159000D50460E08EE00E94460468EC70E080E0D4
:1015A00090E00E94D50461E08EE00E94460464EF62
:1015B00071E080E090E00E94D50460E08EE00E943F
:1015C000460464EF71E080E090E00E94D50461E0A1
:1015D0008EE00E94460464EF71E080E090E00E949B
:1015E000D50460E08EE00E94460464EF71E080E084
:1015F00090E00E94D50461E08EE00E94460464EF12
:1016000071E080E090E00E94D50460E08EE00E94EE
:10161000460464EF71E080E090E00E94D50461E050
:101620008EE00E94460468EC70E080E090E00E944A
:10163000D50460E08EE00E94460468EC70E080E033
:1016400090E00E94D50461E08EE00E94460468ECC0
:1016500070E080E090E00E94D50460E08EE00E949F
:10166000460468EC70E080E090E00E94D50461E000
:101670008EE00E94460468EC70E080E090E00E94FA
:10168000D50460E08EE00E94460468EC70E080E0E3
:1016900090E00E94D5040E943102882309F412C10F
:1016A0000E943102882379F181E080936B08809356
:1016B0006C0870E060E080916D0890916E080E9467
:1016C00001116B017C0110E000E0C701B6010E942E
:1016D0004C1706171707E4F461E08EE00E944604F9
:1016E00064EF71E080E090E00E94D50460E08EE05D
:1016F0000E94460464EF71E080E090E00E94D5040F
:101700000F5F1F4FE2CF10926C08C12CD12C7601D5
:101710001BA21AA21DA21CA21FA21EA28E010F5F55
:101720001F4F22E044E0C701B6010E94E31000977A
:1017300009F4D9C0FC0101900020E9F73197AF010D
:10174000481B590BBC01CE0182960E944F076DE0E9
:1017500074E0CE0101960E94A807BE016E5D7F4F26
:10176000CE0101960E943C070E944D05CE010196D4
:101770000E94B907CE0182960E94B907A090570532
:10178000B0905805009155051091560520E030E0C5
:1017900040E450E4C701B6010E94DA1620E030E0D0
:1017A00040E251E40E946E166B017C0120E030E0C3
:1017B00040EA51E40E94821787FD9AC08FEF90E0C3
:1017C000909358058093570590935605809355053F
:1017D000E0905505F0905605C0905705D0905805FB
:1017E0008DE194E00E94600585E394E00E946C0521
:1017F00068E070E0CE0101960E94080548E050E0E4
:10180000BE016F5F7F4FC5010E941405CE01019696
:101810000E946E058AE494E00E946C0568E070E026
:10182000CE0101960E94080548E050E0BE016F5FBE
:101830007F4FC6010E941405CE0101960E946E05DD
:101840008EE594E00E946C0568E070E0CE010196A0
:101850000E94080548E050E0BE016F5F7F4FC8015D
:101860000E941405CE0101960E946E0583E794E064
:101870000E946C0568E070E0CE0101960E940805A8
:1018800048E050E0BE016F5F7F4FC7010E94140522
:10189000CE0101960E946E050E9449056091570590
:1018A0007091580550E040E086E090E00E945A06B2
:1018B000609155057091560550E040E087E090E05A
:1018C0000E945A06A7960FB6F894DEBF0FBECDBF92
:1018D000DF91CF911F910F91FF90EF90DF90CF900C
:1018E000BF90AF900895CE0182960E9414072FCF2B
:1018F00020E030E0A901C701B6010E94CB12181602
:101900004CF01092580510925705109256051092FF
:1019100055055ECF20E03CEC4CE455E4C701B60130
:101920000E9431130E9453179B01332730935805AF
:1019300020935705709355051092560549CF1F9275
:101940000F920FB60F9211240BB60F922F933F9365
:101950004F935F936F937F938F939F93AF93BF93B7
:10196000EF93FF9384E895E00E94F602FF91EF91D8
:10197000BF91AF919F918F917F916F915F914F91A7
:101980003F912F910F900BBE0F900FBE0F901F90A5
:1019900018951F920F920FB60F9211240BB60F924B
:1019A0002F938F939F93EF93FF93E0919405F09182
:1019B00095058081E0919A05F0919B0582FD1DC0FF
:1019C000908180919D058F5F8F7320919E05821776
:1019D00041F0E0919D05F0E0EC57FA4F958F809330
:1019E0009D05FF91EF919F918F912F910F900BBECD
:1019F0000F900FBE0F901F9018958081F2CF1F920D
:101A00000F920FB60F9211242F933F938F939F93B2
:101A1000AF93BF9380917A0590917B05A0917C054F
:101A2000B0917D053091420523E0230F2D3758F505
:101A30000196A11DB11D2093420580937A059093D4
:101A40007B05A0937C05B0937D0580914305909123
:101A50004405A0914505B09146050196A11DB11D13
:101A60008093430590934405A0934505B0934605A4
:101A7000BF91AF919F918F913F912F910F900FBE8A
:101A80000F901F90189526E8230F0296A11DB11DF7
:101A9000D2CF109287051092860588EE93E0A0E0E1
:101AA000B0E08093880590938905A0938A05B09350
:101AB0008B0582E392E0909385058093840585EC05
:101AC00090E0909391058093900584EC90E0909342
:101AD00093058093920580EC90E090939505809318
:101AE000940581EC90E0909397058093960582ECA5
:101AF00090E0909399058093980586EC90E0909300
:101B00009B0580939A0510929D0510929E05109258
:101B10009F051092A005109278081092770884E82B
:101B200095E09093730880937208109229068CE2D6
:101B3000809375088BE3809374088FE28093760816
:101B400080E4809324068FE3809325061092230679
:101B500010926E0810926D081092700810926F0823
:101B600081E080936B08E9E7F8E01192119288E038
:101B7000ED3DF807D1F71092280662E472E08EE797
:101B800095E00C94A807CF93DF93CDB7DEB7789498
:101B900084B5826084BD84B5816084BD85B5826072
:101BA00085BD85B5816085BD80916E008160809323
:101BB0006E0010928100809181008260809381008C
:101BC000809181008160809381008091800081609C
:101BD000809380008091B10084608093B1008091F7
:101BE000B00081608093B00080919100826080930A
:101BF000910080919100816080939100809190008C
:101C00008160809390008091A10082608093A10008
:101C10008091A10081608093A1008091A0008160EB
:101C20008093A000809121018260809321018091A6
:101C30002101816080932101809120018160809346
:101C4000200180917A00846080937A0080917A00EC
:101C5000826080937A0080917A00816080937A001C
:101C600080917A00806880937A001092C100E091A0
:101C70009405F091950582E08083E0919005F091C4
:101C800091051082E0919205F091930580E18083A7
:101C900010929C05E0919805F091990586E080836B
:101CA000E0919605F0919705808180618083E091B5
:101CB0009605F0919705808188608083E091960574
:101CC000F0919705808180688083E0919605F0917E
:101CD000970580818F7D808306E112E0D8018C9189
:101CE0000E5F1F4F61E00E947404B2E006321B07D2
:101CF000A9F761E083E30E94740461E084E30E9439
:101D0000740461E085E30E94740461E083E30E944F
:101D1000460461E084E30E94460461E085E30E949A
:101D2000460462E08CE10E94740462E08DE10E944E
:101D3000740460E084E40E94740460E083E40E9420
:101D4000740461E085E20E94740461E086E20E940E
:101D5000740461E087E20E94740461E088E20E94FA
:101D60007404109258051092570580E890E0909303
:101D70005605809355051092540510925305109204
:101D80005205109251051092500510924F05109275
:101D90004E0510924D0510924C0510924B05109275
:101DA0004A0510924905109248051092470550E0E7
:101DB00040E070E060E086E090E00E945A066091AA
:101DC00055057091560550E040E087E090E00E9494
:101DD0005A06609153057091540550E040E085E04B
:101DE00090E00E945A066091490570914A0550E0C2
:101DF00040E090E080E00E945A06609151057091A9
:101E0000520550E040E081E090E00E945A06609167
:101E10004F057091500550E040E082E090E00E9454
:101E20005A0660914D0570914E0550E040E083E008
:101E300090E00E945A0660914B0570914C0550E06D
:101E400040E084E090E00E945A066091470570915E
:101E5000480550E040E089E090E00E945A0687E89B
:101E600094E00E9460058CE10E941D04019709F432
:101E7000E2C087E492E00E94600561E070E080E0EB
:101E800090E00E94D50482E395E090937A088093D5
:101E9000790885E295E090937C0880937B0825E89B
:101EA0003AE030937E0820937D0823E239E03093B6
:101EB000800820937F0821EC37E03093820820933C
:101EC0008108909384088093830890938608809378
:101ED0008508909388088093870890938A08809358
:101EE000890881E0809329068093790561E08EE07E
:101EF0000E944604E9E6F5E0A9E5B5E089E795E04A
:101F000011921D928E179F07D9F7DD24D3948091EB
:101F1000280681114AC18091720890917308DC01F2
:101F2000ED91FC910084F185E02D1995892B09F440
:101F30003CC18091720890917308DC01ED91FC9195
:101F40000084F185E02D1995612C22E0722E811517
:101F5000924064F48091720890917308DC01ED91D5
:101F6000FC910084F185E02D19953C0100917208E7
:101F7000109173089AE6E92E96E0F92E4701B12CEC
:101F8000A12C6A147B0409F0C4C010E000E06016C4
:101F9000710609F4BCCFD7019D917D0110926A08AA
:101FA000309176082091270690932706931304C05A
:101FB000921302C01092270680912306E82FF0E0CA
:101FC00040917408EF5DF94F9413DBC0321709F4A8
:101FD000D8C01186882321F0D0926A081092270673
:101FE0001092230610926E0810926D0810927008DD
:101FF00010926F08D0926B0880916A08813009F0C6
:10200000D1C00E94F40580932206823308F0C3C039
:1020100020916C08222309F4BEC0FC01FF27EE0FBB
:10202000FF1FE758F74F0190F081E02D309709F43A
:10203000B2C01995B7C046E0E42E42E0F42E06E1A6
:1020400012E05701F5018081F2E0AF0EB11C60E0B3
:102050000E9474040A151B05A9F750E040E064E0F3
:1020600070E086E292E00E94080648E050E068E0F6
:1020700070E086E192E00E94080660E084E30E943E
:10208000460486E994E00E9460058AEE94E00E948E
:10209000600504E610E08CE10E941D04892B79F5AF
:1020A0008EEF94E00E94600536E1A32E32E0B32E5D
:1020B00022E0A21AB108D5018C910E941D04EA14F5
:1020C000FB04B1F70FB6F894DEBF0FBECDBF8BE0B7
:1020D00095E00E94600561E084E30E94460489E186
:1020E00095E00E9460058DE10E941D04019721F09A
:1020F00087E792E00E94600581E395E0BCCE015045
:10210000110949F661E084E30E94460484E692E006
:10211000C9CF2FB7F89480917A0590917B05A09153
:102120007C05B0917D052FBFF80180879187A2873C
:10213000B387D801ED91FC910284F385E02DC801AD
:10214000199597FF35C02FB7F89480917A05909133
:102150007B05A0917C05B0917D052FBFF8014085DE
:10216000518562857385841B950BA60BB70B448143
:1021700055816681778184179507A607B707C8F24E
:1021800004CF91878F5F809323069091250689174E
:1021900008F026CF31CFE0917708F091780830979A
:1021A00009F047CF0F5F1F4FF2CE0E948503AFCEDD
:1021B000F40181934F01FFEFAF1ABF0AE2CE8EE721
:1021C00095E00C94B907EF920F931F93CF93DF9391
:1021D000E80134E047FD34E1042E000C550B57FFB5
:1021E00003C0519541955109E32E022F242FAE01D2
:1021F0000E949E13CE01DF91CF911F910F91EF901E
:1022000008958F929F92AF92BF92CF92DF92EF92FA
:10221000FF920F931F93CF93DF935C017B016115B6
:10222000710519F0DB018D939C9385010F5F1F4FA2
:10223000F501D0818D2F90E00E947D126C01892BD9
:10224000B9F5DD32B9F50F5F1F4FD5011196DC915D
:10225000C1E05801F1E0AF1AB10843E050E068E690
:1022600071E0C5010E948612892B69F5680182E040
:10227000C80ED11C45E050E063E671E0C6010E9443
:102280008612892B21F4680197E0C90ED11CE11454
:10229000F10419F0D701CD92DC9260E070E080E8A3
:1022A0009FEFC111FFC060E070E080E89FE7FAC0D7
:1022B0005801BBCFDB3229F485010E5F1F4FF501BA
:1022C000D181C0E0C6CF43E050E060E671E0C501D7
:1022D0000E948612892BE9F0F80110E000E020E06E
:1022E00030E0A9015F01B0ED8B2E8D0E89E08815DD
:1022F000C8F19C2E689491F88C2F8870C2FF16C08C
:10230000811102C00F5F1F4F3196D501DC91C92D9D
:10231000E9CFE114F10429F00E5F1F4FF70111839B
:10232000008360E070E080EC9FE7BCC0882311F080
:1023300001501109A5E0B0E00E9453169B01AC01C9
:10234000220F331F441F551F280D311D411D511DE4
:10235000283999E93907490799E15907A8F2C66070
:102360009C2ED2CFAEEF8A1206C0C3FD3CC09C2E7D
:10237000689493F8C9CFDF7DD534A9F580818D327B
:1023800039F4C061DF011296818162E070E006C01D
:10239000DF018B32C1F3119661E070E080535D0183
:1023A000A61AB70A8A30F8F4E0E8CE16ECE0DE06AA
:1023B0005CF4B601660F771F660F771FC60ED71E37
:1023C000CC0CDD1CC80ED11C5D01FFEFAF1ABF0A9B
:1023D0008C9180538A30A8F1C4FF03C0D194C1947A
:1023E000D1080C0D1D1DC1FF09C0E114F10431F02D
:1023F00081E0A81AB108D701AD92BC92CA01B90117
:102400000E94D012C370C33009F490584B015C0194
:1024100020E030E0A9010E94CB12882309F440C0DB
:10242000C7E9D1E017FF05C0119501951109CFE764
:10243000D1E06E01B8E1CB1AD10880E2E82EF12C90
:102440000FC0D501B1CFFE01259135914591549131
:102450000E191F09C501B4010E9431134B015C0123
:10246000D501C4010E151F0574F72497F594E79460
:10247000CC16DD06A9F78A2F880F8B2F881F8F3F78
:1024800049F020E030E0A901C501B4010E94CB125F
:10249000811106C082E290E09093DE088093DD080F
:1024A000C501B401DF91CF911F910F91FF90EF9083
:1024B000DF90CF90BF90AF909F908F900895FC01D8
:1024C00088279927E89421912032E9F3293010F0E8
:1024D0002E30C8F32B3241F02D3239F4689404C009
:1024E0000E94A912820F911D219120532A30C0F31E
:1024F0001EF4909581959F4F089591110C94EF15BE
:10250000803219F089508550C8F70895FB01DC012D
:102510004150504088F08D9181341CF08B350CF483
:10252000805E659161341CF06B350CF4605E861B37
:10253000611171F3990B0895881BFCCFBB274A30BA
:1025400031F4992322F4BDE2909581959F4F0C942C
:10255000B2127AE0979F902D879F802D910D1124C4
:102560000895BB27FB015527AA27880F991FAA1F8B
:10257000A41710F0A41B83955051B9F7A05DAA339E
:1025800008F0A95DA193009779F7B111B193119269
:10259000CB010C94F2150E940D1308F481E008950C
:1025A000E89409C097FB3EF49095809570956195ED
:1025B0007F4F8F4F9F4F9923A9F0F92F96E9BB27A3
:1025C0009395F695879577956795B795F111F8CF1F
:1025D000FAF4BB0F11F460FF1BC06F5F7F4F8F4F8A
:1025E0009F4F16C0882311F096E911C0772321F080
:1025F0009EE8872F762F05C0662371F096E8862F18
:1026000070E060E02AF09A95660F771F881FDAF76E
:10261000880F9695879597F90895990F0008550F9B
:10262000AA0BE0E8FEEF16161706E807F907C0F058
:1026300012161306E407F50798F0621B730B840B60
:10264000950B39F40A2661F0232B242B252B21F43A
:1026500008950A2609F4A140A6958FEF811D811DDA
:1026600008950E9444130C9419160E940B1638F01A
:102670000E94121620F0952311F00C9402160C946F
:10268000081611240C944D160E942A1670F3959F7B
:10269000C1F3950F50E0551F629FF001729FBB2759
:1026A000F00DB11D639FAA27F00DB11DAA1F649FF5
:1026B0006627B00DA11D661F829F2227B00DA11DA8
:1026C000621F739FB00DA11D621F839FA00D611D2E
:1026D000221F749F3327A00D611D231F849F600D4F
:1026E000211D822F762F6A2F11249F5750409AF078
:1026F000F1F088234AF0EE0FFF1FBB1F661F771F04
:10270000881F91505040A9F79E3F510580F00C94CE
:1027100002160C944D165F3FE4F3983ED4F3869571
:1027200077956795B795F795E7959F5FC1F7FE2B6E
:10273000880F911D9695879597F908958F929F928E
:10274000AF92BF92CF92DF92EF92FF920F931F93BF
:10275000CF93DF9300D000D000D0CDB7DEB76A01B1
:10276000F22EB02E102FFBE3AF2EA01608F41BE3C1
:102770001F5F012F27E0AE014F5F5F4F0E941715CB
:10278000BC018981982F9970913009F44EC09BE269
:10279000E1FC04C09E2D9170E0FC49C05E2D50719B
:1027A000E82FE87083FF55C084E0911101C083E0F9
:1027B000EF2DE81B8F1508F0E0E0D6018E2F20E208
:1027C0005523C9F1992329F0D6019C93C60101969E
:1027D0006C0196012D5F3F4FE2FE33C08EE4D601BF
:1027E0008C9391E411969C93119712968C93D90136
:1027F0008E2F90E281112AC0E20FF32FF11D10827B
:102800008EEF9FEF29960FB6F894DEBF0FBECDBFB7
:10281000DF91CF911F910F91FF90EF90DF90CF90BC
:10282000BF90AF909F908F9008959DE2B7CF90E2B8
:10283000B5CF2D9381508111FCCFCE0ED11CE0E09D
:10284000C1CF8EE6D6018C9391E6CCCF9D9381507B
:10285000D1CF482F447082FF3DC084E0911101C068
:1028600083E08F1510F4EF2DE81BD6018E2F20E2A8
:10287000552309F1992329F0D6019C93C6010196AD
:102880006C0196012D5F3F4FE2FE1BC089E4D6012B
:102890008C938EE411968C93119786E412968C9308
:1028A000D9018E2F90E2882309F4A6CF9D93815001
:1028B000FACF2D9381508111FCCFCE0ED11CE0E0D8
:1028C000D9CF89E6D6018C938EE611968C93119719
:1028D00086E6E4CF9B0177FF02C030E020E0A1E074
:1028E000B0E0911102C0B0E0A0E0F9013196AE0F66
:1028F000BF1F8B2C912CBB2009F461C05401EFEF5A
:10290000AE1ABE0AAA0DBB1DFA161B0619F014F06A
:102910004F2D4A1B511188C0E3FC59C07601A42FEA
:10292000B0E2A1114FC0C40ED11C992309F45BC0C1
:1029300040E0D6011196F60190836D01552309F40C
:1029400048C0012F060F9A81582F507184FF03C091
:10295000913309F4015010160CF047C0093008F00B
:1029600008E0EEE2FE2E5B01A01AB1088501919409
:10297000819491082F3F320729F4D601FC92F60189
:1029800031966F016217730794F1021713077CF5F4
:10299000DB01A21BB30BAA24A394B12CAC0EBD1E69
:1029A000AA0DBB1D11968C9121503109D6011196AB
:1029B00028153905F4F0F60180836D01DBCFB12CC9
:1029C000A12CA0CFF701B1937F01A150AACF911103
:1029D000B0CFD601942F50E302C05D939150911176
:1029E000FCCFC40ED11C40E0ACCF01E0BACF80E3F5
:1029F000DBCF6217730731F4963388F4953311F403
:102A0000552369F0F6018083FD01842F90E2811146
:102A100008C0A40FB11D1C9290E080E0F3CE81E3CA
:102A2000F1CF91938150F3CF911183CF8ACF28308A
:102A300008F027E03327DA01990F311D87FD9160F7
:102A400000966105710539F432602E5F3D9330E3E5
:102A50002A95E1F708959F3F30F0803871056105B0
:102A600009F03C5F3C5F3D93913008F08068911D18
:102A7000DF93CF931F930F93FF92EF92192F987FBD
:102A80009695E92F96959695E90FFF27EB50FE4F07
:102A900099273327EE24FF24A701E7010590089426
:102AA000079428F4360FE71EF81E491F511D660FC4
:102AB000771F881F991F0694A1F70590079428F4A3
:102AC000E70EF81E491F561FC11D770F881F991F5B
:102AD000661F0694A1F70590079428F4F80E491F85
:102AE000561FC71FD11D880F991F661F771F069499
:102AF000A1F70590079420F4490F561FC71FD81F50
:102B0000990F661F771F881F0694A9F78491109567
:102B1000177041F0D695C79557954795F794E79468
:102B20001A95C1F7EBE9F1E068941590159135918C
:102B30006591959105907FE27395E118F10A430B39
:102B4000560BC90BD009C0F7E10CF11E431F561FED
:102B5000C91FD01D7EF4703311F48A95E6CFE89436
:102B6000015030F0080F0AF40027021708F4202F54
:102B70002395022F7A3328F079E37D932A95E9F79C
:102B800010C07D932A9589F6069497956795379599
:102B900017951794E118F10A430B560BC90BD0098E
:102BA00098F023957E9173957A3308F070E37C93C7
:102BB0002013B8F77E9170617D9330F0839571E3B7
:102BC0007D9370E32A95E1F71124EF90FF900F9128
:102BD0001F91CF91DF91992787FD909508959927AF
:102BE00088270895DC01FC01672F71917723E1F7B5
:102BF000329704C07C916D9370836291AE17BF07CA
:102C0000C8F3089597F99F6780E870E060E0089541
:102C10009FEF80EC089500240A94161617061806F4
:102C20000906089500240A941216130614060506D0
:102C30000895092E0394000C11F4882352F0BB0F61
:102C400040F4BF2B11F460FF04C06F5F7F4F8F4FC4
:102C50009F4F089557FD9058440F551F59F05F3FFF
:102C600071F04795880F97FB991F61F09F3F79F0AE
:102C700087950895121613061406551FF2CF469530
:102C8000F1DF08C0161617061806991FF1CF8695B2
:102C90007105610508940895E894BB276627772796
:102CA000CB0197F908950E945E16A59F900DB49FE1
:102CB000900DA49F800D911D11240895A29FB00135
:102CC000B39FC001A39F700D811D1124911DB29F60
:102CD000700D811D1124911D08955058BB27AA27FE
:102CE0000E9485160C9419160E940B1638F00E944B
:102CF000121620F039F49F3F19F426F40C940816AC
:102D00000EF4E095E7FB0C940216E92F0E942A16B8
:102D100058F3BA17620773078407950720F079F410
:102D2000A6F50C944C160EF4E0950B2EBA2FA02DA0
:102D30000B01B90190010C01CA01A0011124FF2768
:102D4000591B99F0593F50F4503E68F11A16F04063
:102D5000A22F232F342F4427585FF3CF4695379562
:102D60002795A795F0405395C9F77EF41F16BA0B27
:102D7000620B730B840BBAF09150A1F0FF0FBB1FD5
:102D8000661F771F881FC2F70EC0BA0F621F731F1E
:102D9000841F48F4879577956795B795F7959E3F7B
:102DA00008F0B0CF9395880F08F09927EE0F97950C
:102DB000879508950E94EE160C9419160E9412161B
:102DC00058F00E940B1640F029F45F3F29F00C9454
:102DD000021651110C944D160C9408160E942A16D6
:102DE00068F39923B1F3552391F3951B550BBB273A
:102DF000AA2762177307840738F09F5F5F4F220F7F
:102E0000331F441FAA1FA9F335D00E2E3AF0E0E875
:102E100032D091505040E695001CCAF72BD0FE2FBF
:102E200029D0660F771F881FBB1F26173707480753
:102E3000AB07B0E809F0BB0B802DBF01FF2793580B
:102E40005F4F3AF09E3F510578F00C9402160C94B7
:102E50004D165F3FE4F3983ED4F3869577956795DA
:102E6000B795F7959F5FC9F7880F911D9695879540
:102E700097F90895E1E0660F771F881FBB1F62175F
:102E800073078407BA0720F0621B730B840BBA0B1D
:102E9000EE1F88F7E09508950E9453176894B111CA
:102EA0000C944D1608950E94321688F09F5798F0A2
:102EB000B92F9927B751B0F0E1F0660F771F881F3F
:102EC000991F1AF0BA95C9F714C0B13091F00E9459
:102ED0004C16B1E008950C944C16672F782F882774
:102EE000B85F39F0B93FCCF3869577956795B39580
:102EF000D9F73EF490958095709561957F4F8F4FEF
:102F00009F4F08950E940D1308F48FEF0895A1E2DA
:102F10001A2EAA1BBB1BFD010DC0AA1FBB1FEE1F53
:102F2000FF1FA217B307E407F50720F0A21BB30B9E
:102F3000E40BF50B661F771F881F991F1A9469F71A
:102F400060957095809590959B01AC01BD01CF0176
:102F50000895EE0FFF1F881F8BBF0790F691E02D9D
:102F600019940F931F93CF93DF938230910510F440
:102F700082E090E0E091E108F091E20830E020E0AA
:102F8000B0E0A0E0309799F42115310509F44AC06A
:102F9000281B390B24303105D8F58A819B816115B6
:102FA000710589F1FB0193838283FE0111C0408189
:102FB00051810281138148175907E0F048175907DA
:102FC00099F4109761F012960C93129713961C9334
:102FD0003296CF01DF91CF911F910F910895009309
:102FE000E1081093E208F4CF2115310551F04217A2
:102FF000530738F0A901DB019A01BD01DF01F80197
:10300000C1CFEF01F9CF9093E2088093E108CDCFD3
:10301000FE01E20FF31F819391932250310939830E
:103020002883D7CF2091DF083091E008232B41F48B
:1030300020910202309103023093E0082093DF08D0
:1030400020910002309101022115310541F42DB784
:103050003EB74091040250910502241B350BE091CC
:10306000DF08F091E008E217F307A0F42E1B3F0BF6
:103070002817390778F0AC014E5F5F4F24173507EA
:1030800048F04E0F5F1F5093E0084093DF08819394
:1030900091939FCFF0E0E0E09CCFCF93DF93009738
:1030A000E9F0FC01329713821282A091E108B091FD
:1030B000E208ED0130E020E01097A1F42081318199
:1030C000820F931F2091DF083091E00828173907FD
:1030D00009F061C0F093E008E093DF08DF91CF9141
:1030E0000895EA01CE17DF07E8F54A815B819E016A
:1030F00041155105B1F7E901FB83EA8349915991E3
:10310000C40FD51FEC17FD0761F4808191810296F1
:10311000840F951FE90199838883828193819B8322
:103120008A83F0E0E0E012968D919C9113970097CE
:10313000B9F52D913C911197CD010296820F931F05
:103140002091DF083091E0082817390739F63097C9
:1031500051F51092E2081092E108B093E008A093B4
:10316000DF08BCCFD383C28340815181840F951F78
:10317000C817D90761F44E5F5F4F88819981480F66
:10318000591F518340838A819B81938382832115B8
:10319000310509F0B0CFF093E208E093E1089ECF4B
:1031A000FD01DC01C0CF13821282D7CF4F925F9214
:1031B0006F927F928F929F92AF92BF92CF92DF9247
:1031C000EF92FF920F931F93CF93DF938C010097A1
:1031D00099F4CB01DF91CF911F910F91FF90EF9068
:1031E000DF90CF90BF90AF909F908F907F906F9027
:1031F0005F904F900C94B117FC01E60FF71F9C01F4
:1032000022503109E217F30708F4AEC0D901CD917D
:10321000DC911197C617D70720F1C530D10578F09A
:10322000CE0104978617970750F0C61BD70B22973D
:10323000C193D1936D937C93CF010E944D18C80127
:10324000DF91CF911F910F91FF90EF90DF90CF9082
:10325000BF90AF909F908F907F906F905F904F90B6
:1032600008955B01AC1ABD0A4C018C0E9D1EA09105
:10327000E108B091E208512C412CF12CE12C10977F
:1032800031F58091DF089091E0088815990509F0E3
:103290005CC04616570608F058C080910002909115
:1032A0000102009741F48DB79EB7409104025091FE
:1032B0000502841B950BE817F90708F055C0F09339
:1032C000E008E093DF08F90171836083B8CF8D9146
:1032D0009C91119712966C90129713967C9013976D
:1032E000A815B90559F56C0142E0C40ED11CCA14E9
:1032F000DB0420F1AC014A195B09DA01129615973B
:1033000080F06282738251834083D9016D937C93F4
:10331000E114F10471F0D7011396FC93EE93129728
:103320008ECF22968C0F9D1FF90191838083F3012C
:10333000EFCFF093E208E093E10881CF48165906F9
:1033400008F42C017D01D3019ACFCB010E94B11763
:103350007C01009749F0AE01B8010E94B719C8017D
:103360000E944D1887016BCF10E000E068CFFB0191
:10337000DC0102C001900D9241505040D8F70895F1
:10338000FB01DC0101900D920020E1F7089511E0AE
:10339000CCEDD1E000E006C0802FFE010E94A9170D
:1033A0002196011DCD3DD10780E00807A9F7F894CB
:1033B000FFCF0000E30880000200030004000500C6
:1033C0000600070008000900120013001400150091
:1033D00016001700180019002500260027002800F5
:1033E0000000000018038202AF026503E002BE0283
:1033F000D2020D0A007B007D004552524F523A2006
:1034000041434B2077617320616C72656164792060
:103410006C6F77200A004552524F523A2041434B7D
:103420002065787069726564004552524F5220647D
:103430006574656374656400436F6E6E65637420C4
:103440006368616E6E656C200020746F207468651F
:103450002042555300446973636F6E6E6563742038
:103460006368616E6E656C20002066726F6D2074FB
:10347000686520425553006368616E6E656C206F0D
:103480007574206F662072616E6765205B312E2E29
:103490002E31365D200A0053544154555320425575
:1034A000533A00627573436F6E3053746174757371
:1034B000206265666F72653A2000627573436F6EB5
:1034C000305374617475732061667465723A2000BC
:1034D000627573436F6E31537461747573206265E6
:1034E000666F72653A2000627573436F6E31537474
:1034F000617475732061667465723A20005374615B
:10350000746520697320616C726561647920636FF2
:10351000727265637400436F6E6E656374206368D6
:10352000616E6E656C0020746F2074686520677230
:103530006F756E6400446973636F6E6E65637420AB
:103540006368616E6E656C002066726F6D207468D2
:10355000652067726F756E64005354415455532053
:10356000474E443A00676E64436F6E305374617423
:103570007573206265666F72653A2000676E6443FA
:103580006F6E305374617475732061667465723A3E
:103590002000676E64436F6E3153746174757320DD
:1035A0006265666F72653A2000676E64436F6E31C4
:1035B0005374617475732061667465723A200053A8
:1035C000657420766F6C7461676520746F2000539A
:1035D0005441545553204441544120534554564F6F
:1035E0004C544147453A00646174613053746174CE
:1035F0007573206265666F72653A2000646174615C
:10360000305374617475732061667465723A20007A
:103610006461746131537461747573206265666F9F
:1036200072653A200064617461315374617475731A
:103630002061667465723A200052454144204F5023
:1036400045524154494F4E004461746170696E7334
:103650002061726520636F6E666967757265642CA0
:10366000206164647265737370696E7320616E6447
:1036700020636172644164647265737350696E7330
:103680002061726520636F6E66696775726564207C
:10369000616E64207772697474656E00526561644E
:1036A0006C696E6520697320736574204C4F5700F8
:1036B00041434B2072656365697665640070696E8D
:1036C0007320617265207265616400526561646C8B
:1036D000696E6520697320726573657420286C6F4C
:1036E000772900526561642066696E697368656454
:0436F000200A0000AC
:020000040003F7
:10E000000D9489F10D94B2F10D94B2F10D94B2F129
:10E010000D94B2F10D94B2F10D94B2F10D94B2F1F0
:10E020000D94B2F10D94B2F10D94B2F10D94B2F1E0
:10E030000D94B2F10D94B2F10D94B2F10D94B2F1D0
:10E040000D94B2F10D94B2F10D94B2F10D94B2F1C0
:10E050000D94B2F10D94B2F10D94B2F10D94B2F1B0
:10E060000D94B2F10D94B2F10D94B2F10D94B2F1A0
:10E070000D94B2F10D94B2F10D94B2F10D94B2F190
:10E080000D94B2F10D94B2F10D94B2F10D94B2F180
:10E090000D94B2F10D94B2F10D94B2F10D94B2F170
:10E0A0000D94B2F10D94B2F10D94B2F10D94B2F160
:10E0B0000D94B2F10D94B2F10D94B2F10D94B2F150
:10E0C0000D94B2F10D94B2F10D94B2F10D94B2F140
:10E0D0000D94B2F10D94B2F10D94B2F10D94B2F130
:10E0E0000D94B2F141546D656761323536300041AF
:10E0F000726475696E6F206578706C6F72657220DE
:10E1000073746B3530305632206279204D4C530099
:10E11000426F6F746C6F616465723E004875683F52
:10E1200000436F6D70696C6564206F6E203D200048
:10E130004350552054797065202020203D20005FF9
:10E140005F4156525F415243485F5F3D2000415658
:10E1500052204C696243205665723D20004743437C
:10E160002056657273696F6E203D20004350552024
:10E1700049442020202020203D20004C6F7720663D
:10E18000757365202020203D20004869676820665F
:10E190007573652020203D200045787420667573D6
:10E1A00065202020203D20004C6F636B2066757336
:10E1B000652020203D20004D617220203720323024
:10E1C000313300312E362E3800342E332E350056A2
:10E1D00023202020414444522020206F7020636F70
:10E1E00064652020202020696E73747275637469E1
:10E1F0006F6E2061646472202020496E74657272B3
:10E20000757074006E6F20766563746F7200726A49
:10E210006D702020006A6D70200057686174207056
:10E220006F72743A00506F7274206E6F7420737541
:10E2300070706F72746564004D7573742062652030
:10E2400061206C6574746572002000577269747483
:10E25000696E672045450052656164696E672045B7
:10E26000450045452065727220636E743D00504F35
:10E27000525400303D5A65726F2061646472003FF1
:10E280003D43505520737461747300403D454550C3
:10E29000524F4D207465737400423D426C696E6B41
:10E2A000204C454400453D44756D70204545505215
:10E2B0004F4D00463D44756D7020464C415348001B
:10E2C000483D48656C70004C3D4C69737420492F83
:10E2D0004F20506F72747300513D51756974005234
:10E2E0003D44756D702052414D00563D73686F7707
:10E2F00020696E7465727275707420566563746FF0
:10E30000727300593D506F727420626C696E6B00BD
:10E310002A0011241FBECFEFD1E2DEBFCDBF01E046
:10E320000CBF12E0A0E0B2E0EEE1FDEF03E00BBFB6
:10E3300002C007900D92A030B107D9F712E0A0E01B
:10E34000B2E001C01D92AE30B107E1F70F9460F367
:10E350000D948DFE01E20EBF0FEF0DBF11241FBE05
:10E360000D9460F30D9400F020E030E040ED57E0B4
:10E3700005C0FA013197F1F72F5F3F4F2817390792
:10E38000C0F308959C01260F311DC901A0E0B0E043
:10E390002F5F3F4FABBFFC018791882361F08093D3
:10E3A000C6008091C00086FFFCCF8091C0008064D1
:10E3B0008093C000EACF08958DE08093C6008091DD
:10E3C000C00086FFFCCF8091C00080648093C000B5
:10E3D0008AE08093C6008091C00086FFFCCF8091C8
:10E3E000C00080648093C00008950F94C2F10F9420
:10E3F000DCF10895FC019081992359F09093C600B7
:10E400008091C00086FFFCCF8091C0008064809323
:10E41000C0003196992379F70895282F982F929567
:10E420009F70892F805D8A3308F0895F8093C600D2
:10E430008091C00086FFFCCF8091C00080648093F3
:10E44000C000822F8F70982F905D9A3308F0995FEB
:10E450009093C6008091C00086FFFCCF8091C000E1
:10E4600080648093C00008959C01FB01853691056E
:10E470001CF46330710594F0C90164E670E00F94F8
:10E480002EFE605D7F4F6093C6008091C00086FFC6
:10E49000FCCF8091C00080648093C0002B30310598
:10E4A00014F43297B4F0C90164E670E00F942EFEC4
:10E4B0006AE070E00F942EFE605D7F4F6093C600AF
:10E4C0008091C00086FFFCCF8091C0008064809363
:10E4D000C000C9016AE070E00F942EFEC0968093E0
:10E4E000C6008091C00086FFFCCF8091C000806490
:10E4F0008093C00008951F93182F8EE692EE60E07F
:10E500000F94C2F11093C6008091C00086FFFCCF2B
:10E510008091C00080648093C0000F94DCF11F9153
:10E5200008952F923F924F925F926F927F928F92B7
:10E530009F92AF92BF92CF92DF92EF92FF920F9392
:10E540001F93DF93CF93CDB7DEB762970FB6F894E2
:10E55000DEBF0FBECDBF382E622ECA01DB015C01CB
:10E560006D01772420E2222E2E010894411C511CBB
:10E570008BC081E0A81680E0B80681E0C80680E084
:10E58000D80628F0C601AA27BB270F940DF2BB2797
:10E59000AD2D9C2D8B2D0F940DF28A2D0F940DF225
:10E5A0002092C6008091C00086FFFCCF8091C00001
:10E5B00080648093C0009DE29093C6008091C0006B
:10E5C00086FFFCCF8091C00080648093C0002092C1
:10E5D000C6008091C00086FFFCCF8091C00080649F
:10E5E0008093C00019828601750188249924A1E0D6
:10E5F0003A1651F03A1620F0B2E03B1661F409C029
:10E600000BBFF701779007C0C7010F9477FE782EF4
:10E6100002C0F7017080872D0F940DF22092C60082
:10E620008091C00086FFFCCF8091C0008064809301
:10E63000C000872D8052F401EF70F0708F3520F408
:10E64000E40DF51D708204C0E40DF51D8EE280839B
:10E650000894E11CF11C011D111D0894811C911CE2
:10E6600090E18916910409F0C2CF80E190E0A0E02A
:10E67000B0E0A80EB91ECA1EDB1E198AC2010F9493
:10E68000FAF10F94DCF16A94662009F072CF629679
:10E690000FB6F894DEBF0FBECDBFCF91DF911F91B3
:10E6A0000F91FF90EF90DF90CF90BF90AF909F9031
:10E6B0008F907F906F905F904F903F902F90089534
:10E6C0002F923F924F925F926F927F928F929F9282
:10E6D000AF92BF92CF92DF92EF92FF920F931F9370
:10E6E000DF93CF93CDB7DEB7CD53D1400FB6F894BB
:10E6F000DEBF0FBECDBF01E20EBF0FEF0DBF94B75F
:10E70000F894A89514BE80916000886180936000A1
:10E7100010926000789493FF05C0E0910002F091A0
:10E7200001021995279A2F9A8091C00082608093E8
:10E73000C00080E18093C40088E18093C1000000A4
:10E74000EE24FF24870144E0A42EB12CCC24DD2448
:10E7500024C0C5010197F1F70894E11CF11C011DCB
:10E76000111D21E2E2162EE4F20620E0020720E06D
:10E77000120718F031E0C32ED12CC801B70127ECE5
:10E780003BE140E050E00F9441FE611571058105C9
:10E79000910519F485B1805885B98091C00087FD35
:10E7A00003C0C114D104A9F2A6014F5F5F4FC25E3E
:10E7B000DE4F59834883CE51D140C25EDE4F8881FF
:10E7C0009981CE51D140019711F00D9410FEC05D9A
:10E7D000DE4F19821882C053D14060E0C15DDE4F28
:10E7E0001882CF52D14088249924C35DDE4F19820C
:10E7F0001882CD52D140C05EDE4F188219821A8233
:10E800001B82C052D140CE5CDE4F188219821A8220
:10E810001B82C253D140EE24FF2487010BBFF701B6
:10E8200007911691C45CDE4F19830883CC53D14005
:10E830000D940BFEC25EDE4F28813981CE51D1404E
:10E840002130310509F52091C600C25EDE4F1982E4
:10E850001882CE51D14022C02F5F3F4F4F4F5F4FA4
:10E86000213082E138078AE7480780E0580780F0C6
:10E87000C45CDE4FE881F981CC53D140EF5FFF4F9C
:10E8800019F0EE27FF27099420E030E040E050E047
:10E890008091C00087FFE0CF2091C600C35DDE4FAE
:10E8A00048815981CD52D1404F5F5F4FC35DDE4FEC
:10E8B00059834883CD52D140213209F063C64A3092
:10E8C000510508F05FC60894811C911C53E0851621
:10E8D000910409F059C600E010E018C081E280936D
:10E8E000C6008091C00086FFFCCF8091C00080648C
:10E8F0008093C0002F5F3F4F2931310579F70F9486
:10E90000DCF10F5F1F4F0530110519F020E030E0FA
:10E91000E5CF10920A0210920B0210920C02109294
:10E920000D02109206021092070210920802109235
:10E930000902109202021092030210920402109235
:10E9400005028FEE90EE60E00F94F5F180E191EE1C
:10E9500060E00F94C2F18091C00087FFFCCF9091DE
:10E96000C600903608F09F759032B8F09093C600BC
:10E970008091C00086FFFCCF8091C00080648093AE
:10E98000C000A0E2A093C6008091C00086FFFCCF2B
:10E990008091C00080648093C000983409F4D7C18E
:10E9A0009934B8F4923409F459C1933458F490333B
:10E9B00019F1903308F4E3C59F33A1F1903409F0C5
:10E9C000DEC5BDC0953409F470C1963409F0D7C5D1
:10E9D00098C1923509F42BC2933538F49C3409F46C
:10E9E000F5C1913509F0CBC518C2963509F445C279
:10E9F000993509F0C4C567C483E792EE62E00F94CD
:10EA0000F5F110920602109207021092080210927D
:10EA1000090210920A0210920B0210920C0210923C
:10EA20000D0213C18FE792EE62E00F94F5F18FEEC5
:10EA300090EE60E00F94F5F181E291EE60E00F94CA
:10EA4000C2F187EB91EE60E00F94F5F180E391EE77
:10EA500060E00F94C2F184EE90EE60E00F94F5F167
:10EA60008FE391EE60E00F94C2F186E090E061E008
:10EA700070E00F9434F20F94DCF18DE591EE60E0DC
:10EA80000F94C2F189EC91EE60E00F94F5F18EE401
:10EA900091EE60E00F94C2F183EC91EE60E00F9490
:10EAA000F5F18CE691EE60E00F94C2F18EE10F94E7
:10EAB0000DF288E90F940DF281E00F940DF20F949E
:10EAC000DCF18BE791EE60E00F94C2F119E0E0E039
:10EAD000F0E010935700E4918E2F0F940DF20F94F5
:10EAE000DCF18AE891EE60E00F94C2F1E3E0F0E03F
:10EAF00010935700E4918E2F0F940DF20F94DCF1D8
:10EB000089E991EE60E00F94C2F1E2E0F0E0109349
:10EB10005700E4918E2F0F940DF20F94DCF188EAE8
:10EB200091EE60E00F94C2F1E1E0F0E01093570045
:10EB30001491812F0F940DF20F94DCF107CF8BE825
:10EB400092EE62E00F94F5F18BE492EE60E00F94A8
:10EB5000F5F10F94DCF100E010E019C0C8016F2D51
:10EB60000F947FFEFF2031F489E492EE60E00F9471
:10EB7000C2F10BC0F092C6008091C00086FFFCCFAE
:10EB80008091C00080648093C0000F5F1F4FC80158
:10EB900081519F41A0E0B0E0ABBFFC01F790BAE229
:10EBA000FB1621F0E2E000301E07C1F60F94DCF105
:10EBB0000F94DCF187E592EE60E00F94F5F10F948D
:10EBC000DCF1CC24DD2400E010E01EC0C8010F946D
:10EBD00077FEF82E882331F489E492EE60E00F94FA
:10EBE000C2F10BC08093C6008091C00086FFFCCFAD
:10EBF0008091C00080648093C000FE1419F00894D6
:10EC0000C11CD11C0F5F1F4FC80181519F41A0E063
:10EC1000B0E0ABBFFC01E790FAE2EF1621F022E092
:10EC20000030120799F60F94DCF10F94DCF182E6C4
:10EC300092EE60E00F94C2F1C60161E070E00F94C3
:10EC400034F20F94DCF10F94DCF110920202109276
:10EC50000302109204021092050278CE89E992EE26
:10EC600062E00F94F5F1279A2F9A16C02F9880E052
:10EC700090E0E0EDF7E03197F1F7019684369105E9
:10EC8000C1F72F9A80E090E0E0EDF7E03197F1F7DF
:10EC9000019684369105C1F78091C00087FFE6CFC9
:10ECA0008091C00087FFFCCF64C485EA92EE62E0E9
:10ECB0000F94F5F140910202509103026091040219
:10ECC0007091050281E020E10F9491F2809102029F
:10ECD00090910302A0910402B091050280509F4FD1
:10ECE000AF4FBF4F8093020290930302A0930402A0
:10ECF000B093050280509041A040B04008F426CE69
:10ED0000A4CF83EB92EE62E00F94F5F140910602FE
:10ED100050910702609108027091090280E020E1A1
:10ED20000F9491F28091060290910702A09108023F
:10ED3000B091090280509F4FAF4FBF4F80930602A2
:10ED400090930702A0930802B0930902FFCD80ECD4
:10ED500092EE62E00F94F5F183E792EE60E00F949B
:10ED6000F5F18FE792EE60E00F94F5F18BE892EE0B
:10ED700060E00F94F5F189E992EE60E00F94F5F10F
:10ED800085EA92EE60E00F94F5F183EB92EE60E09D
:10ED90000F94F5F180EC92EE60E00F94F5F187ECC2
:10EDA00092EE60E00F94F5F188ED92EE60E00F9442
:10EDB000F5F18FED92EE60E00F94F5F18AEE92EEB0
:10EDC00060E00F94F5F183E093EEBDCD87EC92EE19
:10EDD00062E00F94F5F181E40F947BF282E40F94EA
:10EDE0007BF283E40F947BF284E40F947BF285E45E
:10EDF0000F947BF286E40F947BF287E40F947BF20E
:10EE000088E40F947BF28AE40F947BF28BE40F94F6
:10EE10007BF28CE40F947BF299CD88ED92EE62E068
:10EE20000F94F5F1772473948824992409C48FED05
:10EE300092EE62E00F94F5F140910A0250910B02BC
:10EE400060910C0270910D0282E020E10F9491F22A
:10EE500080910A0290910B02A0910C02B0910D02D8
:10EE600080509F4FAF4FBF4F80930A0290930B0289
:10EE7000A0930C02B0930D0269CD8AEE92EE62E08F
:10EE80000F94F5F184EE90EE60E00F94F5F18FECC5
:10EE900091EE60E00F94F5F1662477244301CC5D98
:10EEA000DE4F19821882C452D140D401C301B695F5
:10EEB000A79597958795CA5DDE4F88839983AA8326
:10EEC000BB83C652D140CC5DDE4FA881B981C4520C
:10EED000D1401196CC5DDE4FB983A883C452D14096
:10EEE000CD0162E070E00F9434F2B0E2B093C6005E
:10EEF0008091C00086FFFCCF8091C0008064809329
:10EF0000C000EDE2E093C6008091C00086FFFCCF18
:10EF10008091C00080648093C000F0E2F093C6004E
:10EF20008091C00086FFFCCF8091C00080648093F8
:10EF3000C000CA5DDE4FE880F9800A811B81C6529D
:10EF4000D140BB27A12F902F8F2D0F940DF2CA5DBA
:10EF5000DE4F8881C652D1400F940DF2B0E2FB2EF5
:10EF6000F092C6008091C00086FFFCCF8091C00067
:10EF700080648093C0000DE30093C6008091C000C0
:10EF800086FFFCCF8091C00080648093C00010E2B7
:10EF90001093C6008091C00086FFFCCF8091C00016
:10EFA00080648093C0008BBEF3012791C65DDE4F65
:10EFB0002883CA52D140A22EBB24CC24DD2408943D
:10EFC000611C711C811C911C8BBEF3018791282E42
:10EFD0003324442455240894611C711C811C911C09
:10EFE0008BBEF3013791C55DDE4F3883CB52D140E4
:10EFF0000894611C711C811C911C8BBEF30147910C
:10F00000C45DDE4F4883CC52D140ADEFEA2EAFEF66
:10F01000FA2EAFEF0A2FAFEF1A2F6E0C7F1C801E57
:10F02000911E142D032DF22CEE24EA0CFB1C0C1D5A
:10F030001D1D0F940DF220E22093C6008091C000A8
:10F0400086FFFCCF8091C00080648093C000C65DC5
:10F05000DE4F8881CA52D1400F940DF230E23093D6
:10F06000C6008091C00086FFFCCF8091C000806404
:10F070008093C000C45DDE4F8881CC52D1400F9494
:10F080000DF240E24093C6008091C00086FFFCCFA5
:10F090008091C00080648093C000C55DDE4F888190
:10F0A000CB52D1400F940DF250E25093C6008091A4
:10F0B000C00086FFFCCF8091C00080648093C000B8
:10F0C0008FEFE8168FEFF80680E0080780E018075A
:10F0D00031F484E092EE60E00F94C2F1DFC0D80119
:10F0E000C7018070907CA070B0708050904CA040A0
:10F0F000B040D1F52FEF3FE340E050E0E222F322B1
:10F1000004231523CA5DDE4FA880B980CA80DB8046
:10F11000C652D140AE0CBF1CC01ED11EAA0CBB1CD7
:10F12000CC1CDD1C8EE092EE60E00F94C2F1BB2798
:10F13000A12F902F8F2D0F940DF28E2D0F940DF285
:10F1400030E23093C6008091C00086FFFCCF8091F2
:10F15000C00080648093C0004EE34093C60080915D
:10F16000C00086FFFCCF87C08EE09EEFA0E0B0E03D
:10F17000E822F9220A231B239CE0E91694E9F90608
:10F1800090E0090790E0190709F088C0C45DDE4FE0
:10F19000A881CC52D140EA2EFF2400E010E0102FCD
:10F1A0000F2DFE2CEE24C55DDE4FB881CB52D14031
:10F1B000EB0EF11C011D111DD601C501817090706F
:10F1C000A070B070DC0199278827E80EF91E0A1F8D
:10F1D0001B1F20EF30E040E050E0A222B322C42207
:10F1E000D52241E1AA0CBB1CCC1CDD1C4A95D1F7F1
:10F1F000EA0CFB1C0C1D1D1D81E090E0A0E0B0E0BE
:10F20000282239224A225B2235E1220C331C441C7D
:10F21000551C3A95D1F7E20CF31C041D151D57013E
:10F220006801AA0CBB1CCC1CDD1C85E192EE60E0E1
:10F230000F94C2F1C801AA27BB270F940DF2BB2778
:10F24000A12F902F8F2D0F940DF28E2D0F940DF274
:10F2500090E29093C6008091C00086FFFCCF809121
:10F26000C00080648093C000AEE3A093C60080918C
:10F27000C00086FFFCCF8091C00080648093C000F6
:10F28000C601AA27BB270F940DF2BB27AD2D9C2DDD
:10F290008B2D0F940DF28A2D0F940DF20F94DCF14B
:10F2A000CC5DDE4FE881F981C452D140F99709F471
:10F2B0004DCBF4E0EF2EF12C012D112D6E0C7F1CA7
:10F2C000801E911EF2CD83E093EE62E00F94F5F183
:10F2D0008AE192EE60E00F94C2F18091C00087FF56
:10F2E000FCCF1091C6001F751093C6008091C0001E
:10F2F00086FFFCCF8091C00080648093C0000F9493
:10F30000DCF1812F81548A3108F036C1163409F4BA
:10F3100095C0173490F4133409F44EC0143430F40B
:10F320001134F1F0123409F01DC130C0143409F465
:10F3300059C0153409F016C16BC01A3409F4C4C0A1
:10F340001B3438F4173409F48FC0183409F00AC19B
:10F35000A1C01B3409F4D2C01C3409F003C1E8C0B9
:10F360008FEF81B90DC082B1809582B980E090E0C5
:10F37000E0EDF7E03197F1F70196883C9105C1F790
:10F380008091C00087FFEFCF12B8EFC08FEF84B934
:10F390000DC085B1809585B980E090E0E0EDF7E0A3
:10F3A0003197F1F70196883C9105C1F78091C00033
:10F3B00087FFEFCF15B8D9C08FEF87B90DC088B1DF
:10F3C000809588B980E090E0E0EDF7E03197F1F7C3
:10F3D0000196883C9105C1F78091C00087FFEFCF6F
:10F3E00018B8C3C08FEF8AB90DC08BB180958BB9A7
:10F3F00080E090E0E0EDF7E03197F1F70196883C8E
:10F400009105C1F78091C00087FFEFCF1BB8ADC059
:10F410008FEF8DB90DC08EB180958EB980E090E0F0
:10F42000E0EDF7E03197F1F70196883C9105C1F7DF
:10F430008091C00087FFEFCF1EB897C08FEF80BBD1
:10F440000DC081B3809581BB80E090E0E0EDF7E0F6
:10F450003197F1F70196883C9105C1F78091C00082
:10F4600087FFEFCF11BA81C08FEF83BB0DC084B38C
:10F47000809584BB80E090E0E0EDF7E03197F1F714
:10F480000196883C9105C1F78091C00087FFEFCFBE
:10F4900014BA6BC08FEF809301010FC080910201FD
:10F4A00080958093020180E090E0E0EDF7E03197F5
:10F4B000F1F70196883C9105C1F78091C00087FF64
:10F4C000EDCF1092020151C08FEF809304010FC065
:10F4D0008091050180958093050180E090E0E0ED4A
:10F4E000F7E03197F1F70196883C9105C1F78091DB
:10F4F000C00087FFEDCF1092050137C08FEF8093DA
:10F5000007010FC08091080180958093080180E079
:10F5100090E0E0EDF7E03197F1F70196883C910536
:10F52000C1F78091C00087FFEDCF109208011DC088
:10F530008FEF80930A010FC080910B01809580931B
:10F540000B0180E090E0E0EDF7E03197F1F70196F4
:10F55000883C9105C1F78091C00087FFEDCF1092E4
:10F560000B0103C085E292EEEEC98091C00087FFD7
:10F57000FCCF8091C600EAC988E392EEE4C98CE131
:10F5800091EEE1C988249924933011F1943028F444
:10F59000913089F09230B8F408C0953061F195301F
:10F5A000F0F0963009F048C043C02B3109F042C951
:10F5B00091E06BE13FC96227C15DDE4F2883CF52E6
:10F5C000D14092E037C9B22FA0E0622793E032C960
:10F5D000822F90E0A82BB92B622794E02BC92E3004
:10F5E00009F039C3622795E0C05DDE4F19821882A9
:10F5F000C053D1401FC9E1E0F0E0EC0FFD1FC05D3A
:10F60000DE4F08811981C053D140E00FF11F2083E4
:10F610000F5F1F4FC05DDE4F19830883C053D14079
:10F6200062270A171B0709F005C9D80196E002C92D
:10F63000261709F010C303C0973009F0FBC87724E0
:10F640009981933109F412C19431C8F4963009F4C8
:10F65000D8C0973050F4923009F406C1933009F4C1
:10F660006DC0913009F059C253C0913109F477C08F
:10F67000923108F0BBC0903109F04FC2F5C098310B
:10F6800009F487C0993150F4953109F4EFC09531F0
:10F6900008F4C6C1963109F040C2C2C19A3109F4DA
:10F6A0006CC09A3108F491C09B3109F45BC09D3164
:10F6B00009F033C29D81903359F48F81882311F46E
:10F6C0009EE11CC0813011F091E018C098E916C08D
:10F6D000892F807591F0903539F4E0E0F0E089E011
:10F6E0008093570094910AC0983539F4E3E0F0E034
:10F6F00089E080935700949101C090E01A821B82A8
:10F700008D818C831D829E831F8227E030E009C299
:10F710001A8288E08B8381E48C8386E58D8382E581
:10F720008E8389E48F8383E5888780E589878FE5E9
:10F730008A8782E38B872BE030E0F3C18A818139AD
:10F7400041F0823941F0803911F48FE005C080E04A
:10F7500003C082E001C08AE01A828B8344C0772410
:10F76000739482C08D81882311F48EE12CC0813086
:10F7700011F081E028C088E926C01A82E1E0F0E0BB
:10F7800089E08093570084918B831C8224E030E0D1
:10F79000C8C18B81803589F48C81883039F4E2E0EE
:10F7A000F0E089E08093570084910DC0E0E0F0E044
:10F7B00089E080935700849106C0E3E0F0E089E09F
:10F7C0008093570084911A82DFCF8D81836C99E0FA
:10F7D000E1E0F0E0082E90935700E89507B600FCB2
:10F7E000FDCF1A821B8223E030E09BC180EC8A832C
:10F7F000CE5CDE4F188219821A821B82C253D1401E
:10F800008EC18A8190E0A0E0B0E0582F44273327D2
:10F8100022278B8190E0A0E0B0E0DC0199278827C7
:10F82000282B392B4A2B5B2B8D8190E0A0E0B0E098
:10F83000282B392B4A2B5B2B8C8190E0A0E0B0E089
:10F84000BA2FA92F982F8827282B392B4A2B5B2BCF
:10F85000220F331F441F551FC05EDE4F288339839C
:10F860004A835B83C052D1401A8259C13A81C95C34
:10F87000DE4F3883C753D140CA5CDE4F1882C6536F
:10F88000D1408B81C82EDD24CA5CDE4F488159816E
:10F89000C653D140C42AD52A933109F082C0CE5C28
:10F8A000DE4F88819981AA81BB81C253D1408050AB
:10F8B000904CA340B04030F583E0CE5CDE4FE88052
:10F8C000F9800A811B81C253D140F70100935B008C
:10F8D00080935700E89507B600FCFDCFCE5CDE4F65
:10F8E000088119812A813B81C253D14000501F4FAA
:10F8F0002F4F3F4FCE5CDE4F088319832A833B8313
:10F90000C253D140C05EDE4F488159816A817B81FC
:10F91000C052D140DE011B9631E08C9111962C91A2
:10F9200011971296C75CDE4F2883C953D140C85C3B
:10F93000DE4F1882C853D14090E0C85CDE4FE881AA
:10F94000F981C853D1408E2B9F2B0C01FA01609393
:10F950005B0030935700E89511244E5F5F4F6F4F67
:10F960007F4F0EEFE02E0FEFF02ECE0CDF1CC114F8
:10F97000D10499F685E0C05EDE4F088119812A81A5
:10F980003B81C052D140F80120935B008093570027
:10F99000E89507B600FCFDCF81E180935700E8951C
:10F9A00035C0C05EDE4F88819981AA81BB81C0527B
:10F9B000D140B695A795979587957C018601ABE0D8
:10F9C000AA2EB12CAC0EBD1E0BC0D5016D915D01F0
:10F9D000C7010F947FFE0894E11CF11C01501040F8
:10F9E0000115110591F7A60160E070E0440F551F65
:10F9F000661F771FC05EDE4FE880F9800A811B8199
:10FA0000C052D1404E0D5F1D601F711F1A82C05E33
:10FA1000DE4F488359836A837B83C052D1407FC0C5
:10FA2000FA80C55CDE4FF882CB53D140C65CDE4F16
:10FA30001882CA53D1408B81C82EDD24C65CDE4FAC
:10FA400008811981CA53D140C02AD12A1A828981DA
:10FA5000BE016D5F7F4F843121F59601C05EDE4FA0
:10FA6000E880F9800A811B81C052D1400BBFF701A9
:10FA700087919691DB018C9311969C936E5F7F4FDB
:10FA8000D801C7010296A11DB11DC05EDE4F88835B
:10FA90009983AA83BB83C052D14022503040F1F6F3
:10FAA00036C0C05EDE4F288139814A815B81C052F9
:10FAB000D1400894C108D108760100E010E0089414
:10FAC000C11CD11C0894E11CF11C011D111DE20E8A
:10FAD000F31E041F151F21BDBB27A52F942F832FB5
:10FAE00082BD2F5F3F4F4F4F5F4FF89A80B5DB01CC
:10FAF0008D93BD012E153F054007510761F7C05E8C
:10FB0000DE4F288339834A835B83C052D1409601FC
:10FB10002D5F3F4FFB01108204C080EC8A8322E0FE
:10FB200030E08BE18093C6008091C00086FFFCCF5F
:10FB30008091C00080648093C000C15DDE4FF88179
:10FB4000CF52D140F093C6008091C00086FFFCCF19
:10FB50008091C00080648093C000432F3093C60022
:10FB60008091C00086FFFCCF8091C00080648093AC
:10FB7000C000922F2093C6008091C00086FFFCCF6A
:10FB80008091C00080648093C0008EE08093C600A6
:10FB90008091C00086FFFCCF8091C000806480937C
:10FBA000C00065E1C15DDE4FE880CF52D1406E25D7
:10FBB00069276427FE01319610C090819093C6009A
:10FBC0008091C00086FFFCCF31968091C000806498
:10FBD0008093C0006927215030402115310569F715
:10FBE0006093C6008091C00086FFFCCF8091C0006A
:10FBF00080648093C00085B1805885B9772081F4F6
:10FC0000C15DDE4F0881CF52D1400F5FC15DDE4F35
:10FC10000883CF52D14090E0A0E0B0E00D941AF4F8
:10FC200027982F9880E090E020ED37E0F901319798
:10FC3000F1F7019684369105C9F700008091C00064
:10FC40008D7F8093C00081E180935700E895EE2777
:10FC5000FF270994FFCF90E00D941AF497FB092E2B
:10FC600007260AD077FD04D02ED006D000201AF443
:10FC7000709561957F4F0895F6F7909581959F4F08
:10FC80000895A1E21A2EAA1BBB1BFD010DC0AA1FDD
:10FC9000BB1FEE1FFF1FA217B307E407F50720F0F5
:10FCA000A21BB30BE40BF50B661F771F881F991F70
:10FCB0001A9469F760957095809590959B01AC01B9
:10FCC000BD01CF010895AA1BBB1B51E107C0AA1FAC
:10FCD000BB1FA617B70710F0A61BB70B881F991FED
:10FCE0005A95A9F780959095BC01CD010895F99991
:10FCF000FECF92BD81BDF89A992780B50895262F31
:10FD0000F999FECF1FBA92BD81BD20BD0FB6F89400
:0EFD1000FA9AF99A0FBE01960895F894FFCF63
:00000001FF
