:100000000C9439010C946A010C946A010C946A01F5
:100010000C946A010C946A010C946A010C946A01B4
:100020000C946A010C946A010C946A010C946A01A4
:100030000C946A010C946A010C946A010C946A0194
:100040000C946A010C946A010C946A010C946A0184
:100050000C946A010C946A010C946A010C944D058D
:100060000C946A010C9417050C94ED040C946A012D
:100070000C946A010C946A010C946A010C946A0154
:100080000C946A010C946A010C946A010C946A0144
:100090000C946A010C946A010C946A010C946A0134
:1000A0000C946A010C946A010C946A010C946A0124
:1000B0000C946A010C946A010C946A010C946A0114
:1000C0000C946A010C946A010C946A010C946A0104
:1000D0000C946A010C946A010C946A010C946A01F4
:1000E0000C946A010C94FE020C94BA010C94E9027F
:1000F0000C94DF020C9420030C94E5020C94FB0397
:100100000C94C9010C9470020C9423020C94080303
:100110000C9416030C948D010C94FA020C94EB01D0
:100120000C940C040C941A030C9404030C94ED022C
:100130000C9424030C94F4020C940C030C94DD0135
:100140000C941F030C9497050C94F1020C94120369
:1001500000002100240027002A002D003000330079
:1001600001010000040107010A010000220025002E
:1001700028002B002E003100340002010000050190
:1001800008010B01000020002300260029002C009C
:100190002F003200000100000301060109010505DE
:1001A0000505070508080808020202020A0A0808ED
:1001B000040404040101010101010101030303031B
:1001C00003030303040707070C0C0C0C0C0C0C0CAA
:1001D0000202020206060606060606060B0B0B0BBB
:1001E0000B0B0B0B010210202008081020401020E0
:1001F00040800201020108040201010204081020EB
:1002000040808040201008040201800402018040E8
:100210002010080402010804020101020408102051
:100220004080010204081020408000000A0B0209EF
:100230000C0D0E0807030401000000000000000080
:1002400000000000000000000000000000000000AE
:10025000000000000000121110000000000000006B
:10026000000000000000000000000000000000008E
:10027000970511241FBECFEFD1E2DEBFCDBF00E056
:100280000CBF27E0A6EDB3E001C01D92A934B20770
:10029000E1F713E0A0E0B2E0E6E2F3E100E00BBF3B
:1002A00002C007900D92A63DB107D9F711E0C9E34E
:1002B000D1E000E006C021970109802FFE010E94D5
:1002C0008909C833D10780E00807A9F70E940C0606
:1002D0000C9491090C940000AC011092920490913E
:1002E000E2068091E106FA01BF01641B750B2091C3
:1002F0009204308130939204931304C0921302C08D
:10030000109292043081311104C0921721F0CB0178
:1003100008953817D1F33196E7CFAF92BF92CF92BD
:10032000DF92EF92FF920F931F93CF93DF936C01B5
:100330007B018B01040F151FEB015E01AE18BF0896
:10034000C017D10759F06991D601ED91FC91019048
:10035000F081E02DC6011995892B79F7C501DF9150
:10036000CF911F910F91FF90EF90DF90CF90BF90B2
:10037000AF900895FC01538D448D252F30E0842FDC
:1003800090E0821B930B541710F0CF9608950197BD
:100390000895FC01918D828D981761F0A28DAE0FAA
:1003A000BF2FB11D5D968C91928D9F5F9F73928F31
:1003B00090E008958FEF9FEF0895FC01918D828D5D
:1003C000981731F0828DE80FF11D858D90E008952A
:1003D0008FEF9FEF0895FC01918D228D892F90E082
:1003E000805C9F4F821B91098F739927089580EF3E
:1003F00093E00E94EB0121E0892B09F420E0822F99
:100400000895FC01A48DA80FB92FB11DA35ABF4FA9
:100410002C91848D90E001968F739927848FA68903
:10042000B7892C93A089B1898C91837080648C9357
:10043000938D848D981306C00288F389E02D808106
:100440008F7D80830895EF92FF920F931F93CF9338
:10045000DF93EC0181E0888F9B8D8C8D98131AC0FF
:10046000E889F989808185FF15C09FB7F894EE89E6
:10047000FF896083E889F989808183708064808343
:100480009FBF81E090E0DF91CF911F910F91FF908E
:10049000EF900895F62E0B8D10E00F5F1F4F0F7336
:1004A0001127E02E8C8D8E110CC00FB607FCFACFF1
:1004B000E889F989808185FFF5CFCE010E9401028C
:1004C000F1CFEB8DEC0FFD2FF11DE35AFF4FF082C2
:1004D0009FB7F8940B8FEA89FB8980818062CFCF28
:1004E000CF93DF93EC01888D8823B9F0AA89BB896B
:1004F000E889F9898C9185FD03C0808186FD0DC056
:100500000FB607FCF7CF8C9185FFF2CF808185FF76
:10051000EDCFCE010E940102E9CFDF91CF91089586
:1005200080E090E0892B29F00E94F70181110E9460
:10053000000080E090E0892B49F080E090E0892B7A
:1005400029F00E94000081110E94000080E090E0EC
:10055000892B49F080E090E0892B29F00E9400006F
:1005600081110E94000080E090E0892B49F080E03A
:1005700090E0892B29F00E94000081110C9400006A
:1005800008958150823108F05AC0E82FF0E08827A2
:10059000E353FD4F8F4F0C948909ED02F102DF0206
:1005A000E502E9021F03F402FA02FE020403080353
:1005B0000C03120316031F031A0320032403809164
:1005C00080008F77809380000895809180008F7DD8
:1005D000F9CF80918000877FF5CF84B58F7784BD78
:1005E000089584B58F7DFBCF8091B0008F77809385
:1005F000B00008958091B0008F7DF9CF8091900078
:100600008F77809390000895809190008F7DF9CF2F
:1006100080919000877FF5CF8091A0008F778093A5
:10062000A00008958091A0008F7DF9CF8091A00057
:10063000877FF5CF809120018F77809320010895E7
:10064000809120018F7DF9CF80912001877FF5CFA8
:10065000CF93DF93282F30E0F901E65DFD4F8491C1
:10066000F901EC51FE4FD491F901E256FE4FC491CD
:10067000CC23A1F081110E94C102EC2FF0E0EE0F1B
:10068000FF1FEC57FE4FA591B491EC91ED2381E053
:1006900090E009F480E0DF91CF91089580E090E050
:1006A000FACF1F93CF93DF93282F30E0F901E65D57
:1006B000FD4F8491F901EC51FE4FD491F901E256BE
:1006C000FE4FC491CC23A9F0162F81110E94C102C4
:1006D000EC2FF0E0EE0FFF1FE659FE4FA591B4910D
:1006E0008FB7F894EC91111108C0D095DE23DC93FC
:1006F0008FBFDF91CF911F910895DE2BF8CFCF935D
:10070000DF9390E0FC01EC51FE4F249182569E4F06
:10071000FC0184918823C9F090E0880F991FFC01A7
:10072000E05BFE4FA591B491FC01E659FE4FC591E7
:10073000D49161110DC09FB7F8948C9120958223BC
:100740008C938881282328839FBFDF91CF910895C0
:10075000623051F49FB7F8943C91822F80958323A7
:100760008C93E8812E2BEFCF8FB7F894EC912E2B42
:100770002C938FBFEACF3FB7F8948091D703909125
:10078000D803A091D903B091DA0326B5A89B05C080
:100790002F3F19F00196A11DB11D3FBFBA2FA92F00
:1007A000982F8827BC01CD01620F711D811D911DFD
:1007B00042E0660F771F881F991F4A95D1F7089569
:1007C000FC0101900020E9F73197AF01481B590B5C
:1007D000BC0180EF93E00C948D01CF93DF930E94D6
:1007E000E003EC018AE392E00E94E0038C0F9D1F7E
:1007F000DF91CF9108958DE392E00E94ED03809107
:10080000EB0391E089278093EB0361E0811101C044
:1008100060E08EE00C94510388E492E00E94ED03C6
:1008200081E692E00E94ED038CE692E00E94ED03E7
:100830008EE792E00E94ED038DE892E00E94ED03C6
:1008400089E992E00E94ED038CEA92E00E94ED03B8
:100850008CEB92E00E94ED038CEC92E00C94ED03A3
:10086000AF92BF92CF92DF92EF92FF920F931F93BE
:10087000CF93DF93CDB7DEB7CDB6DEB6FB01EE0F7B
:10088000FF1F2DB73EB72E1B3F0B0FB6F8943EBF90
:100890000FBE2DBF2F5F3F4F7901D90130E020E01F
:1008A0001D921D922F5F3F4F62177307C9F7EE0D20
:1008B000FF1D3E2F2F2F1416150644F4BA01617048
:1008C00077277293629355954795F5CF032F122F93
:1008D0005C0102501109F5018081F2E0AF0EB11CFC
:1008E000F80160810E9451030E151F0591F70FB6A4
:1008F000F894DEBE0FBECDBEDF91CF911F910F9158
:10090000FF90EF90DF90CF90BF90AF900895CF927F
:10091000DF92EF92FF920F931F93CF93DF938C019F
:100920006B017A018CE10E942803019761F08CED44
:1009300092E0DF91CF911F910F91FF90EF90DF90A8
:10094000CF900C94ED03C0E0D2E08881229661E064
:100950000E947F0382E0C031D807B9F7A60168E0A2
:1009600070E080E092E00E943004A70164E070E053
:1009700080E292E00E943004A80168E070E080E12B
:1009800092E00E94300460E083E30E945103C4E6D9
:10099000D0E08CE10E942803892B51F02197C9F700
:1009A00061E083E30E94510389EF92E00E94ED032E
:1009B00061E083E30E9451038DE10E9428030197C7
:1009C00019F08CE093E0B5CFDF91CF911F910F919B
:1009D000FF90EF90DF90CF9008951F920F920FB687
:1009E0000F9211240BB60F922F933F934F935F9367
:1009F0006F937F938F939F93AF93BF93EF93FF93E7
:100A000080EF93E00E940102FF91EF91BF91AF91BF
:100A10009F918F917F916F915F914F913F912F9116
:100A20000F900BBE0F900FBE0F901F9018951F9246
:100A30000F920FB60F9211240BB60F922F938F9334
:100A40009F93EF93FF93E0910004F0910104808164
:100A5000E0910604F091070482FD1DC09081809111
:100A600009048F5F8F7320910A04821741F0E0918F
:100A70000904F0E0E051FC4F958F80930904FF9149
:100A8000EF919F918F912F910F900BBE0F900FBE02
:100A90000F901F9018958081F2CF1F920F920FB682
:100AA0000F9211242F933F938F939F93AF93BF93F4
:100AB0008091EC039091ED03A091EE03B091EF03D0
:100AC0003091D60323E0230F2D3758F50196A11D51
:100AD000B11D2093D6038093EC039093ED03A09374
:100AE000EE03B093EF038091D7039091D803A091C8
:100AF000D903B091DA030196A11DB11D8093D703EC
:100B00009093D803A093D903B093DA03BF91AF9128
:100B10009F918F913F912F910F900FBE0F901F903B
:100B2000189526E8230F0296A11DB11DD2CF109271
:100B3000F3031092F20388EE93E0A0E0B0E080931C
:100B4000F4039093F503A093F603B093F7038CE2BC
:100B500092E09093F1038093F00385EC90E0909302
:100B6000FD038093FC0384EC90E09093FF0380935B
:100B7000FE0380EC90E0909301048093000481ECEC
:100B800090E0909303048093020482EC90E09093B1
:100B900005048093040486EC90E09093070480930E
:100BA00006041092090410920A0410920B04109289
:100BB0000C041092E4061092E30680EF93E0909309
:100BC000DF068093DE06109295048CE28093E106A6
:100BD0008BE38093E0068FE28093E20680E48093CB
:100BE00090048FE38093910410928F041092DA06A0
:100BF0001092D9061092DC061092DB0681E08093F9
:100C0000D706E5EEF6E01192119287E0E934F80795
:100C1000D1F7109294040895CF93DF93CDB7DEB748
:100C2000789484B5826084BD84B5816084BD85B5C7
:100C3000826085BD85B5816085BD80916E008160D3
:100C400080936E0010928100809181008260809379
:100C5000810080918100816080938100809180007B
:100C60008160809380008091B10084608093B100A6
:100C70008091B00081608093B0008091910082608B
:100C80008093910080919100816080939100809188
:100C900090008160809390008091A1008260809399
:100CA000A1008091A10081608093A1008091A000AB
:100CB00081608093A0008091210182608093210156
:100CC00080912101816080932101809120018160C8
:100CD0008093200180917A00846080937A008091D3
:100CE0007A00826080937A0080917A00816080939C
:100CF0007A0080917A00806880937A001092C10017
:100D0000E0910004F091010482E08083E091FC0313
:100D1000F091FD031082E091FE03F091FF0380E16A
:100D2000808310920804E0910404F091050486E0A9
:100D30008083E0910204F0910304808180618083CC
:100D4000E0910204F0910304808188608083E09147
:100D50000204F0910304808180688083E0910204A2
:100D6000F091030480818F7D808381E080939504DE
:100D700070E1E72E72E0F72E00E212E0D7018C91CD
:100D8000B2E0EB0EF11C61E00E947F030E151F051F
:100D9000A9F761E083E30E947F0361E084E30E949E
:100DA0007F0361E085E30E947F0361E083E30E94AB
:100DB000510361E084E30E94510361E085E30E94F6
:100DC000510362E08CE10E947F0362E08DE10E94AA
:100DD0007F0360E084E40E947F0360E083E40E947C
:100DE0007F0361E085E20E947F0361E086E20E946A
:100DF0007F0361E087E20E947F0361E088E20E9456
:100E00007F0380E890E09093EA038093E9031092D7
:100E1000E8031092E7031092E6031092E5031092A4
:100E2000E4031092E3031092E2031092E1031092A4
:100E3000E0031092DF031092DE031092DD031092A4
:100E4000DC031092DB0350E040E070E060E086E0FD
:100E500090E00E9487046091E9037091EA0350E0FA
:100E600040E087E090E00E9487046091E703709182
:100E7000E80350E040E085E090E00E948704609144
:100E8000DD037091DE0350E040E090E080E00E94DE
:100E900087046091E5037091E60350E040E081E053
:100EA00090E00E9487046091E3037091E40350E0B6
:100EB00040E082E090E00E9487046091E10370913D
:100EC000E20350E040E083E090E00E9487046091FC
:100ED000DF037091E00350E040E084E090E00E9486
:100EE00087046091DB037091DC0350E040E089E00F
:100EF00090E00E9487048BE193E00E94ED038CE177
:100F00000E942803019709F412C18CED92E00E941F
:100F1000ED030E94BB036B017C010E94BB036C19B3
:100F20007D098E099F09683E734081059105A8F3EC
:100F30008CE094E09093E4068093E3068BEF93E0DB
:100F40009093E6068093E5069093E8068093E70683
:100F50009093EA068093E9069093EC068093EB0663
:100F60009093EE068093ED069093F0068093EF0643
:100F70009093F2068093F1069093F4068093F30623
:100F800081E08093EB0361E08EE00E94510342E038
:100F9000A42EBB24B3948091940481118AC18091C2
:100FA000DE069091DF06DC01ED91FC910084F18575
:100FB000E02D1995892B09F47CC18091DE06909172
:100FC000DF06DC01ED91FC910084F185E02D19959F
:100FD000612C32E0732E8115924064F48091DE061C
:100FE0009091DF06DC01ED91FC910084F185E02D0C
:100FF00019953C010091DE061091DF0626EDE22EE8
:1010000024E0F22E6701912C812C6814790409F0F8
:10101000FAC010E000E06016710609F4BCCFD701F9
:101020009D917D011092D6063091E20620919304A5
:1010300090939304931304C0921302C010929304EC
:1010400080918F04E82FF0E04091E006E357FB4FDA
:10105000941311C1321709F40EC11186882321F0AF
:10106000B092D6061092930410928F041092DA0672
:101070001092D9061092DC061092DB06B092D706C9
:101080008091D606813009F011C1A092D6068091D8
:10109000D706882349F196E9892E94E0992E6401B8
:1010A000C4010E946C01892B39F4BFEF8B1A9B0A93
:1010B000F60180818111F3CFD6018C91882309F448
:1010C000E4C0C6010E946C01F601E80FF91F80819F
:1010D000882311F010823196F093DC06E093DB0652
:1010E000D092DA06C092D9068091D9069091DA069C
:1010F000009709F0CDC01092D80690E080E0809370
:101100008E04823308F0CBC02091D806222309F444
:10111000C6C0FC01FF27EE0FFF1FEB51F94F0190F6
:10112000F081E02D309709F4BAC01995BFC060E096
:10113000E62E62E0F62E8701F80180810E5F1F4FD8
:1011400060E00E947F03F2E000311F07A9F750E042
:1011500040E064E070E080E292E00E94300448E009
:1011600050E068E070E080E192E00E94300460E0CE
:1011700084E30E9451038AE293E00E94ED038EE72C
:1011800093E00E94ED0304E610E08CE10E94280346
:10119000892B79F582E993E00E94ED0350E1C52E99
:1011A00052E0D52E22E0C21AD108D6018C910E94BD
:1011B0002803EC14FD04B1F70FB6F894DEBF0FBEA0
:1011C000CDBF8FE993E00E94ED0361E084E30E94CC
:1011D00051038DEA93E00E94ED038DE10E94280304
:1011E000019721F08CE093E00E94ED0385EC93E001
:1011F0008ECE0150110949F661E084E30E9451034B
:1012000089EF92E0C9CF2FB7F8948091EC039091C9
:10121000ED03A091EE03B091EF032FBFF80180879B
:101220009187A287B387D801ED91FC910284F38561
:10123000E02DC801199597FF3FC02FB7F894809112
:10124000EC039091ED03A091EE03B091EF032FBF5B
:10125000F8014085518562857385841B950BA60B2B
:10126000B70B448155816681778184179507A6075E
:10127000B707C8F2CECE91878F5F80938F0490918D
:101280009104891708F0F0CEFBCED12CC12C28CFC9
:10129000B092D706B092D8060E94630930CFE09191
:1012A000E306F091E406309709F03FCF0F5F1F4F40
:1012B000B2CE0E9490026FCEF60181936F01FFEFD4
:1012C0008F1A9F0AA2CEFC0188279927E8942191C2
:1012D0002032E9F3293010F02E30C8F32B3241F0E0
:1012E0002D3239F4689404C00E948109820F911D47
:1012F000219120532A30C0F31EF4909581959F4F81
:1013000008957AE0979F902D879F802D910D11244D
:101310000895EE0FFF1F881F8BBF0790F691E02DF9
:061320001994F894FFCFC0
:10132600020003000400050006000700080009008B
:1013360012001300140015001600170018001900FB
:1013460025002600270028000000000023028D014A
:10135600BA017002EB01C901DD010D0A00546F6785
:10136600676C65204C6564005468697320636F6D13
:101376006D616E6420697320756E6B6E6F776E217A
:1013860000546F67676C65204C454400436F6E6E72
:1013960065637420746F2047726F756E6400436FC7
:1013A6006E6E65637420746F204275730050757499
:1013B60020566F6C74616765004368616E676520CF
:1013C600426F6172646E756D626572004765742066
:1013D600426F6172646E756D626572004D65617310
:1013E6007572652043757272656E74004D65617322
:1013F60075726520566F6C74616765004552524F71
:10140600523A2041434B2077617320616C726561CB
:101416006479206C6F77200A004552524F523A2069
:1014260041434B2065787069726564004552524F9E
:1014360052206465746563746564005245414420B6
:101446004F5045524154494F4E0044617461706992
:101456006E732061726520636F6E6669677572656B
:10146600642C206164647265737370696E732061A5
:101476006E6420636172644164647265737350695B
:101486006E732061726520636F6E6669677572653B
:101496006420616E64207772697474656E005265AB
:1014A60061646C696E6520697320736574204C4FA6
:1014B600570041434B207265636569766564007029
:1014C600696E7320617265207265616400526561A0
:1014D600646C696E65206973207265736574202873
:1014E6006C6F772900526561642066696E6973685E
:0614F6006564200A0000FD
:00000001FF
