:100000000C94DD010C940E020C940E020C940E0262
:100010000C940E020C940E020C940E020C940E0220
:100020000C940E020C940E020C940E020C940E0210
:100030000C940E020C940E020C940E020C940E0200
:100040000C940E020C940E020C940E020C940E02F0
:100050000C940E020C940E020C940E020C94930D50
:100060000C940E020C945D0D0C94330D0C940E0246
:100070000C940E020C940E020C940E020C940E02C0
:100080000C940E020C940E020C940E020C940E02B0
:100090000C940E020C940E020C940E020C940E02A0
:1000A0000C940E020C940E020C940E020C940E0290
:1000B0000C940E020C940E020C940E020C940E0280
:1000C0000C940E020C940E020C940E020C940E0270
:1000D0000C940E020C940E020C940E020C940E0260
:1000E0000C940E020C9455040C941B040C94DD0D1E
:1000F0000C9423040C9427040C9413030C94B00266
:100100000C943A040C9442040C9473050C943E0431
:100110000C941F040C94BF020C945A040C946605B2
:100120000C945D080C9434040C94BF090C942A04BC
:100130000C9450040C9415040C9483020C94210329
:100140000C9456040C94A6030C9459030C940711B8
:100150000C944C040C9448040C9430040C94210B23
:100160004E414E494E495459494E46CDCCCC3D0A9C
:10017000D7233C17B7D13877CC2B329595E6241F7F
:10018000B14F0A000020410000C84200401C462038
:10019000BCBE4CCA1B0E5AAEC59D7400407A10F30B
:1001A0005A00A0724E18090010A5D4E80000E876A5
:1001B00048170000E40B54020000CA9A3B000000FC
:1001C000E1F505000080969800000040420F000015
:1001D00000A08601000000102700000000E80300D6
:1001E0000000006400000000000A000000000001A0
:1001F00000000000002C76D888DC674F0823DFC1A0
:10020000DFAE59E1B1B796E5E3E453C63AE651995A
:100210007696E8E6C28426EB898C9B62ED407C6F83
:10022000FCEFBC9C9F40F2BAA56FA5F490055A2A3A
:10023000F75C936B6CF9676DC11BFCE0E40D47FE46
:10024000F520E6B500D0ED902E030094357705003B
:1002500080841E080000204E0A000000C80C3333C2
:1002600033330F986E12831141EF8D2114893BE6D1
:100270005516CFFEE6DB18D1844B381BF77C1D905A
:100280001DA4BBE424203284725E228100C9F124C3
:10029000ECA1E53D2700002100240027002A002DC5
:1002A000003000330001010000040107010A0100D1
:1002B000002200250028002B002E0031003400020F
:1002C000010000050108010B0100002000230026A9
:1002D0000029002C002F003200000100000301065D
:1002E00001090105050505070508080808020202BD
:1002F000020A0A08080404040401010101010101C1
:10030000010303030303030303040707070C0C0C97
:100310000C0C0C0C0C02020202060606060606066F
:10032000060B0B0B0B0B0B0B0B010210202008080C
:100330001020401020408002010201080402010147
:100340000204081020408080402010080402018030
:100350000402018040201008040201080402010187
:100360000204081020408001020408102040800090
:10037000000A0B02090C0D0E08070304010000001F
:10038000000000000000000000000000000000006D
:10039000000000000000000000000012111000002A
:1003A000000000000000000000000000000000004D
:1003B000000000000000DD0D071111241FBECFEF6B
:1003C000D1E2DEBFCDBF00E00CBF28E0AEE4B5E077
:1003D00001C01D92AF3EB207E1F715E0A0E0B2E028
:1003E000E2E0F4E300E00BBF02C007900D92AE34F0
:1003F000B107D9F711E0CCEDD1E000E006C02197BC
:100400000109802FFE010E94D117CB3DD10780E06A
:100410000807A9F70E94570E0C94EF190C940000DE
:10042000AC01109232069091820880918108FA0105
:10043000BF01641B750B2091320630813093320668
:10044000931304C0921302C010923206308131110E
:1004500004C0921721F0CB0108953817D1F33196DB
:10046000E7CF0F931F93CF93DF9380917608882374
:1004700009F446C0D0E0C0E0813029F482E08093E6
:100480007608C6E3D6E080917708882341F120976B
:1004900021F4C0917B08D0917C088E01CE010E948E
:1004A0001002892B29F42196F80180818111F5CF62
:1004B000F8018081882309F1C8010E941002F80127
:1004C000E80FF91F8081882311F010823196F09394
:1004D0007C08E0937B0810937A0800937908809158
:1004E000790890917A08892B59F081E080937708F8
:1004F000DF91CF911F910F91089510E000E0EBCFB5
:1005000080E0F6CF0895AF92BF92CF92DF92EF9244
:10051000FF920F931F93CF93DF936C017B018B01AD
:10052000040F151FEB015E01AE18BF08C017D107FD
:1005300059F06991D601ED91FC910190F081E02D87
:10054000C6011995892B79F7C501DF91CF911F91CC
:100550000F91FF90EF90DF90CF90BF90AF900895F4
:10056000FC01538D448D252F30E0842F90E0821BB9
:10057000930B541710F0CF96089501970895FC013E
:10058000918D828D981761F0A28DAE0FBF2FB11D96
:100590005D968C91928D9F5F9F73928F90E00895EE
:1005A0008FEF9FEF08952FB7F89480918605909173
:1005B0008705A0918805B09189052FBF8093980584
:1005C00090939905A0939A05B0939B0580E995E0D7
:1005D0000E94BF0297FF26C02FB7F894809186052E
:1005E00090918705A0918805B09189052FBF409112
:1005F00098055091990560919A0570919B05841B0F
:10060000950BA60BB70B4091940550919505609101
:1006100096057091970584179507A607B707B0F25E
:100620008FEF9FEF0895FC01918D828D981731F027
:10063000828DE80FF11D858D90E008958FEF9FEF7B
:100640000895FC01918D228D892F90E0805C9F4F51
:10065000821B91098F739927089580E995E00E9484
:10066000210321E0892B09F420E0822F0895FC0169
:10067000A48DA80FB92FB11DA35ABF4F2C91848D03
:1006800090E001968F739927848FA689B7892C9360
:10069000A089B1898C91837080648C93938D848DB3
:1006A000981306C00288F389E02D80818F7D8083B6
:1006B0000895EF92FF920F931F93CF93DF93EC0176
:1006C00081E0888F9B8D8C8D98131AC0E889F989F9
:1006D000808185FF15C09FB7F894EE89FF896083FC
:1006E000E889F98980818370806480839FBF81E07D
:1006F00090E0DF91CF911F910F91FF90EF900895BF
:10070000F62E0B8D10E00F5F1F4F0F731127E02E99
:100710008C8D8E110CC00FB607FCFACFE889F989D1
:10072000808185FFF5CFCE010E943703F1CFEB8D9D
:10073000EC0FFD2FF11DE35AFF4FF0829FB7F894A5
:100740000B8FEA89FB8980818062CFCFCF93DF93C3
:10075000EC01888D8823B9F0AA89BB89E889F989D9
:100760008C9185FD03C0808186FD0DC00FB607FC0E
:10077000F7CF8C9185FFF2CF808185FFEDCFCE0141
:100780000E943703E9CFDF91CF91089580E090E098
:10079000892B29F00E942D0381110E94000080E026
:1007A00090E0892B49F080E090E0892B29F00E94AD
:1007B000000081110E94000080E090E0892B49F048
:1007C00080E090E0892B29F00E94000081110E94B6
:1007D000000080E090E0892B49F080E090E0892BD8
:1007E00029F00E94000081110C94000008958150AE
:1007F000823108F05AC0E82FF0E08827ED5FFB4F08
:100800008F4F0C94D1172304270415041B041F04D5
:1008100055042A04300434043A043E0442044804D3
:100820004C045504500456045A04809180008F777C
:10083000809380000895809180008F7DF9CF809112
:100840008000877FF5CF84B58F7784BD089584B508
:100850008F7DFBCF8091B0008F778093B00008959B
:100860008091B0008F7DF9CF809190008F77809339
:1008700090000895809190008F7DF9CF8091900035
:10088000877FF5CF8091A0008F778093A000089597
:100890008091A0008F7DF9CF8091A000877FF5CF58
:1008A000809120018F77809320010895809120010D
:1008B0008F7DF9CF80912001877FF5CFCF93DF9394
:1008C000282F30E0F901E159FC4F8491F901E75DEF
:1008D000FC4FD491F901ED51FD4FC491CC23A1F00F
:1008E00081110E94F703EC2FF0E0EE0FFF1FE7539A
:1008F000FD4FA591B491EC91ED2381E090E009F4D6
:1009000080E0DF91CF91089580E090E0FACF1F93CF
:10091000CF93DF93282F30E0F901E159FC4F849108
:10092000F901E75DFC4FD491F901ED51FD4FC49100
:10093000CC23A9F0162F81110E94F703EC2FF0E0D1
:10094000EE0FFF1FE155FD4FA591B4918FB7F894BD
:10095000EC91111108C0D095DE23DC938FBFDF919D
:10096000CF911F910895DE2BF8CFCF93DF9390E0C6
:10097000FC01E75DFC4F24918D519D4FFC0184915A
:100980008823C9F090E0880F991FFC01EB56FD4FBA
:10099000A591B491FC01E155FD4FC591D491611130
:1009A0000DC09FB7F8948C91209582238C938881F9
:1009B000282328839FBFDF91CF910895623051F49F
:1009C0009FB7F8943C91822F809583238C93E88184
:1009D0002E2BEFCF8FB7F894EC912E2B2C938FBF4B
:1009E000EACF3FB7F89480914F0590915005A091C0
:1009F0005105B091520526B5A89B05C02F3F19F0AF
:100A00000196A11DB11D3FBFBA2FA92F982F88278E
:100A1000BC01CD01620F711D811D911D42E0660F69
:100A2000771F881F991F4A95D1F708958F929F923B
:100A3000AF92BF92CF92DF92EF92FF926B017C0157
:100A40000E94F1044B015C01C114D104E104F104E2
:100A5000B9F00E94F104681979098A099B09683E76
:100A600073408105910580F321E0C21AD108E108A5
:100A7000F10888EE880E83E0981EA11CB11CE4CF1B
:100A8000FF90EF90DF90CF90BF90AF909F908F90AE
:100A9000089530E020E0FC0111921192CF012F5F08
:100AA0003F4F62177307B9F70895FA01EE0FFF1F62
:100AB000E60FF71F1816190644F49C01217033271E
:100AC0003293229395958795F5CF0895809185056A
:100AD00091E089278093850561E0811101C060E084
:100AE0008EE00C9487040E9466056EEE72E080E052
:100AF00090E00E9416050C946605FC010190002010
:100B0000E9F73197AF01481B590BBC0180E995E02B
:100B10000C94830280E492E00C947D05CF93DF93E4
:100B2000FC01448155816081718180E995E00E94DA
:100B30008302EC010E948A058C0F9D1FDF91CF91EB
:100B40000895CF93DF930E947D05EC010E948A05F2
:100B50008C0F9D1FDF91CF9108950C947D054F92CE
:100B60005F926F927F92AF92BF92CF92DF92EF929D
:100B7000FF920F931F93CF93DF93CDB7DEB7A1976B
:100B80000FB6F894DEBF0FBECDBF7C0183E492E0C8
:100B90000E94AD058701570180E1A80EB11C8AE0D3
:100BA000482E512C612C712CF801C190D1908F01ED
:100BB0000D2C000CEE08FF08F7FE41C06DE280E945
:100BC00095E00E94590322273327A9012C193D09DA
:100BD0004E095F0919A2CE0181967C01CA01B901B3
:100BE000A30192010E94AF17605DF70162937F013C
:100BF000211531054105510589F7E114F10419F07A
:100C0000C7010E947D05A016B10671F685E492E049
:100C10000E94A105A1960FB6F894DEBF0FBECDBF0E
:100C2000DF91CF911F910F91FF90EF90DF90CF90C8
:100C3000BF90AF907F906F905F904F900895A70105
:100C4000960119A2CE0181967C01CA01B901A301C6
:100C500092010E94AF17605DF70162937F01211539
:100C600031054105510589F7C8CF0E94310288231B
:100C700059F081E080937708809378088091790813
:100C800090917A080C9487121092780890E080E096
:100C90000895CF93DF93EC0180918A0590918B05A5
:100CA0000097E9F06881798161157105B1F0409193
:100CB0008C0550918D052C813D814217530768F0BA
:100CC0000E94E8198C819D8190938F0580938E05F9
:100CD0001D821C82DF91CF9108950E947518888132
:100CE000998190938B0580938A058A819B8190934B
:100CF0008D0580938C058C819D8190938F058093C9
:100D00008E05198218821B821A82E2CFCF93DF935D
:100D1000EC0188819981009711F00E947518198261
:100D200018821D821C821B821A82DF91CF91089546
:100D3000FC0180819181009711F00C947518089541
:100D40006F927F928F929F92AF92BF92CF92DF92DB
:100D5000EF92FF920F931F93CF93DF93CDB7DEB740
:100D60003C018B014A01ADB6BEB67B01EE0CFF1C07
:100D70008DB79EB78E199F090FB6F8949EBF0FBE10
:100D80008DBFEDB7FEB731966F01CF010E944905C7
:100D9000A801B601C4010E945505EC0CFD1C83019D
:100DA000F2E0EF1AF108F80180810E5F1F4FF701A2
:100DB00060810E948704EC14FD0491F70FB6F8944B
:100DC000BEBE0FBEADBEDF91CF911F910F91FF90C0
:100DD000EF90DF90CF90BF90AF909F908F907F90DB
:100DE0006F900895CF92DF92EF92FF920F931F932F
:100DF000CF93DF938C016B017A018CE10E945E043A
:100E0000019761F087E492E0DF91CF911F910F91FC
:100E1000FF90EF90DF90CF900C94A105C6E0D2E058
:100E20008881229661E00E94B50482E0C631D8072D
:100E3000B9F7A60168E070E086E092E00E94A006A3
:100E4000A70164E070E086E292E00E94A006A8019B
:100E500068E070E086E192E00E94A00660E083E333
:100E60000E948704C4E6D0E08CE10E945E04892BD6
:100E700051F02197C9F761E083E30E94870484E67B
:100E800092E00E94A10561E083E30E9487048DE166
:100E90000E945E04019719F087E792E0B5CFDF91D9
:100EA000CF911F910F91FF90EF90DF90CF90089519
:100EB0000F931F93CF93DF93EC0188819981009763
:100EC00059F02A813B812617370730F081E0DF9106
:100ED000CF911F910F9108958B016F5F7F4F0E94FB
:100EE000FE18009759F0998388831B830A832C810D
:100EF0003D81232B59F7FC011082E8CF80E0E7CF3A
:100F0000EF92FF920F931F93CF93DF93EC017B013E
:100F1000198218821B821A821D821C82FB01019099
:100F20000020E9F731978F01061B170BB8010E94CB
:100F30005807811109C0CE01DF91CF911F910F9108
:100F4000FF90EF900C9486061D830C83B701888177
:100F50009981DF91CF911F910F91FF90EF900C94A9
:100F6000E819EF92FF920F931F93CF93DF938C01B9
:100F70007B01EB0109900020E9F72197C61BD70BF5
:100F8000BE010E945807811109C0C801DF91CF91AD
:100F90001F910F91FF90EF900C948606F801D58376
:100FA000C483B70180819181DF91CF911F910F910F
:100FB000FF90EF900C94E8190F931F93CF93DF935A
:100FC000CDB7DEB762970FB6F894DEBF0FBECDBFC8
:100FD0008C01CB01F80111821082138212821582DA
:100FE00014824AE0BE016F5F7F4F0E94C612BE01AD
:100FF0006F5F7F4FC8010E94B10762960FB6F894E9
:10100000DEBF0FBECDBFDF91CF911F910F9108952D
:10101000EF92FF920F931F93CF93DF9361157105AA
:1010200041F480E0DF91CF911F910F91FF90EF90FD
:10103000089541155105B1F07B01EC010C811D8132
:10104000040F151FB8010E945807882351F3288107
:1010500039818C819D81B701820F931F0E94E8190D
:101060001D830C8381E0DECFCF93DF93EC01FB0186
:1010700001900020E9F73197AF01461B570B0E9402
:101080000808811103C0CE010E948606CE01DF91BF
:10109000CF910895CF93DF93EC01FB0144815581FB
:1010A000608171810E940808811103C0CE010E94F5
:1010B0008606CE01DF91CF9108956F927F928F9235
:1010C0009F92AF92BF92CF92DF92EF92FF920F93D7
:1010D0001F93CF93DF93CDB7DEB766970FB6F89423
:1010E000DEBF0FBECDBF66246394712C0E94310217
:1010F000882309F42FC10E9435068C010E94350611
:101100007C01B801CE010196E114F10481F10E9445
:10111000DC0766E872E0CE0141960E948007BE01BE
:101120006F5F7F4FCE0141960E944A0867E972E0E7
:101130000E9434080E948E05CE0141960E949806B6
:10114000CE0101960E949806C80101978031910551
:1011500000F521E0E114F10409F420E0FC01EB5872
:10116000FA4F308132131AC08BE493E014C00E940E
:10117000DC0763EA72E0CE0141960E948007BE015F
:101180006F5F7F4FCE0141960E944A0867EB72E085
:10119000CFCF85EC92E00E94A105A8CF2083A0903C
:1011A0005D05B0905E0580905B0590905C05EF2832
:1011B00009F0BFC0093011050CF0ACC0730102C0CA
:1011C000EE0CFF1C8A95E2F7E094F094EA20FB20F5
:1011D0008401CC24C394D12C0CC0730102C0EE0C4A
:1011E000FF1C8A95E2F7EA28FB28840195E0C92EC6
:1011F000D12C85EE92E00E94A10581EF92E00E9441
:10120000AD0568E070E0CE0101960E94490548E016
:1012100050E0BE016F5F7F4FC5010E945505CE01B2
:1012200001960E94AF0588E093E00E94AD0568E05A
:1012300070E0CE0101960E94490548E050E0BE01F1
:101240006F5F7F4FC7010E945505CE0101960E9436
:10125000AF058EE193E00E94AD0568E070E0CE013D
:1012600001960E94490548E050E0BE016F5F7F4F44
:10127000C4010E945505CE0101960E94AF0585E389
:1012800093E00E94AD0568E070E0CE0101960E94F7
:10129000490548E050E0BE016F5F7F4FC8010E94E2
:1012A0005505CE0101960E94AF050E948A058091E6
:1012B0005D0590915E05E816F90691F0F0925E05E5
:1012C000E0925D0550E040E0B70181E090E00E94CF
:1012D000F206B6010D2C000C880B990B0E94160526
:1012E00080915B0590915C050817190709F4FECE03
:1012F00010935C0500935B0550E040E0B80182E08C
:1013000090E00E94F206B601DD0C880B990B0E945A
:101310001605ECCE09501109C30102C0880F991FB0
:101320000A95E2F78C0100951095082119217501A5
:1013300050CF093011050CF450CF09501109C301E9
:1013400002C0880F991F0A95E2F78C010829192914
:1013500075014CCF66960FB6F894DEBF0FBECDBFB9
:10136000DF91CF911F910F91FF90EF90DF90CF9081
:10137000BF90AF909F908F907F906F9008956F92E5
:101380007F928F929F92AF92BF92CF92DF92EF9215
:10139000FF920F931F93CF93DF93CDB7DEB766977E
:1013A0000FB6F894DEBF0FBECDBF66246394712CD8
:1013B0000E943102882309F42FC10E9435068C0156
:1013C0000E9435067C01B801CE010196E114F104BA
:1013D00081F10E94DC0764E673E0CE0141960E9431
:1013E0008007BE016F5F7F4FCE0141960E944A0881
:1013F00064E773E00E9434080E948E05CE01419696
:101400000E949806CE0101960E949806C801019795
:101410008031910500F521E0E114F10409F420E0A8
:10142000FC01EB59FA4F308132131AC08BE493E080
:1014300014C00E94DC0763E873E0CE0141960E946D
:101440008007BE016F5F7F4FCE0141960E944A0820
:1014500066E973E0CFCF85EC92E00E94A105A8CFAA
:101460002083A0905905B0905A0580905705909020
:101470005805EF2809F0BFC0093011050CF0ACC0C9
:10148000730102C0EE0CFF1C8A95E2F7E094F09421
:10149000EA20FB208401CC24C394D12C0CC073011E
:1014A00002C0EE0CFF1C8A95E2F7EA28FB288401B3
:1014B00095E0C92ED12C87EA93E00E94A10583EB29
:1014C00093E00E94AD0568E070E0CE0101960E94B5
:1014D000490548E050E0BE016F5F7F4FC5010E94A3
:1014E0005505CE0101960E94AF058AEC93E00E945B
:1014F000AD0568E070E0CE0101960E94490548E024
:1015000050E0BE016F5F7F4FC7010E945505CE01BD
:1015100001960E94AF0580EE93E00E94AD0568E061
:1015200070E0CE0101960E94490548E050E0BE01FE
:101530006F5F7F4FC4010E945505CE0101960E9446
:10154000AF0587EF93E00E94AD0568E070E0CE0143
:1015500001960E94490548E050E0BE016F5F7F4F51
:10156000C8010E945505CE0101960E94AF050E9458
:101570008A058091590590915A05E816F90691F06F
:10158000F0925A05E092590550E040E0B70183E03F
:1015900090E00E94F206B6010D2C000C880B990B0E
:1015A0000E94160580915705909158050817190754
:1015B00009F4FECE109358050093570550E040E023
:1015C000B80184E090E00E94F206B601DD0C880BC1
:1015D000990B0E941605ECCE09501109C30102C0F7
:1015E000880F991F0A95E2F78C0100951095082144
:1015F0001921750150CF093011050CF450CF095055
:101600001109C30102C0880F991F0A95E2F78C01E6
:101610000829192975014CCF66960FB6F894DEBFDC
:101620000FBECDBFDF91CF911F910F91FF90EF9033
:10163000DF90CF90BF90AF909F908F907F906F90F2
:101640000895AF92BF92CF92DF92EF92FF920F93E5
:101650001F93CF93DF93CDB7DEB7A7970FB6F8945C
:10166000DEBF0FBECDBF61E08EE00E94870468EC54
:1016700070E080E090E00E94160560E08EE00E943D
:10168000870468EC70E080E090E00E94160561E05D
:101690008EE00E94870468EC70E080E090E00E9499
:1016A000160560E08EE00E94870468EC70E080E040
:1016B00090E00E94160561E08EE00E94870468ECCD
:1016C00070E080E090E00E94160560E08EE00E94ED
:1016D000870468EC70E080E090E00E94160561E00D
:1016E0008EE00E94870464EF71E080E090E00E9449
:1016F000160560E08EE00E94870464EF71E080E0F0
:1017000090E00E94160561E08EE00E94870464EF7D
:1017100071E080E090E00E94160560E08EE00E949B
:10172000870464EF71E080E090E00E94160561E0BC
:101730008EE00E94870464EF71E080E090E00E94F8
:10174000160560E08EE00E94870464EF71E080E09F
:1017500090E00E94160561E08EE00E94870468EC2C
:1017600070E080E090E00E94160560E08EE00E944C
:10177000870468EC70E080E090E00E94160561E06C
:101780008EE00E94870468EC70E080E090E00E94A8
:10179000160560E08EE00E94870468EC70E080E04F
:1017A00090E00E94160561E08EE00E94870468ECDC
:1017B00070E080E090E00E94160560E08EE00E94FC
:1017C000870468EC70E080E090E00E9416050E94BB
:1017D0003102882309F40AC10E943102882379F179
:1017E00081E0809377088093780870E060E08091D2
:1017F000790890917A080E9429116B017C0110E010
:1018000000E0C701B6010E94741706171707E4F439
:1018100061E08EE00E94870464EF71E080E090E078
:101820000E94160560E08EE00E94870464EF71E07C
:1018300080E090E00E9416050F5F1F4FE2CF1092EC
:101840007808C12CD12C76011BA21AA21DA21CA2C1
:101850001FA21EA28E010F5F1F4F22E044E0C701AE
:10186000B6010E940B11009709F4D1C0BC01CE0152
:1018700082960E94B1076DE074E0CE0101960E944D
:101880008007BE016E5D7F4FCE0101960E944A081F
:101890000E948E05CE0101960E949806CE01829686
:1018A0000E949806A0906305B090640500916105C0
:1018B0001091620520E030E040E450E4C701B60139
:1018C0000E94021720E030E040E251E40E949616A8
:1018D0006B017C0120E030E040EA51E40E94AA174D
:1018E00087FD9AC08FEF90E0909364058093630525
:1018F0009093620580936105E0906105F090620528
:10190000C0906305D09064058DE194E00E94A1052C
:1019100085E394E00E94AD0568E070E0CE01019699
:101920000E94490548E050E0BE016F5F7F4FC5014E
:101930000E945505CE0101960E94AF058AE494E00D
:101940000E94AD0568E070E0CE0101960E94490555
:1019500048E050E0BE016F5F7F4FC6010E94550511
:10196000CE0101960E94AF058EE594E00E94AD0580
:1019700068E070E0CE0101960E94490548E050E021
:10198000BE016F5F7F4FC8010E945505CE010196D1
:101990000E94AF0583E794E00E94AD0568E070E027
:1019A000CE0101960E94490548E050E0BE016F5FFC
:1019B0007F4FC7010E945505CE0101960E94AF05D9
:1019C0000E948A05609163057091640550E040E0D3
:1019D00086E090E00E94F2066091610570916205D8
:1019E00050E040E087E090E00E94F206A7960FB634
:1019F000F894DEBF0FBECDBFDF91CF911F910F9145
:101A0000FF90EF90DF90CF90BF90AF900895CE0100
:101A100082960E9486062FCF20E030E0A901C70100
:101A2000B6010E94F31218164CF010926405109241
:101A3000630510926205109261055ECF20E03CECD8
:101A40004CE455E4C701B6010E9459130E947B176C
:101A50009B013327309364052093630570936105E0
:101A60001092620549CF1F920F920FB60F92112468
:101A70000BB60F922F933F934F935F936F937F9388
:101A80008F939F93AF93BF93EF93FF9380E995E07C
:101A90000E943703FF91EF91BF91AF919F918F917A
:101AA0007F916F915F914F913F912F910F900BBE5E
:101AB0000F900FBE0F901F9018951F920F920FB6A8
:101AC0000F9211240BB60F922F938F939F93EF9346
:101AD000FF93E091A005F091A1058081E091A6051A
:101AE000F091A70582FD1DC090818091A9058F5FAF
:101AF0008F732091AA05821741F0E091A905F0E0CB
:101B0000E057FA4F958F8093A905FF91EF919F9130
:101B10008F912F910F900BBE0F900FBE0F901F90C3
:101B200018958081F2CF1F920F920FB60F92112459
:101B30002F933F938F939F93AF93BF93809186058D
:101B400090918705A0918805B091890530914E0547
:101B500023E0230F2D3758F50196A11DB11D2093C9
:101B60004E058093860590938705A0938805B093D2
:101B7000890580914F0590915005A0915105B09134
:101B800052050196A11DB11D80934F0590935005FC
:101B9000A0935105B0935205BF91AF919F918F9142
:101BA0003F912F910F900FBE0F901F90189526E830
:101BB000230F0296A11DB11DD2CF10929305109252
:101BC000920588EE93E0A0E0B0E0809394059093B6
:101BD0009505A0939605B093970582E392E09093C4
:101BE00091058093900585EC90E090939D058093FE
:101BF0009C0584EC90E090939F0580939E0580EC7B
:101C000090E09093A1058093A00581EC90E09093E3
:101C1000A3058093A20582EC90E09093A5058093A4
:101C2000A40586EC90E09093A7058093A6051092FA
:101C3000A9051092AA051092AB051092AC0510925E
:101C400084081092830880E995E090937F08809340
:101C50007E08109235068CE2809381088BE3809396
:101C600080088FE28093820880E4809330068FE3BF
:101C70008093310610922F0610927A0810927908FC
:101C800010927C0810927B0881E080937708E5E849
:101C9000F8E01192119288E0E93EF807D1F710922E
:101CA000340662E472E08AE895E00C948007CF93F2
:101CB000DF9300D000D01F921F92CDB7DEB778948B
:101CC00084B5826084BD84B5816084BD85B5826041
:101CD00085BD85B5816085BD80916E0081608093F2
:101CE0006E0010928100809181008260809381005B
:101CF000809181008160809381008091800081606B
:101D0000809380008091B10084608093B1008091C5
:101D1000B00081608093B0008091910082608093D8
:101D2000910080919100816080939100809190005A
:101D30008160809390008091A10082608093A100D7
:101D40008091A10081608093A1008091A0008160BA
:101D50008093A00080912101826080932101809175
:101D60002101816080932101809120018160809315
:101D7000200180917A00846080937A0080917A00BB
:101D8000826080937A0080917A00816080937A00EB
:101D900080917A00806880937A001092C100E0916F
:101DA000A005F091A10582E08083E0919C05F0916F
:101DB0009D051082E0919E05F0919F0580E1808352
:101DC0001092A805E091A405F091A50586E0808316
:101DD000E091A205F091A305808180618083E0916C
:101DE000A205F091A305808188608083E091A2051F
:101DF000F091A305808180688083E091A205F09135
:101E0000A30580818F7D808381E08093350606E184
:101E100012E0F80180810E5F1F4F61E00E94B5045F
:101E2000F2E006321F07A9F761E083E30E94B504E0
:101E300061E084E30E94B50461E085E30E94B5049B
:101E400061E083E30E94870461E084E30E948704E9
:101E500061E085E30E94870462E08CE10E94B504A2
:101E600062E08DE10E94B50460E084E40E94B50464
:101E700060E083E40E94B50461E085E20E94B5045D
:101E800061E086E20E94B50461E087E20E94B50449
:101E900061E088E20E94B504109264051092630527
:101EA00080E890E090936205809361051092600550
:101EB00010925F0510925E0510925D0510925C0510
:101EC00010925B0510925A05109259051092580510
:101ED0001092570510925605109255051092540510
:101EE0001092530550E040E070E060E086E090E042
:101EF0000E94F206609161057091620550E040E039
:101F000087E090E00E94F20660915F0570916005A5
:101F100050E040E085E090E00E94F20660915505B7
:101F20007091560550E040E090E080E00E94F2069B
:101F300060915D0570915E0550E040E081E090E0C9
:101F40000E94F20660915B0570915C0550E040E0F4
:101F500082E090E00E94F2066091590570915A0566
:101F600050E040E083E090E00E94F2066091570567
:101F70007091580550E040E084E090E00E94F20645
:101F8000609153057091540550E040E089E090E085
:101F90000E94F20687E894E00E94A1058CE10E946D
:101FA0005E04019709F468C087E492E00E94A105ED
:101FB00061E070E080E090E00E94160583E795E024
:101FC000909386088093850886E695E0909388082C
:101FD0008093870821E23BE030938A0820938908A8
:101FE0002FEB39E030938C0820938B082DE538E0F7
:101FF00030938E0820938D089093900880938F08DB
:1020000090939208809391089093940880939308FA
:10201000909396088093950881E08093850561E010
:102020008EE00E948704E5E7F5E0A5E6B5E085E8E7
:1020300095E011921D928E179F07D9F780E995E0E0
:102040000E942103181619060CF0D5C062E472E054
:10205000CE0101960E9480070E94D30297FD76C0B0
:102060008F83188641E050E0BE01695F7F4FCE014B
:1020700001960E940808F0CF26E1E22E22E0F22E1F
:1020800006E012E0F80180810E5F1F4F60E00E94C1
:10209000B504E016F106B1F750E040E064E070E00E
:1020A00086E292E00E94A00648E050E068E070E01E
:1020B00086E192E00E94A00660E084E30E9487042B
:1020C00086E994E00E94A1058AEE94E00E94A105B1
:1020D00004E610E08CE10E945E04892B69F58EEF26
:1020E00094E00E94A10506E112E002501109F801F6
:1020F00080810E945E04F2E006301F07B1F70FB640
:10210000F894DEBF0FBECDBF8BE095E00E94A10525
:1021100061E084E30E94870489E195E00E94A105C3
:102120008DE10E945E04019721F087E792E00E9412
:10213000A10581E395E03ACF0150110959F661E01C
:1021400084E30E94870484E692E0CBCFCE0101961F
:102150000E944906CE0101960E949806E0908E05E5
:10216000F0908F0584E0C82ED12C84E0E816F104AD
:1021700020F4670194E0E92EF12C62E472E0CE01D4
:1021800001960E94800700918E0510918F05C01660
:10219000D10608F5E016F10608F48701E0918A05FA
:1021A000F0918B05E00FF11FF080108260918A059D
:1021B00070918B056C0D7D1DCE0101966115710529
:1021C00019F10E94B10780918A0590918B05080F43
:1021D000191FF801F082CE0101960E944906CE0136
:1021E00001960E94980681E495E00E94AD058AE878
:1021F00095E00E948E0564EF71E080E090E00E941F
:1022000016050E94C6031ACF0E948606DCCF8AE814
:1022100095E00C949806EF920F931F93CF93DF9362
:10222000E80134E047FD34E1042E000C550B57FF64
:1022300003C0519541955109E32E022F242FAE0181
:102240000E94C613CE01DF91CF911F910F91EF90A5
:1022500008958F929F92AF92BF92CF92DF92EF92AA
:10226000FF920F931F93CF93DF935C017B01611566
:10227000710519F0DB018D939C9385010F5F1F4F52
:10228000F501D0818D2F90E00E94A5126C01892B61
:10229000B9F5DD32B9F50F5F1F4FD5011196DC910D
:1022A000C1E05801F1E0AF1AB10843E050E068E640
:1022B00071E0C5010E94AE12892B69F5680182E0C8
:1022C000C80ED11C45E050E063E671E0C6010E94F3
:1022D000AE12892B21F4680197E0C90ED11CE114DC
:1022E000F10419F0D701CD92DC9260E070E080E853
:1022F0009FEFC111FFC060E070E080E89FE7FAC087
:102300005801BBCFDB3229F485010E5F1F4FF50169
:10231000D181C0E0C6CF43E050E060E671E0C50186
:102320000E94AE12892BE9F0F80110E000E020E0F5
:1023300030E0A9015F01B0ED8B2E8D0E89E088158C
:10234000C8F19C2E689491F88C2F8870C2FF16C03B
:10235000811102C00F5F1F4F3196D501DC91C92D4D
:10236000E9CFE114F10429F00E5F1F4FF70111834B
:10237000008360E070E080EC9FE7BCC0882311F030
:1023800001501109A5E0B0E00E947B169B01AC0151
:10239000220F331F441F551F280D311D411D511D94
:1023A000283999E93907490799E15907A8F2C66020
:1023B0009C2ED2CFAEEF8A1206C0C3FD3CC09C2E2D
:1023C000689493F8C9CFDF7DD534A9F580818D322B
:1023D00039F4C061DF011296818162E070E006C0CD
:1023E000DF018B32C1F3119661E070E080535D0133
:1023F000A61AB70A8A30F8F4E0E8CE16ECE0DE065A
:102400005CF4B601660F771F660F771FC60ED71EE6
:10241000CC0CDD1CC80ED11C5D01FFEFAF1ABF0A4A
:102420008C9180538A30A8F1C4FF03C0D194C19429
:10243000D1080C0D1D1DC1FF09C0E114F10431F0DC
:1024400081E0A81AB108D701AD92BC92CA01B901C6
:102450000E94F812C370C33009F490584B015C011C
:1024600020E030E0A9010E94F312882309F440C063
:10247000C7E9D1E017FF05C0119501951109CFE714
:10248000D1E06E01B8E1CB1AD10880E2E82EF12C40
:102490000FC0D501B1CFFE012591359145915491E1
:1024A0000E191F09C501B4010E9459134B015C01AB
:1024B000D501C4010E151F0574F72497F594E79410
:1024C000CC16DD06A9F78A2F880F8B2F881F8F3F28
:1024D00049F020E030E0A901C501B4010E94F312E7
:1024E000811106C082E290E09093EA088093E908A7
:1024F000C501B401DF91CF911F910F91FF90EF9033
:10250000DF90CF90BF90AF909F908F900895FC0187
:1025100088279927E89421912032E9F3293010F097
:102520002E30C8F32B3241F02D3239F4689404C0B8
:102530000E94D112820F911D219120532A30C0F3A5
:102540001EF4909581959F4F089591110C94171644
:10255000803219F089508550C8F70895FB01DC01DD
:102560004150504088F08D9181341CF08B350CF433
:10257000805E659161341CF06B350CF4605E861BE7
:10258000611171F3990B0895881BFCCFBB274A306A
:1025900031F4992322F4BDE2909581959F4F0C94DC
:1025A000DA127AE0979F902D879F802D910D11244C
:1025B0000895BB27FB015527AA27880F991FAA1F3B
:1025C000A41710F0A41B83955051B9F7A05DAA334E
:1025D00008F0A95DA193009779F7B111B193119219
:1025E000CB010C941A160E94351308F481E008956B
:1025F000E89409C097FB3EF490958095709561959D
:102600007F4F8F4F9F4F9923A9F0F92F96E9BB2752
:102610009395F695879577956795B795F111F8CFCE
:10262000FAF4BB0F11F460FF1BC06F5F7F4F8F4F39
:102630009F4F16C0882311F096E911C0772321F02F
:102640009EE8872F762F05C0662371F096E8862FC7
:1026500070E060E02AF09A95660F771F881FDAF71E
:10266000880F9695879597F90895990F0008550F4B
:10267000AA0BE0E8FEEF16161706E807F907C0F008
:1026800012161306E407F50798F0621B730B840B10
:10269000950B39F40A2661F0232B242B252B21F4EA
:1026A00008950A2609F4A140A6958FEF811D811D8A
:1026B00008950E946C130C9441160E94331638F052
:1026C0000E943A1620F0952311F00C942A160C94CF
:1026D000301611240C9475160E94521670F3959FB3
:1026E000C1F3950F50E0551F629FF001729FBB2709
:1026F000F00DB11D639FAA27F00DB11DAA1F649FA5
:102700006627B00DA11D661F829F2227B00DA11D57
:10271000621F739FB00DA11D621F839FA00D611DDD
:10272000221F749F3327A00D611D231F849F600DFE
:10273000211D822F762F6A2F11249F5750409AF027
:10274000F1F088234AF0EE0FFF1FBB1F661F771FB3
:10275000881F91505040A9F79E3F510580F00C947E
:102760002A160C9475165F3FE4F3983ED4F38695D1
:1027700077956795B795F795E7959F5FC1F7FE2B1E
:10278000880F911D9695879597F908958F929F923E
:10279000AF92BF92CF92DF92EF92FF920F931F936F
:1027A000CF93DF9300D000D000D0CDB7DEB76A0161
:1027B000F22EB02E102FFBE3AF2EA01608F41BE371
:1027C0001F5F012F27E0AE014F5F5F4F0E943F1553
:1027D000BC018981982F9970913009F44EC09BE219
:1027E000E1FC04C09E2D9170E0FC49C05E2D50714B
:1027F000E82FE87083FF55C084E0911101C083E0A9
:10280000EF2DE81B8F1508F0E0E0D6018E2F20E2B7
:102810005523C9F1992329F0D6019C93C60101964D
:102820006C0196012D5F3F4FE2FE33C08EE4D6016E
:102830008C9391E411969C93119712968C93D901E5
:102840008E2F90E281112AC0E20FF32FF11D10822A
:102850008EEF9FEF29960FB6F894DEBF0FBECDBF67
:10286000DF91CF911F910F91FF90EF90DF90CF906C
:10287000BF90AF909F908F9008959DE2B7CF90E268
:10288000B5CF2D9381508111FCCFCE0ED11CE0E04D
:10289000C1CF8EE6D6018C9391E6CCCF9D9381502B
:1028A000D1CF482F447082FF3DC084E0911101C018
:1028B00083E08F1510F4EF2DE81BD6018E2F20E258
:1028C000552309F1992329F0D6019C93C60101965D
:1028D0006C0196012D5F3F4FE2FE1BC089E4D601DB
:1028E0008C938EE411968C93119786E412968C93B8
:1028F000D9018E2F90E2882309F4A6CF9D938150B1
:10290000FACF2D9381508111FCCFCE0ED11CE0E087
:10291000D9CF89E6D6018C938EE611968C931197C8
:1029200086E6E4CF9B0177FF02C030E020E0A1E023
:10293000B0E0911102C0B0E0A0E0F9013196AE0F15
:10294000BF1F8B2C912CBB2009F461C05401EFEF09
:10295000AE1ABE0AAA0DBB1DFA161B0619F014F01A
:102960004F2D4A1B511188C0E3FC59C07601A42F9A
:10297000B0E2A1114FC0C40ED11C992309F45BC071
:1029800040E0D6011196F60190836D01552309F4BC
:1029900048C0012F060F9A81582F507184FF03C041
:1029A000913309F4015010160CF047C0093008F0BB
:1029B00008E0EEE2FE2E5B01A01AB10885019194B9
:1029C000819491082F3F320729F4D601FC92F60139
:1029D00031966F016217730794F1021713077CF5A4
:1029E000DB01A21BB30BAA24A394B12CAC0EBD1E19
:1029F000AA0DBB1D11968C9121503109D60111965B
:102A000028153905F4F0F60180836D01DBCFB12C78
:102A1000A12CA0CFF701B1937F01A150AACF9111B2
:102A2000B0CFD601942F50E302C05D939150911125
:102A3000FCCFC40ED11C40E0ACCF01E0BACF80E3A4
:102A4000DBCF6217730731F4963388F4953311F4B2
:102A5000552369F0F6018083FD01842F90E28111F6
:102A600008C0A40FB11D1C9290E080E0F3CE81E37A
:102A7000F1CF91938150F3CF911183CF8ACF28303A
:102A800008F027E03327DA01990F311D87FD9160A7
:102A900000966105710539F432602E5F3D9330E395
:102AA0002A95E1F708959F3F30F080387105610560
:102AB00009F03C5F3C5F3D93913008F08068911DC8
:102AC000DF93CF931F930F93FF92EF92192F987F6D
:102AD0009695E92F96959695E90FFF27EB50FE4FB7
:102AE00099273327EE24FF24A701E70105900894D6
:102AF000079428F4360FE71EF81E491F511D660F74
:102B0000771F881F991F0694A1F70590079428F452
:102B1000E70EF81E491F561FC11D770F881F991F0A
:102B2000661F0694A1F70590079428F4F80E491F34
:102B3000561FC71FD11D880F991F661F771F069448
:102B4000A1F70590079420F4490F561FC71FD81FFF
:102B5000990F661F771F881F0694A9F78491109517
:102B6000177041F0D695C79557954795F794E79418
:102B70001A95C1F7EBE9F1E068941590159135913C
:102B80006591959105907FE27395E118F10A430BE9
:102B9000560BC90BD009C0F7E10CF11E431F561F9D
:102BA000C91FD01D7EF4703311F48A95E6CFE894E6
:102BB000015030F0080F0AF40027021708F4202F04
:102BC0002395022F7A3328F079E37D932A95E9F74C
:102BD00010C07D932A9589F6069497956795379549
:102BE00017951794E118F10A430B560BC90BD0093E
:102BF00098F023957E9173957A3308F070E37C9377
:102C00002013B8F77E9170617D9330F0839571E366
:102C10007D9370E32A95E1F71124EF90FF900F91D7
:102C20001F91CF91DF91992787FD9095089599275E
:102C300088270895DC01FC01672F71917723E1F764
:102C4000329704C07C916D9370836291AE17BF0779
:102C5000C8F3089597F99F6780E870E060E00895F1
:102C60009FEF80EC089500240A94161617061806A4
:102C70000906089500240A94121613061406050680
:102C80000895092E0394000C11F4882352F0BB0F11
:102C900040F4BF2B11F460FF04C06F5F7F4F8F4F74
:102CA0009F4F089557FD9058440F551F59F05F3FAF
:102CB00071F04795880F97FB991F61F09F3F79F05E
:102CC00087950895121613061406551FF2CF4695E0
:102CD000F1DF08C0161617061806991FF1CF869562
:102CE0007105610508940895E894BB276627772746
:102CF000CB0197F908950E948616A59F900DB49F69
:102D0000900DA49F800D911D11240895A29FB001E4
:102D1000B39FC001A39F700D811D1124911DB29F0F
:102D2000700D811D1124911D08955058BB27AA27AD
:102D30000E94AD160C9441160E94331638F00E9482
:102D40003A1620F039F49F3F19F426F40C9430160B
:102D50000EF4E095E7FB0C942A16E92F0E94521618
:102D600058F3BA17620773078407950720F079F4C0
:102D7000A6F50C9474160EF4E0950B2EBA2FA02D28
:102D80000B01B90190010C01CA01A0011124FF2718
:102D9000591B99F0593F50F4503E68F11A16F04013
:102DA000A22F232F342F4427585FF3CF4695379512
:102DB0002795A795F0405395C9F77EF41F16BA0BD7
:102DC000620B730B840BBAF09150A1F0FF0FBB1F85
:102DD000661F771F881FC2F70EC0BA0F621F731FCE
:102DE000841F48F4879577956795B795F7959E3F2B
:102DF00008F0B0CF9395880F08F09927EE0F9795BC
:102E0000879508950E9416170C9441160E943A1651
:102E100058F00E94331640F029F45F3F29F00C94DB
:102E20002A1651110C9475160C9430160E945216E5
:102E300068F39923B1F3552391F3951B550BBB27E9
:102E4000AA2762177307840738F09F5F5F4F220F2E
:102E5000331F441FAA1FA9F335D00E2E3AF0E0E825
:102E600032D091505040E695001CCAF72BD0FE2F6F
:102E700029D0660F771F881FBB1F26173707480703
:102E8000AB07B0E809F0BB0B802DBF01FF279358BB
:102E90005F4F3AF09E3F510578F00C942A160C943F
:102EA00075165F3FE4F3983ED4F386957795679562
:102EB000B795F7959F5FC9F7880F911D96958795F0
:102EC00097F90895E1E0660F771F881FBB1F62170F
:102ED00073078407BA0720F0621B730B840BBA0BCD
:102EE000EE1F88F7E09508950E947B176894B11152
:102EF0000C94751608950E945A1688F09F5798F002
:102F0000B92F9927B751B0F0E1F0660F771F881FEE
:102F1000991F1AF0BA95C9F714C0B13091F00E9408
:102F20007416B1E008950C947416672F782F8827D3
:102F3000B85F39F0B93FCCF3869577956795B3952F
:102F4000D9F73EF490958095709561957F4F8F4F9E
:102F50009F4F08950E94351308F48FEF0895A1E262
:102F60001A2EAA1BBB1BFD010DC0AA1FBB1FEE1F03
:102F7000FF1FA217B307E407F50720F0A21BB30B4E
:102F8000E40BF50B661F771F881F991F1A9469F7CA
:102F900060957095809590959B01AC01BD01CF0126
:102FA0000895EE0FFF1F881F8BBF0790F691E02D4D
:102FB00019940F931F93CF93DF938230910510F4F0
:102FC00082E090E0E091ED08F091EE0830E020E042
:102FD000B0E0A0E0309799F42115310509F44AC01A
:102FE000281B390B24303105D8F58A819B81611566
:102FF000710589F1FB0193838283FE0111C0408139
:1030000051810281138148175907E0F04817590789
:1030100099F4109761F012960C93129713961C93E3
:103020003296CF01DF91CF911F910F9108950093B8
:10303000ED081093EE08F4CF2115310551F0421739
:10304000530738F0A901DB019A01BD01DF01F80146
:10305000C1CFEF01F9CF9093EE088093ED08CDCF6B
:10306000FE01E20FF31F81939193225031093983BE
:103070002883D7CF2091EB083091EC08232B41F423
:1030800020910202309103023093EC082093EB0868
:1030900020910002309101022115310541F42DB734
:1030A0003EB74091040250910502241B350BE0917C
:1030B000EB08F091EC08E217F307A0F42E1B3F0B8E
:1030C0002817390778F0AC014E5F5F4F241735079A
:1030D00048F04E0F5F1F5093EC084093EB0881932C
:1030E00091939FCFF0E0E0E09CCFCF93DF930097E8
:1030F000E9F0FC01329713821282A091ED08B091A1
:10310000EE08ED0130E020E01097A1F4208131813C
:10311000820F931F2091EB083091EC082817390794
:1031200009F061C0F093EC08E093EB08DF91CF91D8
:103130000895EA01CE17DF07E8F54A815B819E0119
:1031400041155105B1F7E901FB83EA834991599192
:10315000C40FD51FEC17FD0761F4808191810296A1
:10316000840F951FE90199838883828193819B83D2
:103170008A83F0E0E0E012968D919C91139700977E
:10318000B9F52D913C911197CD010296820F931FB5
:103190002091EB083091EC082817390739F6309761
:1031A00051F51092EE081092ED08B093EC08A09340
:1031B000EB08BCCFD383C28340815181840F951F1C
:1031C000C817D90761F44E5F5F4F88819981480F16
:1031D000591F518340838A819B8193838283211568
:1031E000310509F0B0CFF093EE08E093ED089ECFE3
:1031F000FD01DC01C0CF13821282D7CF4F925F92C4
:103200006F927F928F929F92AF92BF92CF92DF92F6
:10321000EF92FF920F931F93CF93DF938C01009750
:1032200099F4CB01DF91CF911F910F91FF90EF9017
:10323000DF90CF90BF90AF909F908F907F906F90D6
:103240005F904F900C94D917FC01E60FF71F9C017B
:1032500022503109E217F30708F4AEC0D901CD912D
:10326000DC911197C617D70720F1C530D10578F04A
:10327000CE0104978617970750F0C61BD70B2297ED
:10328000C193D1936D937C93CF010E947518C801AF
:10329000DF91CF911F910F91FF90EF90DF90CF9032
:1032A000BF90AF909F908F907F906F905F904F9066
:1032B00008955B01AC1ABD0A4C018C0E9D1EA091B5
:1032C000ED08B091EE08512C412CF12CE12C109717
:1032D00031F58091EB089091EC088815990509F07B
:1032E0005CC04616570608F058C0809100029091C5
:1032F0000102009741F48DB79EB7409104025091AE
:103300000502841B950BE817F90708F055C0F093E8
:10331000EC08E093EB08F90171836083B8CF8D91DD
:103320009C91119712966C90129713967C9013971C
:10333000A815B90559F56C0142E0C40ED11CCA1498
:10334000DB0420F1AC014A195B09DA0112961597EA
:1033500080F06282738251834083D9016D937C93A4
:10336000E114F10471F0D7011396FC93EE931297D8
:103370008ECF22968C0F9D1FF90191838083F301DC
:10338000EFCFF093EE08E093ED0881CF4816590691
:1033900008F42C017D01D3019ACFCB010E94D917EB
:1033A0007C01009749F0AE01B8010E94DF19C80105
:1033B0000E94751887016BCF10E000E068CFFB0119
:1033C000DC0102C001900D9241505040D8F70895A1
:1033D000FB01DC0101900D920020E1F7089511E05E
:1033E000CCEDD1E000E006C0802FFE010E94D11795
:1033F0002196011DCD3DD10780E00807A9F7F8947B
:02340000FFCFFC
:103402000000EF088000020003000400050006002F
:10341200070008000900120013001400150016002E
:1034220017001800190025002600270028000000B8
:10343200000059038302B002A6032103BF02130353
:103442000D0A007B007D004552524F523A20414303
:103452004B2077617320616C7265616479206C6FB7
:1034620077200A004552524F523A2041434B206581
:10347200787069726564004552524F5220646574D7
:10348200656374656400436F6E6E65637420636880
:10349200616E6E656C200020746F20746865204236
:1034A200555300446973636F6E6E6563742063687D
:1034B200616E6E656C20002066726F6D20746865A7
:1034C20020425553006368616E6E656C206F75749F
:1034D200206F662072616E6765205B312E2E2E3161
:1034E200365D200A00535441545553204255533AF5
:1034F20000627573436F6E3053746174757320622A
:1035020065666F72653A2000627573436F6E305361
:1035120074617475732061667465723A2000627515
:1035220073436F6E31537461747573206265666F95
:1035320072653A2000627573436F6E315374617421
:1035420075732061667465723A2000537461746504
:1035520020697320616C726561647920636F727295
:1035620065637400436F6E6E656374206368616E99
:103572006E656C0020746F207468652067726F75C9
:103582006E6400446973636F6E6E65637420636872
:10359200616E6E656C002066726F6D2074686520C6
:1035A20067726F756E640053544154555320474EF1
:1035B200443A00676E64436F6E305374617475737E
:1035C200206265666F72653A2000676E64436F6EB3
:1035D200305374617475732061667465723A2000A9
:1035E200676E64436F6E31537461747573206265E4
:1035F200666F72653A2000676E64436F6E31537472
:10360200617475732061667465723A200053657443
:1036120020766F6C7461676520746F20005354418B
:10362200545553204441544120534554564F4C5411
:103632004147453A00646174613053746174757333
:10364200206265666F72653A20006461746130536E
:1036520074617475732061667465723A20006461E6
:10366200746131537461747573206265666F72653B
:103672003A2000646174613153746174757320611E
:10368200667465723A200052454144204F504552BB
:103692004154494F4E004461746170696E732061F8
:1036A200726520636F6E666967757265642C20614E
:1036B20064647265737370696E7320616E642063F3
:1036C2006172644164647265737350696E732061E0
:1036D200726520636F6E6669677572656420616EDC
:1036E20064207772697474656E00526561646C69F6
:1036F2006E6520697320736574204C4F57004143F7
:103702004B2072656365697665640070696E73202B
:10371200617265207265616400526561646C696EF4
:103722006520697320726573657420286C6F772930
:1037320000526561642066696E6973686564200A77
:0E37420000492072656365697665643A20006F
:00000001FF
