:020000040000FA
:100000000C94E2010C9413020C9413020C9413024E
:100010000C9413020C9413020C9413020C9413020C
:100020000C9413020C9413020C9413020C941302FC
:100030000C9413020C9413020C9413020C941302EC
:100040000C9413020C9413020C9413020C941302DC
:100050000C9413020C9413020C9413020C94660E6D
:100060000C9413020C94300E0C94060E0C94130294
:100070000C9413020C9413020C9413020C941302AC
:100080000C9413020C9413020C9413020C9413029C
:100090000C9413020C9413020C9413020C9413028C
:1000A0000C9413020C9413020C9413020C9413027C
:1000B0000C9413020C9413020C9413020C9413026C
:1000C0000C9413020C9413020C9413020C9413025C
:1000D0000C9413020C9413020C9413020C9413024C
:1000E0000C9413020C9403040C94E6020C94F50394
:1000F0000C94E8030C94AD080C94EC030C944B099D
:100100000C941B050C940D040C94DA030C94B502AA
:100110000C94E4030C94C4020C9488020C94ED0536
:100120000C94FF030C94B00E0C94F9030C941E0372
:100130000C9411040C94B20A0C9415040C94EF0363
:100140000C941B040C94E0030C941F040C94870281
:100150000C9477080C940E050C9407040C94190C5D
:100160000C941A040C94D8020C946B034E414E4923
:100170004E495459494E46CDCCCC3D0AD7233C1765
:10018000B7D13877CC2B329595E6241FB14F0A00B2
:100190000020410000C84200401C4620BCBE4CCAA2
:1001A0001B0E5AAEC59D7400407A10F35A00A0721F
:1001B0004E18090010A5D4E80000E87648170000A2
:1001C000E40B54020000CA9A3B000000E1F5050070
:1001D0000080969800000040420F000000A08601B9
:1001E000000000102700000000E803000000006489
:1001F00000000000000A00000000000100000000F4
:10020000002C76D888DC674F0823DFC1DFAE59E1C8
:10021000B1B796E5E3E453C63AE651997696E8E637
:10022000C28426EB898C9B62ED407C6FFCEFBC9C0A
:100230009F40F2BAA56FA5F490055A2AF75C936B1C
:100240006CF9676DC11BFCE0E40D47FEF520E6B5D7
:1002500000D0ED902E0300943577050080841E08B1
:100260000000204E0A000000C80C333333330F98CF
:100270006E12831141EF8D2114893BE65516CFFE96
:10028000E6DB18D1844B381BF77C1D901DA4BBE422
:1002900024203284725E228100C9F124ECA1E53D64
:1002A0002700002100240027002A002D0030003301
:1002B0000001010000040107010A010000220025DD
:1002C0000028002B002E0031003400020100000540
:1002D0000108010B01000020002300260029002C4A
:1002E000002F003200000100000301060109010592
:1002F000050505070508080808020202020A0A089F
:1003000008040404040101010101010101030303C4
:100310000303030303040707070C0C0C0C0C0C0C61
:100320000C0202020206060606060606060B0B0B68
:100330000B0B0B0B0B0102102020080810204010A3
:100340002040800201020108040201010204081099
:1003500020408080402010080402018004020180B7
:1003600040201008040201080402010102040810E0
:10037000204080010204081020408000000A0B0287
:10038000090C0D0E08070304010000000000000026
:10039000000000000000000000000000000000005D
:1003A000000000000000001211100000000000001A
:1003B000000000000000000000000000000000003D
:1003C0000000B00E11241FBECFEFD1E2DEBFCDBFC3
:1003D00000E00CBF29E0ACEDB5E001C01D92AB37E9
:1003E000B207E1F715E0A0E0B2E0E6E1F7E300E0F4
:1003F0000BBF02C007900D92AC3DB107D9F711E0D9
:10040000C2EED1E000E006C021970109802FFE0175
:100410000E946B19C13ED10780E00807A9F70E942E
:100420002B0F0C94891B0C940000AC011092BE069B
:1004300090910E0980910D09FA01BF01641B750BA3
:100440002091BE0630813093BE06931304C09213F0
:1004500002C01092BE063081311104C0921721F003
:10046000CB0108953817D1F33196E7CF0F931F933F
:10047000CF93DF9380910209882309F446C0D0E02E
:10048000C0E0813029F482E080930209C2ECD6E01A
:1004900080910309882341F1209721F4C091070935
:1004A000D09108098E01CE010E941502892B29F4F2
:1004B0002196F80180818111F5CFF8018081882390
:1004C00009F1C8010E941502F801E80FF91F8081A7
:1004D000882311F010823196F0930809E093070900
:1004E000109306090093050980910509909106096A
:1004F000892B59F081E080930309DF91CF911F91FF
:100500000F91089510E000E0EBCF80E0F6CF089562
:10051000AF92BF92CF92DF92EF92FF920F931F9311
:10052000CF93DF936C017B018B01040F151FEB014F
:100530005E01AE18BF08C017D10759F06991D60106
:10054000ED91FC910190F081E02DC6011995892B68
:1005500079F7C501DF91CF911F910F91FF90EF9037
:10056000DF90CF90BF90AF900895FC01538D448DE4
:10057000252F30E0842F90E0821B930B541710F04E
:10058000CF96089501970895FC01918D828D98175B
:1005900061F0A28DAE0FBF2FB11D5D968C91928D33
:1005A0009F5F9F73928F90E008958FEF9FEF089564
:1005B000FC01918D828D981731F0828DE80FF11D2D
:1005C000858D90E008958FEF9FEF0895FC01918D48
:1005D000228D892F90E0805C9F4F821B91098F7341
:1005E000992708958CE196E00E94E60221E0892B8C
:1005F00009F420E0822F0895FC01A48DA80FB92FE3
:10060000B11DA35ABF4F2C91848D90E001968F733A
:100610009927848FA689B7892C93A089B1898C9159
:10062000837080648C93938D848D981306C00288A8
:10063000F389E02D80818F7D80830895EF92FF9272
:100640000F931F93CF93DF93EC0181E0888F9B8DF5
:100650008C8D98131AC0E889F989808185FF15C0AF
:100660009FB7F894EE89FF896083E889F9898081D2
:100670008370806480839FBF81E090E0DF91CF91A1
:100680001F910F91FF90EF900895F62E0B8D10E0C3
:100690000F5F1F4F0F731127E02E8C8D8E110CC032
:1006A0000FB607FCFACFE889F989808185FFF5CF7D
:1006B000CE010E94FC02F1CFEB8DEC0FFD2FF11D5E
:1006C000E35AFF4FF0829FB7F8940B8FEA89FB89BA
:1006D00080818062CFCFCF93DF93EC01888D882318
:1006E000B9F0AA89BB89E889F9898C9185FD03C095
:1006F000808186FD0DC00FB607FCF7CF8C9185FF7A
:10070000F2CF808185FFEDCFCE010E94FC02E9CFC0
:10071000DF91CF91089580E090E0892B29F00E942D
:10072000F20281110E94000080E090E0892B49F0E4
:1007300080E090E0892B29F00E94000081110E9446
:10074000000080E090E0892B49F080E090E0892B68
:1007500029F00E94000081110E94000080E090E0DA
:10076000892B49F080E090E0892B29F00E9400005D
:1007700081110C94000008958150823108F05AC014
:10078000E82FF0E08827E853FC4F8F4F0C946B194B
:10079000E803EC03DA03E003E4031A04EF03F503D0
:1007A000F903FF03030407040D0411041A041504DC
:1007B0001B041F04809180008F7780938000089530
:1007C000809180008F7DF9CF80918000877FF5CF69
:1007D00084B58F7784BD089584B58F7DFBCF8091DC
:1007E000B0008F778093B00008958091B0008F7D26
:1007F000F9CF809190008F77809390000895809139
:1008000090008F7DF9CF80919000877FF5CF809108
:10081000A0008F778093A00008958091A0008F7D25
:10082000F9CF8091A000877FF5CF809120018F774D
:10083000809320010895809120018F7DF9CF8091D0
:100840002001877FF5CFCF93DF93282F30E0F90188
:10085000E558FC4F8491F901EB5CFC4FD491F90110
:10086000E151FD4FC491CC23A1F081110E94BC0342
:10087000EC2FF0E0EE0FFF1FEB52FD4FA591B4916E
:10088000EC91ED2381E090E009F480E0DF91CF91DD
:10089000089580E090E0FACF1F93CF93DF93282F45
:1008A00030E0F901E558FC4F8491F901EB5CFC4F15
:1008B000D491F901E151FD4FC491CC23A9F0162F39
:1008C00081110E94BC03EC2FF0E0EE0FFF1FE554F6
:1008D000FD4FA591B4918FB7F894EC91111108C018
:1008E000D095DE23DC938FBFDF91CF911F910895C8
:1008F000DE2BF8CFCF93DF9390E0FC01EB5CFC4F55
:10090000249181519D4FFC0184918823C9F090E08E
:10091000880F991FFC01EF55FD4FA591B491FC0183
:10092000E554FD4FC591D49161110DC09FB7F89466
:100930008C91209582238C938881282328839FBFC4
:10094000DF91CF910895623051F49FB7F8943C91B4
:10095000822F809583238C93E8812E2BEFCF8FB746
:10096000F894EC912E2B2C938FBFEACF3FB7F894DD
:100970008091DD059091DE05A091DF05B091E00545
:1009800026B5A89B05C02F3F19F00196A11DB11DEA
:100990003FBFBA2FA92F982F8827BC01CD01620F26
:1009A000711D811D911D42E0660F771F881F991FE1
:1009B0004A95D1F708958F929F92AF92BF92CF92AE
:1009C000DF92EF92FF926B017C010E94B6044B0113
:1009D0005C01C114D104E104F104B9F00E94B60431
:1009E000681979098A099B09683E73408105910558
:1009F00080F321E0C21AD108E108F10888EE880EE0
:100A000083E0981EA11CB11CE4CFFF90EF90DF9013
:100A1000CF90BF90AF909F908F90089580911306D4
:100A200091E089278093130661E0811101C060E0A5
:100A30008EE00C944C040E940E056EEE72E080E095
:100A400090E00E94DB040C940E0530E020E0FC01F5
:100A500011921192CF012F5F3F4F62177307B9F7C1
:100A60000895FA01EE0FFF1FE60FF71F181619067B
:100A700044F49C01217033273293229395958795F6
:100A8000F5CF0895FC0101900020E9F73197AF01FF
:100A9000481B590BBC018CE196E00C94880280E461
:100AA00092E00C944205CF93DF93FC014481558181
:100AB000608171818CE196E00E948802EC010E94C5
:100AC0004F058C0F9D1FDF91CF9108958F929F92BC
:100AD000AF92BF920F931F93CF93DF93CDB7DEB743
:100AE000A1970FB6F894DEBF0FBECDBF19A242305A
:100AF00008F44AE08E010F5D1F4F842E912CB12C1B
:100B0000A12CA50194010E944919E62FB901CA013F
:100B1000EA30F4F4E05DD801EE938D01232B242B11
:100B2000252B79F790E080E0109719F0CD010E9415
:100B30004205A1960FB6F894DEBF0FBECDBFDF9180
:100B4000CF911F910F91BF90AF909F908F9008957C
:100B5000E95CE1CFCF92DF92EF92FF92CF93DF93E8
:100B60006B017C016DE28CE196E00E941E03EC01BA
:100B700066277727CB016C197D098E099F094AE00A
:100B80000E9466058C0F9D1FDF91CF91FF90EF9023
:100B9000DF90CF9008950C944205CF93DF930E948D
:100BA0004205EC010E944F058C0F9D1FDF91CF91F4
:100BB00008950E943602882359F081E0809303094A
:100BC0008093040980910509909106090C94EC1317
:100BD0001092040990E080E00895CF93DF930E9483
:100BE000D905EC01909315068093140683E492E0F6
:100BF0000E94CB05BE01DD0F880B990B97FF06C045
:100C00000E94AA05DF91CF910C944F054AE00E9403
:100C10006605F8CF0F931F93CF93DF938C0184E683
:100C200092E00E94CB05E801005F1F4F6991799126
:100C3000072E000C880B990B97FF0DC00E94AA0588
:100C4000C017D10799F786E692E0DF91CF911F9107
:100C50000F910C94CD054AE00E946605F1CF6F928A
:100C60007F928F929F92AF92BF92CF92DF92EF923C
:100C7000FF920F931F93CF93DF93CDB7DEB73C0165
:100C80008B014A01ADB6BEB67B01EE0CFF1C8DB7E1
:100C90009EB78E199F090FB6F8949EBF0FBE8DBFE9
:100CA000EDB7FEB731966F01CF010E942505A8016F
:100CB000B601C4010E943105EC0CFD1C8301F2E079
:100CC000EF1AF108F80180810E5F1F4FF701608174
:100CD0000E944C04EC14FD0491F70FB6F894BEBECC
:100CE0000FBEADBEDF91CF911F910F91FF90EF909E
:100CF000DF90CF90BF90AF909F908F907F906F903C
:100D00000895CF92DF92EF92FF920F931F93CF93AC
:100D1000DF938C016B017A018CE10E94230401971F
:100D200061F088E692E0DF91CF911F910F91FF90E3
:100D3000EF90DF90CF900C94CD05C6E0D2E0888193
:100D4000229661E00E947A0482E0C631D807B9F7A2
:100D5000A60168E070E086E092E00E942F06A701FD
:100D600064E070E086E292E00E942F06A80168E04D
:100D700070E086E192E00E942F0660E083E30E942B
:100D80004C04C4E6D0E08CE10E942304892B51F08E
:100D90002197C9F761E083E30E944C0485E892E063
:100DA0000E94CD0561E083E30E944C048DE10E9426
:100DB0002304019719F088E992E0B5CFDF91CF9134
:100DC0001F910F91FF90EF90DF90CF900895CF93F8
:100DD000DF93CDB7DEB760970FB6F894DEBF0FBED6
:100DE000CDBF2091E3053091E4058823F1F1C901DD
:100DF00080648F772817390779F19093E405809301
:100E0000E30587EA92E00E94CB0568E070E0CE013E
:100E100001960E94250548E050E0BE016F5F7F4FBC
:100E20008091E3059091E4050E943105CE01019681
:100E30000E940A0640911406509115066091E30540
:100E40007091E40590E080E00E94810665E070E02A
:100E500080E090E00E94DB0460960FB6F894DEBF5D
:100E60000FBECDBFDF91CF910895C9018F7BC1CF58
:100E70000F931F93CF93DF93EC01888199810097A3
:100E800059F02A813B812617370730F081E0DF9146
:100E9000CF911F910F9108958B016F5F7F4F0E943B
:100EA000981A009759F0998388831B830A832C81B1
:100EB0003D81232B59F7FC011082E8CF80E0E7CF7A
:100EC000EF92FF920F931F93CF93DF9361157105FC
:100ED00041F480E0DF91CF911F910F91FF90EF904F
:100EE000089541155105B1F07B01EC010C811D8184
:100EF000040F151FB8010E943807882351F3288179
:100F000039818C819D81B701820F931F0E94821BC2
:100F10001D830C8381E0DECFCF93DF93EC018881CA
:100F20009981009711F00E940F1A198218821D8270
:100F30001C821B821A82DF91CF910895CF93DF9399
:100F4000EC01FB0101900020E9F73197AF01461B4E
:100F5000570B0E946007811103C0CE010E948C07CD
:100F6000CE01DF91CF910895CF93DF93EC01FB0188
:100F700044815581608171810E946007811103C0A5
:100F8000CE010E948C07CE01DF91CF910895EF92A0
:100F9000FF920F931F93CF93DF93EC017B018A01A4
:100FA000BA010E94380781110BC0CE010E948C0744
:100FB000CE01DF91CF911F910F91FF90EF90089597
:100FC0001D830C83B701888199810E94821BF0CF19
:100FD000EF92FF920F931F93CF93DF93CDB7DEB7BE
:100FE000A1970FB6F894DEBF0FBECDBF7C01CB0139
:100FF000BA01F701118210821382128215821482C3
:101000008E010F5F1F4F22E044E00E946C12009798
:10101000C9F0FC0101900020E9F73197AF01481BAE
:10102000590BBC01C7010E94C707A1960FB6F894DF
:10103000DEBF0FBECDBFDF91CF911F910F91FF900B
:10104000EF900895C7010E948C07EFCFEF92FF92B7
:101050000F931F93CF93DF93CDB7DEB762970FB691
:10106000F894DEBF0FBECDBF8C01CB01F801118219
:10107000108213821282158214824AE09E012F5F31
:101080003F4F7901B9010E945214F70101900020ED
:10109000E9F73197AF014E195F09B701C8010E9406
:1010A000C70762960FB6F894DEBF0FBECDBFDF91C3
:1010B000CF911F910F91FF90EF900895FC01118245
:1010C00010821382128215821482FB01019000208B
:1010D000E9F73197AF01461B570B0C94C707FC018A
:1010E00080819181009711F00C940F1A0895CF938D
:1010F000DF93CDB7DEB72C970FB6F894DEBF0FBEE7
:10110000CDBF6091140670911506CE0107960E941E
:10111000260866EB72E0CE0101960E945E08BE01D1
:10112000695F7F4FCE0101960E94B40768EB72E0C1
:101130000E949E070E945305CE0101960E946F08EF
:10114000CE0107960E946F082C960FB6F894DEBF6A
:101150000FBECDBFDF91CF910895CF92DF92EF9276
:10116000FF920F931F93CF93DF93CDB7DEB72C97EA
:101170000FB6F894DEBF0FBECDBF81E00E94E70638
:1011800060911A0670911B0680917B0088608093A5
:101190007B0085E480937C0080917A00806480935A
:1011A0007A0080917A0086FDFCCF00917800109142
:1011B0007900072E000C880B990B0E949B1420E0ED
:1011C00030E040EA50E40E94FA1420E030EC4FE7AF
:1011D00054E40E94A3186B017C01B801110F880B25
:1011E000990B0E949B149B01AC01C701B6010E94A0
:1011F000FA146B017C01BC01A601CE0101960E948C
:10120000E8076AEB72E0CE0107960E945E08BE0115
:101210006F5F7F4FCE0107960E94B4070E9453056F
:10122000CE0107960E946F08CE0101960E946F08BA
:1012300080E00E94E706B701A601CE0107960E9452
:10124000E80766EB72E0CE0101960E945E08BE01DF
:10125000695F7F4FCE0101960E94B40768EB72E090
:101260000E949E070E945305CE0101960E946F08BE
:10127000CE0107960E946F082C960FB6F894DEBF39
:101280000FBECDBFDF91CF911F910F91FF90EF90D7
:10129000DF90CF9008954F925F926F927F928F92DE
:1012A0009F92AF92BF92CF92DF92EF92FF920F93F5
:1012B0001F93CF93DF93CDB7DEB766970FB6F89441
:1012C000DEBF0FBECDBF28E0422E512C66246394B2
:1012D000712C0E94D9058C010E94D9057C01B801AE
:1012E000CE010196E114F10481F10E9426086DEC13
:1012F00072E0CE0141960E945E08BE016F5F7F4F93
:10130000CE0141960E94B4076EED72E00E949E07E6
:101310000E945305CE0141960E946F08CE010196AE
:101320000E946F08C80101978031910500F521E006
:10133000E114F10409F420E0FC01ED5FF94F308184
:1013400032131AC082E993E014C00E9426086AEEA4
:1013500072E0CE0141960E945E08BE016F5F7F4F32
:10136000CE0141960E94B4076EEF72E0CFCF8CE0C1
:1013700093E00E94CD05BEC02083A090EB05B09005
:10138000EC058090E9059090EA05EF2809F0CEC0C1
:101390000930110574F009501109730102C0EE0CF7
:1013A000FF1C0A95E2F7E094F094E820F92085010B
:1013B0000BC0830102C0000F111F8A95E2F7009550
:1013C00010950A211B217401CC24C394D12C8CE2EA
:1013D00093E00E94CD0588E393E00E94CB0568E08E
:1013E00070E0CE0101960E94250548E050E0BE0164
:1013F0006F5F7F4FC5010E943105CE0101960E94AB
:101400000A068FE493E00E94CB0568E070E0CE010D
:1014100001960E94250548E050E0BE016F5F7F4FB6
:10142000C8010E943105CE0101960E940A0685E698
:1014300093E00E94CB0568E070E0CE0101960E9427
:10144000250548E050E0BE016F5F7F4FC4010E9458
:101450003105CE0101960E940A068CE793E00E94B6
:10146000CB0568E070E0CE0101960E94250548E0BA
:1014700050E0BE016F5F7F4FC7010E943105CE0172
:1014800001960E940A060E944F058091EB059091FB
:10149000EC0508171907A1F01093EC050093EB0574
:1014A0004091140650911506B80181E090E00E9429
:1014B0008106B6010D2C000C880B990B0E94DB04F1
:1014C0008091E9059091EA05E816F90699F0F09205
:1014D000EA05E092E9054091140650911506B7011E
:1014E00082E090E00E948106B601DD0C880B990B2A
:1014F0000E94DB0481E0481A510809F0EACE6696A2
:101500000FB6F894DEBF0FBECDBFDF91CF911F9114
:101510000F91FF90EF90DF90CF90BF90AF909F9092
:101520008F907F906F905F904F90089509301105D4
:101530006CF4830102C0000F111F8A95E2F70A299B
:101540001B29740185E0C82ED12C41CF0950110907
:10155000730102C0EE0CFF1C0A95E2F7E828F92897
:101560008501F0CF4F925F926F927F928F929F9200
:10157000AF92BF92CF92DF92EF92FF920F931F93A1
:10158000CF93DF93CDB7DEB766970FB6F894DEBF83
:101590000FBECDBF28E0422E512C66246394712CDF
:1015A0000E94D9058C010E94D9057C01B801CE01A9
:1015B0000196E114F10481F10E9426086DEC72E0BD
:1015C000CE0141960E945E08BE016F5F7F4FCE0143
:1015D00041960E94B4076BEA73E00E949E070E9446
:1015E0005305CE0141960E946F08CE0101960E94DC
:1015F0006F08C80101978031910500F521E0E114E1
:10160000F10409F420E0FC01ED50FA4F308132136F
:101610001AC082E993E014C00E9426086AEE72E0C4
:10162000CE0141960E945E08BE016F5F7F4FCE01E2
:1016300041960E94B4076AEB73E0CFCF8CE093E051
:101640000E94CD05BEC02083A090E705B090E805BC
:101650008090E5059090E605EF2809F0CEC00930AE
:10166000110574F009501109730102C0EE0CFF1C42
:101670000A95E2F7E094F094E820F92085010BC088
:10168000830102C0000F111F8A95E2F700951095A3
:101690000A211B217401CC24C394D12C8BEC93E040
:1016A0000E94CD0587ED93E00E94CB0568E070E0D5
:1016B000CE0101960E94250548E050E0BE016F5F13
:1016C0007F4FC5010E943105CE0101960E940A0696
:1016D0008EEE93E00E94CB0568E070E0CE010196AB
:1016E0000E94250548E050E0BE016F5F7F4FC801B2
:1016F0000E943105CE0101960E940A0684E094E022
:101700000E94CB0568E070E0CE0101960E9425059D
:1017100048E050E0BE016F5F7F4FC4010E94310579
:10172000CE0101960E940A068BE194E00E94CB054F
:1017300068E070E0CE0101960E94250548E050E087
:10174000BE016F5F7F4FC7010E943105CE01019638
:101750000E940A060E944F058091E7059091E805D6
:1017600008171907A1F01093E8050093E7054091C9
:10177000140650911506B80183E090E00E9481069E
:10178000B6010D2C000C880B990B0E94DB04809194
:10179000E5059091E605E816F90699F0F092E60560
:1017A000E092E5054091140650911506B70184E0DA
:1017B00090E00E948106B601DD0C880B990B0E9417
:1017C000DB0481E0481A510809F0EACE66960FB6AC
:1017D000F894DEBF0FBECDBFDF91CF911F910F9167
:1017E000FF90EF90DF90CF90BF90AF909F908F9041
:1017F0007F906F905F904F900895093011056CF4C1
:10180000830102C0000F111F8A95E2F70A291B29E4
:10181000740185E0C82ED12C41CF09501109730104
:1018200002C0EE0CFF1C0A95E2F7E828F9288501B2
:10183000F0CF8F929F92AF92BF92CF92DF92EF92B2
:10184000FF920F931F93CF93DF93CDB7DEB7A2978D
:101850000FB6F894DEBF0FBECDBF81E394E00E94C7
:10186000CD05E090ED05F090EE0587010F7B01605E
:1018700088E494E00E94CD0589E694E00E94CB05BF
:1018800068E070E0CE0101960E94250548E050E036
:10189000BE016F5F7F4FC7010E943105CE010196E7
:1018A0000E940A0688E894E00E94CB0568E070E098
:1018B000CE0101960E94250548E050E0BE016F5F11
:1018C0007F4FC8010E943105CE0101960E940A0691
:1018D0000E944F058091ED059091EE0508171907BC
:1018E00099F01093EE050093ED0540911406509188
:1018F0001506B80185E090E00E94810665E070E081
:1019000080E090E00E94DB040E943602882309F404
:101910004AC181E0809303098093040980910509FD
:10192000909106090E940A148B010E9436028823B6
:1019300009F43FC181E080930309809304098091F9
:101940000509909106090E940A14CE0147960E944B
:101950002608B801CE0101960E9426081A8A198A23
:101960001C8A1B8A1E8A1D8A69817A81611571050C
:1019700031F04D815E81CE0141960E94C70766EA33
:1019800074E0CE0141960E949E07BE01695E7F4FC2
:101990000E94B4071E8E1D8E18A21F8E1AA219A2B5
:1019A0008E01035E1F4F8017910759F0FC01608183
:1019B00071816115710529F044815581C8010E942A
:1019C000C707CE0141960E946F08CE0101960E9482
:1019D0006F08CE0147960E946F088D8D9E8DC12C99
:1019E000D12C7601009721F00E94E8136B017C0155
:1019F000B701A601CE0101960E94E80768EA74E0EB
:101A0000CE0141960E945E08BE016F5F7F4FCE01FE
:101A100041960E94B4070E945305CE0141960E9450
:101A20006F08CE0101960E946F088090F10590909A
:101A3000F205A090EF05B090F00520E030E040E422
:101A400050E4C701B6010E94A31820E030E040E254
:101A500051E40E9437186B017C0120E030E040EA3D
:101A600051E40E94441987FDAAC08FEF90E0909343
:101A7000F2058093F1059093F0058093EF05E090D7
:101A8000EF05F090F005C090F105D090F20588EBDD
:101A900094E00E94CD0580ED94E00E94CB0568E0C3
:101AA00070E0CE0101960E94250548E050E0BE019D
:101AB0006F5F7F4FC4010E943105CE0101960E94E5
:101AC0000A0685EE94E00E94CB0568E070E0CE0146
:101AD00001960E94250548E050E0BE016F5F7F4FF0
:101AE000C6010E943105CE0101960E940A0689EFC7
:101AF00094E00E94CB0568E070E0CE0101960E9460
:101B0000250548E050E0BE016F5F7F4FC5010E9490
:101B10003105CE0101960E940A068EE095E00E94F2
:101B2000CB0568E070E0CE0101960E94250548E0F3
:101B300050E0BE016F5F7F4FC7010E943105CE01AB
:101B400001960E940A060E944F054091140650918A
:101B500015066091F1057091F20586E090E00E9413
:101B6000810640911406509115066091EF05709121
:101B7000F00587E090E00E948106C8010E946F088E
:101B8000A2960FB6F894DEBF0FBECDBFDF91CF9106
:101B90001F910F91FF90EF90DF90CF90BF90AF908B
:101BA0009F908F9008951092040960E070E0CB013F
:101BB000BBCE1092040960E070E0CB01C6CE20E0FD
:101BC00030E0A901C701B6010E94941418164CF028
:101BD0001092F2051092F1051092F0051092EF05A7
:101BE0004ECF20E03CEC4CE455E4C701B6010E9426
:101BF000FA140E9415199B0133273093F2052093A4
:101C0000F1057093EF051092F00539CF1F920F92F6
:101C10000FB60F9211240BB60F922F933F934F9351
:101C20005F936F937F938F939F93AF93BF93EF9344
:101C3000FF938CE196E00E94FC02FF91EF91BF912F
:101C4000AF919F918F917F916F915F914F913F9154
:101C50002F910F900BBE0F900FBE0F901F901895F5
:101C60001F920F920FB60F9211240BB60F922F9363
:101C70008F939F93EF93FF93E0912C06F0912D06A5
:101C80008081E0913206F091330682FD1DC0908183
:101C9000809135068F5F8F7320913606821741F051
:101CA000E0913506F0E0E45EF94F958F80933506BC
:101CB000FF91EF919F918F912F910F900BBE0F90FD
:101CC0000FBE0F901F9018958081F2CF1F920F9238
:101CD0000FB60F9211242F933F938F939F93AF933F
:101CE000BF938091160690911706A0911806B091A7
:101CF00019063091DC0523E0230F2D3758F50196A6
:101D0000A11DB11D2093DC05809316069093170644
:101D1000A0931806B09319068091DD059091DE0519
:101D2000A091DF05B091E0050196A11DB11D809342
:101D3000DD059093DE05A093DF05B093E005BF912C
:101D4000AF919F918F913F912F910F900FBE0F9068
:101D50001F90189526E8230F0296A11DB11DD2CF22
:101D600010921F0610921E0688EE93E0A0E0B0E0ED
:101D70008093200690932106A0932206B093230619
:101D800082E392E090931D0680931C0685EC90E020
:101D9000909329068093280684EC90E090932B067C
:101DA00080932A0680EC90E090932D0680932C0679
:101DB00081EC90E090932F0680932E0682EC90E0C9
:101DC000909331068093300686EC90E09093330632
:101DD000809332061092350610923606109237061E
:101DE000109238061092100910920F098CE196E0BB
:101DF00090930B0980930A091092C1068CE280939C
:101E00000D098BE380930C098FE280930E0980E427
:101E10008093BC068FE38093BD061092BB061092A0
:101E2000060910920509109208091092070981E02D
:101E300080930309E1E1F9E01192119289E0E5371D
:101E4000F807D1F71092C00683E090E090931B064C
:101E500080931A060895CF93DF93CDB7DEB77894B9
:101E600084B5826084BD84B5816084BD85B582609F
:101E700085BD85B5816085BD80916E008160809350
:101E80006E001092810080918100826080938100B9
:101E900080918100816080938100809180008160C9
:101EA000809380008091B10084608093B100809124
:101EB000B00081608093B000809191008260809337
:101EC00091008091910081608093910080919000B9
:101ED0008160809390008091A10082608093A10036
:101EE0008091A10081608093A1008091A000816019
:101EF0008093A000809121018260809321018091D4
:101F00002101816080932101809120018160809373
:101F1000200180917A00846080937A0080917A0019
:101F2000826080937A0080917A00816080937A0049
:101F300080917A00806880937A001092C100E091CD
:101F40002C06F0912D0682E08083E0912806F09126
:101F500029061082E0912A06F0912B0680E1808309
:101F600010923406E0913006F091310686E08083CD
:101F7000E0912E06F0912F06808180618083E091B0
:101F80002E06F0912F06808188608083E0912E06D6
:101F9000F0912F06808180688083E0912E06F09179
:101FA0002F0680818F7D808306E112E0D8018C911D
:101FB0000E5F1F4F61E00E947A04B2E006321B07F9
:101FC000A9F761E083E30E947A0461E084E30E9460
:101FD0007A0461E085E30E947A0461E083E30E9471
:101FE0004C0461E084E30E944C0461E085E30E94BC
:101FF0004C0462E08CE10E947A0462E08DE10E9470
:102000007A0460E084E40E947A0460E083E40E9441
:102010007A0461E085E20E947A0461E086E20E942F
:102020007A0461E087E20E947A0461E088E20E941B
:102030007A041092F2051092F10580E890E09093F6
:10204000F0058093EF051092EE051092ED051092C9
:10205000EC051092EB051092EA051092E90510923A
:10206000E8051092E7051092E6051092E50510923A
:10207000E4051092E3051092E2051092E10540910B
:1020800014065091150670E060E086E090E00E9432
:10209000810640911406509115066091EF057091EC
:1020A000F00587E090E00E9481064091140650916F
:1020B00015066091ED057091EE0585E090E00E94B7
:1020C000810640911406509115066091E3057091C8
:1020D000E40590E080E00E94810640911406509152
:1020E00015066091EB057091EC0581E090E00E948F
:1020F000810640911406509115066091E905709192
:10210000EA0582E090E00E94810640911406509119
:1021100015066091E7057091E80583E090E00E9464
:10212000810640911406509115066091E505709165
:10213000E60584E090E00E948106409114065091EB
:1021400015066091E1057091E20589E090E00E943A
:102150008106009114061091150682E295E00E9416
:10216000CD058CE10E942304019709F4F0C088E6B4
:1021700092E00E94CD0561E070E080E090E00E9476
:10218000DB0489E090E090931506809314068BE1C0
:1021900095E09093100980930F098EE095E090935D
:1021A00014098093130989E19CE0909316098093A8
:1021B000150982EB9AE090931809809317098BE434
:1021C00099E090931A098093190987E892E0909317
:1021D0001C0980931B098DEA98E090931E09809357
:1021E0001D098DEE95E09093200980931F0987E7E4
:1021F00098E0909322098093210981E08093C106A1
:102200001092130660E08EE00E944C04E3E0F6E0DA
:10221000A3EFB5E083E196E011921D928E179F0720
:10222000D9F7DD24D3948091C00681114BC18091F0
:102230000A0990910B09DC01ED91FC910084F18574
:10224000E02D1995892B09F43DC180910A099091DF
:102250000B09DC01ED91FC910084F185E02D1995CD
:10226000612C22E0722E8115924064F480910A095B
:1022700090910B09DC01ED91FC910084F185E02D3A
:1022800019953C0100910A0910910B0992E0E92E81
:1022900097E0F92E4701B12CA12C6A147B0409F0B8
:1022A000C5C010E000E06016710609F4BCCFD7018C
:1022B0009D917D011092020930910E092091BF0677
:1022C0009093BF06931304C0921302C01092BF06EE
:1022D0008091BB06E82FF0E040910C09E754F94FDC
:1022E0009413DCC0321709F4D9C01186882321F079
:1022F000D09202091092BF061092BB0610920609F6
:10230000109205091092080910920709D09203094A
:1023100080910209813009F0D2C00E94D9058093D2
:10232000BA06823308F0C4C020910409222309F4BC
:10233000BFC0FC01FF27EE0FFF1FEF5EF64F0190BD
:10234000F081E02D309709F4B3C01995B8C046E08C
:10235000E42E42E0F42E56E1A52E52E0B52E4701C0
:10236000F4018081F2E08F0E911C60E00E947A04FB
:10237000A814B904A9F7A80164E070E086E292E02D
:102380000E942F0648E050E068E070E086E192E0AD
:102390000E942F0660E084E30E944C0481E395E0F4
:1023A0000E94CD0585E895E00E94CD0504E610E089
:1023B0008CE10E942304892B79F589E995E00E943C
:1023C000CD0536E1A32E32E0B32E22E0A21AB108E9
:1023D000D5018C910E942304EA14FB04B1F70FB6D7
:1023E000F894DEBF0FBECDBF86EA95E00E94CD0512
:1023F00061E084E30E944C0484EB95E00E94CD05EB
:102400008DE10E942304019721F088E992E00E9467
:10241000CD058CEC95E0ADCE0150110949F661E097
:1024200084E30E944C0485E892E0C9CF2FB7F8946A
:102430008091160690911706A0911806B091190682
:102440002FBFF80180879187A287B387D801ED91CC
:10245000FC910284F385E02DC801199597FF35C0E2
:102460002FB7F8948091160690911706A091180640
:10247000B09119062FBFF80140855185628573859B
:10248000841B950BA60BB70B448155816681778120
:1024900084179507A607B707C8F203CF91878F5F08
:1024A0008093BB069091BD06891708F025CF30CFE9
:1024B000E0910F09F0911009309709F046CF0F5FB6
:1024C0001F4FF1CE0E948B03AECEF40181934F01DA
:1024D000FFEFAF1ABF0AE1CEEF920F931F93CF9396
:1024E000DF93E80134E047FD34E1042E000C550B86
:1024F00057FF03C0519541955109E32E022F242F18
:10250000AE010E946715CE01DF91CF911F910F910F
:10251000EF9008958F929F92AF92BF92CF92DF92E9
:10252000EF92FF920F931F93CF93DF935C017B0198
:102530006115710519F0DB018D939C9385010F5F87
:102540001F4FF501D0818D2F90E00E9431146C0156
:10255000892BB9F5DD32B9F50F5F1F4FD501119603
:10256000DC91C1E05801F1E0AF1AB10843E050E05E
:1025700064E771E0C5010E943A14892B69F568018E
:1025800082E0C80ED11C45E050E06FE671E0C60164
:102590000E943A14892B21F4680197E0C90ED11CDE
:1025A000E114F10419F0D701CD92DC9260E070E003
:1025B00080E89FEFC111FFC060E070E080E89FE716
:1025C000FAC05801BBCFDB3229F485010E5F1F4FE3
:1025D000F501D181C0E0C6CF43E050E06CE671E088
:1025E000C5010E943A14892BE9F0F80110E000E0DF
:1025F00020E030E0A9015F01B0ED8B2E8D0E89E067
:102600008815C8F19C2E689491F88C2F8870C2FFB1
:1026100016C0811102C00F5F1F4F3196D501DC91AA
:10262000C92DE9CFE114F10429F00E5F1F4FF70126
:102630001183008360E070E080EC9FE7BCC08823DA
:1026400011F001501109A5E0B0E00E941C189B0197
:10265000AC01220F331F441F551F280D311D411D92
:10266000511D283999E93907490799E15907A8F215
:10267000C6609C2ED2CFAEEF8A1206C0C3FD3CC00E
:102680009C2E689493F8C9CFDF7DD534A9F580815D
:102690008D3239F4C061DF011296818162E070E011
:1026A00006C0DF018B32C1F3119661E070E0805308
:1026B0005D01A61AB70A8A30F8F4E0E8CE16ECE01D
:1026C000DE065CF4B601660F771F660F771FC60E35
:1026D000D71ECC0CDD1CC80ED11C5D01FFEFAF1A5C
:1026E000BF0A8C9180538A30A8F1C4FF03C0D194F3
:1026F000C194D1080C0D1D1DC1FF09C0E114F104E6
:1027000031F081E0A81AB108D701AD92BC92CA019C
:10271000B9010E949914C370C33009F490584B0159
:102720005C0120E030E0A9010E949414882309F4A0
:1027300040C0C3EAD1E017FF05C01195019511090A
:10274000CBE8D1E06E01B8E1CB1AD10880E2E82EE7
:10275000F12C0FC0D501B1CFFE01259135914591E6
:1027600054910E191F09C501B4010E94FA144B01BE
:102770005C01D501C4010E151F0574F72497F5946B
:10278000E794CC16DD06A9F78A2F880F8B2F881FB8
:102790008F3F49F020E030E0A901C501B4010E945B
:1027A0009414811106C082E290E0909376098093A0
:1027B0007509C501B401DF91CF911F910F91FF9071
:1027C000EF90DF90CF90BF90AF909F908F90089543
:1027D000662777270C948A12FC0188279927E894AA
:1027E00021912032E9F3293010F02E30C8F32B323A
:1027F00041F02D3239F4689404C00E947214820FA3
:10280000911D219120532A30C0F31EF4909581959B
:102810009F4F08951F93FC0199278827BC01E894D6
:1028200011911032E9F3193010F01E30C8F31B3249
:1028300051F01D3249F4689406C00E945D14610F86
:10284000711D811D911D119110531A30B0F33EF48A
:1028500090958095709561957F4F8F4F9F4F1F91F9
:10286000089591110C94B817803219F08950855051
:10287000C8F70895FB01DC014150504088F08D916C
:1028800081341CF08B350CF4805E659161341CF052
:102890006B350CF4605E861B611171F3990B089522
:1028A000881BFCCFBB274A3031F4992322F4BDE2C8
:1028B000909581959F4F0C947B14592F482F372F5B
:1028C000262F660F771F881F991F660F771F881F97
:1028D000991F620F731F841F951F660F771F881F34
:1028E000991F08957AE0979F902D879F802D910DD5
:1028F00011240895BB27FB015527AA27880F991F8C
:10290000AA1FA41710F0A41B83955051B9F7A05D1E
:10291000AA3308F0A95DA193009779F7B111B1939B
:102920001192CB010C94BB170E94D61408F481E0DD
:102930000895E89409C097FB3EF4909580957095B2
:1029400061957F4F8F4F9F4F9923A9F0F92F96E9FB
:10295000BB279395F695879577956795B795F11170
:10296000F8CFFAF4BB0F11F460FF1BC06F5F7F4F0D
:102970008F4F9F4F16C0882311F096E911C077231F
:1029800021F09EE8872F762F05C0662371F096E828
:10299000862F70E060E02AF09A95660F771F881FF7
:1029A000DAF7880F9695879597F90895990F00089B
:1029B000550FAA0BE0E8FEEF16161706E807F90711
:1029C000C0F012161306E407F50798F0621B730BAC
:1029D000840B950B39F40A2661F0232B242B252B2D
:1029E00021F408950A2609F4A140A6958FEF811DD0
:1029F000811D08950E940D150C94E2170E94D417B2
:102A000038F00E94DB1720F0952311F00C94CB17BF
:102A10000C94D11711240C9416180E94F31770F31C
:102A2000959FC1F3950F50E0551F629FF001729F73
:102A3000BB27F00DB11D639FAA27F00DB11DAA1F82
:102A4000649F6627B00DA11D661F829F2227B00DCF
:102A5000A11D621F739FB00DA11D621F839FA00D5A
:102A6000611D221F749F3327A00D611D231F849FAA
:102A7000600D211D822F762F6A2F11249F57504001
:102A80009AF0F1F088234AF0EE0FFF1FBB1F661F7C
:102A9000771F881F91505040A9F79E3F510580F045
:102AA0000C94CB170C9416185F3FE4F3983ED4F3C4
:102AB000869577956795B795F795E7959F5FC1F7E9
:102AC000FE2B880F911D9695879597F908958F9203
:102AD0009F92AF92BF92CF92DF92EF92FF920F93AD
:102AE0001F93CF93DF9300D000D000D0CDB7DEB7D7
:102AF0006A01F22EB02E102FFBE3AF2EA01608F4C1
:102B00001BE31F5F012F27E0AE014F5F5F4F0E9465
:102B1000E016BC018981982F9970913009F44EC05C
:102B20009BE2E1FC04C09E2D9170E0FC49C05E2D4B
:102B30005071E82FE87083FF55C084E0911101C007
:102B400083E0EF2DE81B8F1508F0E0E0D6018E2F13
:102B500020E25523C9F1992329F0D6019C93C6019F
:102B600001966C0196012D5F3F4FE2FE33C08EE46B
:102B7000D6018C9391E411969C93119712968C93A5
:102B8000D9018E2F90E281112AC0E20FF32FF11D9F
:102B900010828EEF9FEF29960FB6F894DEBF0FBE1E
:102BA000CDBFDF91CF911F910F91FF90EF90DF90FC
:102BB000CF90BF90AF909F908F9008959DE2B7CF38
:102BC00090E2B5CF2D9381508111FCCFCE0ED11C58
:102BD000E0E0C1CF8EE6D6018C9391E6CCCF9D93F9
:102BE0008150D1CF482F447082FF3DC084E09111C5
:102BF00001C083E08F1510F4EF2DE81BD6018E2F56
:102C000020E2552309F1992329F0D6019C93C601AE
:102C100001966C0196012D5F3F4FE2FE1BC089E4D7
:102C2000D6018C938EE411968C93119786E41296BC
:102C30008C93D9018E2F90E2882309F4A6CF9D931F
:102C40008150FACF2D9381508111FCCFCE0ED11C33
:102C5000E0E0D9CF89E6D6018C938EE611968C936D
:102C6000119786E6E4CF9B0177FF02C030E020E0B9
:102C7000A1E0B0E0911102C0B0E0A0E0F90131960E
:102C8000AE0FBF1F8B2C912CBB2009F461C05401E7
:102C9000EFEFAE1ABE0AAA0DBB1DFA161B0619F0FD
:102CA00014F04F2D4A1B511188C0E3FC59C0760126
:102CB000A42FB0E2A1114FC0C40ED11C992309F476
:102CC0005BC040E0D6011196F60190836D0155235B
:102CD00009F448C0012F060F9A81582F507184FFC4
:102CE00003C0913309F4015010160CF047C00930AD
:102CF00008F008E0EEE2FE2E5B01A01AB1088501A3
:102D00009194819491082F3F320729F4D601FC92C7
:102D1000F60131966F016217730794F102171307DA
:102D20007CF5DB01A21BB30BAA24A394B12CAC0E3F
:102D3000BD1EAA0DBB1D11968C9121503109D601E3
:102D4000119628153905F4F0F60180836D01DBCF6B
:102D5000B12CA12CA0CFF701B1937F01A150AACF34
:102D60009111B0CFD601942F50E302C05D939150E2
:102D70009111FCCFC40ED11C40E0ACCF01E0BACF22
:102D800080E3DBCF6217730731F4963388F4953311
:102D900011F4552369F0F6018083FD01842F90E240
:102DA000811108C0A40FB11D1C9290E080E0F3CE09
:102DB00081E3F1CF91938150F3CF911183CF8ACFEB
:102DC000283008F027E03327DA01990F311D87FDFD
:102DD000916000966105710539F432602E5F3D9374
:102DE00030E32A95E1F708959F3F30F08038710570
:102DF000610509F03C5F3C5F3D93913008F08068CD
:102E0000911DDF93CF931F930F93FF92EF92192F92
:102E1000987F9695E92F96959695E90FFF27EF5F96
:102E2000FD4F99273327EE24FF24A701E7010590E2
:102E30000894079428F4360FE71EF81E491F511D09
:102E4000660F771F881F991F0694A1F705900794B6
:102E500028F4E70EF81E491F561FC11D770F881F63
:102E6000991F661F0694A1F70590079428F4F80EA1
:102E7000491F561FC71FD11D880F991F661F771F37
:102E80000694A1F70590079420F4490F561FC71F19
:102E9000D81F990F661F771F881F0694A9F7849182
:102EA0001095177041F0D695C79557954795F794AB
:102EB000E7941A95C1F7E7EAF1E068941590159147
:102EC00035916591959105907FE27395E118F10A2E
:102ED000430B560BC90BD009C0F7E10CF11E431F81
:102EE000561FC91FD01D7EF4703311F48A95E6CFAA
:102EF000E894015030F0080F0AF40027021708F494
:102F0000202F2395022F7A3328F079E37D932A9599
:102F1000E9F710C07D932A9589F6069497956795F1
:102F2000379517951794E118F10A430B560BC90B07
:102F3000D00998F023957E9173957A3308F070E369
:102F40007C932013B8F77E9170617D9330F0839568
:102F500071E37D9370E32A95E1F71124EF90FF90E0
:102F60000F911F91CF91DF91992787FD909508953B
:102F7000992788270895DC01FC01672F7191772339
:102F8000E1F7329704C07C916D9370836291AE1724
:102F9000BF07C8F3089597F99F6780E870E060E085
:102FA00008959FEF80EC089500240A9416161706E2
:102FB00018060906089500240A941216130614062A
:102FC00005060895092E0394000C11F4882352F08D
:102FD000BB0F40F4BF2B11F460FF04C06F5F7F4F45
:102FE0008F4F9F4F089557FD9058440F551F59F02C
:102FF0005F3F71F04795880F97FB991F61F09F3FE6
:1030000079F087950895121613061406551FF2CF0E
:103010004695F1DF08C0161617061806991FF1CF5E
:1030200086957105610508940895E894BB27662785
:103030007727CB0197F908950E942718A59F900D37
:10304000B49F900DA49F800D911D11240895A29FFF
:10305000B001B39FC001A39F700D811D1124911D6C
:10306000B29F700D811D1124911D08955058BB27EA
:10307000AA270E944E180C94E2170E94D41738F029
:103080000E94DB1720F039F49F3F19F426F40C94CA
:10309000D1170EF4E095E7FB0C94CB17E92F0E94B3
:1030A000F31758F3BA17620773078407950720F0E0
:1030B00079F4A6F50C9415180EF4E0950B2EBA2FA2
:1030C000A02D0B01B90190010C01CA01A00111242E
:1030D000FF27591B99F0593F50F4503E68F11A16DA
:1030E000F040A22F232F342F4427585FF3CF46956B
:1030F00037952795A795F0405395C9F77EF41F168D
:10310000BA0B620B730B840BBAF09150A1F0FF0F56
:10311000BB1F661F771F881FC2F70EC0BA0F621F42
:10312000731F841F48F4879577956795B795F79532
:103130009E3F08F0B0CF9395880F08F09927EE0FC7
:103140009795879508950E94B7180C94E2170E94EE
:10315000DB1758F00E94D41740F029F45F3F29F0A4
:103160000C94CB1751110C9416180C94D1170E9483
:10317000F31768F39923B1F3552391F3951B550B7E
:10318000BB27AA2762177307840738F09F5F5F4F3A
:10319000220F331F441FAA1FA9F335D00E2E3AF079
:1031A000E0E832D091505040E695001CCAF72BD091
:1031B000FE2F29D0660F771F881FBB1F26173707E2
:1031C0004807AB07B0E809F0BB0B802DBF01FF2714
:1031D00093585F4F3AF09E3F510578F00C94CB170F
:1031E0000C9416185F3FE4F3983ED4F386957795D8
:1031F0006795B795F7959F5FC9F7880F911D9695CD
:10320000879597F90895E1E0660F771F881FBB1F28
:10321000621773078407BA0720F0621B730B840BD5
:10322000BA0BEE1F88F7E09508950E94FB1788F00F
:103230009F5798F0B92F9927B751B0F0E1F0660F7A
:10324000771F881F991F1AF0BA95C9F714C0B130BB
:1032500091F00E941518B1E008950C941518672F8D
:10326000782F8827B85F39F0B93FCCF386957795EA
:103270006795B395D9F73EF49095809570956195D3
:103280007F4F8F4F9F4F08950E94D61408F48FEF01
:103290000895A1E21A2EAA1BBB1BFD010DC0AA1F97
:1032A000BB1FEE1FFF1FA217B307E407F50720F0AF
:1032B000A21BB30BE40BF50B661F771F881F991F2A
:1032C0001A9469F760957095809590959B01AC0173
:1032D000BD01CF010895EE0FFF1F881F8BBF079020
:1032E000F691E02D19940F931F93CF93DF938230C3
:1032F000910510F482E090E0E0917909F0917A096B
:1033000030E020E0B0E0A0E0309799F421153105DD
:1033100009F44AC0281B390B24303105D8F58A81BD
:103320009B816115710589F1FB0193838283FE0105
:1033300011C0408151810281138148175907E0F083
:103340004817590799F4109761F012960C93129749
:1033500013961C933296CF01DF91CF911F910F915D
:1033600008950093790910937A09F4CF2115310556
:1033700051F04217530738F0A901DB019A01BD0152
:10338000DF01F801C1CFEF01F9CF90937A09809363
:103390007909CDCFFE01E20FF31F81939193225063
:1033A000310939832883D7CF209177093091780963
:1033B000232B41F4209102023091030230937809CB
:1033C00020937709209100023091010221153105E7
:1033D00041F42DB73EB74091040250910502241BE1
:1033E000350BE0917709F0917809E217F307A0F423
:1033F0002E1B3F0B2817390778F0AC014E5F5F4F4B
:103400002417350748F04E0F5F1F509378094093FB
:103410007709819391939FCFF0E0E0E09CCFCF9329
:10342000DF930097E9F0FC01329713821282A0919A
:103430007909B0917A09ED0130E020E01097A1F40C
:1034400020813181820F931F209177093091780973
:103450002817390709F061C0F0937809E0937709DC
:10346000DF91CF910895EA01CE17DF07E8F54A8191
:103470005B819E0141155105B1F7E901FB83EA83A8
:1034800049915991C40FD51FEC17FD0761F4808154
:1034900091810296840F951FE90199838883828127
:1034A00093819B838A83F0E0E0E012968D919C915A
:1034B00013970097B9F52D913C911197CD01029684
:1034C000820F931F209177093091780928173907C7
:1034D00039F6309751F510927A0910927909B09324
:1034E0007809A0937709BCCFD383C28340815181EF
:1034F000840F951FC817D90761F44E5F5F4F88810D
:103500009981480F591F518340838A819B819383FE
:1035100082832115310509F0B0CFF0937A09E09349
:1035200079099ECFFD01DC01C0CF13821282D7CF73
:103530004F925F926F927F928F929F92AF92BF92C3
:10354000CF92DF92EF92FF920F931F93CF93DF936F
:103550008C01009799F4CB01DF91CF911F910F91CE
:10356000FF90EF90DF90CF90BF90AF909F908F90A3
:103570007F906F905F904F900C947319FC01E60F51
:10358000F71F9C0122503109E217F30708F4AEC07F
:10359000D901CD91DC911197C617D70720F1C5301D
:1035A000D10578F0CE0104978617970750F0C61B17
:1035B000D70B2297C193D1936D937C93CF010E9437
:1035C0000F1AC801DF91CF911F910F91FF90EF90DB
:1035D000DF90CF90BF90AF909F908F907F906F9033
:1035E0005F904F9008955B01AC1ABD0A4C018C0EA0
:1035F0009D1EA0917909B0917A09512C412CF12C92
:10360000E12C109731F58091770990917809881510
:10361000990509F05CC04616570608F058C080911D
:10362000000290910102009741F48DB79EB740913E
:10363000040250910502841B950BE817F90708F066
:1036400055C0F0937809E0937709F901718360839D
:10365000B8CF8D919C91119712966C9012971396FA
:103660007C901397A815B90559F56C0142E0C40E7A
:10367000D11CCA14DB0420F1AC014A195B09DA0140
:103680001296159780F06282738251834083D9012C
:103690006D937C93E114F10471F0D7011396FC93C0
:1036A000EE9312978ECF22968C0F9D1FF901918376
:1036B0008083F301EFCFF0937A09E093790981CF0A
:1036C0004816590608F42C017D01D3019ACFCB018D
:1036D0000E9473197C01009749F0AE01B8010E9465
:1036E000791BC8010E940F1A87016BCF10E000E020
:1036F00068CFFB01DC0102C001900D9241505040A7
:10370000D8F70895FB01DC0101900D920020E1F74C
:103710000895F894FFCF00007B09800002000300A9
:10372000040005000600070008000900120013004D
:1037300014001500160017001800190025002600B7
:1037400027002800000000001E038802B5026B035A
:10375000E602C402D8020D0A0053756363657366FE
:10376000756C6C79206368616E67656420626F6157
:1037700072644E7220746F3A20007B007D004552C7
:10378000524F523A2041434B2077617320616C7253
:1037900065616479206C6F77200A004552524F5260
:1037A0003A2041434B206578706972656400455248
:1037B000524F52206465746563746564004D6561A1
:1037C0007375726520646174613A20005B005D006E
:1037D0004D656173757265642063757272656E7490
:1037E0003A2000436F6E6E656374206368616E6E8D
:1037F000656C200020746F2074686520425553006A
:10380000446973636F6E6E656374206368616E6E86
:10381000656C20002066726F6D20746865204255CB
:1038200053006368616E6E656C206F7574206F66FF
:103830002072616E6765205B312E2E2E31365D2041
:103840000A00535441545553204255533A0062756F
:1038500073436F6E30537461747573206265666F65
:1038600072653A2000627573436F6E3053746174F1
:1038700075732061667465723A2000627573436FD8
:103880006E31537461747573206265666F72653A48
:103890002000627573436F6E3153746174757320C9
:1038A00061667465723A20005374617465206973AF
:1038B00020616C726561647920636F7272656374F4
:1038C0000020746F207468652067726F756E6400E5
:1038D0002066726F6D207468652067726F756E6404
:1038E0000053544154555320474E443A00676E6488
:1038F000436F6E30537461747573206265666F72C6
:10390000653A2000676E64436F6E3053746174755E
:10391000732061667465723A2000676E64436F6E4F
:1039200031537461747573206265666F72653A20F5
:1039300000676E64436F6E315374617475732061F8
:10394000667465723A2000436F6E6E65637420760C
:103950006F6C7461676520736F7572636500535493
:103960004154555320434F4E4E454354494E4720F2
:10397000564F4C5441474520534F555243450053F1
:10398000746174757320766F6C7461676520736FF2
:1039900075726365206265666F72653A20005374C4
:1039A0006174757320766F6C7461676520736F75D1
:1039B0007263652061667465723A20002E0053655B
:1039C0007420766F6C7461676520746F20005354A7
:1039D00041545553204441544120534554564F4C73
:1039E000544147453A0064617461305374617475A1
:1039F00073206265666F72653A200064617461309D
:103A00005374617475732061667465723A20006442
:103A100061746131537461747573206265666F728D
:103A2000653A200064617461315374617475732068
:103A300061667465723A200052454144204F5045FA
:103A4000524154494F4E004461746170696E732055
:103A500061726520636F6E666967757265642C209C
:103A60006164647265737370696E7320616E642043
:103A7000636172644164647265737350696E73202C
:103A800061726520636F6E66696775726564206137
:103A90006E64207772697474656E00526561646C3F
:103AA000696E6520697320736574204C4F5700411F
:103AB000434B2072656365697665640070696E7357
:103AC00020617265207265616400526561646C6991
:103AD0006E6520697320726573657420286C6F773A
:103AE0002900526561642066696E697368656420A7
:023AF0000A00CA
:020000040003F7
:10E000000D9489F10D94B2F10D94B2F10D94B2F129
:10E010000D94B2F10D94B2F10D94B2F10D94B2F1F0
:10E020000D94B2F10D94B2F10D94B2F10D94B2F1E0
:10E030000D94B2F10D94B2F10D94B2F10D94B2F1D0
:10E040000D94B2F10D94B2F10D94B2F10D94B2F1C0
:10E050000D94B2F10D94B2F10D94B2F10D94B2F1B0
:10E060000D94B2F10D94B2F10D94B2F10D94B2F1A0
:10E070000D94B2F10D94B2F10D94B2F10D94B2F190
:10E080000D94B2F10D94B2F10D94B2F10D94B2F180
:10E090000D94B2F10D94B2F10D94B2F10D94B2F170
:10E0A0000D94B2F10D94B2F10D94B2F10D94B2F160
:10E0B0000D94B2F10D94B2F10D94B2F10D94B2F150
:10E0C0000D94B2F10D94B2F10D94B2F10D94B2F140
:10E0D0000D94B2F10D94B2F10D94B2F10D94B2F130
:10E0E0000D94B2F141546D656761323536300041AF
:10E0F000726475696E6F206578706C6F72657220DE
:10E1000073746B3530305632206279204D4C530099
:10E11000426F6F746C6F616465723E004875683F52
:10E1200000436F6D70696C6564206F6E203D200048
:10E130004350552054797065202020203D20005FF9
:10E140005F4156525F415243485F5F3D2000415658
:10E1500052204C696243205665723D20004743437C
:10E160002056657273696F6E203D20004350552024
:10E1700049442020202020203D20004C6F7720663D
:10E18000757365202020203D20004869676820665F
:10E190007573652020203D200045787420667573D6
:10E1A00065202020203D20004C6F636B2066757336
:10E1B000652020203D20004D617220203720323024
:10E1C000313300312E362E3800342E332E350056A2
:10E1D00023202020414444522020206F7020636F70
:10E1E00064652020202020696E73747275637469E1
:10E1F0006F6E2061646472202020496E74657272B3
:10E20000757074006E6F20766563746F7200726A49
:10E210006D702020006A6D70200057686174207056
:10E220006F72743A00506F7274206E6F7420737541
:10E2300070706F72746564004D7573742062652030
:10E2400061206C6574746572002000577269747483
:10E25000696E672045450052656164696E672045B7
:10E26000450045452065727220636E743D00504F35
:10E27000525400303D5A65726F2061646472003FF1
:10E280003D43505520737461747300403D454550C3
:10E29000524F4D207465737400423D426C696E6B41
:10E2A000204C454400453D44756D70204545505215
:10E2B0004F4D00463D44756D7020464C415348001B
:10E2C000483D48656C70004C3D4C69737420492F83
:10E2D0004F20506F72747300513D51756974005234
:10E2E0003D44756D702052414D00563D73686F7707
:10E2F00020696E7465727275707420566563746FF0
:10E30000727300593D506F727420626C696E6B00BD
:10E310002A0011241FBECFEFD1E2DEBFCDBF01E046
:10E320000CBF12E0A0E0B2E0EEE1FDEF03E00BBFB6
:10E3300002C007900D92A030B107D9F712E0A0E01B
:10E34000B2E001C01D92AE30B107E1F70F9460F367
:10E350000D948DFE01E20EBF0FEF0DBF11241FBE05
:10E360000D9460F30D9400F020E030E040ED57E0B4
:10E3700005C0FA013197F1F72F5F3F4F2817390792
:10E38000C0F308959C01260F311DC901A0E0B0E043
:10E390002F5F3F4FABBFFC018791882361F08093D3
:10E3A000C6008091C00086FFFCCF8091C0008064D1
:10E3B0008093C000EACF08958DE08093C6008091DD
:10E3C000C00086FFFCCF8091C00080648093C000B5
:10E3D0008AE08093C6008091C00086FFFCCF8091C8
:10E3E000C00080648093C00008950F94C2F10F9420
:10E3F000DCF10895FC019081992359F09093C600B7
:10E400008091C00086FFFCCF8091C0008064809323
:10E41000C0003196992379F70895282F982F929567
:10E420009F70892F805D8A3308F0895F8093C600D2
:10E430008091C00086FFFCCF8091C00080648093F3
:10E44000C000822F8F70982F905D9A3308F0995FEB
:10E450009093C6008091C00086FFFCCF8091C000E1
:10E4600080648093C00008959C01FB01853691056E
:10E470001CF46330710594F0C90164E670E00F94F8
:10E480002EFE605D7F4F6093C6008091C00086FFC6
:10E49000FCCF8091C00080648093C0002B30310598
:10E4A00014F43297B4F0C90164E670E00F942EFEC4
:10E4B0006AE070E00F942EFE605D7F4F6093C600AF
:10E4C0008091C00086FFFCCF8091C0008064809363
:10E4D000C000C9016AE070E00F942EFEC0968093E0
:10E4E000C6008091C00086FFFCCF8091C000806490
:10E4F0008093C00008951F93182F8EE692EE60E07F
:10E500000F94C2F11093C6008091C00086FFFCCF2B
:10E510008091C00080648093C0000F94DCF11F9153
:10E5200008952F923F924F925F926F927F928F92B7
:10E530009F92AF92BF92CF92DF92EF92FF920F9392
:10E540001F93DF93CF93CDB7DEB762970FB6F894E2
:10E55000DEBF0FBECDBF382E622ECA01DB015C01CB
:10E560006D01772420E2222E2E010894411C511CBB
:10E570008BC081E0A81680E0B80681E0C80680E084
:10E58000D80628F0C601AA27BB270F940DF2BB2797
:10E59000AD2D9C2D8B2D0F940DF28A2D0F940DF225
:10E5A0002092C6008091C00086FFFCCF8091C00001
:10E5B00080648093C0009DE29093C6008091C0006B
:10E5C00086FFFCCF8091C00080648093C0002092C1
:10E5D000C6008091C00086FFFCCF8091C00080649F
:10E5E0008093C00019828601750188249924A1E0D6
:10E5F0003A1651F03A1620F0B2E03B1661F409C029
:10E600000BBFF701779007C0C7010F9477FE782EF4
:10E6100002C0F7017080872D0F940DF22092C60082
:10E620008091C00086FFFCCF8091C0008064809301
:10E63000C000872D8052F401EF70F0708F3520F408
:10E64000E40DF51D708204C0E40DF51D8EE280839B
:10E650000894E11CF11C011D111D0894811C911CE2
:10E6600090E18916910409F0C2CF80E190E0A0E02A
:10E67000B0E0A80EB91ECA1EDB1E198AC2010F9493
:10E68000FAF10F94DCF16A94662009F072CF629679
:10E690000FB6F894DEBF0FBECDBFCF91DF911F91B3
:10E6A0000F91FF90EF90DF90CF90BF90AF909F9031
:10E6B0008F907F906F905F904F903F902F90089534
:10E6C0002F923F924F925F926F927F928F929F9282
:10E6D000AF92BF92CF92DF92EF92FF920F931F9370
:10E6E000DF93CF93CDB7DEB7CD53D1400FB6F894BB
:10E6F000DEBF0FBECDBF01E20EBF0FEF0DBF94B75F
:10E70000F894A89514BE80916000886180936000A1
:10E7100010926000789493FF05C0E0910002F091A0
:10E7200001021995279A2F9A8091C00082608093E8
:10E73000C00080E18093C40088E18093C1000000A4
:10E74000EE24FF24870144E0A42EB12CCC24DD2448
:10E7500024C0C5010197F1F70894E11CF11C011DCB
:10E76000111D21E2E2162EE4F20620E0020720E06D
:10E77000120718F031E0C32ED12CC801B70127ECE5
:10E780003BE140E050E00F9441FE611571058105C9
:10E79000910519F485B1805885B98091C00087FD35
:10E7A00003C0C114D104A9F2A6014F5F5F4FC25E3E
:10E7B000DE4F59834883CE51D140C25EDE4F8881FF
:10E7C0009981CE51D140019711F00D9410FEC05D9A
:10E7D000DE4F19821882C053D14060E0C15DDE4F28
:10E7E0001882CF52D14088249924C35DDE4F19820C
:10E7F0001882CD52D140C05EDE4F188219821A8233
:10E800001B82C052D140CE5CDE4F188219821A8220
:10E810001B82C253D140EE24FF2487010BBFF701B6
:10E8200007911691C45CDE4F19830883CC53D14005
:10E830000D940BFEC25EDE4F28813981CE51D1404E
:10E840002130310509F52091C600C25EDE4F1982E4
:10E850001882CE51D14022C02F5F3F4F4F4F5F4FA4
:10E86000213082E138078AE7480780E0580780F0C6
:10E87000C45CDE4FE881F981CC53D140EF5FFF4F9C
:10E8800019F0EE27FF27099420E030E040E050E047
:10E890008091C00087FFE0CF2091C600C35DDE4FAE
:10E8A00048815981CD52D1404F5F5F4FC35DDE4FEC
:10E8B00059834883CD52D140213209F063C64A3092
:10E8C000510508F05FC60894811C911C53E0851621
:10E8D000910409F059C600E010E018C081E280936D
:10E8E000C6008091C00086FFFCCF8091C00080648C
:10E8F0008093C0002F5F3F4F2931310579F70F9486
:10E90000DCF10F5F1F4F0530110519F020E030E0FA
:10E91000E5CF10920A0210920B0210920C02109294
:10E920000D02109206021092070210920802109235
:10E930000902109202021092030210920402109235
:10E9400005028FEE90EE60E00F94F5F180E191EE1C
:10E9500060E00F94C2F18091C00087FFFCCF9091DE
:10E96000C600903608F09F759032B8F09093C600BC
:10E970008091C00086FFFCCF8091C00080648093AE
:10E98000C000A0E2A093C6008091C00086FFFCCF2B
:10E990008091C00080648093C000983409F4D7C18E
:10E9A0009934B8F4923409F459C1933458F490333B
:10E9B00019F1903308F4E3C59F33A1F1903409F0C5
:10E9C000DEC5BDC0953409F470C1963409F0D7C5D1
:10E9D00098C1923509F42BC2933538F49C3409F46C
:10E9E000F5C1913509F0CBC518C2963509F445C279
:10E9F000993509F0C4C567C483E792EE62E00F94CD
:10EA0000F5F110920602109207021092080210927D
:10EA1000090210920A0210920B0210920C0210923C
:10EA20000D0213C18FE792EE62E00F94F5F18FEEC5
:10EA300090EE60E00F94F5F181E291EE60E00F94CA
:10EA4000C2F187EB91EE60E00F94F5F180E391EE77
:10EA500060E00F94C2F184EE90EE60E00F94F5F167
:10EA60008FE391EE60E00F94C2F186E090E061E008
:10EA700070E00F9434F20F94DCF18DE591EE60E0DC
:10EA80000F94C2F189EC91EE60E00F94F5F18EE401
:10EA900091EE60E00F94C2F183EC91EE60E00F9490
:10EAA000F5F18CE691EE60E00F94C2F18EE10F94E7
:10EAB0000DF288E90F940DF281E00F940DF20F949E
:10EAC000DCF18BE791EE60E00F94C2F119E0E0E039
:10EAD000F0E010935700E4918E2F0F940DF20F94F5
:10EAE000DCF18AE891EE60E00F94C2F1E3E0F0E03F
:10EAF00010935700E4918E2F0F940DF20F94DCF1D8
:10EB000089E991EE60E00F94C2F1E2E0F0E0109349
:10EB10005700E4918E2F0F940DF20F94DCF188EAE8
:10EB200091EE60E00F94C2F1E1E0F0E01093570045
:10EB30001491812F0F940DF20F94DCF107CF8BE825
:10EB400092EE62E00F94F5F18BE492EE60E00F94A8
:10EB5000F5F10F94DCF100E010E019C0C8016F2D51
:10EB60000F947FFEFF2031F489E492EE60E00F9471
:10EB7000C2F10BC0F092C6008091C00086FFFCCFAE
:10EB80008091C00080648093C0000F5F1F4FC80158
:10EB900081519F41A0E0B0E0ABBFFC01F790BAE229
:10EBA000FB1621F0E2E000301E07C1F60F94DCF105
:10EBB0000F94DCF187E592EE60E00F94F5F10F948D
:10EBC000DCF1CC24DD2400E010E01EC0C8010F946D
:10EBD00077FEF82E882331F489E492EE60E00F94FA
:10EBE000C2F10BC08093C6008091C00086FFFCCFAD
:10EBF0008091C00080648093C000FE1419F00894D6
:10EC0000C11CD11C0F5F1F4FC80181519F41A0E063
:10EC1000B0E0ABBFFC01E790FAE2EF1621F022E092
:10EC20000030120799F60F94DCF10F94DCF182E6C4
:10EC300092EE60E00F94C2F1C60161E070E00F94C3
:10EC400034F20F94DCF10F94DCF110920202109276
:10EC50000302109204021092050278CE89E992EE26
:10EC600062E00F94F5F1279A2F9A16C02F9880E052
:10EC700090E0E0EDF7E03197F1F7019684369105E9
:10EC8000C1F72F9A80E090E0E0EDF7E03197F1F7DF
:10EC9000019684369105C1F78091C00087FFE6CFC9
:10ECA0008091C00087FFFCCF64C485EA92EE62E0E9
:10ECB0000F94F5F140910202509103026091040219
:10ECC0007091050281E020E10F9491F2809102029F
:10ECD00090910302A0910402B091050280509F4FD1
:10ECE000AF4FBF4F8093020290930302A0930402A0
:10ECF000B093050280509041A040B04008F426CE69
:10ED0000A4CF83EB92EE62E00F94F5F140910602FE
:10ED100050910702609108027091090280E020E1A1
:10ED20000F9491F28091060290910702A09108023F
:10ED3000B091090280509F4FAF4FBF4F80930602A2
:10ED400090930702A0930802B0930902FFCD80ECD4
:10ED500092EE62E00F94F5F183E792EE60E00F949B
:10ED6000F5F18FE792EE60E00F94F5F18BE892EE0B
:10ED700060E00F94F5F189E992EE60E00F94F5F10F
:10ED800085EA92EE60E00F94F5F183EB92EE60E09D
:10ED90000F94F5F180EC92EE60E00F94F5F187ECC2
:10EDA00092EE60E00F94F5F188ED92EE60E00F9442
:10EDB000F5F18FED92EE60E00F94F5F18AEE92EEB0
:10EDC00060E00F94F5F183E093EEBDCD87EC92EE19
:10EDD00062E00F94F5F181E40F947BF282E40F94EA
:10EDE0007BF283E40F947BF284E40F947BF285E45E
:10EDF0000F947BF286E40F947BF287E40F947BF20E
:10EE000088E40F947BF28AE40F947BF28BE40F94F6
:10EE10007BF28CE40F947BF299CD88ED92EE62E068
:10EE20000F94F5F1772473948824992409C48FED05
:10EE300092EE62E00F94F5F140910A0250910B02BC
:10EE400060910C0270910D0282E020E10F9491F22A
:10EE500080910A0290910B02A0910C02B0910D02D8
:10EE600080509F4FAF4FBF4F80930A0290930B0289
:10EE7000A0930C02B0930D0269CD8AEE92EE62E08F
:10EE80000F94F5F184EE90EE60E00F94F5F18FECC5
:10EE900091EE60E00F94F5F1662477244301CC5D98
:10EEA000DE4F19821882C452D140D401C301B695F5
:10EEB000A79597958795CA5DDE4F88839983AA8326
:10EEC000BB83C652D140CC5DDE4FA881B981C4520C
:10EED000D1401196CC5DDE4FB983A883C452D14096
:10EEE000CD0162E070E00F9434F2B0E2B093C6005E
:10EEF0008091C00086FFFCCF8091C0008064809329
:10EF0000C000EDE2E093C6008091C00086FFFCCF18
:10EF10008091C00080648093C000F0E2F093C6004E
:10EF20008091C00086FFFCCF8091C00080648093F8
:10EF3000C000CA5DDE4FE880F9800A811B81C6529D
:10EF4000D140BB27A12F902F8F2D0F940DF2CA5DBA
:10EF5000DE4F8881C652D1400F940DF2B0E2FB2EF5
:10EF6000F092C6008091C00086FFFCCF8091C00067
:10EF700080648093C0000DE30093C6008091C000C0
:10EF800086FFFCCF8091C00080648093C00010E2B7
:10EF90001093C6008091C00086FFFCCF8091C00016
:10EFA00080648093C0008BBEF3012791C65DDE4F65
:10EFB0002883CA52D140A22EBB24CC24DD2408943D
:10EFC000611C711C811C911C8BBEF3018791282E42
:10EFD0003324442455240894611C711C811C911C09
:10EFE0008BBEF3013791C55DDE4F3883CB52D140E4
:10EFF0000894611C711C811C911C8BBEF30147910C
:10F00000C45DDE4F4883CC52D140ADEFEA2EAFEF66
:10F01000FA2EAFEF0A2FAFEF1A2F6E0C7F1C801E57
:10F02000911E142D032DF22CEE24EA0CFB1C0C1D5A
:10F030001D1D0F940DF220E22093C6008091C000A8
:10F0400086FFFCCF8091C00080648093C000C65DC5
:10F05000DE4F8881CA52D1400F940DF230E23093D6
:10F06000C6008091C00086FFFCCF8091C000806404
:10F070008093C000C45DDE4F8881CC52D1400F9494
:10F080000DF240E24093C6008091C00086FFFCCFA5
:10F090008091C00080648093C000C55DDE4F888190
:10F0A000CB52D1400F940DF250E25093C6008091A4
:10F0B000C00086FFFCCF8091C00080648093C000B8
:10F0C0008FEFE8168FEFF80680E0080780E018075A
:10F0D00031F484E092EE60E00F94C2F1DFC0D80119
:10F0E000C7018070907CA070B0708050904CA040A0
:10F0F000B040D1F52FEF3FE340E050E0E222F322B1
:10F1000004231523CA5DDE4FA880B980CA80DB8046
:10F11000C652D140AE0CBF1CC01ED11EAA0CBB1CD7
:10F12000CC1CDD1C8EE092EE60E00F94C2F1BB2798
:10F13000A12F902F8F2D0F940DF28E2D0F940DF285
:10F1400030E23093C6008091C00086FFFCCF8091F2
:10F15000C00080648093C0004EE34093C60080915D
:10F16000C00086FFFCCF87C08EE09EEFA0E0B0E03D
:10F17000E822F9220A231B239CE0E91694E9F90608
:10F1800090E0090790E0190709F088C0C45DDE4FE0
:10F19000A881CC52D140EA2EFF2400E010E0102FCD
:10F1A0000F2DFE2CEE24C55DDE4FB881CB52D14031
:10F1B000EB0EF11C011D111DD601C501817090706F
:10F1C000A070B070DC0199278827E80EF91E0A1F8D
:10F1D0001B1F20EF30E040E050E0A222B322C42207
:10F1E000D52241E1AA0CBB1CCC1CDD1C4A95D1F7F1
:10F1F000EA0CFB1C0C1D1D1D81E090E0A0E0B0E0BE
:10F20000282239224A225B2235E1220C331C441C7D
:10F21000551C3A95D1F7E20CF31C041D151D57013E
:10F220006801AA0CBB1CCC1CDD1C85E192EE60E0E1
:10F230000F94C2F1C801AA27BB270F940DF2BB2778
:10F24000A12F902F8F2D0F940DF28E2D0F940DF274
:10F2500090E29093C6008091C00086FFFCCF809121
:10F26000C00080648093C000AEE3A093C60080918C
:10F27000C00086FFFCCF8091C00080648093C000F6
:10F28000C601AA27BB270F940DF2BB27AD2D9C2DDD
:10F290008B2D0F940DF28A2D0F940DF20F94DCF14B
:10F2A000CC5DDE4FE881F981C452D140F99709F471
:10F2B0004DCBF4E0EF2EF12C012D112D6E0C7F1CA7
:10F2C000801E911EF2CD83E093EE62E00F94F5F183
:10F2D0008AE192EE60E00F94C2F18091C00087FF56
:10F2E000FCCF1091C6001F751093C6008091C0001E
:10F2F00086FFFCCF8091C00080648093C0000F9493
:10F30000DCF1812F81548A3108F036C1163409F4BA
:10F3100095C0173490F4133409F44EC0143430F40B
:10F320001134F1F0123409F01DC130C0143409F465
:10F3300059C0153409F016C16BC01A3409F4C4C0A1
:10F340001B3438F4173409F48FC0183409F00AC19B
:10F35000A1C01B3409F4D2C01C3409F003C1E8C0B9
:10F360008FEF81B90DC082B1809582B980E090E0C5
:10F37000E0EDF7E03197F1F70196883C9105C1F790
:10F380008091C00087FFEFCF12B8EFC08FEF84B934
:10F390000DC085B1809585B980E090E0E0EDF7E0A3
:10F3A0003197F1F70196883C9105C1F78091C00033
:10F3B00087FFEFCF15B8D9C08FEF87B90DC088B1DF
:10F3C000809588B980E090E0E0EDF7E03197F1F7C3
:10F3D0000196883C9105C1F78091C00087FFEFCF6F
:10F3E00018B8C3C08FEF8AB90DC08BB180958BB9A7
:10F3F00080E090E0E0EDF7E03197F1F70196883C8E
:10F400009105C1F78091C00087FFEFCF1BB8ADC059
:10F410008FEF8DB90DC08EB180958EB980E090E0F0
:10F42000E0EDF7E03197F1F70196883C9105C1F7DF
:10F430008091C00087FFEFCF1EB897C08FEF80BBD1
:10F440000DC081B3809581BB80E090E0E0EDF7E0F6
:10F450003197F1F70196883C9105C1F78091C00082
:10F4600087FFEFCF11BA81C08FEF83BB0DC084B38C
:10F47000809584BB80E090E0E0EDF7E03197F1F714
:10F480000196883C9105C1F78091C00087FFEFCFBE
:10F4900014BA6BC08FEF809301010FC080910201FD
:10F4A00080958093020180E090E0E0EDF7E03197F5
:10F4B000F1F70196883C9105C1F78091C00087FF64
:10F4C000EDCF1092020151C08FEF809304010FC065
:10F4D0008091050180958093050180E090E0E0ED4A
:10F4E000F7E03197F1F70196883C9105C1F78091DB
:10F4F000C00087FFEDCF1092050137C08FEF8093DA
:10F5000007010FC08091080180958093080180E079
:10F5100090E0E0EDF7E03197F1F70196883C910536
:10F52000C1F78091C00087FFEDCF109208011DC088
:10F530008FEF80930A010FC080910B01809580931B
:10F540000B0180E090E0E0EDF7E03197F1F70196F4
:10F55000883C9105C1F78091C00087FFEDCF1092E4
:10F560000B0103C085E292EEEEC98091C00087FFD7
:10F57000FCCF8091C600EAC988E392EEE4C98CE131
:10F5800091EEE1C988249924933011F1943028F444
:10F59000913089F09230B8F408C0953061F195301F
:10F5A000F0F0963009F048C043C02B3109F042C951
:10F5B00091E06BE13FC96227C15DDE4F2883CF52E6
:10F5C000D14092E037C9B22FA0E0622793E032C960
:10F5D000822F90E0A82BB92B622794E02BC92E3004
:10F5E00009F039C3622795E0C05DDE4F19821882A9
:10F5F000C053D1401FC9E1E0F0E0EC0FFD1FC05D3A
:10F60000DE4F08811981C053D140E00FF11F2083E4
:10F610000F5F1F4FC05DDE4F19830883C053D14079
:10F6200062270A171B0709F005C9D80196E002C92D
:10F63000261709F010C303C0973009F0FBC87724E0
:10F640009981933109F412C19431C8F4963009F4C8
:10F65000D8C0973050F4923009F406C1933009F4C1
:10F660006DC0913009F059C253C0913109F477C08F
:10F67000923108F0BBC0903109F04FC2F5C098310B
:10F6800009F487C0993150F4953109F4EFC09531F0
:10F6900008F4C6C1963109F040C2C2C19A3109F4DA
:10F6A0006CC09A3108F491C09B3109F45BC09D3164
:10F6B00009F033C29D81903359F48F81882311F46E
:10F6C0009EE11CC0813011F091E018C098E916C08D
:10F6D000892F807591F0903539F4E0E0F0E089E011
:10F6E0008093570094910AC0983539F4E3E0F0E034
:10F6F00089E080935700949101C090E01A821B82A8
:10F700008D818C831D829E831F8227E030E009C299
:10F710001A8288E08B8381E48C8386E58D8382E581
:10F720008E8389E48F8383E5888780E589878FE5E9
:10F730008A8782E38B872BE030E0F3C18A818139AD
:10F7400041F0823941F0803911F48FE005C080E04A
:10F7500003C082E001C08AE01A828B8344C0772410
:10F76000739482C08D81882311F48EE12CC0813086
:10F7700011F081E028C088E926C01A82E1E0F0E0BB
:10F7800089E08093570084918B831C8224E030E0D1
:10F79000C8C18B81803589F48C81883039F4E2E0EE
:10F7A000F0E089E08093570084910DC0E0E0F0E044
:10F7B00089E080935700849106C0E3E0F0E089E09F
:10F7C0008093570084911A82DFCF8D81836C99E0FA
:10F7D000E1E0F0E0082E90935700E89507B600FCB2
:10F7E000FDCF1A821B8223E030E09BC180EC8A832C
:10F7F000CE5CDE4F188219821A821B82C253D1401E
:10F800008EC18A8190E0A0E0B0E0582F44273327D2
:10F8100022278B8190E0A0E0B0E0DC0199278827C7
:10F82000282B392B4A2B5B2B8D8190E0A0E0B0E098
:10F83000282B392B4A2B5B2B8C8190E0A0E0B0E089
:10F84000BA2FA92F982F8827282B392B4A2B5B2BCF
:10F85000220F331F441F551FC05EDE4F288339839C
:10F860004A835B83C052D1401A8259C13A81C95C34
:10F87000DE4F3883C753D140CA5CDE4F1882C6536F
:10F88000D1408B81C82EDD24CA5CDE4F488159816E
:10F89000C653D140C42AD52A933109F082C0CE5C28
:10F8A000DE4F88819981AA81BB81C253D1408050AB
:10F8B000904CA340B04030F583E0CE5CDE4FE88052
:10F8C000F9800A811B81C253D140F70100935B008C
:10F8D00080935700E89507B600FCFDCFCE5CDE4F65
:10F8E000088119812A813B81C253D14000501F4FAA
:10F8F0002F4F3F4FCE5CDE4F088319832A833B8313
:10F90000C253D140C05EDE4F488159816A817B81FC
:10F91000C052D140DE011B9631E08C9111962C91A2
:10F9200011971296C75CDE4F2883C953D140C85C3B
:10F93000DE4F1882C853D14090E0C85CDE4FE881AA
:10F94000F981C853D1408E2B9F2B0C01FA01609393
:10F950005B0030935700E89511244E5F5F4F6F4F67
:10F960007F4F0EEFE02E0FEFF02ECE0CDF1CC114F8
:10F97000D10499F685E0C05EDE4F088119812A81A5
:10F980003B81C052D140F80120935B008093570027
:10F99000E89507B600FCFDCF81E180935700E8951C
:10F9A00035C0C05EDE4F88819981AA81BB81C0527B
:10F9B000D140B695A795979587957C018601ABE0D8
:10F9C000AA2EB12CAC0EBD1E0BC0D5016D915D01F0
:10F9D000C7010F947FFE0894E11CF11C01501040F8
:10F9E0000115110591F7A60160E070E0440F551F65
:10F9F000661F771FC05EDE4FE880F9800A811B8199
:10FA0000C052D1404E0D5F1D601F711F1A82C05E33
:10FA1000DE4F488359836A837B83C052D1407FC0C5
:10FA2000FA80C55CDE4FF882CB53D140C65CDE4F16
:10FA30001882CA53D1408B81C82EDD24C65CDE4FAC
:10FA400008811981CA53D140C02AD12A1A828981DA
:10FA5000BE016D5F7F4F843121F59601C05EDE4FA0
:10FA6000E880F9800A811B81C052D1400BBFF701A9
:10FA700087919691DB018C9311969C936E5F7F4FDB
:10FA8000D801C7010296A11DB11DC05EDE4F88835B
:10FA90009983AA83BB83C052D14022503040F1F6F3
:10FAA00036C0C05EDE4F288139814A815B81C052F9
:10FAB000D1400894C108D108760100E010E0089414
:10FAC000C11CD11C0894E11CF11C011D111DE20E8A
:10FAD000F31E041F151F21BDBB27A52F942F832FB5
:10FAE00082BD2F5F3F4F4F4F5F4FF89A80B5DB01CC
:10FAF0008D93BD012E153F054007510761F7C05E8C
:10FB0000DE4F288339834A835B83C052D1409601FC
:10FB10002D5F3F4FFB01108204C080EC8A8322E0FE
:10FB200030E08BE18093C6008091C00086FFFCCF5F
:10FB30008091C00080648093C000C15DDE4FF88179
:10FB4000CF52D140F093C6008091C00086FFFCCF19
:10FB50008091C00080648093C000432F3093C60022
:10FB60008091C00086FFFCCF8091C00080648093AC
:10FB7000C000922F2093C6008091C00086FFFCCF6A
:10FB80008091C00080648093C0008EE08093C600A6
:10FB90008091C00086FFFCCF8091C000806480937C
:10FBA000C00065E1C15DDE4FE880CF52D1406E25D7
:10FBB00069276427FE01319610C090819093C6009A
:10FBC0008091C00086FFFCCF31968091C000806498
:10FBD0008093C0006927215030402115310569F715
:10FBE0006093C6008091C00086FFFCCF8091C0006A
:10FBF00080648093C00085B1805885B9772081F4F6
:10FC0000C15DDE4F0881CF52D1400F5FC15DDE4F35
:10FC10000883CF52D14090E0A0E0B0E00D941AF4F8
:10FC200027982F9880E090E020ED37E0F901319798
:10FC3000F1F7019684369105C9F700008091C00064
:10FC40008D7F8093C00081E180935700E895EE2777
:10FC5000FF270994FFCF90E00D941AF497FB092E2B
:10FC600007260AD077FD04D02ED006D000201AF443
:10FC7000709561957F4F0895F6F7909581959F4F08
:10FC80000895A1E21A2EAA1BBB1BFD010DC0AA1FDD
:10FC9000BB1FEE1FFF1FA217B307E407F50720F0F5
:10FCA000A21BB30BE40BF50B661F771F881F991F70
:10FCB0001A9469F760957095809590959B01AC01B9
:10FCC000BD01CF010895AA1BBB1B51E107C0AA1FAC
:10FCD000BB1FA617B70710F0A61BB70B881F991FED
:10FCE0005A95A9F780959095BC01CD010895F99991
:10FCF000FECF92BD81BDF89A992780B50895262F31
:10FD0000F999FECF1FBA92BD81BD20BD0FB6F89400
:0EFD1000FA9AF99A0FBE01960895F894FFCF63
:00000001FF
