:020000040000FA
:100000000C943B010C946C010C946C010C946C01ED
:100010000C946C010C946C010C946C010C946C01AC
:100020000C946C010C946C010C946C010C946C019C
:100030000C946C010C946C010C946C010C946C018C
:100040000C946C010C946C010C946C010C946C017C
:100050000C946C010C946C010C946C010C94C30610
:100060000C946C010C948D060C9463060C946C013A
:100070000C946C010C946C010C946C010C946C014C
:100080000C946C010C946C010C946C010C946C013C
:100090000C942D060C9403060C946C010C946C01CA
:1000A0000C946C010C946C010C946C010C946C011C
:1000B0000C946C010C946C010C946C010C946C010C
:1000C0000C946C010C946C010C946C010C946C01FC
:1000D0000C946C010C946C010C946C010C946C01EC
:1000E0000C946C010C94E3010C944E030C942903C2
:1000F0000C941C030C94A3020C9445030C942D0344
:100100000C9442040C940D070C9418030C943B03BC
:100110000C9414030C9406020C9433030C942205E3
:100120000C9420030C9411050C940E030C943703CB
:100130000C944F030C9453030C94F2010C9423037E
:100140000C9441030C9456020C9414020C94B601C6
:100150000C94490300002100240027002A002D00F0
:100160003000330001010000040107010A01000012
:100170002200250028002B002E003100340002014F
:100180000000050108010B010000200023002600EB
:1001900029002C002F00320000010000030106019D
:1001A00009010505050507050808080802020202FD
:1001B0000A0A080804040404010101010101010103
:1001C0000303030303030303040707070C0C0C0CCE
:1001D0000C0C0C0C020202020606060606060606B7
:1001E0000B0B0B0B0B0B0B0B010210202008081044
:1001F0002040102040800201020108040201010297
:10020000040810204080804020100804020180046F
:1002100002018040201008040201080402010102CA
:1002200004081020408001020408102040800000D3
:100230000A0B02090C0D0E08070304010000000060
:1002400000000000000000000000000000000000AE
:10025000000000000000000000001211100000006B
:10026000000000000000000000000000000000008E
:10027000000000000D0711241FBECFEFD1E2DEBF4A
:10028000CDBF00E00CBF27E0A6EDB3E001C01D929A
:10029000A63EB207E1F713E0A0E0B2E0E6E2F6E145
:1002A00000E00BBF02C007900D92A63DB107D9F741
:1002B00011E0CBE3D1E000E006C021970109802FD7
:1002C000FE010E94090BCA33D10780E00807A9F795
:1002D0000E94BE070C94110B0C940000FC01A08935
:1002E000B18982E08C93A485B5851C92A685B785DB
:1002F00080E18C93108EA489B58986E08C93A289C5
:10030000B3898C9180618C93A289B3898C91886028
:100310008C93A289B3898C9180688C930288F3892D
:10032000E02D80818F7D80830895AC0110922F0590
:1003300090917F0780917E07FA01BF01641B750BC6
:1003400020912F05308130932F05931304C0921311
:1003500002C010922F053081311104C0921721F094
:10036000CB0108953817D1F33196E7CFAF92BF9202
:10037000CF92DF92EF92FF920F931F93CF93DF9371
:100380006C017B018B01040F151FEB015E01AE18A0
:10039000BF08C017D10759F06991D601ED91FC91C2
:1003A0000190F081E02DC6011995892B79F7C501DF
:1003B000DF91CF911F910F91FF90EF90DF90CF9041
:1003C000BF90AF900895FC01538D448D252F30E0F0
:1003D000842F90E0821B930B541710F0CF96089552
:1003E00001970895FC01918D828D981761F0A28D7F
:1003F000AE0FBF2FB11D5D968C91928D9F5F9F7345
:10040000928F90E008958FEF9FEF0895FC01918DFA
:10041000828D981731F0828DE80FF11D858D90E067
:1004200008958FEF9FEF0895FC01918D228D892F04
:1004300090E0805C9F4F821B91098F7399270895EC
:1004400080EF93E00E94140221E0892B09F420E060
:10045000822F08958DE894E00E94140221E0892BF8
:1004600009F420E0822F0895FC01A48DA80FB92F74
:10047000B11DA35ABF4F2C91848D90E001968F73CC
:100480009927848FA689B7892C93A089B1898C91EB
:10049000837080648C93938D848D981306C002883A
:1004A000F389E02D80818F7D80830895EF92FF9204
:1004B0000F931F93CF93DF93EC0181E0888F9B8D87
:1004C0008C8D98131AC0E889F989808185FF15C041
:1004D0009FB7F894EE89FF896083E889F989808164
:1004E0008370806480839FBF81E090E0DF91CF9133
:1004F0001F910F91FF90EF900895F62E0B8D10E055
:100500000F5F1F4F0F731127E02E8C8D8E110CC0C3
:100510000FB607FCFACFE889F989808185FFF5CF0E
:10052000CE010E943402F1CFEB8DEC0FFD2FF11DB7
:10053000E35AFF4FF0829FB7F8940B8FEA89FB894B
:1005400080818062CFCFCF93DF93EC01888D8823A9
:10055000B9F0AA89BB89E889F9898C9185FD03C026
:10056000808186FD0DC00FB607FCF7CF8C9185FF0B
:10057000F2CF808185FFEDCFCE010E943402E9CF1A
:10058000DF91CF91089580E090E0892B29F00E94BF
:100590002A0281110E94000080E090E0892B29F05E
:1005A0000E94200281110E94000080E090E0892BCF
:1005B00049F080E090E0892B29F00E940000811131
:1005C0000E94000080E090E0892B49F080E090E0FC
:1005D000892B29F00E94000081110C9400000895DD
:1005E0008150823108F05AC0E82FF0E08827E450AB
:1005F000FD4F8F4F0C94090B1C0320030E031403B3
:1006000018034E03230329032D03330337033B034E
:10061000410345034E0349034F0353038091800078
:100620008F77809380000895809180008F7DF9CF2F
:1006300080918000877FF5CF84B58F7784BD089542
:1006400084B58F7DFBCF8091B0008F778093B00011
:1006500008958091B0008F7DF9CF809190008F77C1
:10066000809390000895809190008F7DF9CF8091C4
:100670009000877FF5CF8091A0008F778093A000B6
:1006800008958091A0008F7DF9CF8091A000877F91
:10069000F5CF809120018F7780932001089580917C
:1006A00020018F7DF9CF80912001877FF5CFCF93F7
:1006B000DF93282F30E0F901E25DFD4F8491F901CD
:1006C000E851FE4FD491F901EE55FE4FC491CC2371
:1006D000A1F081110E94F002EC2FF0E0EE0FFF1F5D
:1006E000E857FE4FA591B491EC91ED2381E090E0A5
:1006F00009F480E0DF91CF91089580E090E0FACF97
:100700001F93CF93DF93282F30E0F901E25DFD4F77
:100710008491F901E851FE4FD491F901EE55FE4F55
:10072000C491CC23A9F0162F81110E94F002EC2F66
:10073000F0E0EE0FFF1FE259FE4FA591B4918FB785
:10074000F894EC91111108C0D095DE23DC938FBF93
:10075000DF91CF911F910895DE2BF8CFCF93DF93D8
:1007600090E0FC01E851FE4F24918E559E4FFC0114
:1007700084918823C9F090E0880F991FFC01EC5AFE
:10078000FE4FA591B491FC01E259FE4FC591D49161
:1007900061110DC09FB7F8948C91209582238C93A2
:1007A0008881282328839FBFDF91CF9108956230ED
:1007B00051F49FB7F8943C91822F809583238C93BA
:1007C000E8812E2BEFCF8FB7F894EC912E2B2C9342
:1007D0008FBFEACF3FB7F8948091D7039091D803A9
:1007E000A091D903B091DA0326B5A89B05C02F3F8D
:1007F00019F00196A11DB11D3FBFBA2FA92F982F47
:100800008827BC01CD01620F711D811D911D42E041
:10081000660F771F881F991F4A95D1F708958F9209
:100820009F92AF92BF92CF92DF92EF92FF926B01B5
:100830007C010E94EA034B015C01C114D104E10474
:10084000F104B9F00E94EA03681979098A099B0941
:10085000683E73408105910580F321E0C21AD108FA
:10086000E108F10888EE880E83E0981EA11CB11CF7
:10087000E4CFFF90EF90DF90CF90BF90AF909F902C
:100880008F90089561E08EE00E94800368EC70E034
:1008900080E090E00E940F0460E08EE00E94800300
:1008A00068EC70E080E090E00E940F0461E08EE070
:1008B0000E94800368EC70E080E090E00E940F04EA
:1008C00060E08EE00E94800368EC70E080E090E0E1
:1008D0000E940F0461E08EE00E94800368EC70E0EB
:1008E00080E090E00E940F0460E08EE00E948003B0
:1008F00068EC70E080E090E00E940F0461E08EE020
:100900000E94800364EF71E080E090E00E940F0499
:1009100060E08EE00E94800364EF71E080E090E090
:100920000E940F0461E08EE00E94800364EF71E09A
:1009300080E090E00E940F0460E08EE00E9480035F
:1009400064EF71E080E090E00E940F0461E08EE0CF
:100950000E94800364EF71E080E090E00E940F0449
:1009600060E08EE00E94800364EF71E080E090E040
:100970000E940F0461E08EE00E94800368EC70E04A
:1009800080E090E00E940F0460E08EE00E9480030F
:1009900068EC70E080E090E00E940F0461E08EE07F
:1009A0000E94800368EC70E080E090E00E940F04F9
:1009B00060E08EE00E94800368EC70E080E090E0F0
:1009C0000E940F0461E08EE00E94800368EC70E0FA
:1009D00080E090E00E940F0460E08EE00E948003BF
:1009E00068EC70E080E090E00C940F04FC01019052
:1009F0000020E9F73197AF01481B590BBC018DE886
:100A000094E00C94B601CF93DF930E94F604EC01BE
:100A10008AE392E00E94F6048C0F9D1FDF91CF9134
:100A200008958DE392E00E9403058091EB0391E02D
:100A300089278093EB0361E0811101C060E08EE0C3
:100A40000C94800388E492E00E94030581E692E022
:100A50000E9403058CE692E00E9403058EE792E077
:100A60000E9403058DE892E00E94030589E992E067
:100A70000E9403058CEA92E00E9403058CEB92E051
:100A80000E9403058CEC92E00C940305AF92BF9298
:100A9000CF92DF92EF92FF920F931F93CF93DF934A
:100AA000CDB7DEB7CDB6DEB6FB01EE0FFF1F2DB71B
:100AB0003EB72E1B3F0B0FB6F8943EBF0FBE2DBFA7
:100AC0002F5F3F4F7901D90130E020E01D921D9248
:100AD0002F5F3F4F62177307C9F7EE0DFF1D3E2FC3
:100AE0002F2F1416150644F4BA01617077277293FC
:100AF000629355954795F5CF032F122F5C01025055
:100B00001109F5018081F2E0AF0EB11CF80160819E
:100B10000E9480030E151F0591F70FB6F894DEBEF4
:100B20000FBECDBEDF91CF911F910F91FF90EF903F
:100B3000DF90CF90BF90AF900895CF92DF92EF9269
:100B4000FF920F931F93CF93DF938C016B017A0178
:100B50008CE10E945703019761F08CED92E0DF91E8
:100B6000CF911F910F91FF90EF90DF90CF900C9459
:100B70000305C0E0D2E08881229661E00E94AE03C6
:100B800082E0C031D807B9F7A60168E070E080E0E4
:100B900092E00E944605A70164E070E080E292E0E6
:100BA0000E944605A80168E070E080E192E00E94A2
:100BB000460560E083E30E948003C4E6D0E08CE158
:100BC0000E945703892B51F02197C9F761E083E315
:100BD0000E94800389EF92E00E94030561E083E3B5
:100BE0000E9480038DE10E945703019719F08CE069
:100BF00093E0B5CFDF91CF911F910F91FF90EF90D0
:100C0000DF90CF9008951F920F920FB60F9211248C
:100C10000BB60F922F933F934F935F936F937F93F6
:100C20008F939F93AF93BF93EF93FF9380EF93E0E6
:100C30000E943402FF91EF91BF91AF919F918F91EC
:100C40007F916F915F914F913F912F910F900BBECC
:100C50000F900FBE0F901F9018951F920F920FB616
:100C60000F9211240BB60F922F938F939F93EF93B4
:100C7000FF93E0910004F09101048081E09106046B
:100C8000F091070482FD1DC09081809109048F5F5F
:100C90008F7320910A04821741F0E0910904F0E07B
:100CA000E051FC4F958F80930904FF91EF919F9144
:100CB0008F912F910F900BBE0F900FBE0F901F9032
:100CC00018958081F2CF1F920F920FB60F921124C8
:100CD0000BB60F922F933F934F935F936F937F9336
:100CE0008F939F93AF93BF93EF93FF938DE894E01F
:100CF0000E943402FF91EF91BF91AF919F918F912C
:100D00007F916F915F914F913F912F910F900BBE0B
:100D10000F900FBE0F901F9018951F920F920FB655
:100D20000F9211240BB60F922F938F939F93EF93F3
:100D3000FF93E0919D04F0919E048081E091A304D3
:100D4000F091A40482FD1DC090818091A6048F5F64
:100D50008F732091A704821741F0E091A604F0E080
:100D6000E357FB4F958F8093A604FF91EF919F91DE
:100D70008F912F910F900BBE0F900FBE0F901F9071
:100D800018958081F2CF1F920F920FB60F92112407
:100D90002F933F938F939F93AF93BF938091EC03D7
:100DA0009091ED03A091EE03B091EF033091D60343
:100DB00023E0230F2D3758F50196A11DB11D209377
:100DC000D6038093EC039093ED03A093EE03B093CE
:100DD000EF038091D7039091D803A091D903B091EC
:100DE000DA030196A11DB11D8093D7039093D80318
:100DF000A093D903B093DA03BF91AF919F918F91E4
:100E00003F912F910F900FBE0F901F90189526E8DD
:100E1000230F0296A11DB11DD2CF1092F3031092A1
:100E2000F20348EE53E060E070E04093F403509327
:100E3000F5036093F6037093F7038CE292E09093CE
:100E4000F1038093F0032DEC30E03093FD03209309
:100E5000FC032CEC30E03093FF032093FE0328ECDE
:100E600030E0309301042093000429EC30E030930B
:100E70000304209302042AEC30E03093050420930D
:100E800004042EEC30E03093070420930604109203
:100E9000090410920A0410920B0410920C04109290
:100EA000900410928F0440939104509392046093A5
:100EB00093047093940490938E0480938D0485EC36
:100EC00090E090939A048093990484EC90E090933E
:100ED0009C0480939B0480EC90E090939E0480930C
:100EE0009D0481EC90E09093A00480939F0482EC99
:100EF00090E09093A2048093A10486EC90E09093FC
:100F0000A4048093A3041092A6041092A704109244
:100F1000A8041092A90410928107109280078DE80E
:100F200094E090937C0780937B07109232058CE2CB
:100F300080937E078BE380937D078FE280937F070A
:100F400080E480932D058FE380932E0510922C056D
:100F5000109277071092760710927907109278070F
:100F600081E080937407E2E8F7E01192119287E044
:100F7000E63EF807D1F7109231050895CF93DF933D
:100F8000CDB7DEB7789484B5826084BD84B58160C6
:100F900084BD85B5826085BD85B5816085BD809144
:100FA0006E00816080936E001092810080918100BC
:100FB00082608093810080918100816080938100B4
:100FC000809180008160809380008091B100846076
:100FD0008093B1008091B00081608093B0008091D7
:100FE0009100826080939100809191008160809354
:100FF0009100809190008160809390008091A10089
:1010000082608093A1008091A10081608093A10003
:101010008091A00081608093A00080912101826076
:101020008093210180912101816080932101809131
:10103000200181608093200180917A0084608093F8
:101040007A0080917A00826080937A0080917A00A1
:10105000816080937A0080917A00806880937A0022
:101060001092C1008DE894E00E946E0180EF93E041
:101070000E946E0181E08093320570E1E72E72E0FC
:10108000F72E00E212E0D7018C91B2E0EB0EF11CDA
:1010900061E00E94AE030E151F05A9F761E083E32E
:1010A0000E94AE0361E084E30E94AE0361E085E349
:1010B0000E94AE0361E083E30E94800361E084E369
:1010C0000E94800361E085E30E94800362E08CE17E
:1010D0000E94AE0362E08DE10E94AE0360E084E412
:1010E0000E94AE0360E083E40E94AE0361E085E20B
:1010F0000E94AE0361E086E20E94AE0361E087E2F7
:101100000E94AE0361E088E20E94AE0380E890E0B6
:101110009093EA038093E9031092E8031092E703A7
:101120001092E6031092E5031092E4031092E30399
:101130001092E2031092E1031092E0031092DF0399
:101140001092DE031092DD031092DC031092DB0399
:1011500050E040E070E060E086E090E00E949D0595
:101160006091E9037091EA0350E040E087E090E08D
:101170000E949D056091E7037091E80350E040E014
:1011800085E090E00E949D056091DD037091DE0393
:1011900050E040E090E080E00E949D056091E50312
:1011A0007091E60350E040E081E090E00E949D05F0
:1011B0006091E3037091E40350E040E082E090E04E
:1011C0000E949D056091E1037091E20350E040E0D0
:1011D00083E090E00E949D056091DF037091E00341
:1011E00050E040E084E090E00E949D056091DB03C8
:1011F0007091DC0350E040E089E090E00E949D05A2
:101200008BE193E00E9403058CE10E945703019754
:1012100009F40BC18CED92E00E94030561E070E0DF
:1012200080E090E00E940F0482E295E090938107B5
:101230008093800781E195E09093830780938207F4
:1012400022E434E030938507209384079093870746
:1012500080938607909389078093880790938B07E4
:1012600080938A0790938D0780938C0790938F07C4
:1012700080938E07909391078093900781E08093ED
:10128000EB0360E08EE00E94800342E0A42EBB24CA
:10129000B3948091310581118CC180917B0790912D
:1012A0007C07DC01ED91FC910084F185E02D19951E
:1012B000892B09F47EC180917B0790917C07DC012A
:1012C000ED91FC910084F185E02D1995612C32E0BF
:1012D000732E8115924064F480917B0790917C0776
:1012E000DC01ED91FC910084F185E02D19953C0124
:1012F00000917B0710917C0723E7E22E25E0F22E78
:101300006701912C812C6814790409F0FCC010E06D
:1013100000E06016710609F4BCCFD7019D917D01F4
:101320001092730730917F0720913005909330051C
:10133000931304C0921302C01092300580912C05C3
:10134000E82FF0E040917D07E65DFA4F941313C15A
:10135000321709F410C11186882321F0B092730767
:101360001092300510922C05109277071092760794
:101370001092790710927807B092740780917307E2
:10138000813009F013C1A0927307809174078823FC
:1013900049F193E3892E95E0992E6401C4010E94DE
:1013A0009501892B39F4BFEF8B1A9B0AF6018081D6
:1013B0008111F3CFD6018C91882309F4E6C0C601D0
:1013C0000E949501F601E80FF91F8081882311F032
:1013D00010823196F0937907E0937807D0927707DF
:1013E000C09276078091760790917707009709F071
:1013F000CFC01092750790E080E080932B05823378
:1014000008F0CDC020917507222309F4C8C0FC0163
:10141000FF27EE0FFF1FEE57F84F0190F081E02DF0
:10142000309709F4BCC01995C1C060E0E62E62E0B7
:10143000F62E00E112E06701F6018081F2E0CF0EA6
:10144000D11C60E00E94AE030C151D05A9F750E009
:1014500040E064E070E080E292E00E94460548E0EF
:1014600050E068E070E080E192E00E94460560E0B4
:1014700084E30E9480038AE293E00E9403058EE7E2
:1014800093E00E94030504E610E08CE10E945703FC
:10149000892B79F582E993E00E94030550E1C52E7E
:1014A00052E0D52E22E0C21AD108D6018C910E94BA
:1014B0005703EC14FD04B1F70FB6F894DEBF0FBE6E
:1014C000CDBF8FE993E00E94030561E084E30E94B1
:1014D00080038DEA93E00E9403058DE10E9457038B
:1014E000019721F08CE093E00E94030585EC93E0E6
:1014F00093CE0150110949F661E084E30E94800314
:1015000089EF92E0C9CF2FB7F8948091EC039091C6
:10151000ED03A091EE03B091EF032FBFF801808798
:101520009187A287B387D801ED91FC910284F3855E
:10153000E02DC801199597FF3FC02FB7F89480910F
:10154000EC039091ED03A091EE03B091EF032FBF58
:10155000F8014085518562857385841B950BA60B28
:10156000B70B448155816681778184179507A6075B
:10157000B707C8F2CCCE91878F5F80932C059091EE
:101580002E05891708F0EECEF9CED12CC12C26CF2E
:10159000B0927407B09275070E94E30A2ECFE091D3
:1015A0008007F0918107309709F03DCF0F5F1F4F03
:1015B000B0CE0E94C3026DCEF60181936F01FFEFA2
:1015C0008F1A9F0AA0CEFC0188279927E8942191C1
:1015D0002032E9F3293010F02E30C8F32B3241F0DD
:1015E0002D3239F4689404C00E94010B820F911DC2
:1015F000219120532A30C0F31EF4909581959F4F7E
:1016000008957AE0979F902D879F802D910D11244A
:101610000895EE0FFF1F881F8BBF0790F691E02DF6
:101620001994F894FFCF020003000400050006009F
:10163000070008000900120013001400150016002E
:1016400017001800190025002600270028000000B8
:1016500000005602B601E301A3021402F2010602E1
:101660000D0A00546F67676C65204C656400546810
:10167000697320636F6D6D616E6420697320756E90
:101680006B6E6F776E2100546F67676C65204C45F9
:101690004400436F6E6E65637420746F2047726FF1
:1016A000756E6400436F6E6E65637420746F2042C4
:1016B00075730050757420566F6C746167650043D4
:1016C00068616E676520426F6172646E756D6265F8
:1016D000720047657420426F6172646E756D626559
:1016E00072004D6561737572652043757272656E27
:1016F00074004D65617375726520566F6C74616717
:1017000065004552524F523A2041434B2077617356
:1017100020616C7265616479206C6F77200A0045E6
:1017200052524F523A2041434B206578706972659E
:1017300064004552524F5220646574656374656459
:101740000052454144204F5045524154494F4E00AC
:101750004461746170696E732061726520636F6E9D
:10176000666967757265642C206164647265737361
:1017700070696E7320616E64206361726441646499
:101780007265737350696E732061726520636F6E4A
:101790006669677572656420616E6420777269742A
:1017A00074656E00526561646C696E6520697320B2
:1017B000736574204C4F570041434B20726563653D
:1017C000697665640070696E732061726520726568
:1017D000616400526561646C696E65206973207292
:1017E0006573657420286C6F7729005265616420E9
:0C17F00066696E6973686564200A000079
:020000040003F7
:10E000000D9489F10D94B2F10D94B2F10D94B2F129
:10E010000D94B2F10D94B2F10D94B2F10D94B2F1F0
:10E020000D94B2F10D94B2F10D94B2F10D94B2F1E0
:10E030000D94B2F10D94B2F10D94B2F10D94B2F1D0
:10E040000D94B2F10D94B2F10D94B2F10D94B2F1C0
:10E050000D94B2F10D94B2F10D94B2F10D94B2F1B0
:10E060000D94B2F10D94B2F10D94B2F10D94B2F1A0
:10E070000D94B2F10D94B2F10D94B2F10D94B2F190
:10E080000D94B2F10D94B2F10D94B2F10D94B2F180
:10E090000D94B2F10D94B2F10D94B2F10D94B2F170
:10E0A0000D94B2F10D94B2F10D94B2F10D94B2F160
:10E0B0000D94B2F10D94B2F10D94B2F10D94B2F150
:10E0C0000D94B2F10D94B2F10D94B2F10D94B2F140
:10E0D0000D94B2F10D94B2F10D94B2F10D94B2F130
:10E0E0000D94B2F141546D656761323536300041AF
:10E0F000726475696E6F206578706C6F72657220DE
:10E1000073746B3530305632206279204D4C530099
:10E11000426F6F746C6F616465723E004875683F52
:10E1200000436F6D70696C6564206F6E203D200048
:10E130004350552054797065202020203D20005FF9
:10E140005F4156525F415243485F5F3D2000415658
:10E1500052204C696243205665723D20004743437C
:10E160002056657273696F6E203D20004350552024
:10E1700049442020202020203D20004C6F7720663D
:10E18000757365202020203D20004869676820665F
:10E190007573652020203D200045787420667573D6
:10E1A00065202020203D20004C6F636B2066757336
:10E1B000652020203D20004D617220203720323024
:10E1C000313300312E362E3800342E332E350056A2
:10E1D00023202020414444522020206F7020636F70
:10E1E00064652020202020696E73747275637469E1
:10E1F0006F6E2061646472202020496E74657272B3
:10E20000757074006E6F20766563746F7200726A49
:10E210006D702020006A6D70200057686174207056
:10E220006F72743A00506F7274206E6F7420737541
:10E2300070706F72746564004D7573742062652030
:10E2400061206C6574746572002000577269747483
:10E25000696E672045450052656164696E672045B7
:10E26000450045452065727220636E743D00504F35
:10E27000525400303D5A65726F2061646472003FF1
:10E280003D43505520737461747300403D454550C3
:10E29000524F4D207465737400423D426C696E6B41
:10E2A000204C454400453D44756D70204545505215
:10E2B0004F4D00463D44756D7020464C415348001B
:10E2C000483D48656C70004C3D4C69737420492F83
:10E2D0004F20506F72747300513D51756974005234
:10E2E0003D44756D702052414D00563D73686F7707
:10E2F00020696E7465727275707420566563746FF0
:10E30000727300593D506F727420626C696E6B00BD
:10E310002A0011241FBECFEFD1E2DEBFCDBF01E046
:10E320000CBF12E0A0E0B2E0EEE1FDEF03E00BBFB6
:10E3300002C007900D92A030B107D9F712E0A0E01B
:10E34000B2E001C01D92AE30B107E1F70F9460F367
:10E350000D948DFE01E20EBF0FEF0DBF11241FBE05
:10E360000D9460F30D9400F020E030E040ED57E0B4
:10E3700005C0FA013197F1F72F5F3F4F2817390792
:10E38000C0F308959C01260F311DC901A0E0B0E043
:10E390002F5F3F4FABBFFC018791882361F08093D3
:10E3A000C6008091C00086FFFCCF8091C0008064D1
:10E3B0008093C000EACF08958DE08093C6008091DD
:10E3C000C00086FFFCCF8091C00080648093C000B5
:10E3D0008AE08093C6008091C00086FFFCCF8091C8
:10E3E000C00080648093C00008950F94C2F10F9420
:10E3F000DCF10895FC019081992359F09093C600B7
:10E400008091C00086FFFCCF8091C0008064809323
:10E41000C0003196992379F70895282F982F929567
:10E420009F70892F805D8A3308F0895F8093C600D2
:10E430008091C00086FFFCCF8091C00080648093F3
:10E44000C000822F8F70982F905D9A3308F0995FEB
:10E450009093C6008091C00086FFFCCF8091C000E1
:10E4600080648093C00008959C01FB01853691056E
:10E470001CF46330710594F0C90164E670E00F94F8
:10E480002EFE605D7F4F6093C6008091C00086FFC6
:10E49000FCCF8091C00080648093C0002B30310598
:10E4A00014F43297B4F0C90164E670E00F942EFEC4
:10E4B0006AE070E00F942EFE605D7F4F6093C600AF
:10E4C0008091C00086FFFCCF8091C0008064809363
:10E4D000C000C9016AE070E00F942EFEC0968093E0
:10E4E000C6008091C00086FFFCCF8091C000806490
:10E4F0008093C00008951F93182F8EE692EE60E07F
:10E500000F94C2F11093C6008091C00086FFFCCF2B
:10E510008091C00080648093C0000F94DCF11F9153
:10E5200008952F923F924F925F926F927F928F92B7
:10E530009F92AF92BF92CF92DF92EF92FF920F9392
:10E540001F93DF93CF93CDB7DEB762970FB6F894E2
:10E55000DEBF0FBECDBF382E622ECA01DB015C01CB
:10E560006D01772420E2222E2E010894411C511CBB
:10E570008BC081E0A81680E0B80681E0C80680E084
:10E58000D80628F0C601AA27BB270F940DF2BB2797
:10E59000AD2D9C2D8B2D0F940DF28A2D0F940DF225
:10E5A0002092C6008091C00086FFFCCF8091C00001
:10E5B00080648093C0009DE29093C6008091C0006B
:10E5C00086FFFCCF8091C00080648093C0002092C1
:10E5D000C6008091C00086FFFCCF8091C00080649F
:10E5E0008093C00019828601750188249924A1E0D6
:10E5F0003A1651F03A1620F0B2E03B1661F409C029
:10E600000BBFF701779007C0C7010F9477FE782EF4
:10E6100002C0F7017080872D0F940DF22092C60082
:10E620008091C00086FFFCCF8091C0008064809301
:10E63000C000872D8052F401EF70F0708F3520F408
:10E64000E40DF51D708204C0E40DF51D8EE280839B
:10E650000894E11CF11C011D111D0894811C911CE2
:10E6600090E18916910409F0C2CF80E190E0A0E02A
:10E67000B0E0A80EB91ECA1EDB1E198AC2010F9493
:10E68000FAF10F94DCF16A94662009F072CF629679
:10E690000FB6F894DEBF0FBECDBFCF91DF911F91B3
:10E6A0000F91FF90EF90DF90CF90BF90AF909F9031
:10E6B0008F907F906F905F904F903F902F90089534
:10E6C0002F923F924F925F926F927F928F929F9282
:10E6D000AF92BF92CF92DF92EF92FF920F931F9370
:10E6E000DF93CF93CDB7DEB7CD53D1400FB6F894BB
:10E6F000DEBF0FBECDBF01E20EBF0FEF0DBF94B75F
:10E70000F894A89514BE80916000886180936000A1
:10E7100010926000789493FF05C0E0910002F091A0
:10E7200001021995279A2F9A8091C00082608093E8
:10E73000C00080E18093C40088E18093C1000000A4
:10E74000EE24FF24870144E0A42EB12CCC24DD2448
:10E7500024C0C5010197F1F70894E11CF11C011DCB
:10E76000111D21E2E2162EE4F20620E0020720E06D
:10E77000120718F031E0C32ED12CC801B70127ECE5
:10E780003BE140E050E00F9441FE611571058105C9
:10E79000910519F485B1805885B98091C00087FD35
:10E7A00003C0C114D104A9F2A6014F5F5F4FC25E3E
:10E7B000DE4F59834883CE51D140C25EDE4F8881FF
:10E7C0009981CE51D140019711F00D9410FEC05D9A
:10E7D000DE4F19821882C053D14060E0C15DDE4F28
:10E7E0001882CF52D14088249924C35DDE4F19820C
:10E7F0001882CD52D140C05EDE4F188219821A8233
:10E800001B82C052D140CE5CDE4F188219821A8220
:10E810001B82C253D140EE24FF2487010BBFF701B6
:10E8200007911691C45CDE4F19830883CC53D14005
:10E830000D940BFEC25EDE4F28813981CE51D1404E
:10E840002130310509F52091C600C25EDE4F1982E4
:10E850001882CE51D14022C02F5F3F4F4F4F5F4FA4
:10E86000213082E138078AE7480780E0580780F0C6
:10E87000C45CDE4FE881F981CC53D140EF5FFF4F9C
:10E8800019F0EE27FF27099420E030E040E050E047
:10E890008091C00087FFE0CF2091C600C35DDE4FAE
:10E8A00048815981CD52D1404F5F5F4FC35DDE4FEC
:10E8B00059834883CD52D140213209F063C64A3092
:10E8C000510508F05FC60894811C911C53E0851621
:10E8D000910409F059C600E010E018C081E280936D
:10E8E000C6008091C00086FFFCCF8091C00080648C
:10E8F0008093C0002F5F3F4F2931310579F70F9486
:10E90000DCF10F5F1F4F0530110519F020E030E0FA
:10E91000E5CF10920A0210920B0210920C02109294
:10E920000D02109206021092070210920802109235
:10E930000902109202021092030210920402109235
:10E9400005028FEE90EE60E00F94F5F180E191EE1C
:10E9500060E00F94C2F18091C00087FFFCCF9091DE
:10E96000C600903608F09F759032B8F09093C600BC
:10E970008091C00086FFFCCF8091C00080648093AE
:10E98000C000A0E2A093C6008091C00086FFFCCF2B
:10E990008091C00080648093C000983409F4D7C18E
:10E9A0009934B8F4923409F459C1933458F490333B
:10E9B00019F1903308F4E3C59F33A1F1903409F0C5
:10E9C000DEC5BDC0953409F470C1963409F0D7C5D1
:10E9D00098C1923509F42BC2933538F49C3409F46C
:10E9E000F5C1913509F0CBC518C2963509F445C279
:10E9F000993509F0C4C567C483E792EE62E00F94CD
:10EA0000F5F110920602109207021092080210927D
:10EA1000090210920A0210920B0210920C0210923C
:10EA20000D0213C18FE792EE62E00F94F5F18FEEC5
:10EA300090EE60E00F94F5F181E291EE60E00F94CA
:10EA4000C2F187EB91EE60E00F94F5F180E391EE77
:10EA500060E00F94C2F184EE90EE60E00F94F5F167
:10EA60008FE391EE60E00F94C2F186E090E061E008
:10EA700070E00F9434F20F94DCF18DE591EE60E0DC
:10EA80000F94C2F189EC91EE60E00F94F5F18EE401
:10EA900091EE60E00F94C2F183EC91EE60E00F9490
:10EAA000F5F18CE691EE60E00F94C2F18EE10F94E7
:10EAB0000DF288E90F940DF281E00F940DF20F949E
:10EAC000DCF18BE791EE60E00F94C2F119E0E0E039
:10EAD000F0E010935700E4918E2F0F940DF20F94F5
:10EAE000DCF18AE891EE60E00F94C2F1E3E0F0E03F
:10EAF00010935700E4918E2F0F940DF20F94DCF1D8
:10EB000089E991EE60E00F94C2F1E2E0F0E0109349
:10EB10005700E4918E2F0F940DF20F94DCF188EAE8
:10EB200091EE60E00F94C2F1E1E0F0E01093570045
:10EB30001491812F0F940DF20F94DCF107CF8BE825
:10EB400092EE62E00F94F5F18BE492EE60E00F94A8
:10EB5000F5F10F94DCF100E010E019C0C8016F2D51
:10EB60000F947FFEFF2031F489E492EE60E00F9471
:10EB7000C2F10BC0F092C6008091C00086FFFCCFAE
:10EB80008091C00080648093C0000F5F1F4FC80158
:10EB900081519F41A0E0B0E0ABBFFC01F790BAE229
:10EBA000FB1621F0E2E000301E07C1F60F94DCF105
:10EBB0000F94DCF187E592EE60E00F94F5F10F948D
:10EBC000DCF1CC24DD2400E010E01EC0C8010F946D
:10EBD00077FEF82E882331F489E492EE60E00F94FA
:10EBE000C2F10BC08093C6008091C00086FFFCCFAD
:10EBF0008091C00080648093C000FE1419F00894D6
:10EC0000C11CD11C0F5F1F4FC80181519F41A0E063
:10EC1000B0E0ABBFFC01E790FAE2EF1621F022E092
:10EC20000030120799F60F94DCF10F94DCF182E6C4
:10EC300092EE60E00F94C2F1C60161E070E00F94C3
:10EC400034F20F94DCF10F94DCF110920202109276
:10EC50000302109204021092050278CE89E992EE26
:10EC600062E00F94F5F1279A2F9A16C02F9880E052
:10EC700090E0E0EDF7E03197F1F7019684369105E9
:10EC8000C1F72F9A80E090E0E0EDF7E03197F1F7DF
:10EC9000019684369105C1F78091C00087FFE6CFC9
:10ECA0008091C00087FFFCCF64C485EA92EE62E0E9
:10ECB0000F94F5F140910202509103026091040219
:10ECC0007091050281E020E10F9491F2809102029F
:10ECD00090910302A0910402B091050280509F4FD1
:10ECE000AF4FBF4F8093020290930302A0930402A0
:10ECF000B093050280509041A040B04008F426CE69
:10ED0000A4CF83EB92EE62E00F94F5F140910602FE
:10ED100050910702609108027091090280E020E1A1
:10ED20000F9491F28091060290910702A09108023F
:10ED3000B091090280509F4FAF4FBF4F80930602A2
:10ED400090930702A0930802B0930902FFCD80ECD4
:10ED500092EE62E00F94F5F183E792EE60E00F949B
:10ED6000F5F18FE792EE60E00F94F5F18BE892EE0B
:10ED700060E00F94F5F189E992EE60E00F94F5F10F
:10ED800085EA92EE60E00F94F5F183EB92EE60E09D
:10ED90000F94F5F180EC92EE60E00F94F5F187ECC2
:10EDA00092EE60E00F94F5F188ED92EE60E00F9442
:10EDB000F5F18FED92EE60E00F94F5F18AEE92EEB0
:10EDC00060E00F94F5F183E093EEBDCD87EC92EE19
:10EDD00062E00F94F5F181E40F947BF282E40F94EA
:10EDE0007BF283E40F947BF284E40F947BF285E45E
:10EDF0000F947BF286E40F947BF287E40F947BF20E
:10EE000088E40F947BF28AE40F947BF28BE40F94F6
:10EE10007BF28CE40F947BF299CD88ED92EE62E068
:10EE20000F94F5F1772473948824992409C48FED05
:10EE300092EE62E00F94F5F140910A0250910B02BC
:10EE400060910C0270910D0282E020E10F9491F22A
:10EE500080910A0290910B02A0910C02B0910D02D8
:10EE600080509F4FAF4FBF4F80930A0290930B0289
:10EE7000A0930C02B0930D0269CD8AEE92EE62E08F
:10EE80000F94F5F184EE90EE60E00F94F5F18FECC5
:10EE900091EE60E00F94F5F1662477244301CC5D98
:10EEA000DE4F19821882C452D140D401C301B695F5
:10EEB000A79597958795CA5DDE4F88839983AA8326
:10EEC000BB83C652D140CC5DDE4FA881B981C4520C
:10EED000D1401196CC5DDE4FB983A883C452D14096
:10EEE000CD0162E070E00F9434F2B0E2B093C6005E
:10EEF0008091C00086FFFCCF8091C0008064809329
:10EF0000C000EDE2E093C6008091C00086FFFCCF18
:10EF10008091C00080648093C000F0E2F093C6004E
:10EF20008091C00086FFFCCF8091C00080648093F8
:10EF3000C000CA5DDE4FE880F9800A811B81C6529D
:10EF4000D140BB27A12F902F8F2D0F940DF2CA5DBA
:10EF5000DE4F8881C652D1400F940DF2B0E2FB2EF5
:10EF6000F092C6008091C00086FFFCCF8091C00067
:10EF700080648093C0000DE30093C6008091C000C0
:10EF800086FFFCCF8091C00080648093C00010E2B7
:10EF90001093C6008091C00086FFFCCF8091C00016
:10EFA00080648093C0008BBEF3012791C65DDE4F65
:10EFB0002883CA52D140A22EBB24CC24DD2408943D
:10EFC000611C711C811C911C8BBEF3018791282E42
:10EFD0003324442455240894611C711C811C911C09
:10EFE0008BBEF3013791C55DDE4F3883CB52D140E4
:10EFF0000894611C711C811C911C8BBEF30147910C
:10F00000C45DDE4F4883CC52D140ADEFEA2EAFEF66
:10F01000FA2EAFEF0A2FAFEF1A2F6E0C7F1C801E57
:10F02000911E142D032DF22CEE24EA0CFB1C0C1D5A
:10F030001D1D0F940DF220E22093C6008091C000A8
:10F0400086FFFCCF8091C00080648093C000C65DC5
:10F05000DE4F8881CA52D1400F940DF230E23093D6
:10F06000C6008091C00086FFFCCF8091C000806404
:10F070008093C000C45DDE4F8881CC52D1400F9494
:10F080000DF240E24093C6008091C00086FFFCCFA5
:10F090008091C00080648093C000C55DDE4F888190
:10F0A000CB52D1400F940DF250E25093C6008091A4
:10F0B000C00086FFFCCF8091C00080648093C000B8
:10F0C0008FEFE8168FEFF80680E0080780E018075A
:10F0D00031F484E092EE60E00F94C2F1DFC0D80119
:10F0E000C7018070907CA070B0708050904CA040A0
:10F0F000B040D1F52FEF3FE340E050E0E222F322B1
:10F1000004231523CA5DDE4FA880B980CA80DB8046
:10F11000C652D140AE0CBF1CC01ED11EAA0CBB1CD7
:10F12000CC1CDD1C8EE092EE60E00F94C2F1BB2798
:10F13000A12F902F8F2D0F940DF28E2D0F940DF285
:10F1400030E23093C6008091C00086FFFCCF8091F2
:10F15000C00080648093C0004EE34093C60080915D
:10F16000C00086FFFCCF87C08EE09EEFA0E0B0E03D
:10F17000E822F9220A231B239CE0E91694E9F90608
:10F1800090E0090790E0190709F088C0C45DDE4FE0
:10F19000A881CC52D140EA2EFF2400E010E0102FCD
:10F1A0000F2DFE2CEE24C55DDE4FB881CB52D14031
:10F1B000EB0EF11C011D111DD601C501817090706F
:10F1C000A070B070DC0199278827E80EF91E0A1F8D
:10F1D0001B1F20EF30E040E050E0A222B322C42207
:10F1E000D52241E1AA0CBB1CCC1CDD1C4A95D1F7F1
:10F1F000EA0CFB1C0C1D1D1D81E090E0A0E0B0E0BE
:10F20000282239224A225B2235E1220C331C441C7D
:10F21000551C3A95D1F7E20CF31C041D151D57013E
:10F220006801AA0CBB1CCC1CDD1C85E192EE60E0E1
:10F230000F94C2F1C801AA27BB270F940DF2BB2778
:10F24000A12F902F8F2D0F940DF28E2D0F940DF274
:10F2500090E29093C6008091C00086FFFCCF809121
:10F26000C00080648093C000AEE3A093C60080918C
:10F27000C00086FFFCCF8091C00080648093C000F6
:10F28000C601AA27BB270F940DF2BB27AD2D9C2DDD
:10F290008B2D0F940DF28A2D0F940DF20F94DCF14B
:10F2A000CC5DDE4FE881F981C452D140F99709F471
:10F2B0004DCBF4E0EF2EF12C012D112D6E0C7F1CA7
:10F2C000801E911EF2CD83E093EE62E00F94F5F183
:10F2D0008AE192EE60E00F94C2F18091C00087FF56
:10F2E000FCCF1091C6001F751093C6008091C0001E
:10F2F00086FFFCCF8091C00080648093C0000F9493
:10F30000DCF1812F81548A3108F036C1163409F4BA
:10F3100095C0173490F4133409F44EC0143430F40B
:10F320001134F1F0123409F01DC130C0143409F465
:10F3300059C0153409F016C16BC01A3409F4C4C0A1
:10F340001B3438F4173409F48FC0183409F00AC19B
:10F35000A1C01B3409F4D2C01C3409F003C1E8C0B9
:10F360008FEF81B90DC082B1809582B980E090E0C5
:10F37000E0EDF7E03197F1F70196883C9105C1F790
:10F380008091C00087FFEFCF12B8EFC08FEF84B934
:10F390000DC085B1809585B980E090E0E0EDF7E0A3
:10F3A0003197F1F70196883C9105C1F78091C00033
:10F3B00087FFEFCF15B8D9C08FEF87B90DC088B1DF
:10F3C000809588B980E090E0E0EDF7E03197F1F7C3
:10F3D0000196883C9105C1F78091C00087FFEFCF6F
:10F3E00018B8C3C08FEF8AB90DC08BB180958BB9A7
:10F3F00080E090E0E0EDF7E03197F1F70196883C8E
:10F400009105C1F78091C00087FFEFCF1BB8ADC059
:10F410008FEF8DB90DC08EB180958EB980E090E0F0
:10F42000E0EDF7E03197F1F70196883C9105C1F7DF
:10F430008091C00087FFEFCF1EB897C08FEF80BBD1
:10F440000DC081B3809581BB80E090E0E0EDF7E0F6
:10F450003197F1F70196883C9105C1F78091C00082
:10F4600087FFEFCF11BA81C08FEF83BB0DC084B38C
:10F47000809584BB80E090E0E0EDF7E03197F1F714
:10F480000196883C9105C1F78091C00087FFEFCFBE
:10F4900014BA6BC08FEF809301010FC080910201FD
:10F4A00080958093020180E090E0E0EDF7E03197F5
:10F4B000F1F70196883C9105C1F78091C00087FF64
:10F4C000EDCF1092020151C08FEF809304010FC065
:10F4D0008091050180958093050180E090E0E0ED4A
:10F4E000F7E03197F1F70196883C9105C1F78091DB
:10F4F000C00087FFEDCF1092050137C08FEF8093DA
:10F5000007010FC08091080180958093080180E079
:10F5100090E0E0EDF7E03197F1F70196883C910536
:10F52000C1F78091C00087FFEDCF109208011DC088
:10F530008FEF80930A010FC080910B01809580931B
:10F540000B0180E090E0E0EDF7E03197F1F70196F4
:10F55000883C9105C1F78091C00087FFEDCF1092E4
:10F560000B0103C085E292EEEEC98091C00087FFD7
:10F57000FCCF8091C600EAC988E392EEE4C98CE131
:10F5800091EEE1C988249924933011F1943028F444
:10F59000913089F09230B8F408C0953061F195301F
:10F5A000F0F0963009F048C043C02B3109F042C951
:10F5B00091E06BE13FC96227C15DDE4F2883CF52E6
:10F5C000D14092E037C9B22FA0E0622793E032C960
:10F5D000822F90E0A82BB92B622794E02BC92E3004
:10F5E00009F039C3622795E0C05DDE4F19821882A9
:10F5F000C053D1401FC9E1E0F0E0EC0FFD1FC05D3A
:10F60000DE4F08811981C053D140E00FF11F2083E4
:10F610000F5F1F4FC05DDE4F19830883C053D14079
:10F6200062270A171B0709F005C9D80196E002C92D
:10F63000261709F010C303C0973009F0FBC87724E0
:10F640009981933109F412C19431C8F4963009F4C8
:10F65000D8C0973050F4923009F406C1933009F4C1
:10F660006DC0913009F059C253C0913109F477C08F
:10F67000923108F0BBC0903109F04FC2F5C098310B
:10F6800009F487C0993150F4953109F4EFC09531F0
:10F6900008F4C6C1963109F040C2C2C19A3109F4DA
:10F6A0006CC09A3108F491C09B3109F45BC09D3164
:10F6B00009F033C29D81903359F48F81882311F46E
:10F6C0009EE11CC0813011F091E018C098E916C08D
:10F6D000892F807591F0903539F4E0E0F0E089E011
:10F6E0008093570094910AC0983539F4E3E0F0E034
:10F6F00089E080935700949101C090E01A821B82A8
:10F700008D818C831D829E831F8227E030E009C299
:10F710001A8288E08B8381E48C8386E58D8382E581
:10F720008E8389E48F8383E5888780E589878FE5E9
:10F730008A8782E38B872BE030E0F3C18A818139AD
:10F7400041F0823941F0803911F48FE005C080E04A
:10F7500003C082E001C08AE01A828B8344C0772410
:10F76000739482C08D81882311F48EE12CC0813086
:10F7700011F081E028C088E926C01A82E1E0F0E0BB
:10F7800089E08093570084918B831C8224E030E0D1
:10F79000C8C18B81803589F48C81883039F4E2E0EE
:10F7A000F0E089E08093570084910DC0E0E0F0E044
:10F7B00089E080935700849106C0E3E0F0E089E09F
:10F7C0008093570084911A82DFCF8D81836C99E0FA
:10F7D000E1E0F0E0082E90935700E89507B600FCB2
:10F7E000FDCF1A821B8223E030E09BC180EC8A832C
:10F7F000CE5CDE4F188219821A821B82C253D1401E
:10F800008EC18A8190E0A0E0B0E0582F44273327D2
:10F8100022278B8190E0A0E0B0E0DC0199278827C7
:10F82000282B392B4A2B5B2B8D8190E0A0E0B0E098
:10F83000282B392B4A2B5B2B8C8190E0A0E0B0E089
:10F84000BA2FA92F982F8827282B392B4A2B5B2BCF
:10F85000220F331F441F551FC05EDE4F288339839C
:10F860004A835B83C052D1401A8259C13A81C95C34
:10F87000DE4F3883C753D140CA5CDE4F1882C6536F
:10F88000D1408B81C82EDD24CA5CDE4F488159816E
:10F89000C653D140C42AD52A933109F082C0CE5C28
:10F8A000DE4F88819981AA81BB81C253D1408050AB
:10F8B000904CA340B04030F583E0CE5CDE4FE88052
:10F8C000F9800A811B81C253D140F70100935B008C
:10F8D00080935700E89507B600FCFDCFCE5CDE4F65
:10F8E000088119812A813B81C253D14000501F4FAA
:10F8F0002F4F3F4FCE5CDE4F088319832A833B8313
:10F90000C253D140C05EDE4F488159816A817B81FC
:10F91000C052D140DE011B9631E08C9111962C91A2
:10F9200011971296C75CDE4F2883C953D140C85C3B
:10F93000DE4F1882C853D14090E0C85CDE4FE881AA
:10F94000F981C853D1408E2B9F2B0C01FA01609393
:10F950005B0030935700E89511244E5F5F4F6F4F67
:10F960007F4F0EEFE02E0FEFF02ECE0CDF1CC114F8
:10F97000D10499F685E0C05EDE4F088119812A81A5
:10F980003B81C052D140F80120935B008093570027
:10F99000E89507B600FCFDCF81E180935700E8951C
:10F9A00035C0C05EDE4F88819981AA81BB81C0527B
:10F9B000D140B695A795979587957C018601ABE0D8
:10F9C000AA2EB12CAC0EBD1E0BC0D5016D915D01F0
:10F9D000C7010F947FFE0894E11CF11C01501040F8
:10F9E0000115110591F7A60160E070E0440F551F65
:10F9F000661F771FC05EDE4FE880F9800A811B8199
:10FA0000C052D1404E0D5F1D601F711F1A82C05E33
:10FA1000DE4F488359836A837B83C052D1407FC0C5
:10FA2000FA80C55CDE4FF882CB53D140C65CDE4F16
:10FA30001882CA53D1408B81C82EDD24C65CDE4FAC
:10FA400008811981CA53D140C02AD12A1A828981DA
:10FA5000BE016D5F7F4F843121F59601C05EDE4FA0
:10FA6000E880F9800A811B81C052D1400BBFF701A9
:10FA700087919691DB018C9311969C936E5F7F4FDB
:10FA8000D801C7010296A11DB11DC05EDE4F88835B
:10FA90009983AA83BB83C052D14022503040F1F6F3
:10FAA00036C0C05EDE4F288139814A815B81C052F9
:10FAB000D1400894C108D108760100E010E0089414
:10FAC000C11CD11C0894E11CF11C011D111DE20E8A
:10FAD000F31E041F151F21BDBB27A52F942F832FB5
:10FAE00082BD2F5F3F4F4F4F5F4FF89A80B5DB01CC
:10FAF0008D93BD012E153F054007510761F7C05E8C
:10FB0000DE4F288339834A835B83C052D1409601FC
:10FB10002D5F3F4FFB01108204C080EC8A8322E0FE
:10FB200030E08BE18093C6008091C00086FFFCCF5F
:10FB30008091C00080648093C000C15DDE4FF88179
:10FB4000CF52D140F093C6008091C00086FFFCCF19
:10FB50008091C00080648093C000432F3093C60022
:10FB60008091C00086FFFCCF8091C00080648093AC
:10FB7000C000922F2093C6008091C00086FFFCCF6A
:10FB80008091C00080648093C0008EE08093C600A6
:10FB90008091C00086FFFCCF8091C000806480937C
:10FBA000C00065E1C15DDE4FE880CF52D1406E25D7
:10FBB00069276427FE01319610C090819093C6009A
:10FBC0008091C00086FFFCCF31968091C000806498
:10FBD0008093C0006927215030402115310569F715
:10FBE0006093C6008091C00086FFFCCF8091C0006A
:10FBF00080648093C00085B1805885B9772081F4F6
:10FC0000C15DDE4F0881CF52D1400F5FC15DDE4F35
:10FC10000883CF52D14090E0A0E0B0E00D941AF4F8
:10FC200027982F9880E090E020ED37E0F901319798
:10FC3000F1F7019684369105C9F700008091C00064
:10FC40008D7F8093C00081E180935700E895EE2777
:10FC5000FF270994FFCF90E00D941AF497FB092E2B
:10FC600007260AD077FD04D02ED006D000201AF443
:10FC7000709561957F4F0895F6F7909581959F4F08
:10FC80000895A1E21A2EAA1BBB1BFD010DC0AA1FDD
:10FC9000BB1FEE1FFF1FA217B307E407F50720F0F5
:10FCA000A21BB30BE40BF50B661F771F881F991F70
:10FCB0001A9469F760957095809590959B01AC01B9
:10FCC000BD01CF010895AA1BBB1B51E107C0AA1FAC
:10FCD000BB1FA617B70710F0A61BB70B881F991FED
:10FCE0005A95A9F780959095BC01CD010895F99991
:10FCF000FECF92BD81BDF89A992780B50895262F31
:10FD0000F999FECF1FBA92BD81BD20BD0FB6F89400
:0EFD1000FA9AF99A0FBE01960895F894FFCF63
:00000001FF
