:100000000C943B010C946C010C946C010C946C01ED
:100010000C946C010C946C010C946C010C946C01AC
:100020000C946C010C946C010C946C010C946C019C
:100030000C946C010C946C010C946C010C946C018C
:100040000C946C010C946C010C946C010C946C017C
:100050000C946C010C946C010C946C010C94C30610
:100060000C946C010C948D060C9463060C946C013A
:100070000C946C010C946C010C946C010C946C014C
:100080000C946C010C946C010C946C010C946C013C
:100090000C942D060C9403060C946C010C946C01CA
:1000A0000C946C010C946C010C946C010C946C011C
:1000B0000C946C010C946C010C946C010C946C010C
:1000C0000C946C010C946C010C946C010C946C01FC
:1000D0000C946C010C946C010C946C010C946C01EC
:1000E0000C946C010C94E3010C944E030C942903C2
:1000F0000C941C030C94A3020C9445030C942D0344
:100100000C9442040C940D070C9418030C943B03BC
:100110000C9414030C9406020C9433030C942205E3
:100120000C9420030C9411050C940E030C943703CB
:100130000C944F030C9453030C94F2010C9423037E
:100140000C9441030C9456020C9414020C94B601C6
:100150000C94490300002100240027002A002D00F0
:100160003000330001010000040107010A01000012
:100170002200250028002B002E003100340002014F
:100180000000050108010B010000200023002600EB
:1001900029002C002F00320000010000030106019D
:1001A00009010505050507050808080802020202FD
:1001B0000A0A080804040404010101010101010103
:1001C0000303030303030303040707070C0C0C0CCE
:1001D0000C0C0C0C020202020606060606060606B7
:1001E0000B0B0B0B0B0B0B0B010210202008081044
:1001F0002040102040800201020108040201010297
:10020000040810204080804020100804020180046F
:1002100002018040201008040201080402010102CA
:1002200004081020408001020408102040800000D3
:100230000A0B02090C0D0E08070304010000000060
:1002400000000000000000000000000000000000AE
:10025000000000000000000000001211100000006B
:10026000000000000000000000000000000000008E
:10027000000000000D0711241FBECFEFD1E2DEBF4A
:10028000CDBF00E00CBF27E0A6EDB3E001C01D929A
:10029000A63EB207E1F713E0A0E0B2E0E6E2F6E145
:1002A00000E00BBF02C007900D92A63DB107D9F741
:1002B00011E0CBE3D1E000E006C021970109802FD7
:1002C000FE010E94090BCA33D10780E00807A9F795
:1002D0000E94BE070C94110B0C940000FC01A08935
:1002E000B18982E08C93A485B5851C92A685B785DB
:1002F00080E18C93108EA489B58986E08C93A289C5
:10030000B3898C9180618C93A289B3898C91886028
:100310008C93A289B3898C9180688C930288F3892D
:10032000E02D80818F7D80830895AC0110922F0590
:1003300090917F0780917E07FA01BF01641B750BC6
:1003400020912F05308130932F05931304C0921311
:1003500002C010922F053081311104C0921721F094
:10036000CB0108953817D1F33196E7CFAF92BF9202
:10037000CF92DF92EF92FF920F931F93CF93DF9371
:100380006C017B018B01040F151FEB015E01AE18A0
:10039000BF08C017D10759F06991D601ED91FC91C2
:1003A0000190F081E02DC6011995892B79F7C501DF
:1003B000DF91CF911F910F91FF90EF90DF90CF9041
:1003C000BF90AF900895FC01538D448D252F30E0F0
:1003D000842F90E0821B930B541710F0CF96089552
:1003E00001970895FC01918D828D981761F0A28D7F
:1003F000AE0FBF2FB11D5D968C91928D9F5F9F7345
:10040000928F90E008958FEF9FEF0895FC01918DFA
:10041000828D981731F0828DE80FF11D858D90E067
:1004200008958FEF9FEF0895FC01918D228D892F04
:1004300090E0805C9F4F821B91098F7399270895EC
:1004400080EF93E00E94140221E0892B09F420E060
:10045000822F08958DE894E00E94140221E0892BF8
:1004600009F420E0822F0895FC01A48DA80FB92F74
:10047000B11DA35ABF4F2C91848D90E001968F73CC
:100480009927848FA689B7892C93A089B1898C91EB
:10049000837080648C93938D848D981306C002883A
:1004A000F389E02D80818F7D80830895EF92FF9204
:1004B0000F931F93CF93DF93EC0181E0888F9B8D87
:1004C0008C8D98131AC0E889F989808185FF15C041
:1004D0009FB7F894EE89FF896083E889F989808164
:1004E0008370806480839FBF81E090E0DF91CF9133
:1004F0001F910F91FF90EF900895F62E0B8D10E055
:100500000F5F1F4F0F731127E02E8C8D8E110CC0C3
:100510000FB607FCFACFE889F989808185FFF5CF0E
:10052000CE010E943402F1CFEB8DEC0FFD2FF11DB7
:10053000E35AFF4FF0829FB7F8940B8FEA89FB894B
:1005400080818062CFCFCF93DF93EC01888D8823A9
:10055000B9F0AA89BB89E889F9898C9185FD03C026
:10056000808186FD0DC00FB607FCF7CF8C9185FF0B
:10057000F2CF808185FFEDCFCE010E943402E9CF1A
:10058000DF91CF91089580E090E0892B29F00E94BF
:100590002A0281110E94000080E090E0892B29F05E
:1005A0000E94200281110E94000080E090E0892BCF
:1005B00049F080E090E0892B29F00E940000811131
:1005C0000E94000080E090E0892B49F080E090E0FC
:1005D000892B29F00E94000081110C9400000895DD
:1005E0008150823108F05AC0E82FF0E08827E450AB
:1005F000FD4F8F4F0C94090B1C0320030E031403B3
:1006000018034E03230329032D03330337033B034E
:10061000410345034E0349034F0353038091800078
:100620008F77809380000895809180008F7DF9CF2F
:1006300080918000877FF5CF84B58F7784BD089542
:1006400084B58F7DFBCF8091B0008F778093B00011
:1006500008958091B0008F7DF9CF809190008F77C1
:10066000809390000895809190008F7DF9CF8091C4
:100670009000877FF5CF8091A0008F778093A000B6
:1006800008958091A0008F7DF9CF8091A000877F91
:10069000F5CF809120018F7780932001089580917C
:1006A00020018F7DF9CF80912001877FF5CFCF93F7
:1006B000DF93282F30E0F901E25DFD4F8491F901CD
:1006C000E851FE4FD491F901EE55FE4FC491CC2371
:1006D000A1F081110E94F002EC2FF0E0EE0FFF1F5D
:1006E000E857FE4FA591B491EC91ED2381E090E0A5
:1006F00009F480E0DF91CF91089580E090E0FACF97
:100700001F93CF93DF93282F30E0F901E25DFD4F77
:100710008491F901E851FE4FD491F901EE55FE4F55
:10072000C491CC23A9F0162F81110E94F002EC2F66
:10073000F0E0EE0FFF1FE259FE4FA591B4918FB785
:10074000F894EC91111108C0D095DE23DC938FBF93
:10075000DF91CF911F910895DE2BF8CFCF93DF93D8
:1007600090E0FC01E851FE4F24918E559E4FFC0114
:1007700084918823C9F090E0880F991FFC01EC5AFE
:10078000FE4FA591B491FC01E259FE4FC591D49161
:1007900061110DC09FB7F8948C91209582238C93A2
:1007A0008881282328839FBFDF91CF9108956230ED
:1007B00051F49FB7F8943C91822F809583238C93BA
:1007C000E8812E2BEFCF8FB7F894EC912E2B2C9342
:1007D0008FBFEACF3FB7F8948091D7039091D803A9
:1007E000A091D903B091DA0326B5A89B05C02F3F8D
:1007F00019F00196A11DB11D3FBFBA2FA92F982F47
:100800008827BC01CD01620F711D811D911D42E041
:10081000660F771F881F991F4A95D1F708958F9209
:100820009F92AF92BF92CF92DF92EF92FF926B01B5
:100830007C010E94EA034B015C01C114D104E10474
:10084000F104B9F00E94EA03681979098A099B0941
:10085000683E73408105910580F321E0C21AD108FA
:10086000E108F10888EE880E83E0981EA11CB11CF7
:10087000E4CFFF90EF90DF90CF90BF90AF909F902C
:100880008F90089561E08EE00E94800368EC70E034
:1008900080E090E00E940F0460E08EE00E94800300
:1008A00068EC70E080E090E00E940F0461E08EE070
:1008B0000E94800368EC70E080E090E00E940F04EA
:1008C00060E08EE00E94800368EC70E080E090E0E1
:1008D0000E940F0461E08EE00E94800368EC70E0EB
:1008E00080E090E00E940F0460E08EE00E948003B0
:1008F00068EC70E080E090E00E940F0461E08EE020
:100900000E94800364EF71E080E090E00E940F0499
:1009100060E08EE00E94800364EF71E080E090E090
:100920000E940F0461E08EE00E94800364EF71E09A
:1009300080E090E00E940F0460E08EE00E9480035F
:1009400064EF71E080E090E00E940F0461E08EE0CF
:100950000E94800364EF71E080E090E00E940F0449
:1009600060E08EE00E94800364EF71E080E090E040
:100970000E940F0461E08EE00E94800368EC70E04A
:1009800080E090E00E940F0460E08EE00E9480030F
:1009900068EC70E080E090E00E940F0461E08EE07F
:1009A0000E94800368EC70E080E090E00E940F04F9
:1009B00060E08EE00E94800368EC70E080E090E0F0
:1009C0000E940F0461E08EE00E94800368EC70E0FA
:1009D00080E090E00E940F0460E08EE00E948003BF
:1009E00068EC70E080E090E00C940F04FC01019052
:1009F0000020E9F73197AF01481B590BBC018DE886
:100A000094E00C94B601CF93DF930E94F604EC01BE
:100A10008AE392E00E94F6048C0F9D1FDF91CF9134
:100A200008958DE392E00E9403058091EB0391E02D
:100A300089278093EB0361E0811101C060E08EE0C3
:100A40000C94800388E492E00E94030581E692E022
:100A50000E9403058CE692E00E9403058EE792E077
:100A60000E9403058DE892E00E94030589E992E067
:100A70000E9403058CEA92E00E9403058CEB92E051
:100A80000E9403058CEC92E00C940305AF92BF9298
:100A9000CF92DF92EF92FF920F931F93CF93DF934A
:100AA000CDB7DEB7CDB6DEB6FB01EE0FFF1F2DB71B
:100AB0003EB72E1B3F0B0FB6F8943EBF0FBE2DBFA7
:100AC0002F5F3F4F7901D90130E020E01D921D9248
:100AD0002F5F3F4F62177307C9F7EE0DFF1D3E2FC3
:100AE0002F2F1416150644F4BA01617077277293FC
:100AF000629355954795F5CF032F122F5C01025055
:100B00001109F5018081F2E0AF0EB11CF80160819E
:100B10000E9480030E151F0591F70FB6F894DEBEF4
:100B20000FBECDBEDF91CF911F910F91FF90EF903F
:100B3000DF90CF90BF90AF900895CF92DF92EF9269
:100B4000FF920F931F93CF93DF938C016B017A0178
:100B50008CE10E945703019761F08CED92E0DF91E8
:100B6000CF911F910F91FF90EF90DF90CF900C9459
:100B70000305C0E0D2E08881229661E00E94AE03C6
:100B800082E0C031D807B9F7A60168E070E080E0E4
:100B900092E00E944605A70164E070E080E292E0E6
:100BA0000E944605A80168E070E080E192E00E94A2
:100BB000460560E083E30E948003C4E6D0E08CE158
:100BC0000E945703892B51F02197C9F761E083E315
:100BD0000E94800389EF92E00E94030561E083E3B5
:100BE0000E9480038DE10E945703019719F08CE069
:100BF00093E0B5CFDF91CF911F910F91FF90EF90D0
:100C0000DF90CF9008951F920F920FB60F9211248C
:100C10000BB60F922F933F934F935F936F937F93F6
:100C20008F939F93AF93BF93EF93FF9380EF93E0E6
:100C30000E943402FF91EF91BF91AF919F918F91EC
:100C40007F916F915F914F913F912F910F900BBECC
:100C50000F900FBE0F901F9018951F920F920FB616
:100C60000F9211240BB60F922F938F939F93EF93B4
:100C7000FF93E0910004F09101048081E09106046B
:100C8000F091070482FD1DC09081809109048F5F5F
:100C90008F7320910A04821741F0E0910904F0E07B
:100CA000E051FC4F958F80930904FF91EF919F9144
:100CB0008F912F910F900BBE0F900FBE0F901F9032
:100CC00018958081F2CF1F920F920FB60F921124C8
:100CD0000BB60F922F933F934F935F936F937F9336
:100CE0008F939F93AF93BF93EF93FF938DE894E01F
:100CF0000E943402FF91EF91BF91AF919F918F912C
:100D00007F916F915F914F913F912F910F900BBE0B
:100D10000F900FBE0F901F9018951F920F920FB655
:100D20000F9211240BB60F922F938F939F93EF93F3
:100D3000FF93E0919D04F0919E048081E091A304D3
:100D4000F091A40482FD1DC090818091A6048F5F64
:100D50008F732091A704821741F0E091A604F0E080
:100D6000E357FB4F958F8093A604FF91EF919F91DE
:100D70008F912F910F900BBE0F900FBE0F901F9071
:100D800018958081F2CF1F920F920FB60F92112407
:100D90002F933F938F939F93AF93BF938091EC03D7
:100DA0009091ED03A091EE03B091EF033091D60343
:100DB00023E0230F2D3758F50196A11DB11D209377
:100DC000D6038093EC039093ED03A093EE03B093CE
:100DD000EF038091D7039091D803A091D903B091EC
:100DE000DA030196A11DB11D8093D7039093D80318
:100DF000A093D903B093DA03BF91AF919F918F91E4
:100E00003F912F910F900FBE0F901F90189526E8DD
:100E1000230F0296A11DB11DD2CF1092F3031092A1
:100E2000F20348EE53E060E070E04093F403509327
:100E3000F5036093F6037093F7038CE292E09093CE
:100E4000F1038093F0032DEC30E03093FD03209309
:100E5000FC032CEC30E03093FF032093FE0328ECDE
:100E600030E0309301042093000429EC30E030930B
:100E70000304209302042AEC30E03093050420930D
:100E800004042EEC30E03093070420930604109203
:100E9000090410920A0410920B0410920C04109290
:100EA000900410928F0440939104509392046093A5
:100EB00093047093940490938E0480938D0485EC36
:100EC00090E090939A048093990484EC90E090933E
:100ED0009C0480939B0480EC90E090939E0480930C
:100EE0009D0481EC90E09093A00480939F0482EC99
:100EF00090E09093A2048093A10486EC90E09093FC
:100F0000A4048093A3041092A6041092A704109244
:100F1000A8041092A90410928107109280078DE80E
:100F200094E090937C0780937B07109232058CE2CB
:100F300080937E078BE380937D078FE280937F070A
:100F400080E480932D058FE380932E0510922C056D
:100F5000109277071092760710927907109278070F
:100F600081E080937407E2E8F7E01192119287E044
:100F7000E63EF807D1F7109231050895CF93DF933D
:100F8000CDB7DEB7789484B5826084BD84B58160C6
:100F900084BD85B5826085BD85B5816085BD809144
:100FA0006E00816080936E001092810080918100BC
:100FB00082608093810080918100816080938100B4
:100FC000809180008160809380008091B100846076
:100FD0008093B1008091B00081608093B0008091D7
:100FE0009100826080939100809191008160809354
:100FF0009100809190008160809390008091A10089
:1010000082608093A1008091A10081608093A10003
:101010008091A00081608093A00080912101826076
:101020008093210180912101816080932101809131
:10103000200181608093200180917A0084608093F8
:101040007A0080917A00826080937A0080917A00A1
:10105000816080937A0080917A00806880937A0022
:101060001092C1008DE894E00E946E0180EF93E041
:101070000E946E0181E08093320570E1E72E72E0FC
:10108000F72E00E212E0D7018C91B2E0EB0EF11CDA
:1010900061E00E94AE030E151F05A9F761E083E32E
:1010A0000E94AE0361E084E30E94AE0361E085E349
:1010B0000E94AE0361E083E30E94800361E084E369
:1010C0000E94800361E085E30E94800362E08CE17E
:1010D0000E94AE0362E08DE10E94AE0360E084E412
:1010E0000E94AE0360E083E40E94AE0361E085E20B
:1010F0000E94AE0361E086E20E94AE0361E087E2F7
:101100000E94AE0361E088E20E94AE0380E890E0B6
:101110009093EA038093E9031092E8031092E703A7
:101120001092E6031092E5031092E4031092E30399
:101130001092E2031092E1031092E0031092DF0399
:101140001092DE031092DD031092DC031092DB0399
:1011500050E040E070E060E086E090E00E949D0595
:101160006091E9037091EA0350E040E087E090E08D
:101170000E949D056091E7037091E80350E040E014
:1011800085E090E00E949D056091DD037091DE0393
:1011900050E040E090E080E00E949D056091E50312
:1011A0007091E60350E040E081E090E00E949D05F0
:1011B0006091E3037091E40350E040E082E090E04E
:1011C0000E949D056091E1037091E20350E040E0D0
:1011D00083E090E00E949D056091DF037091E00341
:1011E00050E040E084E090E00E949D056091DB03C8
:1011F0007091DC0350E040E089E090E00E949D05A2
:101200008BE193E00E9403058CE10E945703019754
:1012100009F40BC18CED92E00E94030561E070E0DF
:1012200080E090E00E940F0482E295E090938107B5
:101230008093800781E195E09093830780938207F4
:1012400022E434E030938507209384079093870746
:1012500080938607909389078093880790938B07E4
:1012600080938A0790938D0780938C0790938F07C4
:1012700080938E07909391078093900781E08093ED
:10128000EB0360E08EE00E94800342E0A42EBB24CA
:10129000B3948091310581118CC180917B0790912D
:1012A0007C07DC01ED91FC910084F185E02D19951E
:1012B000892B09F47EC180917B0790917C07DC012A
:1012C000ED91FC910084F185E02D1995612C32E0BF
:1012D000732E8115924064F480917B0790917C0776
:1012E000DC01ED91FC910084F185E02D19953C0124
:1012F00000917B0710917C0723E7E22E25E0F22E78
:101300006701912C812C6814790409F0FCC010E06D
:1013100000E06016710609F4BCCFD7019D917D01F4
:101320001092730730917F0720913005909330051C
:10133000931304C0921302C01092300580912C05C3
:10134000E82FF0E040917D07E65DFA4F941313C15A
:10135000321709F410C11186882321F0B092730767
:101360001092300510922C05109277071092760794
:101370001092790710927807B092740780917307E2
:10138000813009F013C1A0927307809174078823FC
:1013900049F193E3892E95E0992E6401C4010E94DE
:1013A0009501892B39F4BFEF8B1A9B0AF6018081D6
:1013B0008111F3CFD6018C91882309F4E6C0C601D0
:1013C0000E949501F601E80FF91F8081882311F032
:1013D00010823196F0937907E0937807D0927707DF
:1013E000C09276078091760790917707009709F071
:1013F000CFC01092750790E080E080932B05823378
:1014000008F0CDC020917507222309F4C8C0FC0163
:10141000FF27EE0FFF1FEE57F84F0190F081E02DF0
:10142000309709F4BCC01995C1C060E0E62E62E0B7
:10143000F62E00E112E06701F6018081F2E0CF0EA6
:10144000D11C60E00E94AE030C151D05A9F750E009
:1014500040E064E070E080E292E00E94460548E0EF
:1014600050E068E070E080E192E00E94460560E0B4
:1014700084E30E9480038AE293E00E9403058EE7E2
:1014800093E00E94030504E610E08CE10E945703FC
:10149000892B79F582E993E00E94030550E1C52E7E
:1014A00052E0D52E22E0C21AD108D6018C910E94BA
:1014B0005703EC14FD04B1F70FB6F894DEBF0FBE6E
:1014C000CDBF8FE993E00E94030561E084E30E94B1
:1014D00080038DEA93E00E9403058DE10E9457038B
:1014E000019721F08CE093E00E94030585EC93E0E6
:1014F00093CE0150110949F661E084E30E94800314
:1015000089EF92E0C9CF2FB7F8948091EC039091C6
:10151000ED03A091EE03B091EF032FBFF801808798
:101520009187A287B387D801ED91FC910284F3855E
:10153000E02DC801199597FF3FC02FB7F89480910F
:10154000EC039091ED03A091EE03B091EF032FBF58
:10155000F8014085518562857385841B950BA60B28
:10156000B70B448155816681778184179507A6075B
:10157000B707C8F2CCCE91878F5F80932C059091EE
:101580002E05891708F0EECEF9CED12CC12C26CF2E
:10159000B0927407B09275070E94E30A2ECFE091D3
:1015A0008007F0918107309709F03DCF0F5F1F4F03
:1015B000B0CE0E94C3026DCEF60181936F01FFEFA2
:1015C0008F1A9F0AA0CEFC0188279927E8942191C1
:1015D0002032E9F3293010F02E30C8F32B3241F0DD
:1015E0002D3239F4689404C00E94010B820F911DC2
:1015F000219120532A30C0F31EF4909581959F4F7E
:1016000008957AE0979F902D879F802D910D11244A
:101610000895EE0FFF1F881F8BBF0790F691E02DF6
:061620001994F894FFCFBD
:101626000200030004000500060007000800090088
:1016360012001300140015001600170018001900F8
:101646002500260027002800000000005602B601EB
:10165600E301A3021402F20106020D0A00546F67A9
:10166600676C65204C6564005468697320636F6D10
:101676006D616E6420697320756E6B6E6F776E2177
:1016860000546F67676C65204C454400436F6E6E6F
:1016960065637420746F2047726F756E6400436FC4
:1016A6006E6E65637420746F204275730050757496
:1016B60020566F6C74616765004368616E676520CC
:1016C600426F6172646E756D626572004765742063
:1016D600426F6172646E756D626572004D6561730D
:1016E6007572652043757272656E74004D6561731F
:1016F60075726520566F6C74616765004552524F6E
:10170600523A2041434B2077617320616C726561C8
:101716006479206C6F77200A004552524F523A2066
:1017260041434B2065787069726564004552524F9B
:1017360052206465746563746564005245414420B3
:101746004F5045524154494F4E004461746170698F
:101756006E732061726520636F6E66696775726568
:10176600642C206164647265737370696E732061A2
:101776006E64206361726441646472657373506958
:101786006E732061726520636F6E66696775726538
:101796006420616E64207772697474656E005265A8
:1017A60061646C696E6520697320736574204C4FA3
:1017B600570041434B207265636569766564007026
:1017C600696E73206172652072656164005265619D
:1017D600646C696E65206973207265736574202870
:1017E6006C6F772900526561642066696E6973685B
:0617F6006564200A0000FA
:00000001FF
