:100000000C94DD010C940E020C940E020C940E0262
:100010000C940E020C940E020C940E020C940E0220
:100020000C940E020C940E020C940E020C940E0210
:100030000C940E020C940E020C940E020C940E0200
:100040000C940E020C940E020C940E020C940E02F0
:100050000C940E020C940E020C940E020C943B0DA8
:100060000C940E020C94050D0C94DB0C0C940E02F7
:100070000C940E020C940E020C940E020C940E02C0
:100080000C940E020C940E020C940E020C940E02B0
:100090000C940E020C940E020C940E020C940E02A0
:1000A0000C940E020C940E020C940E020C940E0290
:1000B0000C940E020C940E020C940E020C940E0280
:1000C0000C940E020C940E020C940E020C940E0270
:1000D0000C940E020C940E020C940E020C940E0260
:1000E0000C940E020C94AF020C94D4030C943205C1
:1000F0000C9415040C94EF030C94DE030C9414047C
:100100000C940B040C940F040C9425050C94C1075B
:100110000C9419040C94FD030C94E9030C94850AC7
:100120000C9423090C94E0020C94E6030C941B112C
:100130000C94850D0C9465030C9418030C94010425
:100140000C9482020C94F3030C94F9030C94D202E5
:100150000C94E2030C94DA030C94BE020C94070492
:100160004E414E494E495459494E46CDCCCC3D0A9C
:10017000D7233C17B7D13877CC2B329595E6241F7F
:10018000B14F0A000020410000C84200401C462038
:10019000BCBE4CCA1B0E5AAEC59D7400407A10F30B
:1001A0005A00A0724E18090010A5D4E80000E876A5
:1001B00048170000E40B54020000CA9A3B000000FC
:1001C000E1F505000080969800000040420F000015
:1001D00000A08601000000102700000000E80300D6
:1001E0000000006400000000000A000000000001A0
:1001F00000000000002C76D888DC674F0823DFC1A0
:10020000DFAE59E1B1B796E5E3E453C63AE651995A
:100210007696E8E6C28426EB898C9B62ED407C6F83
:10022000FCEFBC9C9F40F2BAA56FA5F490055A2A3A
:10023000F75C936B6CF9676DC11BFCE0E40D47FE46
:10024000F520E6B500D0ED902E030094357705003B
:1002500080841E080000204E0A000000C80C3333C2
:1002600033330F986E12831141EF8D2114893BE6D1
:100270005516CFFEE6DB18D1844B381BF77C1D905A
:100280001DA4BBE424203284725E228100C9F124C3
:10029000ECA1E53D2700002100240027002A002DC5
:1002A000003000330001010000040107010A0100D1
:1002B000002200250028002B002E0031003400020F
:1002C000010000050108010B0100002000230026A9
:1002D0000029002C002F003200000100000301065D
:1002E00001090105050505070508080808020202BD
:1002F000020A0A08080404040401010101010101C1
:10030000010303030303030303040707070C0C0C97
:100310000C0C0C0C0C02020202060606060606066F
:10032000060B0B0B0B0B0B0B0B010210202008080C
:100330001020401020408002010201080402010147
:100340000204081020408080402010080402018030
:100350000402018040201008040201080402010187
:100360000204081020408001020408102040800090
:10037000000A0B02090C0D0E08070304010000001F
:10038000000000000000000000000000000000006D
:10039000000000000000000000000012111000002A
:1003A000000000000000000000000000000000004D
:1003B000000000000000850D1B1111241FBECFEFAF
:1003C000D1E2DEBFCDBF00E00CBF28E0A4E4B5E081
:1003D00001C01D92A53EB207E1F715E0A0E0B2E032
:1003E000ECE9F4E300E00BBF02C007900D92A434E7
:1003F000B107D9F711E0CCEDD1E000E006C02197BC
:100400000109802FFE010E941E18CB3DD10780E01C
:100410000807A9F70E94FF0D0C943C1A0C940000E9
:10042000AC01109228069091780880917708FA0123
:10043000BF01641B750B209128063081309328067C
:10044000931304C0921302C0109228063081311118
:1004500004C0921721F0CB0108953817D1F33196DB
:10046000E7CF0F931F93CF93DF9380916C0888237E
:1004700009F446C0D0E0C0E0813029F482E08093E6
:100480006C08CCE2D6E080916D08882341F120977A
:1004900021F4C0917108D09172088E01CE010E94A2
:1004A0001002892B29F42196F80180818111F5CF62
:1004B000F8018081882309F1C8010E941002F80127
:1004C000E80FF91F8081882311F010823196F09394
:1004D0007208E09371081093700800936F08809180
:1004E0006F0890917008892B59F081E080936D0816
:1004F000DF91CF911F910F91089510E000E0EBCFB5
:1005000080E0F6CFAF92BF92CF92DF92EF92FF9250
:100510000F931F93CF93DF936C017B018B01040F2B
:10052000151FEB015E01AE18BF08C017D10759F0C7
:100530006991D601ED91FC910190F081E02DC60109
:100540001995892B79F7C501DF91CF911F910F91F3
:10055000FF90EF90DF90CF90BF90AF900895FC0197
:10056000538D448D252F30E0842F90E0821B930B18
:10057000541710F0CF96089501970895FC01918DBE
:10058000828D981761F0A28DAE0FBF2FB11D5D96C1
:100590008C91928D9F5F9F73928F90E008958FEF63
:1005A0009FEF0895FC01918D828D981731F0828D17
:1005B000E80FF11D858D90E008958FEF9FEF08956E
:1005C000FC01918D228D892F90E0805C9F4F821BD2
:1005D00091098F739927089586E895E00E94E002BB
:1005E00021E0892B09F420E0822F0895FC01A48DDD
:1005F000A80FB92FB11DA35ABF4F2C91848D90E045
:1006000001968F739927848FA689B7892C93A08927
:10061000B1898C91837080648C93938D848D9813B1
:1006200006C00288F389E02D80818F7D8083089544
:10063000EF92FF920F931F93CF93DF93EC0181E032
:10064000888F9B8D8C8D98131AC0E889F9898081D9
:1006500085FF15C09FB7F894EE89FF896083E8890C
:10066000F98980818370806480839FBF81E090E0FE
:10067000DF91CF911F910F91FF90EF900895F62E8B
:100680000B8D10E00F5F1F4F0F731127E02E8C8D25
:100690008E110CC00FB607FCFACFE889F98980816A
:1006A00085FFF5CFCE010E94F602F1CFEB8DEC0F66
:1006B000FD2FF11DE35AFF4FF0829FB7F8940B8F87
:1006C000EA89FB8980818062CFCFCF93DF93EC01F1
:1006D000888D8823B9F0AA89BB89E889F9898C912A
:1006E00085FD03C0808186FD0DC00FB607FCF7CFE6
:1006F0008C9185FFF2CF808185FFEDCFCE010E94E6
:10070000F602E9CFDF91CF91089580E090E0892B48
:1007100029F00E94EC0281110E94000080E090E02C
:10072000892B49F080E090E0892B29F00E9400009D
:1007300081110E94000080E090E0892B49F080E068
:1007400090E0892B29F00E94000081110E94000096
:1007500080E090E0892B49F080E090E0892B29F03F
:100760000E94000081110C94000008958150823194
:1007700008F05AC0E82FF0E08827EE53FC4F8F4F67
:100780000C941E18E203E603D403DA03DE03140418
:10079000E903EF03F303F903FD03010407040B046A
:1007A00014040F0415041904809180008F7780933E
:1007B00080000895809180008F7DF9CF8091800026
:1007C000877FF5CF84B58F7784BD089584B58F7DFD
:1007D000FBCF8091B0008F778093B0000895809117
:1007E000B0008F7DF9CF809190008F77809390003B
:1007F0000895809190008F7DF9CF80919000877F40
:10080000F5CF8091A0008F778093A000089580910C
:10081000A0008F7DF9CF8091A000877FF5CF8091D8
:1008200020018F77809320010895809120018F7D92
:10083000F9CF80912001877FF5CFCF93DF93282FC9
:1008400030E0F901E159FC4F8491F901E75DFC4F7B
:10085000D491F901ED51FD4FC491CC23A1F0811148
:100860000E94B603EC2FF0E0EE0FFF1FE753FD4FA1
:10087000A591B491EC91ED2381E090E009F480E042
:10088000DF91CF91089580E090E0FACF1F93CF934E
:10089000DF93282F30E0F901E159FC4F8491F901F1
:1008A000E75DFC4FD491F901ED51FD4FC491CC238C
:1008B000A9F0162F81110E94B603EC2FF0E0EE0F85
:1008C000FF1FE155FD4FA591B4918FB7F894EC91BE
:1008D000111108C0D095DE23DC938FBFDF91CF913B
:1008E0001F910895DE2BF8CFCF93DF9390E0FC01AA
:1008F000E75DFC4F24918D519D4FFC01849188232D
:10090000C9F090E0880F991FFC01EB56FD4FA591AF
:10091000B491FC01E155FD4FC591D49161110DC019
:100920009FB7F8948C91209582238C9388812823FB
:1009300028839FBFDF91CF910895623051F49FB714
:10094000F8943C91822F809583238C93E8812E2B01
:10095000EFCF8FB7F894EC912E2B2C938FBFEACF6B
:100960003FB7F8948091450590914605A0914705C1
:10097000B091480526B5A89B05C02F3F19F00196F8
:10098000A11DB11D3FBFBA2FA92F982F8827BC01E9
:10099000CD01620F711D811D911D42E0660F771F11
:1009A000881F991F4A95D1F708958F929F92AF9211
:1009B000BF92CF92DF92EF92FF926B017C010E9477
:1009C000B0044B015C01C114D104E104F104B9F09D
:1009D0000E94B004681979098A099B09683E73402E
:1009E0008105910580F321E0C21AD108E108F108E0
:1009F00088EE880E83E0981EA11CB11CE4CFFF9006
:100A0000EF90DF90CF90BF90AF909F908F90089520
:100A100030E020E0FC0111921192CF012F5F3F4F97
:100A200062177307B9F70895FA01EE0FFF1FE60F7B
:100A3000F71F1816190644F49C01217033273293CE
:100A4000229395958795F5CF089580917B0591E048
:100A5000892780937B0561E0811101C060E08EE011
:100A60000C9446040E9425056EEE72E080E090E052
:100A70000E94D5040C942505FC0101900020E9F7A3
:100A80003197AF01481B590BBC0186E895E00C94E7
:100A9000820280E492E00C943C05CF93DF93FC014A
:100AA000448155816081718186E895E00E948202CF
:100AB000EC010E9449058C0F9D1FDF91CF91089595
:100AC000CF93DF930E943C05EC010E9449058C0FF7
:100AD0009D1FDF91CF9108950C943C054F925F923A
:100AE0006F927F92AF92BF92CF92DF92EF92FF927E
:100AF0000F931F93CF93DF93CDB7DEB7A1970FB6B8
:100B0000F894DEBF0FBECDBF7C0183E492E00E946B
:100B10006C058701570180E1A80EB11C8AE0482EC0
:100B2000512C612C712CF801C190D1908F010D2CAA
:100B3000000CEE08FF08F7FE41C06DE286E895E084
:100B40000E94180322273327A9012C193D094E09B9
:100B50005F0919A2CE0181967C01CA01B901A301E6
:100B600092010E94FC17605DF70162937F012115DD
:100B700031054105510589F7E114F10419F0C70168
:100B80000E943C05A016B10671F685E492E00E9431
:100B90006005A1960FB6F894DEBF0FBECDBFDF9102
:100BA000CF911F910F91FF90EF90DF90CF90BF906A
:100BB000AF907F906F905F904F900895A70196013E
:100BC00019A2CE0181967C01CA01B901A30192014B
:100BD0000E94FC17605DF70162937F0121153105CA
:100BE0004105510589F7C8CF0E943102882359F089
:100BF00081E080936D0880936E0880916F089091DA
:100C000070080C949F1210926E0890E080E0089596
:100C10006F927F928F929F92AF92BF92CF92DF920C
:100C2000EF92FF920F931F93CF93DF93CDB7DEB771
:100C30003C018B014A01ADB6BEB67B01EE0CFF1C38
:100C40008DB79EB78E199F090FB6F8949EBF0FBE41
:100C50008DBFEDB7FEB731966F01CF010E94080539
:100C6000A801B601C4010E941405EC0CFD1C83010F
:100C7000F2E0EF1AF108F80180810E5F1F4FF701D3
:100C800060810E944604EC14FD0491F70FB6F894BD
:100C9000BEBE0FBEADBEDF91CF911F910F91FF90F1
:100CA000EF90DF90CF90BF90AF909F908F907F900C
:100CB0006F900895CF92DF92EF92FF920F931F9360
:100CC000CF93DF938C016B017A018CE10E941D04AC
:100CD000019761F087E492E0DF91CF911F910F912E
:100CE000FF90EF90DF90CF900C946005C6E0D2E0CB
:100CF0008881229661E00E94740482E0C631D807A0
:100D0000B9F7A60168E070E086E092E00E9408066C
:100D1000A70164E070E086E292E00E940806A80164
:100D200068E070E086E192E00E94080660E083E3FC
:100D30000E944604C4E6D0E08CE10E941D04892B89
:100D400051F02197C9F761E083E30E94460484E6ED
:100D500092E00E94600561E083E30E9446048DE119
:100D60000E941D04019719F087E792E0B5CFDF914B
:100D7000CF911F910F91FF90EF90DF90CF9008954A
:100D80000F931F93CF93DF93EC0188819981009794
:100D900059F02A813B812617370730F081E0DF9137
:100DA000CF911F910F9108958B016F5F7F4F0E942C
:100DB0004B19009759F0998388831B830A832C81F0
:100DC0003D81232B59F7FC011082E8CF80E0E7CF6B
:100DD000EF92FF920F931F93CF93DF9361157105ED
:100DE00041F480E0DF91CF911F910F91FF90EF9040
:100DF000089541155105B1F07B01EC010C811D8175
:100E0000040F151FB8010E94C006882351F32881E2
:100E100039818C819D81B701820F931F0E94351A01
:100E20001D830C8381E0DECFCF93DF93EC018881BB
:100E30009981009711F00E94C218198218821D82B0
:100E40001C821B821A82DF91CF910895CF93DF938A
:100E5000EC01FB0101900020E9F73197AF01461B3F
:100E6000570B0E94E806811103C0CE010E941407AF
:100E7000CE01DF91CF910895CF93DF93EC01FB0179
:100E800044815581608171810E94E806811103C00F
:100E9000CE010E941407CE01DF91CF910895EF9209
:100EA000FF920F931F93CF93DF93EC017B018A0195
:100EB000BA010E94C00681110BC0CE010E94140726
:100EC000CE01DF91CF911F910F91FF90EF90089588
:100ED0001D830C83B701888199810E94351AF0CF58
:100EE000EF92FF920F931F93CF93DF93CDB7DEB7AF
:100EF00062970FB6F894DEBF0FBECDBF8C01CB0159
:100F0000F8011182108213821282158214824AE043
:100F10009E012F5F3F4F7901B9010E940513F70130
:100F200001900020E9F73197AF014E195F09B70131
:100F3000C8010E944F0762960FB6F894DEBF0FBE3D
:100F4000CDBFDF91CF911F910F91FF90EF9008954A
:100F5000FC01118210821382128215821482FB011D
:100F600001900020E9F73197AF01461B570B0C9415
:100F70004F07FC0180819181009711F00C94C218F9
:100F800008956F927F928F929F92AF92BF92CF926D
:100F9000DF92EF92FF920F931F93CF93DF93CDB722
:100FA000DEB766970FB6F894DEBF0FBECDBF6624DE
:100FB0006394712C0E943102882309F42FC10E948E
:100FC000F4058C010E94F4057C01B801CE01019664
:100FD000E114F10481F10E94700766E872E0CE012D
:100FE00041960E94A807BE016F5F7F4FCE014196D8
:100FF0000E943C0767E972E00E9426070E944D05A7
:10100000CE0141960E94B907CE0101960E94B90710
:10101000C80101978031910500F521E0E114F10448
:1010200009F420E0FC01E559FA4F308132131AC06F
:101030008BE493E014C00E94700763EA72E0CE0173
:1010400041960E94A807BE016F5F7F4FCE01419677
:101050000E943C0767EB72E0CFCF85EC92E00E94E4
:101060006005A8CF2083A0905305B09054058090D0
:10107000510590905205EF2809F0BFC009301105C5
:101080000CF0ACC0730102C0EE0CFF1C8A95E2F7B5
:10109000E094F094EA20FB208401CC24C394D12C6A
:1010A0000CC0730102C0EE0CFF1C8A95E2F7EA281F
:1010B000FB28840195E0C92ED12C85EE92E00E9498
:1010C000600581EF92E00E946C0568E070E0CE015F
:1010D00001960E94080548E050E0BE016F5F7F4F17
:1010E000C5010E941405CE0101960E946E0588E09C
:1010F00093E00E946C0568E070E0CE0101960E94CA
:10110000080548E050E0BE016F5F7F4FC7010E94B5
:101110001405CE0101960E946E058EE193E00E94B7
:101120006C0568E070E0CE0101960E94080548E079
:1011300050E0BE016F5F7F4FC4010E941405CE01D5
:1011400001960E946E0585E393E00E946C0568E0BD
:1011500070E0CE0101960E94080548E050E0BE0113
:101160006F5F7F4FC8010E941405CE0101960E9457
:101170006E050E9449058091530590915405E8162B
:10118000F90691F0F0925405E092530550E040E0EA
:10119000B70181E090E00E945A06B6010D2C000CC8
:1011A000880B990B0E94D5048091510590915205AE
:1011B0000817190709F4FECE109352050093510544
:1011C00050E040E0B80182E090E00E945A06B6018B
:1011D000DD0C880B990B0E94D504ECCE0950110947
:1011E000C30102C0880F991F0A95E2F78C01009590
:1011F000109508211921750150CF093011050CF403
:1012000050CF09501109C30102C0880F991F0A95D8
:10121000E2F78C010829192975014CCF66960FB6A3
:10122000F894DEBF0FBECDBFDF91CF911F910F911C
:10123000FF90EF90DF90CF90BF90AF909F908F90F6
:101240007F906F9008956F927F928F929F92AF924E
:10125000BF92CF92DF92EF92FF920F931F93CF93A3
:10126000DF93CDB7DEB766970FB6F894DEBF0FBE3B
:10127000CDBF66246394712C0E943102882309F447
:101280002FC10E94F4058C010E94F4057C01B80175
:10129000CE010196E114F10481F10E94700764E629
:1012A00073E0CE0141960E94A807BE016F5F7F4F99
:1012B000CE0141960E943C0764E773E00E94260736
:1012C0000E944D05CE0141960E94B907CE010196BC
:1012D0000E94B907C80101978031910500F521E00E
:1012E000E114F10409F420E0FC01E55AFA4F3081E1
:1012F00032131AC08BE493E014C00E94700763E8B5
:1013000073E0CE0141960E94A807BE016F5F7F4F38
:10131000CE0141960E943C0766E973E0CFCF85EC91
:1013200092E00E946005A8CF2083A0904F05B09066
:10133000500580904D0590904E05EF2809F0BFC0F4
:10134000093011050CF0ACC0730102C0EE0CFF1C9B
:101350008A95E2F7E094F094EA20FB208401CC2403
:10136000C394D12C0CC0730102C0EE0CFF1C8A95F3
:10137000E2F7EA28FB28840195E0C92ED12C87EA00
:1013800093E00E94600583EB93E00E946C0568E0A7
:1013900070E0CE0101960E94080548E050E0BE01D1
:1013A0006F5F7F4FC5010E941405CE0101960E9418
:1013B0006E058AEC93E00E946C0568E070E0CE0157
:1013C00001960E94080548E050E0BE016F5F7F4F24
:1013D000C7010E941405CE0101960E946E0580EEA1
:1013E00093E00E946C0568E070E0CE0101960E94D7
:1013F000080548E050E0BE016F5F7F4FC4010E94C6
:101400001405CE0101960E946E0587EF93E00E94BD
:101410006C0568E070E0CE0101960E94080548E086
:1014200050E0BE016F5F7F4FC8010E941405CE01DE
:1014300001960E946E050E94490580914F0590918A
:101440005005E816F90691F0F0925005E0924F052C
:1014500050E040E0B70183E090E00E945A06B601F8
:101460000D2C000C880B990B0E94D50480914D0522
:1014700090914E050817190709F4FECE10934E05FA
:1014800000934D0550E040E0B80184E090E00E94F8
:101490005A06B601DD0C880B990B0E94D504ECCEE0
:1014A00009501109C30102C0880F991F0A95E2F77C
:1014B0008C010095109508211921750150CF093034
:1014C00011050CF450CF09501109C30102C0880F57
:1014D000991F0A95E2F78C010829192975014CCF4B
:1014E00066960FB6F894DEBF0FBECDBFDF91CF91E9
:1014F0001F910F91FF90EF90DF90CF90BF90AF9032
:101500009F908F907F906F9008958F929F92AF924F
:10151000BF92CF92DF92EF92FF920F931F93CF93E0
:10152000DF93CDB7DEB7E3970FB6F894DEBF0FBEFB
:10153000CDBF61E08EE00E94460468EC70E080E080
:1015400090E00E94D50460E08EE00E94460468ECC2
:1015500070E080E090E00E94D50461E08EE00E949F
:10156000460468EC70E080E090E00E94D50460E002
:101570008EE00E94460468EC70E080E090E00E94FB
:10158000D50461E08EE00E94460468EC70E080E0E3
:1015900090E00E94D50460E08EE00E94460468EC72
:1015A00070E080E090E00E94D50461E08EE00E944F
:1015B000460464EF71E080E090E00E94D50460E0B2
:1015C0008EE00E94460464EF71E080E090E00E94AB
:1015D000D50461E08EE00E94460464EF71E080E093
:1015E00090E00E94D50460E08EE00E94460464EF23
:1015F00071E080E090E00E94D50461E08EE00E94FE
:10160000460464EF71E080E090E00E94D50460E061
:101610008EE00E94460464EF71E080E090E00E945A
:10162000D50461E08EE00E94460468EC70E080E042
:1016300090E00E94D50460E08EE00E94460468ECD1
:1016400070E080E090E00E94D50461E08EE00E94AE
:10165000460468EC70E080E090E00E94D50460E011
:101660008EE00E94460468EC70E080E090E00E940A
:10167000D50461E08EE00E94460468EC70E080E0F2
:1016800090E00E94D50460E08EE00E94460468EC81
:1016900070E080E090E00E94D5040E94310288232F
:1016A00009F444C10E94F4058C010E943102882390
:1016B00009F44FC181E080936D0880936E0880919A
:1016C0006F08909170080E94BD12CE0188960E940A
:1016D0007007B801CE0101960E9470071BA21AA2E2
:1016E0001DA21CA21FA21EA269817A81611571052B
:1016F00031F04D815E81CE0182960E944F076DE0F0
:1017000074E0CE0182960E942607BE01685D7F4F7D
:101710000E943C071FA61EA619AA18AA1BAA1AAA4D
:101720007E012EE2E20EF11C8E159F0559F0FC01A0
:10173000608171816115710529F044815581C7016E
:101740000E944F07CE0182960E94B907CE010196F2
:101750000E94B907CE0188960E94B9078EA59FA561
:10176000812C912C5401009721F00E949B124B0177
:101770005C011BA21AA21DA21CA21FA21EA28E0106
:101780000F5F1F4F22E044E0C501B4010E941F110A
:10179000009709F4E4C0FC0101900020E9F73197BB
:1017A000AF01481B590BBC01CE0182960E944F0726
:1017B0006FE074E0CE0101960E94A807BE016E5D45
:1017C0007F4FCE0101960E943C070E944D05CE013D
:1017D00001960E94B907CE0182960E94B907C09077
:1017E0005905D0905A05009157051091580520E0F1
:1017F00030E040E450E4C501B4010E94561720E0F7
:1018000030E040E251E40E94EA164B015C0120E026
:1018100030E040EA51E40E94F71787FDA5C08FEF42
:1018200090E090935A0580935905909358058093C2
:101830005705A0905705B090580580905905909095
:101840005A058FE194E00E94600587E394E00E94CE
:101850006C0568E070E0CE0101960E94080548E042
:1018600050E0BE016F5F7F4FC6010E941405CE019C
:1018700001960E946E058CE494E00E946C0568E07D
:1018800070E0CE0101960E94080548E050E0BE01DC
:101890006F5F7F4FC4010E941405CE0101960E9424
:1018A0006E0580E694E00E946C0568E070E0CE0171
:1018B00001960E94080548E050E0BE016F5F7F4F2F
:1018C000C8010E941405CE0101960E946E0585E7AD
:1018D00094E00E946C0568E070E0CE0101960E94E1
:1018E000080548E050E0BE016F5F7F4FC5010E94D0
:1018F0001405CE0101960E946E050E944905609173
:10190000590570915A0550E040E086E090E00E9451
:101910005A06609157057091580550E040E087E005
:1019200090E00E945A06C7010E94B907E3960FB6DD
:10193000F894DEBF0FBECDBFDF91CF911F910F9105
:10194000FF90EF90DF90CF90BF90AF909F908F90DF
:10195000089510926E0860E070E0CB01B6CECE0123
:1019600082960E94140724CF20E030E0A901C5012F
:10197000B4010E94471318164CF010925A051092A9
:101980005905109258051092570553CF20E03CECB2
:101990004CE455E4C501B4010E94AD130E94C81780
:1019A0009B01332730935A052093590570935705AF
:1019B000109258053ECF1F920F920FB60F9211242E
:1019C0000BB60F922F933F934F935F936F937F9339
:1019D0008F939F93AF93BF93EF93FF9386E895E028
:1019E0000E94F602FF91EF91BF91AF919F918F916D
:1019F0007F916F915F914F913F912F910F900BBE0F
:101A00000F900FBE0F901F9018951F920F920FB658
:101A10000F9211240BB60F922F938F939F93EF93F6
:101A2000FF93E0919605F09197058081E0919C05E8
:101A3000F0919D0582FD1DC0908180919F058F5F73
:101A40008F732091A005821741F0E0919F05F0E08F
:101A5000EA57FA4F958F80939F05FF91EF919F91E1
:101A60008F912F910F900BBE0F900FBE0F901F9074
:101A700018958081F2CF1F920F920FB60F9211240A
:101A80002F933F938F939F93AF93BF9380917C0548
:101A900090917D05A0917E05B0917F053091440520
:101AA00023E0230F2D3758F50196A11DB11D20937A
:101AB000440580937C0590937D05A0937E05B093AB
:101AC0007F058091450590914605A0914705B0910D
:101AD00048050196A11DB11D8093450590934605CB
:101AE000A0934705B0934805BF91AF919F918F9107
:101AF0003F912F910F900FBE0F901F90189526E8E1
:101B0000230F0296A11DB11DD2CF1092890510920C
:101B1000880588EE93E0A0E0B0E080938A0590937A
:101B20008B05A0938C05B0938D0582E392E0909392
:101B300087058093860585EC90E0909393058093CC
:101B4000920584EC90E0909395058093940580EC49
:101B500090E0909397058093960581EC90E09093A8
:101B600099058093980582EC90E090939B05809373
:101B70009A0586EC90E090939D0580939C051092C9
:101B80009F051092A0051092A1051092A205109237
:101B90007A081092790886E895E09093750880930A
:101BA000740810922B068CE2809377088BE3809365
:101BB00076088FE28093780880E4809326068FE38E
:101BC00080932706109225061092700810926F08D5
:101BD000109272081092710881E080936D08EBE713
:101BE000F8E01192119288E0EF3DF807D1F71092DA
:101BF0002A0662E472E080E895E00C94A807CF938F
:101C0000DF93CDB7DEB7789484B5826084BD84B5A8
:101C1000816084BD85B5826085BD85B5816085BDE7
:101C200080916E00816080936E001092810080919F
:101C30008100826080938100809181008160809327
:101C40008100809180008160809380008091B1004C
:101C500084608093B1008091B00081608093B00077
:101C600080919100826080939100809191008160C9
:101C7000809391008091900081608093900080918A
:101C8000A10082608093A1008091A1008160809377
:101C9000A1008091A00081608093A000809121012B
:101CA00082608093210180912101816080932101D4
:101CB0008091200181608093200180917A0084606E
:101CC00080937A0080917A00826080937A0080917C
:101CD0007A00816080937A0080917A008068809396
:101CE0007A001092C100E0919605F091970582E08C
:101CF0008083E0919205F09193051082E091940524
:101D0000F091950580E1808310929E05E0919A05FF
:101D1000F0919B0586E08083E0919805F09199050C
:101D2000808180618083E0919805F09199058081A0
:101D300088608083E0919805F091990580818068A2
:101D40008083E0919805F091990580818F7D808353
:101D500006E112E0D8018C910E5F1F4F61E00E94F6
:101D60007404B2E006321B07A9F761E083E30E9426
:101D7000740461E084E30E94740461E085E30E94DE
:101D8000740461E083E30E94460461E084E30E94FE
:101D9000460461E085E30E94460462E08CE10E9413
:101DA000740462E08DE10E94740460E084E40E94A7
:101DB000740460E083E40E94740461E085E20E94A0
:101DC000740461E086E20E94740461E087E20E948C
:101DD000740461E088E20E94740410925A05109223
:101DE000590580E890E0909358058093570510922C
:101DF00056051092550510925405109253051092F5
:101E00005205109251051092500510924F051092F4
:101E10004E0510924D0510924C0510924B051092F4
:101E20004A051092490550E040E070E060E086E02D
:101E300090E00E945A06609157057091580550E055
:101E400040E087E090E00E945A066091550570914D
:101E5000560550E040E085E090E00E945A0660910F
:101E60004B0570914C0550E040E090E080E00E940E
:101E70005A06609153057091540550E040E081E0AE
:101E800090E00E945A06609151057091520550E011
:101E900040E082E090E00E945A0660914F05709108
:101EA000500550E040E083E090E00E945A066091C7
:101EB0004D0570914E0550E040E084E090E00E94B6
:101EC0005A066091490570914A0550E040E089E06A
:101ED00090E00E945A0689E894E00E9460058CE137
:101EE0000E941D04019709F4E2C087E492E00E9479
:101EF000600561E070E080E090E00E94D50482E33C
:101F000095E090937C0880937B0885E295E0909320
:101F10007E0880937D0825E83AE03093800820937E
:101F20007F0823E239E0309382082093810821EC76
:101F300037E0309384082093830890938608809339
:101F40008508909388088093870890938A088093E7
:101F5000890890938C0880938B0881E080932B06EE
:101F600080937B0560E08EE00E944604EBE6F5E09E
:101F7000ABE5B5E08BE795E011921D928E179F07B8
:101F8000D9F7DD24D39480912A0681114AC180912A
:101F9000740890917508DC01ED91FC910084F18545
:101FA000E02D1995892B09F43CC18091740890911A
:101FB0007508DC01ED91FC910084F185E02D199507
:101FC000612C22E0722E8115924064F48091740895
:101FD00090917508DC01ED91FC910084F185E02D74
:101FE00019953C0100917408109175089CE6E92E42
:101FF00096E0F92E4701B12CA12C6A147B0409F05C
:10200000C4C010E000E06016710609F4BCCFD7012F
:102010009D917D0110926C083091780820912906DD
:1020200090932906931304C0921302C010922906BC
:1020300080912506E82FF0E040917608ED5DF94F9C
:102040009413DBC0321709F4D8C01186882321F01D
:10205000D0926C08109229061092250610927008F2
:1020600010926F081092720810927108D0926D0849
:1020700080916C08813009F0D1C00E94F4058093F2
:102080002406823308F0C3C020916E08222309F48D
:10209000BEC0FC01FF27EE0FFF1FE558F74F019070
:1020A000F081E02D309709F4B2C01995B7C046E031
:1020B000E42E42E0F42E06E112E05701F5018081A2
:1020C000F2E0AF0EB11C60E00E9474040A151B051B
:1020D000A9F750E040E064E070E086E292E00E9400
:1020E000080648E050E068E070E086E192E00E9477
:1020F000080660E084E30E94460488E994E00E94B8
:1021000060058CEE94E00E94600504E610E08CE12E
:102110000E941D04892B79F580E095E00E946005FE
:1021200036E1A32E32E0B32E22E0A21AB108D50187
:102130008C910E941D04EA14FB04B1F70FB6F894C9
:10214000DEBF0FBECDBF8DE095E00E94600561E06F
:1021500084E30E9446048BE195E00E9460058DE1D6
:102160000E941D04019721F087E792E00E9460051C
:1021700083E395E0BCCE0150110949F661E084E3A8
:102180000E94460484E692E0C9CF2FB7F89480916C
:102190007C0590917D05A0917E05B0917F052FBFB4
:1021A000F80180879187A287B387D801ED91FC91D0
:1021B0000284F385E02DC801199597FF35C02FB72C
:1021C000F89480917C0590917D05A0917E05B09159
:1021D0007F052FBFF8014085518562857385841B7B
:1021E000950BA60BB70B44815581668177818417C7
:1021F0009507A607B707C8F204CF91878F5F809332
:10220000250690912706891708F026CF31CFE09157
:102210007908F0917A08309709F047CF0F5F1F4F88
:10222000F2CE0E948503AFCEF40181934F01FFEF00
:10223000AF1ABF0AE2CE80E895E00C94B907EF929E
:102240000F931F93CF93DF93E80134E047FD34E110
:10225000042E000C550B57FF03C0519541955109B1
:10226000E32E022F242FAE010E941A14CE01DF911B
:10227000CF911F910F91EF9008958F929F92AF92FF
:10228000BF92CF92DF92EF92FF920F931F93CF9363
:10229000DF935C017B016115710519F0DB018D9302
:1022A0009C9385010F5F1F4FF501D0818D2F90E02A
:1022B0000E94E4126C01892BB9F5DD32B9F50F5F8C
:1022C0001F4FD5011196DC91C1E05801F1E0AF1A22
:1022D000B10843E050E068E671E0C5010E94ED12EC
:1022E000892B69F5680182E0C80ED11C45E050E0F9
:1022F00063E671E0C6010E94ED12892B21F46801AA
:1023000097E0C90ED11CE114F10419F0D701CD9268
:10231000DC9260E070E080E89FEFC111FFC060E0F8
:1023200070E080E89FE7FAC05801BBCFDB3229F4A8
:1023300085010E5F1F4FF501D181C0E0C6CF43E09C
:1023400050E060E671E0C5010E94ED12892BE9F0D2
:10235000F80110E000E020E030E0A9015F01B0EDFD
:102360008B2E8D0E89E08815C8F19C2E689491F80B
:102370008C2F8870C2FF16C0811102C00F5F1F4FE3
:102380003196D501DC91C92DE9CFE114F10429F092
:102390000E5F1F4FF7011183008360E070E080EC57
:1023A0009FE7BCC0882311F001501109A5E0B0E0FF
:1023B0000E94CF169B01AC01220F331F441F551FF3
:1023C000280D311D411D511D283999E9390749074B
:1023D00099E15907A8F2C6609C2ED2CFAEEF8A12BF
:1023E00006C0C3FD3CC09C2E689493F8C9CFDF7D26
:1023F000D534A9F580818D3239F4C061DF011296A0
:10240000818162E070E006C0DF018B32C1F311967A
:1024100061E070E080535D01A61AB70A8A30F8F4D3
:10242000E0E8CE16ECE0DE065CF4B601660F771F3E
:10243000660F771FC60ED71ECC0CDD1CC80ED11C34
:102440005D01FFEFAF1ABF0A8C9180538A30A8F16B
:10245000C4FF03C0D194C194D1080C0D1D1DC1FF50
:1024600009C0E114F10431F081E0A81AB108D701E4
:10247000AD92BC92CA01B9010E944C13C370C33023
:1024800009F490584B015C0120E030E0A9010E9462
:102490004713882309F440C0C7E9D1E017FF05C0FE
:1024A000119501951109CFE7D1E06E01B8E1CB1A82
:1024B000D10880E2E82EF12C0FC0D501B1CFFE018A
:1024C00025913591459154910E191F09C501B4010B
:1024D0000E94AD134B015C01D501C4010E151F050F
:1024E00074F72497F594E794CC16DD06A9F78A2FA4
:1024F000880F8B2F881F8F3F49F020E030E0A90123
:10250000C501B4010E944713811106C082E290E028
:102510009093E0088093DF08C501B401DF91CF916B
:102520001F910F91FF90EF90DF90CF90BF90AF90F1
:102530009F908F900895662777270C943D11FC019A
:1025400088279927E89421912032E9F3293010F067
:102550002E30C8F32B3241F02D3239F4689404C088
:102560000E942513820F911D219120532A30C0F320
:102570001EF4909581959F4F08951F93FC01992714
:102580008827BC01E89411911032E9F3193010F05A
:102590001E30C8F31B3251F01D3249F4689406C056
:1025A0000E941013610F711D811D911D1191105317
:1025B0001A30B0F33EF490958095709561957F4FF9
:1025C0008F4F9F4F1F91089591110C946B1680327D
:1025D00019F089508550C8F70895FB01DC0141507E
:1025E000504088F08D9181341CF08B350CF4805E66
:1025F000659161341CF06B350CF4605E861B6111D3
:1026000071F3990B0895881BFCCFBB274A3031F436
:10261000992322F4BDE2909581959F4F0C942E133F
:10262000592F482F372F262F660F771F881F991F86
:10263000660F771F881F991F620F731F841F951FD6
:10264000660F771F881F991F08957AE0979F902D36
:10265000879F802D910D11240895BB27FB015527DD
:10266000AA27880F991FAA1FA41710F0A41B8395EF
:102670005051B9F7A05DAA3308F0A95DA193009766
:1026800079F7B111B1931192CB010C946E160E949F
:10269000891308F481E00895E89409C097FB3EF49B
:1026A00090958095709561957F4F8F4F9F4F99239F
:1026B000A9F0F92F96E9BB279395F695879577951D
:1026C0006795B795F111F8CFFAF4BB0F11F460FFDD
:1026D0001BC06F5F7F4F8F4F9F4F16C0882311F035
:1026E00096E911C0772321F09EE8872F762F05C049
:1026F000662371F096E8862F70E060E02AF09A95E4
:10270000660F771F881FDAF7880F9695879597F9D8
:102710000895990F0008550FAA0BE0E8FEEF161672
:102720001706E807F907C0F012161306E407F507C5
:1027300098F0621B730B840B950B39F40A2661F039
:10274000232B242B252B21F408950A2609F4A140DC
:10275000A6958FEF811D811D08950E94C0130C94D2
:1027600095160E94871638F00E948E1620F0952349
:1027700011F00C947E160C94841611240C94C91636
:102780000E94A61670F3959FC1F3950F50E0551F58
:10279000629FF001729FBB27F00DB11D639FAA27B6
:1027A000F00DB11DAA1F649F6627B00DA11D661F05
:1027B000829F2227B00DA11D621F739FB00DA11D26
:1027C000621F839FA00D611D221F749F3327A00DE0
:1027D000611D231F849F600D211D822F762F6A2F7C
:1027E00011249F5750409AF0F1F088234AF0EE0FE1
:1027F000FF1FBB1F661F771F881F91505040A9F70E
:102800009E3F510580F00C947E160C94C9165F3FD4
:10281000E4F3983ED4F3869577956795B795F79549
:10282000E7959F5FC1F7FE2B880F911D96958795C1
:1028300097F908958F929F92AF92BF92CF92DF92B5
:10284000EF92FF920F931F93CF93DF9300D000D0AE
:1028500000D0CDB7DEB76A01F22EB02E102FFBE309
:10286000AF2EA01608F41BE31F5F012F27E0AE0177
:102870004F5F5F4F0E949315BC018981982F99701B
:10288000913009F44EC09BE2E1FC04C09E2D917092
:10289000E0FC49C05E2D5071E82FE87083FF55C001
:1028A00084E0911101C083E0EF2DE81B8F1508F043
:1028B000E0E0D6018E2F20E25523C9F1992329F0BB
:1028C000D6019C93C60101966C0196012D5F3F4F86
:1028D000E2FE33C08EE4D6018C9391E411969C9372
:1028E000119712968C93D9018E2F90E281112AC0F4
:1028F000E20FF32FF11D10828EEF9FEF29960FB696
:10290000F894DEBF0FBECDBFDF91CF911F910F9125
:10291000FF90EF90DF90CF90BF90AF909F908F90FF
:1029200008959DE2B7CF90E2B5CF2D9381508111EC
:10293000FCCFCE0ED11CE0E0C1CF8EE6D6018C9349
:1029400091E6CCCF9D938150D1CF482F447082FF28
:102950003DC084E0911101C083E08F1510F4EF2D8C
:10296000E81BD6018E2F20E2552309F1992329F087
:10297000D6019C93C60101966C0196012D5F3F4FD5
:10298000E2FE1BC089E4D6018C938EE411968C93F1
:10299000119786E412968C93D9018E2F90E28823AA
:1029A00009F4A6CF9D938150FACF2D9381508111C8
:1029B000FCCFCE0ED11CE0E0D9CF89E6D6018C93B6
:1029C0008EE611968C93119786E6E4CF9B0177FFF4
:1029D00002C030E020E0A1E0B0E0911102C0B0E020
:1029E000A0E0F9013196AE0FBF1F8B2C912CBB20BC
:1029F00009F461C05401EFEFAE1ABE0AAA0DBB1D67
:102A0000FA161B0619F014F04F2D4A1B511188C0FD
:102A1000E3FC59C07601A42FB0E2A1114FC0C40E4F
:102A2000D11C992309F45BC040E0D6011196F60150
:102A300090836D01552309F448C0012F060F9A8138
:102A4000582F507184FF03C0913309F401501016C0
:102A50000CF047C0093008F008E0EEE2FE2E5B0102
:102A6000A01AB10885019194819491082F3F3207F3
:102A700029F4D601FC92F60131966F0162177307B3
:102A800094F1021713077CF5DB01A21BB30BAA24F8
:102A9000A394B12CAC0EBD1EAA0DBB1D11968C913A
:102AA00021503109D601119628153905F4F0F601A7
:102AB00080836D01DBCFB12CA12CA0CFF701B193A6
:102AC0007F01A150AACF9111B0CFD601942F50E32E
:102AD00002C05D9391509111FCCFC40ED11C40E017
:102AE000ACCF01E0BACF80E3DBCF6217730731F4DC
:102AF000963388F4953311F4552369F0F6018083F9
:102B0000FD01842F90E2811108C0A40FB11D1C9219
:102B100090E080E0F3CE81E3F1CF91938150F3CF49
:102B2000911183CF8ACF283008F027E03327DA01CC
:102B3000990F311D87FD916000966105710539F48B
:102B400032602E5F3D9330E32A95E1F708959F3F71
:102B500030F080387105610509F03C5F3C5F3D93C2
:102B6000913008F08068911DDF93CF931F930F93EE
:102B7000FF92EF92192F987F9695E92F969596954B
:102B8000E90FFF27EB50FE4F99273327EE24FF2450
:102B9000A701E70105900894079428F4360FE71E73
:102BA000F81E491F511D660F771F881F991F069435
:102BB000A1F70590079428F4E70EF81E491F561F49
:102BC000C11D770F881F991F661F0694A1F70590F6
:102BD000079428F4F80E491F561FC71FD11D880FF0
:102BE000991F661F771F0694A1F70590079420F49C
:102BF000490F561FC71FD81F990F661F771F881FC1
:102C00000694A9F784911095177041F0D695C79551
:102C100057954795F794E7941A95C1F7EBE9F1E0DA
:102C200068941590159135916591959105907FE285
:102C30007395E118F10A430B560BC90BD009C0F785
:102C4000E10CF11E431F561FC91FD01D7EF47033C7
:102C500011F48A95E6CFE894015030F0080F0AF499
:102C60000027021708F4202F2395022F7A3328F02B
:102C700079E37D932A95E9F710C07D932A9589F62B
:102C8000069497956795379517951794E118F10A6B
:102C9000430B560BC90BD00998F023957E91739581
:102CA0007A3308F070E37C932013B8F77E9170615B
:102CB0007D9330F0839571E37D9370E32A95E1F77E
:102CC0001124EF90FF900F911F91CF91DF919927E1
:102CD00087FD90950895992788270895DC01FC01C8
:102CE000672F71917723E1F7329704C07C916D9340
:102CF00070836291AE17BF07C8F3089597F99F6775
:102D000080E870E060E008959FEF80EC0895002473
:102D10000A941616170618060906089500240A9440
:102D200012161306140605060895092E0394000CC6
:102D300011F4882352F0BB0F40F4BF2B11F460FF55
:102D400004C06F5F7F4F8F4F9F4F089557FD90587E
:102D5000440F551F59F05F3F71F04795880F97FB5F
:102D6000991F61F09F3F79F0879508951216130619
:102D70001406551FF2CF4695F1DF08C01616170648
:102D80001806991FF1CF869571056105089408957D
:102D9000E894BB2766277727CB0197F908950E940F
:102DA000DA16A59F900DB49F900DA49F800D911DE4
:102DB00011240895A29FB001B39FC001A39F700D7D
:102DC000811D1124911DB29F700D811D1124911D33
:102DD00008955058BB27AA270E9401170C949516F6
:102DE0000E94871638F00E948E1620F039F49F3F1B
:102DF00019F426F40C9484160EF4E095E7FB0C9479
:102E00007E16E92F0E94A61658F3BA1762077307B9
:102E10008407950720F079F4A6F50C94C8160EF4F3
:102E2000E0950B2EBA2FA02D0B01B90190010C01DA
:102E3000CA01A0011124FF27591B99F0593F50F4F2
:102E4000503E68F11A16F040A22F232F342F44274A
:102E5000585FF3CF469537952795A795F040539542
:102E6000C9F77EF41F16BA0B620B730B840BBAF012
:102E70009150A1F0FF0FBB1F661F771F881FC2F77D
:102E80000EC0BA0F621F731F841F48F48795779591
:102E90006795B795F7959E3F08F0B0CF9395880F4B
:102EA00008F09927EE0F9795879508950E946A1765
:102EB0000C9495160E948E1658F00E94871640F0CA
:102EC00029F45F3F29F00C947E1651110C94C91619
:102ED0000C9484160E94A61668F39923B1F3552327
:102EE00091F3951B550BBB27AA276217730784071D
:102EF00038F09F5F5F4F220F331F441FAA1FA9F3B3
:102F000035D00E2E3AF0E0E832D091505040E695A0
:102F1000001CCAF72BD0FE2F29D0660F771F881F01
:102F2000BB1F261737074807AB07B0E809F0BB0BF4
:102F3000802DBF01FF2793585F4F3AF09E3F510508
:102F400078F00C947E160C94C9165F3FE4F3983E1B
:102F5000D4F3869577956795B795F7959F5FC9F7F1
:102F6000880F911D9695879597F90895E1E0660F72
:102F7000771F881FBB1F621773078407BA0720F0EB
:102F8000621B730B840BBA0BEE1F88F7E095089554
:102F90000E94AE1688F09F5798F0B92F9927B75125
:102FA000B0F0E1F0660F771F881F991F1AF0BA95ED
:102FB000C9F714C0B13091F00E94C816B1E008956D
:102FC0000C94C816672F782F8827B85F39F0B93F5F
:102FD000CCF3869577956795B395D9F73EF49095A0
:102FE0008095709561957F4F8F4F9F4F08950E94F8
:102FF000891308F48FEF0895A1E21A2EAA1BBB1BB8
:10300000FD010DC0AA1FBB1FEE1FFF1FA217B307B4
:10301000E407F50720F0A21BB30BE40BF50B661FCA
:10302000771F881F991F1A9469F76095709580958E
:1030300090959B01AC01BD01CF010895EE0FFF1FDC
:10304000881F8BBF0790F691E02D19940F931F9363
:10305000CF93DF938230910510F482E090E0E0910D
:10306000E308F091E40830E020E0B0E0A0E0309721
:1030700099F42115310509F44AC0281B390B243075
:103080003105D8F58A819B816115710589F1FB01B4
:1030900093838283FE0111C040815181028113819B
:1030A00048175907E0F04817590799F4109761F04D
:1030B00012960C93129713961C933296CF01DF91C0
:1030C000CF911F910F9108950093E3081093E408A6
:1030D000F4CF2115310551F04217530738F0A901FB
:1030E000DB019A01BD01DF01F801C1CFEF01F9CF8A
:1030F0009093E4088093E308CDCFFE01E20FF31F25
:10310000819391932250310939832883D7CF20911D
:10311000E1083091E208232B41F420910202309122
:1031200003023093E2082093E108209100023091DD
:1031300001022115310541F42DB73EB7409104023B
:1031400050910502241B350BE091E108F091E20853
:10315000E217F307A0F42E1B3F0B2817390778F06E
:10316000AC014E5F5F4F2417350748F04E0F5F1FCD
:103170005093E2084093E108819391939FCFF0E050
:10318000E0E09CCFCF93DF930097E9F0FC0132970A
:1031900013821282A091E308B091E408ED0130E0BF
:1031A00020E01097A1F420813181820F931F20919C
:1031B000E1083091E2082817390709F061C0F0935F
:1031C000E208E093E108DF91CF910895EA01CE177C
:1031D000DF07E8F54A815B819E0141155105B1F792
:1031E000E901FB83EA8349915991C40FD51FEC177C
:1031F000FD0761F4808191810296840F951FE9019A
:1032000099838883828193819B838A83F0E0E0E0C5
:1032100012968D919C9113970097B9F52D913C9141
:103220001197CD010296820F931F2091E1083091F2
:10323000E2082817390739F6309751F51092E4085B
:103240001092E308B093E208A093E108BCCFD383C7
:10325000C28340815181840F951FC817D90761F43B
:103260004E5F5F4F88819981480F591F518340837A
:103270008A819B81938382832115310509F0B0CF28
:10328000F093E408E093E3089ECFFD01DC01C0CF9A
:1032900013821282D7CF4F925F926F927F928F925A
:1032A0009F92AF92BF92CF92DF92EF92FF920F93D5
:1032B0001F93CF93DF938C01009799F4CB01DF919B
:1032C000CF911F910F91FF90EF90DF90CF90BF9023
:1032D000AF909F908F907F906F905F904F900C94E5
:1032E0002618FC01E60FF71F9C0122503109E21756
:1032F000F30708F4AEC0D901CD91DC911197C61740
:10330000D70720F1C530D10578F0CE010497861794
:10331000970750F0C61BD70B2297C193D1936D939B
:103320007C93CF010E94C218C801DF91CF911F91F9
:103330000F91FF90EF90DF90CF90BF90AF909F9054
:103340008F907F906F905F904F9008955B01AC1AC3
:10335000BD0A4C018C0E9D1EA091E308B091E408BB
:10336000512C412CF12CE12C109731F58091E10882
:103370009091E2088815990509F05CC04616570639
:1033800008F058C08091000290910102009741F42A
:103390008DB79EB74091040250910502841B950B96
:1033A000E817F90708F055C0F093E208E093E10848
:1033B000F90171836083B8CF8D919C91119712961A
:1033C0006C90129713967C901397A815B90559F530
:1033D0006C0142E0C40ED11CCA14DB0420F1AC0124
:1033E0004A195B09DA011296159780F0628273829E
:1033F00051834083D9016D937C93E114F10471F002
:10340000D7011396FC93EE9312978ECF22968C0FD2
:103410009D1FF90191838083F301EFCFF093E408BE
:10342000E093E30881CF4816590608F42C017D018A
:10343000D3019ACFCB010E9426187C01009749F056
:10344000AE01B8010E942C1AC8010E94C21887015F
:103450006BCF10E000E068CFFB01DC0102C00190FF
:103460000D9241505040D8F70895FB01DC010190C6
:103470000D920020E1F7089511E0CCEDD1E000E0DD
:1034800006C0802FFE010E941E182196011DCD3D11
:0C349000D10780E00807A9F7F894FFCFEF
:10349C000000E5088000020003000400050006009F
:1034AC000700080009001200130014001500160094
:1034BC00170018001900250026002700280000001E
:1034CC00000018038202AF026503E002BE02D202C2
:1034DC000D0A007B007D004552524F523A20414369
:1034EC004B2077617320616C7265616479206C6F1D
:1034FC0077200A004552524F523A2041434B2065E7
:10350C00787069726564004552524F52206465743C
:10351C00656374656400436F6E6E656374206368E5
:10352C00616E6E656C200020746F2074686520429B
:10353C00555300446973636F6E6E656374206368E2
:10354C00616E6E656C20002066726F6D207468650C
:10355C0020425553006368616E6E656C206F757404
:10356C00206F662072616E6765205B312E2E2E31C6
:10357C00365D200A00535441545553204255533A5A
:10358C0000627573436F6E3053746174757320628F
:10359C0065666F72653A2000627573436F6E3053C7
:1035AC0074617475732061667465723A200062757B
:1035BC0073436F6E31537461747573206265666FFB
:1035CC0072653A2000627573436F6E315374617487
:1035DC0075732061667465723A200053746174656A
:1035EC0020697320616C726561647920636F7272FB
:1035FC0065637400436F6E6E656374206368616EFF
:10360C006E656C0020746F207468652067726F752E
:10361C006E6400446973636F6E6E656374206368D7
:10362C00616E6E656C002066726F6D20746865202B
:10363C0067726F756E640053544154555320474E56
:10364C00443A00676E64436F6E30537461747573E3
:10365C00206265666F72653A2000676E64436F6E18
:10366C00305374617475732061667465723A20000E
:10367C00676E64436F6E3153746174757320626549
:10368C00666F72653A2000676E64436F6E315374D7
:10369C00617475732061667465723A20002E005354
:1036AC00657420766F6C7461676520746F200053AD
:1036BC005441545553204441544120534554564F82
:1036CC004C544147453A00646174613053746174E1
:1036DC007573206265666F72653A2000646174616F
:1036EC00305374617475732061667465723A20008E
:1036FC006461746131537461747573206265666FB3
:10370C0072653A200064617461315374617475732D
:10371C002061667465723A200052454144204F5036
:10372C0045524154494F4E004461746170696E7347
:10373C002061726520636F6E666967757265642CB3
:10374C00206164647265737370696E7320616E645A
:10375C0020636172644164647265737350696E7343
:10376C002061726520636F6E66696775726564208F
:10377C00616E64207772697474656E005265616461
:10378C006C696E6520697320736574204C4F57000B
:10379C0041434B2072656365697665640070696EA0
:1037AC007320617265207265616400526561646C9E
:1037BC00696E6520697320726573657420286C6F5F
:1037CC00772900526561642066696E697368656467
:0437DC00200A0000BF
:00000001FF
